:10000000ECC400001BC5000019C5000017C50000A6
:1000100015C5000013C5000011C500000FC5000084
:100020000DC500000BC5000009C5000007C5000094
:1000300005C5000003C5000001C50000FFC40000A5
:10004000FDC40000FBC40000F9C40000F7C40000B8
:10005000F5C40000F3C40000F1C400000C948D133B
:10006000EDC400000C94D5110C942D12E7C40000CF
:10007000E5C40000E3C40000E1C40000DFC40000E8
:10008000DDC40000DBC40000D9C40000D7C40000F8
:100090000C949F110C941115D1C400000C94D7132B
:1000A000CDC40000CBC40000C9C40000C7C4000018
:1000B000C5C40000C3C40000C1C40000BFC4000028
:1000C000BDC40000BBC40000B9C40000B7C4000038
:1000D000B5C40000B3C40000B1C40000AFC4000048
:1000E000ADC40000DD0DE00DCF0DD30DD90D170E01
:1000F000E40DE80DEE0DF20DF60DFC0D000E040EF4
:10010000170E0A0E0E0E120E43415252494552006E
:10011000424154544C455348495000435255495369
:100120004552005355424D4152494E4500444553B6
:1001300054524F59455200526967687400507573A4
:100140006865640048656C64004C656674005368BB
:1001500069702E6370703A20426567696E6E696ED1
:1001600067206F66205368697020436F6E737472E6
:100170007563746F722E20467265654D656D6F7282
:1001800079203D2000000020002300260029002CBB
:10019000002F0032000001000003010601090100E8
:1001A000000A0B02090C0D0E0807030401000000F1
:1001B000000000000000000000000000000000003F
:1001C00000000000000000000000001211100000FC
:1001D000000000000000000000000000000000001F
:1001E000000000000000002100240027002A002D4C
:1001F000003000330001010000040107010A010181
:100200000210202008081020401020408002010227
:1002100001080402010102040810204080804020EF
:10022000100804020180040201804020100804022A
:1002300001080402010102040810204080010204A8
:10024000081020408000002200250028002B002EEE
:10025000003100340002010000050108010B010516
:10026000050505070508080808020202020A0A082F
:100270000804040404010101010101010103030355
:100280000303030303040707070C0C0C0C0C0C0CF2
:100290000C0202020206060606060606060B0B0BF9
:1002A0000B0B0B0B0B5348495000424154544C4527
:1002B000004C6F776572477269642E6370703A20E4
:1002C000436F6D706C6574656420436F6E737472F8
:1002D000756374696F6E206F66204C6F7765724727
:1002E0007269642E20467265654D656D6F72792066
:1002F0003D20004C6F776572477269642E637070A1
:100300003A20426567696E6E696E6720436F6E734F
:100310007472756374696F6E206F66204C6F7765B9
:1003200072477269642E20467265654D656D6F7205
:1003300079203D200047616D654C6F6769632E63CE
:1003400070703A2052657475726E696E67206672BD
:100350006F6D20676574496E7374616E63652E20DE
:10036000467265654D656D6F7279203D200047616D
:100370006D654C6F6769632E6370703A20456E74CB
:100380006572656420676574496E7374616E636538
:100390002E20467265654D656D6F7279203D200097
:1003A000534849505300504C41434520594F5552F2
:1003B00000436F6E666C69637420636865636B20CD
:1003C00073756365737366756C00436865636B6909
:1003D0006E67207368697020706C6163656D656E0F
:1003E0007420636F6E666C6963747320666F72202D
:1003F0007368697020230047616D654C6F6769639E
:100400002E6370703A20496E6974616C697A696E06
:10041000672053686970204C6F636174696F6E73F5
:100420002E20467265654D656D6F7279203D200006
:100430004E616E6F2E696E6F3A20436F6D706C6502
:1004400074656420436F6E737472756374696F6E44
:10045000206F662047616D654C6F6769632E20468B
:100460007265654D656D6F7279203D20004E616E3D
:100470006F2E696E6F3A20496E697469616C697A92
:10048000656420446973706C61792E2046726565DD
:100490004D656D6F7279203D20004E616E6F2E6943
:1004A0006E6F3A20426567696E6E696E67205365AC
:1004B0007475702E20467265654D656D6F7279207A
:1004C0003D200020544F200020544F200020544F46
:1004D000200020544F200000000000003E5B4F5BD6
:1004E0003E3E6B4F6B3E1C3E7C3E1C183C7E3C18D7
:1004F0001C577D571C1C5E7F5E1C00183C1800FFBB
:10050000E7C3E7FF0018241800FFE7DBE7FF3048E8
:100510003A060E2629792926407F050507407F05E2
:10052000253F5A3CE73C5A7F3E1C1C08081C1C3ED9
:100530007F14227F22145F5F005F5F06097F017FC7
:10054000006689956A606060606094A2FFA294086A
:10055000047E040810207E201008082A1C08081CAD
:100560002A08081E101010100C1E0C1E0C30383EED
:100570003830060E3E0E06000000000000005F004E
:10058000000007000700147F147F14242A7F2A121A
:100590002313086462364956205000080703000000
:1005A0001C2241000041221C002A1C7F1C2A080832
:1005B0003E08080080703000080808080800006045
:1005C000600020100804023E5149453E00427F4031
:1005D0000072494949462141494D331814127F1090
:1005E00027454545393C4A494931412111090736DA
:1005F00049494936464949291E0000140000004077
:100600003400000008142241141414141400412270
:10061000140802015909063E415D594E7C1211121F
:100620007C7F494949363E414141227F4141413E1B
:100630007F494949417F090909013E414151737F81
:100640000808087F00417F41002040413F017F08AA
:100650001422417F404040407F021C027F7F0408FB
:10066000107F3E4141413E7F090909063E4151212B
:100670005E7F09192946264949493203017F010352
:100680003F4040403F1F2040201F3F4038403F63D5
:100690001408146303047804036159494D43007F2F
:1006A0004141410204081020004141417F04020100
:1006B00002044040404040000307080020545478A2
:1006C000407F284444383844444428384444287FF0
:1006D000385454541800087E090218A4A49C787F4A
:1006E0000804047800447D40002040403D007F1015
:1006F00028440000417F40007C047804787C080492
:1007000004783844444438FC182424181824241845
:10071000FC7C08040408485454542404043F442432
:100720003C4040207C1C2040201C3C4030403C444D
:10073000281028444C9090907C4464544C44000809
:100740003641000000770000004136080002010237
:1007500004023C2623263C1EA1A161123A404020FF
:100760007A38545455592155557941225454784278
:10077000215554784020545579400C1E527212393C
:1007800055555559395454545939555454580000F5
:10079000457C410002457D420001457C407D1211AF
:1007A000127DF0282528F07C545545002054547CB7
:1007B000547C0A097F4932494949323A4444443A0F
:1007C000324A4848303A4141217A3A424020780042
:1007D0009DA0A07D3D4242423D3D4040403D3C24E5
:1007E000FF2424487E4943662B2FFC2F2BFF092929
:1007F000F620C0887E090320545479410000447DCE
:10080000413048484A32384040227A007A0A0A7217
:100810007D0D19317D2629292F28262929292630C1
:10082000484D4020380808080808080808382F10E4
:10083000C8ACBA2F102834FA00007B000008142A34
:10084000142222142A14085500550055AA55AA55F9
:10085000AAFF55FF55FF000000FF00101010FF0019
:10086000141414FF001010FF00FF1010F010F0140B
:100870001414FC001414F700FF0000FF00FF141410
:10088000F404FC141417101F10101F101F1414145C
:100890001F00101010F0000000001F101010101F9B
:1008A00010101010F010000000FF101010101010A9
:1008B000101010FF10000000FF140000FF00FF00E8
:1008C000001F10170000FC04F41414171017141460
:1008D000F404F40000FF00F714141414141414F7B3
:1008E00000F7141414171410101F101F141414F40C
:1008F000141010F010F000001F101F0000001F1453
:10090000000000FC140000F010F01010FF10FF14A5
:100910001414FF141010101F00000000F010FFFF4F
:10092000FFFFFFF0F0F0F0F0FFFFFF00000000001D
:10093000FFFF0F0F0F0F0F3844443844FC4A4A4A58
:10094000347E02020606027E027E0263554941633E
:100950003844443C04407E201E2006027E02029958
:10096000A5E7A5991C2A492A1C4C7201724C304AF1
:100970004D4D303048784830BC625A463D3E49497A
:1009800049007E0101017E2A2A2A2A2A44445F4422
:100990004440514A444040444A51400000FF010352
:1009A000E080FF000008086B6B083612362436061C
:1009B0000F090F060000181800000010100030404A
:1009C000FF0101001F01011E00191D1712003C3C10
:1009D0003C3C0000000000006E2011241FBECFEF41
:1009E000D1E2DEBFCDBF00E00CBF16E0A0E0B2E078
:1009F000ECE3F4E400E00BBF02C007900D92A43BCF
:100A0000B107D9F728E0A4EBB6E001C01D92A63CDF
:100A1000B207E1F714E0CDEED4E000E006C0219784
:100A20000109802FFE010E941022CC3ED10780E0F8
:100A30000807A9F70E94691B0C941C22E1CA0F93B6
:100A40001F93DC01ED91FC91048CF58DE02D19953F
:100A50001F910F910895DC01ED91FC910084F185C7
:100A6000E02D19942F923F924F925F926F927F9256
:100A70008F929F92AF92BF92CF92DF92EF92FF92AE
:100A80000F931F93CF93DF9300D000D0CDB7DEB785
:100A90002C017E836D836A015901C801FC82EB82BF
:100AA0004801841A950A97FE03C091948194910895
:100AB00035012D813E81621A730A77FE03C071945D
:100AC00061947108681479045CF43A2D2B2D5C0153
:100AD000832F922F3D812E81DE82CD82C32ED22E96
:100AE000AD81BE81AA16BB065CF43C2D2D2D6C0198
:100AF000832F922F3D812E81BE82AD82A32EB22EF6
:100B000085012D813E81021B130B1C012C183D0811
:100B100037FE03C0319421943108780117FF03C0D8
:100B20003FEFE31AF30AF594E794C816D9062CF0C0
:100B30008FEF9FEF9A83898304C0A1E0B0E0BA836E
:100B4000A9832D813E81A216B30624F1D201ED9135
:100B5000FC910484F585E02D2B813C816814790497
:100B600024F44D815E81B60103C0A6016D817E81B2
:100B7000C2011995E218F308F7FE06C029813A81EF
:100B8000C20ED31EE00EF11E8D819E8101969E83C2
:100B90008D83D7CF26960FB6F894DEBF0FBECDBF9C
:100BA000DF91CF911F910F91FF90EF90DF90CF9049
:100BB000BF90AF909F908F907F906F905F904F907D
:100BC0003F902F9008950F931F93CF93DF93DC01F5
:100BD00055968C915597823071F0833009F18130B0
:100BE00009F08CC01496ED91FC911597E41BF50B60
:100BF000E21BF30B20C01496ED91FC911597CF01E9
:100C0000861B970BBC01615071091696ED91FC9102
:100C10001797CF01841B950BAC01421B530B6EC081
:100C20001696ED91FC911797CF01861B970BBC018F
:100C300061507109FA0177FD1BC116968D919C9147
:100C40001797681779070CF013C1F7FF04C02E0F30
:100C50003F1FE0E0F0E014968D919C911597AF0155
:100C6000420F531F841795071CF49C012E1B3F0B4A
:100C7000121613060CF0FCC0CB0177FD079643E07B
:100C8000959587954A95E1F79695982F882797959A
:100C90008795E80FF91FE050FE4F6770772781E0D6
:100CA00090E001C0880F6A95EAF7482F01301105DE
:100CB00041F088F00230110509F0DAC02E0F3F1F15
:100CC00015C02E0F3F1FE217F30709F4D1C0808132
:100CD000842B8193F8CF80952E0F3F1FE217F307E7
:100CE00009F4C6C0908198239193F8CFE217F307D7
:100CF00009F4BEC0808184278193F8CF77FDB8C006
:100D000014968D919C911597681779070CF0B0C0D7
:100D100057FF04C0240F351F40E050E016968D9118
:100D20009C911797FA01E20FF31F8E179F071CF48F
:100D30009C01241B350B121613060CF099C0A22F30
:100D4000842F86958695869590E8899F600D711D04
:100D50001124FB01E050FE4F4770A9F198E0941B6D
:100D6000492F50E0EA01C65CD94F8881291790F4D9
:100D7000421B51092FEF30E002C0359527954A9567
:100D8000E2F782230130110541F068F002301105CD
:100D900089F06EC00130110519F42081822B0CC03E
:100DA0000130110520F480952081822305C0023096
:100DB000110531F4208182278083A91708F458C0D7
:100DC000A91BE058FF4FA83048F10230110559F433
:100DD000EF018A2F988190959883C058DF4F8850F3
:100DE0008830C0F730C081E00130110509F080E0A3
:100DF0008195EF019A2F8883C058DF4F9850983023
:100E0000D0F788EF8A0F86958695869590E8899F1A
:100E1000E00DF11D1124E058FF4FA770AA2341F106
:100E2000B0E0AE5CB94F8C910130110529F038F07B
:100E300002301105E9F419C09081892B18C0809502
:100E40009081892314C088EF8A0F869586958695B0
:100E500090E8899FE00DF11D1124E058FF4FA77025
:100E600039F0B0E0AE5CB94F8C91908189278083D6
:100E7000DF91CF911F910F9108950F931F93CF93FF
:100E8000DF93DC01FB0155968C915597823089F0F8
:100E9000833021F1813009F0E7C014968D919C9147
:100EA0001597BC01641B750BAB0141505109BF0183
:100EB0001DC014966D917C911597CB018E1B9F0BD5
:100EC000FC0116968D919C911797BC01641B750BC4
:100ED000AB0141505109E21BF30BC6C016966D9150
:100EE0007C9117976E1B7F0B621B730B57FD1BC109
:100EF00014968D919C911597481759070CF013C1C2
:100F000077FF04C0260F371F60E070E016968D91C2
:100F10009C911797FB01E20FF31F8E179F071CF49C
:100F20009C01261B370B121613060CF0FCC0A22FD7
:100F3000862F86958695869590E8899F400D511D50
:100F40001124FA01E050FE4F6770A9F198E0961B5A
:100F5000492F50E0EA01C65CD94F8881291790F4E7
:100F6000421B51092FEF30E002C0359527954A9575
:100F7000E2F782230130110541F068F002301105DB
:100F800089F0D1C00130110519F42081822B0CC0E9
:100F90000130110520F480952081822305C00230A4
:100FA000110531F4208182278083A91708F4BBC082
:100FB000A91BE058FF4FA83048F10230110559F441
:100FC000EF018A2F988190959883C058DF4F885001
:100FD0008830C0F733C081E00130110509F080E0AE
:100FE0008195EF019A2F8883C058DF4F9850983031
:100FF000D0F788EF8A0F86958695869560E8869F5C
:10100000E00DF11D1124E058FF4FA770AA2309F449
:101010008AC0B0E0AE5CB94F8C910130110531F05F
:1010200040F00230110509F07EC01BC09081892B71
:1010300003C0809590818923808375C088EF8A0FD3
:1010400086958695869570E8879FE00DF11D1124A1
:10105000E058FF4FA77009F466C0B0E0AE5CB94F2E
:101060008C9190818927E8CF57FD5DC016968D91B0
:101070009C911797481759070CF055C0F7FF04C00B
:101080002E0F3F1FE0E0F0E014968D919C91159794
:10109000BF01620F731F861797071CF49C012E1B5C
:1010A0003F0B121613060CF03EC0CA0157FD0796FF
:1010B00063E0959587956A95E1F79695982F88272F
:1010C00097958795E80FF91FE050FE4F4770552719
:1010D00081E090E001C0880F4A95EAF7482F01307F
:1010E000110539F078F002301105E9F42E0F3F1F99
:1010F00013C02E0F3F1FE217F307A9F08081842B46
:101100008193F9CF80952E0F3F1FE217F30759F017
:10111000908198239193F9CFE217F30721F0808112
:1011200084278193F9CFDF91CF911F910F9108957B
:10113000FC0177FD9AC080859185681779070CF0CE
:1011400094C057FD92C082859385481759070CF0CB
:101150008CC08589823009F07CC084819581DC0156
:10116000A61BB70BBD016150710986819781FC01F7
:10117000E41BF50BAF01415051090AC0813041F425
:1011800084819581841B950BAB01BC016150710971
:101190002130310529F008F122303105E1F10895BF
:1011A000FA0157FD3796A3E0F595E795AA95E1F783
:1011B000F695FE2FEE27F795E7956E0F7F1FFB0143
:1011C000E050FE4F4770552781E090E001C0880F46
:1011D0004A95EAF79081892B3AC0FA0157FD379674
:1011E00023E0F595E7952A95E1F7F695FE2FEE2792
:1011F000F795E7956E0F7F1FFB01E050FE4F47709C
:10120000552781E090E001C0880F4A95EAF7809564
:10121000908189231CC0FA0157FD379683E0F5952C
:10122000E7958A95E1F7F695FE2FEE27F795E79576
:101230006E0F7F1FFB01E050FE4F4770552781E086
:1012400090E001C0880F4A95EAF790818927808352
:101250000895833009F092CF86819781861B970B82
:10126000BA01AC014150510993CF0895089580E02F
:1012700090E008951F93CF93DF93EC01162F8C8D90
:101280008F3F09F1EEA1FFA190818CA5892B80836E
:10129000E8A5F9A590818DA5809589238083EEA18D
:1012A000FFA190818CA5809589238083CE010E9427
:1012B000D715EEA1FFA190818CA5892B8083DF91AA
:1012C000CF911F9108958A8D91E090935807809354
:1012D0007A071092590710927B0760E086EB98E03E
:1012E00058D5612F86EB98E054D5DF91CF911F91AF
:1012F0000C947B15CF93DF931F921F92CDB7DEB76F
:101300002091C2083091C308CE0101962115310504
:1013100019F4865C984018C0AC01421B530BE09155
:10132000C408F091C50880E090E0309759F09C0126
:101330002E5F3F4F80819181820F931F0280F38146
:10134000E02DF3CF840F951F9A83898389819A8139
:101350000F900F90DF91CF910895FC01208584813B
:101360009581222311F0960F0895860F08950F930B
:101370001F93CF93DF93EC018B0118866EE471E02D
:1013800089E198E00E94BC18B5DF0E9486196CE2E2
:1013900071E080E090E00E945513198308830230C9
:1013A000110599F040F40115110569F0013011059E
:1013B00071F484E00BC00330110539F004301105DD
:1013C00031F482E003C085E001C083E08A839A8122
:1013D0009B8381E08C838D839E838F83DF91CF916C
:1013E0001F910F910895CF93DF93D62FCFEFC50FA5
:1013F0006FEF640F8CE797E00E9456126C2F8CE71A
:1014000097E00E9456126D2F8CE797E00E945612CB
:10141000CAE08CE797E04CD38D9751F061E070E023
:1014200080E090E00E945513C15099F780E001C020
:1014300081E0DF91CF910895EF92FF920F931F9378
:10144000CF937C018B01C0E0F8018281C81780F442
:101450006C2FC80182DFAC0164E070E0C701C3DF1C
:1014600064E170E080E090E00E945513CF5FECCF24
:10147000CF911F910F91FF90EF900895EF92FF92FF
:101480000F931F93CF937C018B01C0E0F801828101
:10149000C81780F46C2FC80160DFAC0163E070E016
:1014A000C701A1DF64E170E080E090E00E94551385
:1014B000CF5FECCFCF911F910F91FF90EF900895E8
:1014C0008091B4069091B506892B91F58EE290E05B
:1014D0000E94CD20FC011382128220E830E0358387
:1014E000248380E490E097838683318720879387E5
:1014F0008287158A158614861786168681E0848B66
:101500002FEF3FEF338B228B318B208B868B178A0B
:10151000118E108E8AE096E0918380838FEF848F06
:1015200080A3868F858F878FF093B506E093B406EE
:101530008091B4069091B50608952F923F924F92F4
:101540005F926F927F928F929F92AF92BF92CF9253
:10155000DF92EF92FF920F931F93CF93DF93CDB75C
:10156000DEB72B970FB6F894DEBF0FBECDBF5C0180
:101570008B013A01A5DF7C018091B6069091B706F8
:10158000892BF1F483E090E00E94CD204C0187E3A9
:10159000F401808388E3818389E3828360E087E3C9
:1015A0000E94191360E0F40181810E94191360E028
:1015B000F40182810E9419139092B7068092B606B8
:1015C0008090B6069090B70689E0F801DE0111968A
:1015D00001900D928A95E1F7BE016F5F7F4FC501C3
:1015E0004DDF84E090E09B878A87F80180819181BC
:1015F0008230910509F44CC0D0F40097A1F1019715
:1016000009F07BC0F801248035804680578062E075
:10161000C7010E94A61884E090E0F70195878487AF
:101620008EE090E09787868760E171E05AC0833052
:10163000910509F442C0049709F05FC0F8012480C5
:1016400035804680578062E0C7010E94A6188AE074
:1016500090E0F701958784878EE090E097878687F2
:101660006DE271E03EC0F8012480358046805780ED
:1016700062E0C7010E94A61886E190E0F701958715
:1016800084878EE090E09787868768E071E029C0C4
:10169000F801248035804680578062E0C7010E94AF
:1016A000A61886E190E0F701958784878EE090E0A8
:1016B000978786876BE171E014C0F801248035803C
:1016C0004680578062E0C7010E94A6188AE090E039
:1016D000F701958784878EE090E09787868763E29D
:1016E00071E0C7010E94BC189301A201B101C701BA
:1016F0000E949719C7010E940416F401808143D704
:10170000892B89F4F40181813ED7892B61F4F4019E
:10171000828139D7892B39F4E4E0F0E0FB87EA874E
:10172000CA84DB8462CFF40180812DD7019729F42C
:10173000F401818128D7892B31F0F401808123D7EE
:10174000892B61F526C0F40182811DD7892BA9F769
:101750008A859B85049789F7F401808114D70197C6
:1017600031F46AE070E080E090E09FD7F5CF89E443
:1017700091E00E94F51889E0F801DE0111960190D0
:101780000D928A95E1F7BE016F5F7F4FC50154DE70
:10179000D0C0F4018181F7D6019739F0F40180813E
:1017A000F2D6892B09F083C057C0F4018281EBD6B1
:1017B000892BA1F78A859B85049781F78FB7F894C9
:1017C0002090B8063090B9064090BA065090BB06FB
:1017D0008FBFF4018181D7D6019731F46AE070E0C0
:1017E00080E090E062D7F5CF2FB7F8948091B806EB
:1017F0009091B906A091BA06B091BB062FBF82198D
:101800009309A409B509843F9140A105B10590F061
:1018100084E491E00E94F51889E0F801DE01119658
:1018200001900D928A95E1F7BE016F5F7F4FC50170
:1018300003DEF3C08DE391E00E94F51889E0F80122
:10184000DE01119601900D928A95E1F7BE016F5F5E
:101850007F4FC501F1DD41C0F401818194D6892B10
:1018600031F5F40182818FD6019709F58A859B8530
:101870000497E9F4F401828186D6019731F46AE095
:1018800070E080E090E011D7F5CF87E391E00E940F
:10189000F51889E0F801DE01119601900D928A9504
:1018A000E1F7BE016F5F7F4FC501C6DD77C0F4E091
:1018B000CF16D10409F430CF89E0F801DE0111968A
:1018C00001900D928A95E1F7BE016F5F7F4FC501D0
:1018D000B3DDF1E0CF16D10449F5F80120859781F9
:1018E0008681222379F04581941B292F30E0280F2F
:1018F000311D2B303105B4F48481980F96834783D2
:10190000108610C0F8014481841B282F30E0290F75
:10191000311D2B30310534F49581890F878346833F
:1019200021E02087CC24C394D12CA3C0C114D104BE
:1019300089F589E0F801DE01119601900D928A95F2
:10194000E1F7BE016F5F7F4FC50176DD6114710461
:1019500071F4F8018681282F30E02A3031050CF02F
:1019600082C094819F5F94838F5F86837CC0F1E007
:101970006F16710409F077C0F8018781282F30E0D5
:101980002A3031050CF06FC095819F5F95838F5F82
:10199000878369C0F2E0CF16D104D9F589E0F80158
:1019A000DE01119601900D928A95E1F7BE016F5FFD
:1019B0007F4FC50141DD61147104A1F4F8019481E8
:1019C000292F30E0223031050CF450C08681282FB9
:1019D00030E02C3031050CF049C091509483815097
:1019E000868344C0F1E06F16710409F03FC0F8012E
:1019F0009581292F30E022303105C4F18781282FCD
:101A000030E02C30310594F59150958381508783D7
:101A10002DC0F3E0CF16D10461F589E0F801DE01B5
:101A2000119601900D928A95E1F7BE016F5F7F4F8D
:101A3000C50102DD2B960FB6F894DEBF0FBECDBFF9
:101A4000DF91CF911F910F91FF90EF90DF90CF909A
:101A5000BF90AF909F908F907F906F905F904F90CE
:101A60003F902F900895C12CD12C03C082E0C82E46
:101A7000D12C89E0F801DE01119601900D928A9532
:101A8000E1F7BE016F5F7F4FC501F8DCDB86CA86D8
:101A900047CEFC01538D448D252F30E0842F90E0FC
:101AA000821B930B541710F0CF9608950197089559
:101AB000FC01918D828D981761F0828DDF01A80F56
:101AC000B11D5D968C91928D9F5F9F73928F90E078
:101AD00008958FEF9FEF0895FC01918D828D9817E7
:101AE00031F0828DE80FF11D858D90E008958FEF24
:101AF0009FEF0895FC01918D228D892F90E0805CED
:101B00009F4F821B91098F739927089589E198E06F
:101B1000F1DF21E0892B09F420E0822F089580E095
:101B200090E0892B19F0F2DF811120C080E090E075
:101B3000892B19F06DD781111CC080E090E0892BB2
:101B400041F080E090E0892B21F00E94000081119B
:101B500013C080E090E0892BA1F080E090E0892B19
:101B600081F00E94000081110AC008950E940000C7
:101B7000DDCF0E940000E1CF0E940000EACF0C946C
:101B80000000089590E0FC013197E231F10508F082
:101B90004EC08827EE58FF4F8F4F0C941022809133
:101BA00080008F7703C0809180008F7D80938000BC
:101BB000089580918000877FF9CF84B58F7702C028
:101BC00084B58F7D84BD08958091B0008F7703C068
:101BD0008091B0008F7D8093B00008958091900037
:101BE0008F7707C0809190008F7D03C08091900017
:101BF000877F8093900008958091A0008F7707C021
:101C00008091A0008F7D03C08091A000877F80938A
:101C1000A0000895809120018F7707C08091200156
:101C20008F7D03C080912001877F809320010895DC
:101C30003FB7F8948091200790912107A091220747
:101C4000B091230726B5A89B05C02F3F19F0019638
:101C5000A11DB11D3FBFBA2FA92F982F8827820F32
:101C6000911DA11DB11DBC01CD0142E0660F771F82
:101C7000881F991F4A95D1F7089585ED8093BC0080
:101C80008091BC0084FDFCCF1092570708954091CD
:101C9000FC06262F30E0240F311D21323105DCF403
:101CA000209157072430C9F4FC0180E090E08617AA
:101CB00058F43091FC062191DC01A452B94FA30FD6
:101CC000B11D2C930196F3CF8091FC06680F6093B1
:101CD000FC0680E0089581E0089582E0089508956B
:101CE00008950895E091290780912807E81730F4B6
:101CF000F0E0E454F94F808190E008958FEF9FEF7A
:101D000008959091290780912807981750F4E92F9A
:101D1000F0E0E454F94F208130E09F5F9093290771
:101D200002C02FEF3FEFC90108958091280790E08E
:101D300020912907821B91090895CF92DF92EF929B
:101D4000FF920F931F93CF93DF937C01CB018A0106
:101D500020915807222389F0EB016B01C40ED51E98
:101D6000CC15DD0561F06991D701ED91FC910190F1
:101D7000F081E02DC7011995F3CF642F88DFC801EA
:101D8000DF91CF911F910F91FF90EF90DF90CF9057
:101D90000895CF93DF931F92CDB7DEB7698320916B
:101DA00058072223D1F020917B07203240F021E018
:101DB00030E0FC013383228380E090E014C0809106
:101DC0005907E82FF0E0E65AF84F998190838F5F2A
:101DD0008093590780937B0704C061E0CE01019690
:101DE00056DF81E090E00F90DF91CF910895089544
:101DF000FC016370658B8481958126813781613018
:101E000039F0633029F091878087338722870895DE
:101E1000318720879387828708956F927F928F9270
:101E20009F92AF92BF92CF92DF92EF92FF920F9369
:101E30001F93CF93DF93EC014B015A0169013801E5
:101E4000E881F9810284F385E02D1995E881F98113
:101E50000288F389E02D87019601A501B401CE0126
:101E60001995A501460D571D41505109E881F98189
:101E70000288F389E02D9601B401CE011995E8811D
:101E8000F9810088F189E02D9301A501B401CE010B
:101E90001995C80CD91CB60161507109E881F98106
:101EA0000088F189E02D9301A501CE011995E88103
:101EB000F9810688F789E02DCE01DF91CF911F913E
:101EC0000F91FF90EF90DF90CF90BF90AF909F90D9
:101ED0008F907F906F9019948F929F92AF92BF9244
:101EE000CF92DF92EF92FF920F931F93CF93DF93E6
:101EF0004C016B015A01E901DC01ED91FC91621783
:101F0000730781F40417150724F48B2D5801042F4F
:101F1000182F0A191B0998012F5F3F4F048CF58D6C
:101F2000E02D12C04017510709F52617370724F492
:101F30008D2D6901C62FD82F9E012C193D092F5FC9
:101F40003F4F068CF78DE02D8701A501B601C40136
:101F50001995DF91CF911F910F91FF90EF90DF9036
:101F6000CF90BF90AF909F908F9008950284F3859B
:101F7000E02D1995D401ED91FC910488F589E02DAF
:101F80009E01A501B601C4011995D401ED91FC9102
:101F90000688F789E02DC401DF91CF911F910F9141
:101FA000FF90EF90DF90CF90BF90AF909F908F9079
:101FB0001994EF92FF920F931F93DC011A960D91E3
:101FC0001C911B9718962D913C911997ED91FC91BE
:101FD00000A0F1A1E02D7B0140E050E060E070E066
:101FE00019951F910F91FF90EF9008954F925F9276
:101FF0006F927F928F929F92AF92BF92CF92DF9219
:10200000EF92FF920F931F93CF93DF936C012B01FD
:102010005A0139014801DC01ED91FC910284F385FC
:10202000E02D1995E201640C751CD601ED91FC912F
:10203000C615D7055CF40088F189E02D870194016D
:10204000A501BE01C60119952196EFCF0688F78933
:10205000E02DC601DF91CF911F910F91FF90EF907E
:10206000DF90CF90BF90AF909F908F907F906F90B8
:102070005F904F9019948F929F92AF92BF92CF92A0
:10208000DF92EF92FF920F931F93CF93DF93EC01B8
:102090005B014A016901E881F9810284F385E02D41
:1020A000199595012C0D3D1D21503109E881F981CB
:1020B0000488F589E02D78018401A401B501CE01E1
:1020C0001995E881F9810688F789E02DCE01DF9125
:1020D000CF911F910F91FF90EF90DF90CF90BF9025
:1020E000AF909F908F9019948F929F92AF92BF92D2
:1020F000CF92DF92EF92FF920F931F93CF93DF93D4
:10210000EC015B014A0169017801E881F9810284EF
:10211000F385E02D1995C80CD91C860101501109D1
:10212000E881F9810488F589E02D9501A401B501C4
:10213000CE011995E881F9810688F789E02DCE0155
:10214000DF91CF911F910F91FF90EF90DF90CF9093
:10215000BF90AF909F908F901994EF92FF920F9342
:102160001F93DC01ED91FC9100A0F1A1E02D1995E8
:102170001F910F91FF90EF9008950F931F93DC0133
:10218000ED91FC91068CF78DE02D19951F910F9123
:1021900008950E941822AF92BF92CF92EF92FF92C1
:1021A0000F931F93CF93DF93EC01262F888D998D8A
:1021B000009709F03FC06A3059F41D861C862C89AF
:1021C0008E859F8538E0239F800D911D112440C08E
:1021D0006D3009F4A8C08E898823C1F03C898C85B4
:1021E0009D8546E0349F800D911D112448855985B9
:1021F000481759075CF41D861C868E859F8548E02C
:10220000349F800D911D11249F878E87EA88FB885B
:10221000088919894E855F856C857D85CC88CE01BE
:102220007BD52C898C859D8536E0239F800D911D63
:10223000112442C06A3079F41D861C862C89FC0169
:102240003696E4918E859F852E9F800D911D1124D9
:102250009F878E8768C06D3009F465C0FC01349695
:102260003491631708F45FC03196E491E61708F4DF
:102270005AC0FC01329665917491422F50E0431B85
:10228000510937E0349F5001359FB00C1124A60E40
:10229000B71EF501329634913196E491332311F053
:1022A000E1110DC0F5013496E4912C898C859D8552
:1022B000E29F800D911D11249D878C8734C0F5010C
:1022C000359644915E89552311F16C89E32FF0E036
:1022D000E40FF11D47FDFA956E9FD0016F9FB00D81
:1022E00011244C855D854A0F5B1FE885F985E4174D
:1022F000F5076CF41D861C86FC013696E4918E85EC
:102300009F856E9F800D911D11249F878E87EA887F
:10231000FB88088919894E855F856C857D85CC8809
:10232000CE01FAD4BFCF81E090E0DF91CF911F9131
:102330000F91FF90EF90CF90BF90AF9008951F92B4
:102340000F920FB60F9211240BB60F922F938F930B
:102350009F93EF93FF93E0918C07F0918D0780811D
:10236000E0919207F091930782FD12C090818091D5
:1023700095078F5F8F7320919607821751F0E09138
:102380009507F0E0E458F84F958F8093950701C0CA
:102390008081FF91EF919F918F912F910F900BBEB4
:1023A0000F900FBE0F901F9018951F920F920FB6AF
:1023B0000F9211240BB60F922F938F939F93EF934D
:1023C000FF93E0912908F0912A088081E0912F087D
:1023D000F091300882FD12C09081809132088F5FA9
:1023E0008F7320913308821751F0E0913208F0E0AA
:1023F000E75EF74F958F8093320801C08081FF918F
:10240000EF919F918F912F910F900BBE0F900FBE68
:102410000F901F901895FC01848DDF01A80FB11D4E
:10242000A35ABF4F2C91848D90E001968F7399270A
:10243000848FA689B7892C93A089B1898C918370E8
:1024400080648C93938D848D981306C00288F389E1
:10245000E02D80818F7D808308951F920F920FB6AB
:102460000F9211240BB60F922F933F934F935F93CC
:102470006F937F938F939F93AF93BF93EF93FF934C
:1024800089E198E0C8DFFF91EF91BF91AF919F91F3
:102490008F917F916F915F914F913F912F910F900D
:1024A0000BBE0F900FBE0F901F901895EF92FF92EA
:1024B0000F931F93CF93DF93EC0181E0888F9B8D67
:1024C0008C8D981305C0E889F989808185FD25C028
:1024D000F62E0B8D10E00F5F1F4F0F731127E02EAC
:1024E0008C8DE8120BC00FB607FCFACFE889F9898A
:1024F000808185FFF5CFCE018EDFF2CF8B8DFE017F
:10250000E80FF11DE35AFF4FF0829FB7F8940B8F4D
:10251000EA89FB89808180620AC09FB7F894EE89BE
:10252000FF896083E889F989808183708064808372
:102530009FBF81E090E0DF91CF911F910F91FF90BD
:10254000EF900895CF93DF93EC01888D8823C1F03D
:10255000EA89FB89808185FD05C0A889B9898C91AC
:1025600086FD0EC00FB607FCF5CF808185FFF2CF48
:10257000A889B9898C9185FFEDCFCE014CDFE8CFDA
:10258000DF91CF910895CF93DF93282F30E0F901A9
:10259000E156FE4F8491F901E150FE4FD491F901CB
:1025A000E15AFD4FC491CC2389F08111EBDAEC2F75
:1025B000F0E0EE0FFF1FEB57FE4FA591B491EC91A9
:1025C000ED2381E090E021F480E002C080E090E023
:1025D000DF91CF9108951F93CF93DF93282F30E0A1
:1025E000F901E156FE4F8491F901E150FE4FD4917B
:1025F000F901E15AFD4FC491CC23B9F0162F811196
:10260000C1DAEC2FF0E0EE0FFF1FEB5BFD4FA59161
:10261000B4919FB7F894111104C08C91D095D82330
:1026200002C0EC91DE2BDC939FBFDF91CF911F9115
:102630000895CF93DF9390E0FC01E150FE4F249189
:10264000FC01E15AFD4F8491882361F190E0880FED
:10265000991FFC01EB51FE4FC591D491FC01EB5B3E
:10266000FD4FA591B491611109C09FB7F89488817D
:10267000209582238883EC912E230BC0623061F475
:102680009FB7F8948881322F309583238883EC910B
:102690002E2B2C939FBF06C08FB7F894E8812E2B6A
:1026A00028838FBFDF91CF9108958F929F92AF9231
:1026B000BF92CF92DF92EF92FF926B017C01B8DA6A
:1026C0004B015C01C114D104E104F104E9F0B0DA7A
:1026D000DC01CB0188199909AA09BB09883E9340FE
:1026E000A105B10578F321E0C21AD108E108F1088B
:1026F00088EE880E83E0981EA11CB11CC114D10481
:10270000E104F10421F7DECFFF90EF90DF90CF904E
:10271000BF90AF909F908F9008951F920F920FB629
:102720000F9211242F933F938F939F93AF93BF9357
:102730008091B8069091B906A091BA06B091BB06F7
:1027400030911F0723E0230F2D3720F40196A11DA0
:10275000B11D05C026E8230F0296A11DB11D2093CF
:102760001F078093B8069093B906A093BA06B0935A
:10277000BB068091200790912107A0912207B0917C
:1027800023070196A11DB11D809320079093210777
:10279000A0932207B0932307BF91AF919F918F9190
:1027A0003F912F910F900FBE0F901F9018951F9281
:1027B0000F920FB60F9211240BB60F922F933F93E7
:1027C0004F935F936F937F938F939F93AF93BF9339
:1027D000EF93FF938091B900887F803609F49CC005
:1027E00068F5883209F45BC090F4803109F454C074
:1027F00038F4882309F4F6C0883009F44DC0F5C0D8
:10280000883109F44CC0803209F45DC0EEC08034D8
:1028100009F468C048F4803309F455C0883309F0DE
:10282000E4C080935507D8C0803509F44FC088357F
:1028300009F45DC0883409F0D8C0D6C0883909F4DD
:10284000C7C0A8F4883709F467C038F4883609F49B
:1028500063C0803709F460C0C8C0883809F4B8C0C4
:10286000803909F45FC0803809F0BFC05BC0803B8D
:1028700009F486C038F4803A09F466C0883A09F44D
:102880007FC0B3C0803C09F4A7C0883C09F4A4C051
:10289000883B09F48AC0A9C08091320710C090918A
:1028A000540780915307981770F5E091540781E021
:1028B0008E0F80935407F0E0ED5CF84F8081809399
:1028C000BB0085EC86C0809355078EC0E09154070D
:1028D00081E08E0F809354078091BB00F0E0ED5CA7
:1028E000F84F808390915407809153076EC0E09118
:1028F000540781E08E0F809354078091BB00F0E075
:10290000ED5CF84F80838091560781116DC081E0A6
:102910008093310784EA61C083E080935707109267
:102920001E07CFCF80911E07803208F051C0E09182
:102930001E0781E08E0F80931E078091BB00F0E0A0
:10294000E250F94F8083BDCF85EC8093BC0010929C
:10295000570780911E07803230F4E0911E07F0E0A7
:10296000E250F94F108260911E0770E0E091240759
:10297000F09125078EEF96E0199510921E0735C04D
:1029800084E0809357071092FD061092FC06E091B8
:102990002607F091270719958091FC06811105C043
:1029A00081E08093FC061092DC06E091FD0681E058
:1029B0008E0F8093FD06F0E0E452F94F8081809302
:1029C000BB009091FD068091FC06981708F479CF22
:1029D00085E88093BC0009C085EC8093BC00109210
:1029E000570703C01092550748D9FF91EF91BF9147
:1029F000AF919F918F917F916F915F914F913F9197
:102A00002F910F900BBE0F900FBE0F901F90189537
:102A10008CE797E06FD821E0892B09F420E0822F22
:102A200008951F920F920FB60F9211240BB60F92BA
:102A30002F933F934F935F936F937F938F939F93C6
:102A4000AF93BF93EF93FF938CE797E0E4DCFF91A4
:102A5000EF91BF91AF919F918F917F916F915F9116
:102A60004F913F912F910F900BBE0F900FBE0F9083
:102A70001F901895CF92DF92EF92FF920F931F93C2
:102A8000CF93DF936C017A018B01C0E0D0E0CE15CB
:102A9000DF0581F0D8016D918D01D601ED91FC919A
:102AA0000190F081E02DC6011995892B11F0219636
:102AB000EECF7E01C701DF91CF911F910F91FF9063
:102AC000EF90DF90CF9008954FEF460F5FEF570FD5
:102AD0002AE0429FF0011124E50FF11DEE0FFF1FC8
:102AE000E80FF91F23E030E03183208363E070E0DA
:102AF0000C94F309089530917B07313208F04BC0F4
:102B0000809157078111FCCF90917A0722E02093A2
:102B1000570721E0209356072FEF20935507109277
:102B2000540730935307EAE5F7E0A3E3B7E020E06A
:102B3000321721F041914D932F5FFACF1092320757
:102B400020913207990F922B909332079091310781
:102B5000913061F410923107909132079093BB004D
:102B60009091BC0093FDF8CF95EC01C095EE909349
:102B7000BC00909157079230E1F3909155079F3F29
:102B800079F080915507803241F08091550780336C
:102B900031F084E005C081E003C082E001C083E041
:102BA0001092590710927B07109258070895FC0164
:102BB00081A1882339F06EBD00000DB407FEFDCF62
:102BC0008EB5089528E030E090E8A4A1B5A14C911D
:102BD00083A5809584238C93A2A1B3A182A5462FBF
:102BE000492319F04C91842B03C04C918095842388
:102BF0008C93A4A1B5A14C9183A5842B8C9396951D
:102C00002150310911F708959F92AF92BF92CF9250
:102C1000DF92EF92FF920F931F93CF93DF93EC011C
:102C200061E20E943A0960E0CE010E943A096FE732
:102C3000CE010E943A0962E2CE010E943A0960E0A8
:102C4000CE010E943A0967E0CE010E943A098C8DBC
:102C50008F3F41F1EEA1FFA190818CA5892B80834C
:102C6000E8A5F9A590818DA5892B8083EEA1FFA110
:102C700090818CA580958923808300E012E020E07C
:102C8000E22E26E0F22EF80161918F01CE018FDF56
:102C9000E016F106C1F7EEA1FFA190818CA5892B6A
:102CA00080832EC0E090B8008CE08093B80000E0F4
:102CB00012E090E0A92E96E0B92E992493948A8D83
:102CC0009092580780937A071092590710927B07C9
:102CD00060E486EB98E05DD8680180E1F82EF601AB
:102CE00061916F0186EB98E054D8FA94F110F7CF18
:102CF00002DF005F1F4FA016B10609F7E092B8008F
:102D0000DF91CF911F910F91FF90EF90DF90CF90C7
:102D1000BF90AF909F9008952F923F924F925F92F5
:102D20006F927F928F929F92AF92BF92CF92DF92DB
:102D3000EF92FF920F931F93CF93DF93CDB7DEB740
:102D40006B970FB6F894DEBF0FBECDBF9B8F8A8FF7
:102D50005B011A01D22E1F830E833701C982DC0169
:102D600058962D913C9159972115310509F0E6C0EF
:102D700018968D919C911997681779070CF0CDC121
:102D80001A968D919C911B97481759070CF0C5C155
:102D90008C2C912CFB0126E0C29EE00DF11D11242C
:102DA000FB87EA871E161F060CF0B7C1A40183E05B
:102DB000440F551F8A95E1F75D874C87CA01820D44
:102DC000931D181619060CF0A8C157968C91811105
:102DD00004C05FEA5D1508F4D394AA8DBB8DED9114
:102DE000FC9111970284F385E02DCD011995B5E092
:102DF000DB9EC0011124F5013596FF87EE87BB826B
:102E0000AA8225019C012A193B09398B288BA10133
:102E1000485F5F4F5B8B4A8BE889F989E40DF51DAC
:102E2000E952FB4F5491588761013D822C8288857D
:102E300080FF13C0AA8DBB8DED91FC91B981B1309B
:102E400031F40484F585E02D2E813F8116C006847F
:102E5000F785E02DEE80FF801AC0EE81FF81E61538
:102E6000F705F1F0AA8DBB8DED91FC91B981B130E0
:102E700051F40484F585E02D9301A601B2018A8DF9
:102E80009B8D19950DC00684F785E02D7301840193
:102E900094014C815D816A817B818A8D9B8D19951E
:102EA000E885E695E887FFEFCF1ADF0A2C813D81A0
:102EB000280D391D3D832C834A895B89C416D506AC
:102EC00009F0B5CF5FEF451A550A8A819B81880DBD
:102ED000991D9B838A83AE85BF854A165B0609F0E0
:102EE0009BCFEE81FF81E615F70509F4F4C0EA8D6A
:102EF000FB8DA081B181F981F13079F4B5016B5F6F
:102F00007F4F5096ED91FC915197830128E030E07E
:102F1000A1018A8D9B8D1995DEC06A857B85681914
:102F200079091E96ED91FC911F9773010C851D8503
:102F30009401A1018A8D9B8D1995CDC0F90134961C
:102F4000E491DE1AF901329685919491B7E0DB9E07
:102F5000800D911D1124F901259134913B8B2A8B11
:102F6000FC01259134912901FC013296C4903196DF
:102F700034913E87329614913196D49049814230F3
:102F800058F0612E012E000C77088D2D0D2C000CB1
:102F9000990B9987888704C019861886612C712C33
:102FA000AA8DBB8DED91FC9111970284F385E02DE4
:102FB000CD011995B9818B2E912C689CC001699C1B
:102FC000900D789C900D1124FC01EA0DFB1DFD87EE
:102FD000EC871A82712C612CE12F110FFF0B9501E8
:102FE0002E0F3F1F3B872A87AC0CB11CA5014E0F4B
:102FF0005F1F5F8B4E8BC1018D0D911DD7FC9A9584
:10300000998F888F9E85691608F065C0862D90E09F
:1030100048855985480F591F489D9001499D300D9D
:10302000589D300D1124D101A20FB31FB98BA88B6D
:10303000EC85FD85FD83EC83AA84BB84DA80FA8568
:10304000DF1A288D398D280F391F3D8B2C8B8D2D44
:103050008A0D4E895F89A416B506C1F1877041F4C7
:10306000C2010196EA89FB89E40DF51D74902C01DB
:1030700077FE21C0AA8DBB8DED91FC91B981B13055
:1030800061F40484F585E02D2E813F814C895D89B2
:10309000B5018A8D9B8D19950EC00684F785E02DAC
:1030A000EE80FF8084019401488959896C817D817B
:1030B0008A8D9B8D1995770CEFEFAE1ABE0A2C8185
:1030C0003D81280D391D3D832C83C1CF3A813C0DB4
:1030D0003A83639497CFAA8DBB8DED91FC911197A4
:1030E0000688F789E02DCD016B960FB6F894DEBF08
:1030F0000FBECDBFDF91CF911F910F91FF90EF9049
:10310000DF90CF90BF90AF909F908F907F906F9007
:103110005F904F903F902F9019946B960FB6F89454
:10312000DEBF0FBECDBFDF91CF911F910F91FF90FA
:10313000EF90DF90CF90BF90AF909F908F907F9057
:103140006F905F904F903F902F900895FC01611118
:1031500001C061E0648B81E090E0938B828B918B66
:10316000808B80E094E0E0E0F2E0DF019C011D92C2
:1031700021503040E1F70895EF92FF920F931F9393
:10318000CF93DF938C017B01C0E0D0E0F701EC0F1F
:10319000FD1F6491662361F0D801ED91FC910190CF
:1031A000F081E02DC8011995892B11F02196EECF01
:1031B000CE01DF91CF911F910F91FF90EF90089575
:1031C0006115710579F0FB0101900020E9F7319755
:1031D000AF01461B570BDC01ED91FC910280F3819E
:1031E000E02D199480E090E00895CF93DF93BC0127
:1031F00089E198E0C1DFEC0162E776E089E198E0DF
:10320000DFDF8C0F9D1FDF91CF9108958F929F92EA
:10321000AF92BF92EF92FF920F931F93CF93DF93E2
:10322000CDB7DEB7A1970FB6F894DEBF0FBECDBF06
:103230007C01FA01CB0119A2223008F42AE08E01A8
:103240000F5D1F4F822E912CA12CB12CBF01A50127
:1032500094010E94EE21F901CA01015011096A305E
:1032600014F4605D01C0695CD8016C93232B242B9E
:10327000252B61F7B801C701A3DFA1960FB6F8941B
:10328000DEBF0FBECDBFDF91CF911F910F91FF9099
:10329000EF90BF90AF909F908F900895CF92DF9264
:1032A000EF92FF920F931F93CF93DF936B01770FF2
:1032B000EE08FF08F7FE1EC0EC01E881F9810190DD
:1032C000F081E02D6DE219958C0144275527BA0154
:1032D0004C195D096E097F092AE0CE0197DF800F46
:1032E000911FDF91CF911F910F91FF90EF90DF9091
:1032F000CF9008952AE0B701A601DF91CF911F91E9
:103300000F91FF90EF90DF90CF9080CFCF93DF931E
:10331000BC0189E198E0C2DFEC0162E776E089E177
:1033200098E04EDF8C0F9D1FDF91CF9108958F9213
:103330009F92AF92BF92CF92DF92EF92FF920F9344
:103340001F93CF93DF93EC01C72ED52E5901E0E4F4
:103350008E2E860EF0E49F2E940E8AE078136CC0B9
:1033600058136EC0232B91F4EE24E394F12C00E16A
:1033700010E02CE030E046E250E069E070E0CE0181
:103380000E94F60F1B8A1A8A198A188A8AE090E02E
:103390009D878C8787E290E09F878E87682DCE017E
:1033A0000E94CB1081E090E09B8B8A8B998B888B5D
:1033B000AA94AB2891F4EE24E394F12C00E110E000
:1033C00028E130E046E250E065E170E0CE010E9485
:1033D000F60F1B8A1A8A198A188A86E190E09D875F
:1033E0008C8707E210E01F870E876AE070E0CE014D
:1033F00055DF81E090E09B8B8A8B998B888B88E2EC
:1034000090E09D878C871F870E8762ED74E0CE0168
:10341000B3DE82E590E09D878C871F870E87692D3C
:10342000CE010E94CB108EE590E09D878C871F8790
:103430000E876AE070E03FC189E0871708F069C035
:1034400089E08D1508F4CDC0A114B10491F4EE24E7
:10345000E394F12C00E110E02CE030E046E250E093
:103460006FE070E0CE010E94F60F1B8A1A8A198A5B
:10347000188A80E190E09D878C8787E290E09F87A3
:103480008E87682DCE010E94CB1081E090E09B8B4F
:103490008A8B998B888BAA94AB2891F4EE24E394C1
:1034A000F12C00E110E028E130E046E250E06BE171
:1034B00070E0CE010E94F60F1B8A1A8A198A188AB8
:1034C0008CE190E09D878C8707E210E01F870E87D4
:1034D0006C2D70E0CE01E2DE81E090E09B8B8A8B68
:1034E000998B888B8EE290E09D878C871F870E8753
:1034F0006DEC74E0CE0140DE88E590E09D878C871E
:103500001F870E87692DCE010E94CB1084E690E0C4
:10351000CCC089E0851708F064C0232B91F4EE2419
:10352000E394F12C00E110E02CE030E046E250E0C2
:103530006FE070E0CE010E94F60F1B8A1A8A198A8A
:10354000188A80E190E09D878C8787E290E09F87D2
:103550008E87682DCE010E94CB1081E090E09B8B7E
:103560008A8B998B888BAA94AB2891F4EE24E394F0
:10357000F12C00E110E02CE030E046E250E06BE19D
:1035800070E0CE010E94F60F1B8A1A8A198A188AE7
:103590008CE190E09D878C8707E210E01F870E8703
:1035A0006C2D70E0CE017ADE81E090E09B8B8A8BFF
:1035B000998B888B82E290E09D878C871F870E878E
:1035C00068EC74E0CE01D8DD8CE490E09D878C87B8
:1035D0001F870E87692DCE010E94CB1088E590E0F1
:1035E00064C0A114B10491F4EE24E394F12C00E141
:1035F00010E02CE030E046E250E065E170E0CE0102
:103600000E94F60F1B8A1A8A198A188A86E190E0AE
:103610009D878C8787E290E09F878E87682DCE01FB
:103620000E94CB1081E090E09B8B8A8B998B888BDA
:10363000AA94AB2891F4EE24E394F12C00E110E07D
:103640002CE030E046E250E061E270E0CE010E9402
:10365000F60F1B8A1A8A198A188A82E290E09D87DF
:103660008C8707E210E01F870E876C2D70E0CE017B
:1036700015DE81E090E09B8B8A8B998B888B88E2AA
:1036800090E09D878C871F870E8763EC74E0CE01E6
:1036900073DD82E590E09D878C871F870E87692DFB
:1036A000CE010E94CB108EE590E09D878C871F870E
:1036B0000E876D2D70E0CE01DF91CF911F910F919C
:1036C000FF90EF90DF90CF90BF90AF909F908F9042
:1036D000E5CDCF93DF93CDB7DEB729970FB6F8943A
:1036E000DEBF0FBECDBF789484B5826084BD84B543
:1036F000816084BD85B5826085BD85B5816085BDED
:1037000080916E00816080936E00109281008091A4
:10371000810082608093810080918100816080932C
:103720008100809180008160809380008091B10051
:1037300084608093B1008091B00081608093B0007C
:1037400080919100826080939100809191008160CE
:10375000809391008091900081608093900080918F
:10376000A10082608093A1008091A100816080937C
:10377000A1008091A00081608093A0008091210130
:1037800082608093210180912101816080932101D9
:103790008091200181608093200180917A00846073
:1037A00080937A0080917A00826080937A00809181
:1037B0007A00816080937A0080917A00806880939B
:1037C0007A001092C100E0912908F0912A0862E085
:1037D000F62EF082E0912508F09126081082E09103
:1037E0002708F09128088FEC808310923108E0912F
:1037F0002D08F0912E0896E09083E0912B08F0912F
:103800002C08808180618083E0912B08F0912C0846
:10381000808188608083E0912B08F0912C08808162
:1038200080688083E0912B08F0912C0880818F7D47
:103830008083E0918C07F0918D07F082E0918807FA
:10384000F09189071082E0918A07F0918B0780E15F
:10385000808310929407E0919007F09191079083F4
:10386000E0918E07F0918F07808180618083E091E5
:103870008E07F0918F07808188608083E0918E07AA
:10388000F0918F07808180688083E0918E07F091AE
:103890008F0780818F7D80836AE974E089E198E0F9
:1038A0006BDC0E947A0932DD6CE271E080E090E02E
:1038B0000E9455130E94600A8C01909330078093F8
:1038C0002F07DC015B96FC925B978CE35A968C93F6
:1038D0005A975C968C915C978F3F09F4C3C061E066
:1038E0005E968C910E94191361E0F80180A10E94FC
:1038F0001913D80190968C919097082E000C990B73
:10390000FC01E15AFD4FE491F0E0EE0FFF1FEB5B8D
:10391000FD4F25913491F80137A326A3FC01E15016
:10392000FE4FE4919C96EC939C975E968C915E97EB
:10393000082E000C990BFC01E15AFD4FE491F0E0D8
:10394000EE0FFF1FEB5BFD4F25913491F80131A77E
:1039500020A7FC01E150FE4FE4919D96EC939D97CA
:1039600091968C919197811140C061E05C968C9109
:103970000E94191361E0F801858D0E941913D80186
:103980005D968C915D97082E000C990BFC01E15A15
:10399000FD4FE491F0E0EE0FFF1FEB5BFD4F259133
:1039A0003491F80135A324A3FC01E150FE4FE491CA
:1039B0009B96EC939B975C968C915C97082E000CE1
:1039C000990BFC01E15AFD4FE491F0E0EE0FFF1F6F
:1039D000EB5BFD4F25913491F80133A322A3FC0149
:1039E000E150FE4FE4919A96EC93F80181A188236F
:1039F00009F46BC0FFB6F89480912A07811127C0A3
:103A0000E4E9F2E08491E4E3F2E09491E82FF0E05D
:103A1000EE0FFF1FEB51FE4FA591B491EC91E923FE
:103A200021F461E085E30E94EB1261E085E30E94EE
:103A300019138CB580618CBD8CB580648CBD61E040
:103A400084E30E94191361E083E30E9419138091BB
:103A50002A078F5F80932A07FFBE80E58CBD81E037
:103A60008DBD33C010922907109228071092590774
:103A700010927B071092570781E0809356071092AF
:103A8000310761E084E10E94EB1261E085E10E9470
:103A9000EB128091B9008E7F8093B9008091B900BC
:103AA0008D7F8093B90088E48093B80085E480938B
:103AB000BC008FE69EE0909327078093260780E75F
:103AC0009EE09093250780932407D8015F968C9100
:103AD00087FD1FC061E00E94191361E0F801878D26
:103AE0000E94EB1261E070E080E090E00E945513CC
:103AF00060E0D8015F968C910E94EB126AE070E062
:103B000080E090E00E94551361E0F801878D0E94EB
:103B1000EB126EEAC8010E943A0965EDC8010E94E5
:103B20003A0960E8C8010E943A0968EAC8010E949F
:103B30003A096FE3C8010E943A0963EDC8010E9487
:103B40003A0960E0C8010E943A0960E4C8010E9495
:103B50003A096DE8C8010E943A0964E1C8010E946F
:103B60003A0960E2C8010E943A0960E0C8010E9477
:103B70003A0961EAC8010E943A0968ECC8010E944A
:103B80003A096AEDC8010E943A0962E1C8010E943F
:103B90003A0961E8C8010E943A096FECC8010E9425
:103BA0003A0969EDC8010E943A0961EFC8010E9413
:103BB0003A096BEDC8010E943A0960E4C8010E940D
:103BC0003A0964EAC8010E943A0966EAC8010E94FB
:103BD0003A096EE2C8010E943A096FEAC8010E94E0
:103BE0003A09C0902F07D090300763E0C601AEDAE3
:103BF000712C60E0A62E62E0B62E812C74E0972E28
:103C0000672D70E0D6011A960D911C911B97C80183
:103C100017FD0196959587956817790744F5CB01AF
:103C2000880F991F081B190BF60120853185281B69
:103C3000390BEE24E394F12CAB01C6010E94F60F80
:103C4000C6010E94041662E370E080E090E00E94EA
:103C50005513D501F4011D923197E9F762E370E045
:103C600080E090E00E945513F3E07F0EC9CF8CE016
:103C700090E0D6011D969C938E931C9786E090E071
:103C80001F969C938E931E976AEA72E0C60174DABF
:103C90008EE190E0F6019587848787E290E0978730
:103CA000868765EA72E0C60167DAC6010E940416DB
:103CB00060ED77E080E090E00E9455136DE674E0DF
:103CC00089E198E059DA0E947A0920DB6CE271E020
:103CD00080E090E00E9455136EE673E089E198E081
:103CE0004BDA0E947A0912DB6CE271E080E090E02E
:103CF0000E94551380912B0790912C07892B09F076
:103D000061C087EF90E049D28C0160E070E0885399
:103D10009F4F0E94B70961E070E0C8018F529F4F2A
:103D20000E94B70962E070E0C80186529F4F0E946E
:103D3000B70963E070E0C8018D519F4F0E94B70939
:103D400064E070E0C80184519F4F0E94B70963EF9F
:103D500072E089E198E010DA0E947A09D7DA6CE221
:103D600071E080E090E00E945513A8012AE064E031
:103D700070E080E090E0FA01E80FF91F7183608342
:103D8000029684319105B9F721504C5E5F4F2111A5
:103D9000F0CF0E94600AF801EB50FF4F91838083BF
:103DA00061EB72E089E198E0E7D90E947A09AEDA26
:103DB0006CE271E080E090E00E94551310932C07B4
:103DC00000932B0765E373E089E198E0D5D90E9461
:103DD0007A099CDA6CE271E080E090E00E94551371
:103DE00080912B0790912C0790932E0780932D079D
:103DF00060E374E089E198E0BFD90E947A0986DA2D
:103E00006CE271E080E090E00E94551300912D0774
:103E100010912E0767EF73E089E198E0ADD90E9419
:103E20007A0974DA6CE271E080E090E00E94551348
:103E3000F801EB50FF4FE080F18062E0C70186D9C6
:103E400084E090E0D7011D969C938E931C978EE0A2
:103E500090E01F969C938E931E9766EA73E0C701CD
:103E60008BD985E290E0F7019587848787E290E01F
:103E70009787868760EA73E0C7017ED9C7010E94F1
:103E800004166CED75E080E090E00E945513E12C83
:103E9000F12C89E0C82ECE9C5001CF9CB00C11248F
:103EA0004501F8EC8F0E911C800E911E40E050E011
:103EB000B401C8010E949D0A41E050E0B401C8016C
:103EC0000E949D0AF801EA0DFB1DE853FF4FDE0139
:103ED00011968C2D01900D928A95E1F7D401AD9049
:103EE000BC90119718967C906AEC73E089E198E099
:103EF00043D9C5010BDAD12C8D2C912C8A149B044B
:103F00000CF06AC04D2D50E060E070E02AE089E1DD
:103F100098E07CD962E776E089E198E051D96D813B
:103F20007E81C89CC001C99C900D1124800F911FF7
:103F30002C01772019F1BCEC4B0E511CDC01A25373
:103F4000BF4F9C0123533F4FAC0141535F4F9884B7
:103F5000971608F43FC0F2019080691508F4BAC0C2
:103F60009C90961608F4B6C0F9019080791508F473
:103F7000B1C0FA019080971618F5ACC0FCEC4F0E5A
:103F8000511CDC01A253BF4F9C0123533F4FAC0196
:103F900041535F4F9F809616E8F0F20190806915BB
:103FA00008F49AC09C90961608F496C0F901908087
:103FB000791508F491C0FA019080971608F48CC026
:103FC000FC01E553FF4F908191509083F1E0EF1A8F
:103FD000F10805C0D39490CF81EB93E006D92FEF81
:103FE000E21AF20A85E0E816F10409F054CFF12C48
:103FF000680198ECC90ED11CD60112968C91F81666
:1040000030F0F12C6801B1EDCB0ED11C13C06F2D37
:10401000C6010E94AD09BC01C8010E946415F39459
:10402000EBCF6F2DC6010E94AD09BC01C8010E94F3
:104030006415F394F6018281F81698F3F12C680167
:10404000FAEDCF0ED11C09C06F2DC6010E94AD093B
:10405000BC01C8010E946415F394D60112968C919C
:10406000F81690F3F12C6801B3EECB0ED11C09C009
:104070006F2DC6010E94AD09BC01C8010E946415E4
:10408000F394F6018281F81698F3F12C6801FCEEA6
:10409000CF0ED11CD60112968C91F81650F46F2DCC
:1040A000C6010E94AD09BC01C8010E946415F394C9
:1040B000F1CF65E776E089E198E082D80E947A093D
:1040C00025D96CE271E080E090E00E9455130E94D7
:1040D0008F0DFDCF7F5F3BCF6F5F5CCFECE7F7E0ED
:1040E0001382128288EE93E0A0E0B0E0848395838F
:1040F000A683B78326E436E0318320834DEC50E07D
:10410000558744874CEC50E05787468748EC50E091
:10411000518B408B49EC50E0538B428B4AEC50E082
:10412000558B448B4EEC50E0578B468B118E128E84
:10413000138E148EE9E1F8E0138212828483958352
:10414000A683B7833183208325EC30E0358724872D
:1041500024EC30E03787268720EC30E0318B208B51
:1041600021EC30E0338B228B22EC30E0358B248B3A
:1041700026EC30E0378B268B118E128E138E148E28
:10418000E6EBF8E01382128284839583A683B783DB
:1041900084E696E09183808308950F931F93CF93D5
:1041A000DF938230910510F482E090E0E091C40842
:1041B000F091C50820E030E0A0E0B0E0309719F1C0
:1041C000408151810281138148175907C8F0841733
:1041D000950769F4109731F012960C931297139685
:1041E0001C9327C00093C4081093C50822C0211552
:1041F000310519F04217530718F49A01BD01EF0178
:10420000DF01F801DBCF21153105F9F0281B390B4F
:104210002430310580F48A819B816115710521F07C
:10422000FB019383828304C09093C5088093C408E4
:10423000FE01329644C0FE01E20FF31F8193919379
:1042400022503109398328833AC02091C208309125
:10425000C308232B41F420910206309103063093CA
:10426000C3082093C2082091000630910106211551
:10427000310541F42DB73EB7409104065091050633
:10428000241B350BE091C208F091C308E217F30735
:10429000A0F42E1B3F0B2817390778F0AC014E5FB6
:1042A0005F4F2417350748F04E0F5F1F5093C30828
:1042B0004093C2088193919302C0E0E0F0E0CF0107
:1042C000DF91CF911F910F910895CF93DF930097C6
:1042D00009F481C0FC01329713821282A091C408B4
:1042E000B091C508109781F420813181820F931F0E
:1042F0002091C2083091C3082817390751F5F0936F
:10430000C308E093C20867C0ED0120E030E0CE179B
:10431000DF0740F44A815B819E0141155105F1F0B0
:10432000EA01F5CFD383C28340815181840F951F69
:10433000C817D90759F488819981840F951F02966F
:10434000918380838A819B819383828321153105A8
:1043500029F4F093C508E093C4083DC0E901FB834C
:10436000EA8349915991C40FD51FEC17FD0761F4F9
:1043700080819181840F951F0296E901998388833A
:10438000828193819B838A83E0E0F0E012968D9195
:104390009C911397009719F0FD01DC01F7CF8D91E7
:1043A0009C9111979D012E5F3F4F820F931F20918B
:1043B000C2083091C3082817390769F4309729F4E7
:1043C0001092C5081092C40802C013821282B093E2
:1043D000C308A093C208DF91CF910895A1E21A2EDD
:1043E000AA1BBB1BFD010DC0AA1FBB1FEE1FFF1F99
:1043F000A217B307E407F50720F0A21BB30BE40BE9
:10440000F50B661F771F881F991F1A9469F760952F
:104410007095809590959B01AC01BD01CF010895E9
:10442000EE0FFF1F881F8BBF0790F691E02D1994A8
:0C44300081E090E0F89400C0F894FFCF09
:10443C000000000000000000000000000000000070
:10444C000000000000000000000000000000000060
:10445C000000000000000000000000000000000050
:10446C0000000000000000000000000000000080C0
:10447C008080000000000000000000000000000030
:10448C00008080C0C00000000000000000000000A0
:10449C000000000000000000000000000000000010
:1044AC000000000000000000000000000000000000
:1044BC0000000000000000000000000000000000F0
:1044CC000000000080C0E0F0F8FCF8E00000000004
:1044DC000000000000000000000000000080808050
:1044EC00808000808000000000808080808000FF41
:1044FC00FFFF0000000080808080000080800000B2
:10450C0080FFFF8080008080008080808000808021
:10451C000000000000808000008C8E84000080F879
:10452C00F8F880000000000000000000000000000F
:10453C00F0F0F0F0F0F0F0F0F0F0F0F0E0E0C0802F
:10454C0000E0FCFEFFFFFF7FFFFFFFFFFF0000000E
:10455C000000000000000000000000FEFFC7010189
:10456C00010183FFFF00007CFEC70101010183FFF5
:10457C00FFFF0038FEC78301010183C7FFFF000066
:10458C0001FFFF010100FFFF0701010100007FFF98
:10459C0080000000FFFF7F0000FFFFFF000001FF15
:1045AC00FFFF010000000000000000000000000000
:1045BC00030F3F7F7FFFFFFFFFFFFFFFE7C7C78FA3
:1045CC008F9FBFFFFFC3C0F0FFFFFFFFFFFCFCFC92
:1045DC00FCFCFCFCFCF8F8F0F0E0C0000103030369
:1045EC0003030103030000000001030303030101A3
:1045FC000301000000010303030301010303000096
:10460C000003030000000303000000000000000191
:10461C000303030303010000000103010000000376
:10462C00030100000000000000000000000000007A
:10463C0000000080C0E0F0F9FFFFFFFFFF3F1F0FFD
:10464C0087C7F7FFFF1F1F3DFCF8F8F8F87C7DFFCC
:10465C00FFFFFFFFFFFFFF7F3F0F07003030000021
:10466C00000000000000000000000000000000003E
:10467C0000000000FEFEFC00000000000000000036
:10468C0000000000000000000000000000E0C0007E
:10469C0000000000000000000000303000000000AE
:1046AC0000000000000000000000000000000000FE
:1046BC0000C0FEFFFFFFFFFFFFFFFFFF7F7F3F1FDD
:1046CC000F071F7FFFFFF8F8FFFFFFFFFFFEF8E06B
:1046DC00000000010000000000000000FEFE0000D1
:1046EC0000FCFEFC0C06060EFCF80000F0F81C0E9C
:1046FC000606060CFFFFFF0000FEFE00000000FC9B
:10470C00FEFC00183C7E66E6CE84000006FFFF0629
:10471C0006FCFEFC0C0606060000FEFE0000C0F8BF
:10472C00FC4E4646464E7C7840183C76E6CECC8015
:10473C00000000000000000000000000000000006D
:10474C000000000001070F1F1F3F3F3F3F1F0F03DB
:10475C000000000000000000000000000F0F00002F
:10476C00000F0F0F000000000F0F000003070E0CCE
:10477C0018180C060F0F0F0000010F0E0C180C0F61
:10478C00070100040E0C180C0F070000000F0F009F
:10479C00000F0F0F0000000000000F0F00000007BB
:1047AC00070C0C181C0C060600040E0C180C0F073A
:1047BC0000000000000000000000000000000000ED
:1047CC0000000000000000000000000000000000DD
:1047DC0000000000000000000000000000000000CD
:1047EC0000000000000000000000000000000000BD
:1047FC0000000000000000000000000000000000AD
:10480C00000000000000000000000000000000009C
:10481C00000000000000000000000000000000008C
:10482C00000000000000000000000000000000007C
:10483C000000C608800000000000CB103A153709B4
:10484C0036099808710E2B05AD101F05BD103205E9
:10485C00710EF80EF70EE3053D07F60FD90F6C0F2E
:10486C000D0F000103070F1F3F7F0080C0E0F0F821
:10487C00FCFE0000000056123A15490DA2127A0DEA
:10488C00580D6C0D00000000C9103A153709360997
:10489C0000000000C90E9D0E3709710E950E810E99
:1048AC00720E0D0A004E616E6F2E696E6F3A2043C8
:1048BC006F6D706C6574656420496E697469616CA8
:1048CC00697A6174696F6E206F662047616D654C03
:1048DC006F6769632E20467265654D656D6F7279E1
:0448EC00203D20004B
:00000001FF
