:1000000094C30000C3C30000C1C30000BFC300000D
:10001000BDC30000BBC30000B9C30000B7C30000EC
:10002000B5C30000B3C30000B1C30000AFC30000FC
:10003000ADC30000ABC30000A9C30000A7C300000C
:10004000A5C30000A3C30000A1C300009FC300001C
:100050009DC300009BC3000099C300000C94620A7A
:1000600095C300000C94540D0C942B0D8FC300000D
:100070008DC300008BC3000089C3000087C300004C
:1000800085C3000083C3000081C300007FC300005C
:100090007DC300007BC3000079C300000C94AC0A50
:1000A00075C3000073C3000071C300006FC300007C
:1000B0006DC300006BC3000069C3000067C300008C
:1000C00065C3000063C3000061C300005FC300009C
:1000D0005DC300005BC3000059C3000057C30000AC
:1000E00055C300008509880977097B098109BF0983
:1000F0008C09900996099A099E09A409A809AC09D6
:10010000BF09B209B609BA09000020002300260081
:1001100029002C002F00320000010000030106011D
:10012000090100000A0B02090C0D0E080703040167
:1001300000000000000000000000000000000000BF
:10014000000000000000000000000000000012118C
:10015000100000000000000000000000000000008F
:100160000000000000000000000021002400270023
:100170002A002D00300033000101000004010701B6
:100180000A010102102020080810204010204080A1
:10019000020102010804020101020408102040804B
:1001A00080402010080402018004020180402010D9
:1001B0000804020108040201010204081020408022
:1001C00001020408102040800000220025002800C1
:1001D0002B002E003100340002010000050108014F
:1001E0000B010505050507050808080802020202BB
:1001F0000A0A0808040404040101010101010101C3
:100200000303030303030303040707070C0C0C0C8D
:100210000C0C0C0C02020202060606060606060676
:100220000B0B0B0B0B0B0B0B00000000003E5B4F8E
:100230005B3E3E6B4F6B3E1C3E7C3E1C183C7E3C46
:10024000181C577D571C1C5E7F5E1C00183C180054
:10025000FFE7C3E7FF0018241800FFE7DBE7FF30E4
:10026000483A060E2629792926407F050507407F52
:1002700005253F5A3CE73C5A7F3E1C1C08081C1CC5
:100280003E7F14227F22145F5F005F5F06097F01BB
:100290007F006689956A606060606094A2FFA294A6
:1002A00008047E040810207E201008082A1C080874
:1002B0001C2A08081E101010100C1E0C1E0C3038C2
:1002C0003E3830060E3E0E06000000000000005FC3
:1002D00000000007000700147F147F14242A7F2ADF
:1002E00012231308646236495620500008070300A1
:1002F000001C2241000041221C002A1C7F1C2A08ED
:10030000083E08080080703000080808080800004F
:1003100060600020100804023E5149453E00427FC3
:10032000400072494949462141494D331814127F12
:100330001027454545393C4A4949314121110907B2
:100340003649494936464949291E00001400000033
:100350004034000000081422411414141414004105
:1003600022140802015909063E415D594E7C1211C2
:10037000127C7F494949363E414141227F414141FA
:100380003E7F494949417F090909013E4141517375
:100390007F0808087F00417F41002040413F017FE6
:1003A000081422417F404040407F021C027F7F04AE
:1003B00008107F3E4141413E7F090909063E4151F7
:1003C000215E7F09192946264949493203017F01E7
:1003D000033F4040403F1F2040201F3F4038403FE8
:1003E000631408146303047804036159494D4300FE
:1003F0007F4141410204081020004141417F040235
:1004000001020440404040400003070800205454CB
:1004100078407F28444438384444442838444428A9
:100420007F385454541800087E090218A4A49C78FC
:100430007F0804047800447D40002040403D007F58
:100440001028440000417F40007C047804787C0838
:100450000404783844444438FC182424181824240C
:1004600018FC7C08040408485454542404043F44F1
:10047000243C4040207C1C2040201C3C4030403C20
:1004800044281028444C9090907C4464544C440080
:1004900008364100000077000000413608000201E4
:1004A0000204023C2623263C1EA1A161123A4040D0
:1004B000207A38545455592155557941225454784D
:1004C00042215554784020545579400C1E527212E6
:1004D000395555555939545454593955545458006F
:1004E00000457C410002457D420001457C407D1273
:1004F00011127DF0282528F07C54554500205454D5
:100500007C547C0A097F4932494949323A4444447F
:100510003A324A4848303A4141217A3A42402078BA
:10052000009DA0A07D3D4242423D3D4040403D3CBB
:1005300024FF2424487E4943662B2FFC2F2BFF09E0
:1005400029F620C0887E09032054547941000044D4
:100550007D413048484A32384040227A007A0A0ABF
:10056000727D0D19317D2629292F28262929292632
:1005700030484D4020380808080808080808382F77
:1005800010C8ACBA2F102834FA00007B0000081401
:100590002A142222142A14085500550055AA55AAD7
:1005A00055AAFF55FF55FF000000FF00101010FF77
:1005B00000141414FF001010FF00FF1010F010F0D2
:1005C000141414FC001414F700FF0000FF00FF14C3
:1005D00014F404FC141417101F10101F101F14140F
:1005E000141F00101010F0000000001F1010101059
:1005F0001F10101010F010000000FF10101010104D
:1006000010101010FF10000000FF140000FF00FF8A
:1006100000001F10170000FC04F414141710171426
:1006200014F404F40000FF00F71414141414141448
:10063000F700F7141414171410101F101F141414BB
:10064000F4141010F010F000001F101F0000001F25
:1006500014000000FC140000F010F01010FF10FF58
:10066000141414FF141010101F00000000F010FFED
:10067000FFFFFFFFF0F0F0F0F0FFFFFF00000000D1
:1006800000FFFF0F0F0F0F0F3844443844FC4A4A55
:100690004A347E02020606027E027E02635549410A
:1006A000633844443C04407E201E2006027E020241
:1006B00099A5E7A5991C2A492A1C4C7201724C3055
:1006C0004A4D4D303048784830BC625A463D3E492C
:1006D0004949007E0101017E2A2A2A2A2A44445FD0
:1006E000444440514A444040444A51400000FF01C4
:1006F00003E080FF000008086B6B083612362436D2
:10070000060F090F06000018180000001010003036
:1007100040FF0101001F01011E00191D1712003CBE
:100720003C3C3C0000000000381C11241FBECFEFF1
:10073000D1E2DEBFCDBF00E00CBF19E0A0E0B2E027
:10074000E4E8FBE300E00BBF02C007900D92AA3083
:10075000B107D9F72AE0AAE0B9E001C01D92AF378E
:10076000B207E1F713E0C5E9D3E000E006C0219746
:100770000109802FFE010E94B41DC439D10780E019
:100780000807A9F70E9467180C94C01D39CC3FB721
:10079000F8948091720990917309A0917409B091B5
:1007A000750926B5A89B05C02F3F19F00196A11D1C
:1007B000B11D3FBFBA2FA92F982F8827820F911DF7
:1007C000A11DB11DBC01CD0142E0660F771F881F3E
:1007D000991F4A95D1F7089585ED8093BC008091CB
:1007E000BC0084FDFCCF1092A909089540914E09E8
:1007F000262F30E0240F311D21323105DCF4209109
:10080000A9092430C9F4FC0180E090E0861758F46F
:1008100030914E092191DC01A25DB64FA30FB11DAD
:100820002C930196F3CF80914E09680F60934E0987
:1008300080E0089581E0089582E008950895089584
:100840000895E0917B0980917A09E81730F4F0E08F
:10085000E25FF64F808190E008958FEF9FEF08955B
:1008600090917B0980917A09981750F4E92FF0E074
:10087000E25FF64F208130E09F5F90937B0902C0DA
:100880002FEF3FEFC901089580917A0990E0209100
:100890007B09821B91090895CF92DF92EF92FF921C
:1008A0000F931F93CF93DF937C01CB018A0120919B
:1008B000AA09222389F0EB016B01C40ED51ECC15C9
:1008C000DD0561F06991D701ED91FC910190F08116
:1008D000E02DC7011995F3CF642F88DFC801DF91A0
:1008E000CF911F910F91FF90EF90DF90CF900895DF
:1008F000CF93DF931F92CDB7DEB769832091AA090A
:100900002223D1F02091CD09203240F021E030E0C7
:10091000FC013383228380E090E014C08091AB0916
:10092000E82FF0E0E455F64F998190838F5F809334
:10093000AB098093CD0904C061E0CE01019656DF7A
:1009400081E090E00F90DF91CF9108950895FC0130
:100950006370658B8481958126813781613039F0A0
:10096000633029F091878087338722870895318704
:1009700020879387828708956F927F928F929F92AC
:10098000AF92BF92CF92DF92EF92FF920F931F939D
:10099000CF93DF93EC014B015A0169013801E881E3
:1009A000F9810284F385E02D1995E881F9810288A7
:1009B000F389E02D87019601A501B401CE011995B7
:1009C000A501460D571D41505109E881F981028862
:1009D000F389E02D9601B401CE011995E881F981E2
:1009E0000088F189E02D9301A501B401CE0119958C
:1009F000C80CD91CB60161507109E881F9810088E1
:100A0000F189E02D9301A501CE011995E881F981C5
:100A10000688F789E02DCE01DF91CF911F910F91CC
:100A2000FF90EF90DF90CF90BF90AF909F908F900E
:100A30007F906F9019948F929F92AF92BF92CF92B6
:100A4000DF92EF92FF920F931F93CF93DF934C01AE
:100A50006B015A01E901DC01ED91FC91621773070A
:100A600081F40417150724F48B2D5801042F182F37
:100A70000A191B0998012F5F3F4F048CF58DE02D5B
:100A800012C04017510709F52617370724F48D2D9A
:100A90006901C62FD82F9E012C193D092F5F3F4FAA
:100AA000068CF78DE02D8701A501B601C4011995CB
:100AB000DF91CF911F910F91FF90EF90DF90CF903A
:100AC000BF90AF909F908F9008950284F385E02DA2
:100AD0001995D401ED91FC910488F589E02D9E01D2
:100AE000A501B601C4011995D401ED91FC910688C8
:100AF000F789E02DC401DF91CF911F910F91FF90F5
:100B0000EF90DF90CF90BF90AF909F908F9019940F
:100B1000EF92FF920F931F93DC011A960D911C9197
:100B20001B9718962D913C911997ED91FC9100A07F
:100B3000F1A1E02D7B0140E050E060E070E019950C
:100B40001F910F91FF90EF9008954F925F926F92D7
:100B50007F928F929F92AF92BF92CF92DF92EF924D
:100B6000FF920F931F93CF93DF936C012B015A01D8
:100B700039014801DC01ED91FC910284F385E02DFF
:100B80001995E201640C751CD601ED91FC91C61516
:100B9000D7055CF40088F189E02D87019401A50157
:100BA000BE01C60119952196EFCF0688F789E02D81
:100BB000C601DF91CF911F910F91FF90EF90DF90D1
:100BC000CF90BF90AF909F908F907F906F905F90ED
:100BD0004F9019948F929F92AF92BF92CF92DF92D3
:100BE000EF92FF920F931F93CF93DF93EC015B0182
:100BF0004A016901E881F9810284F385E02D1995A4
:100C000095012C0D3D1D21503109E881F9810488A1
:100C1000F589E02D78018401A401B501CE01199573
:100C2000E881F9810688F789E02DCE01DF91CF9127
:100C30001F910F91FF90EF90DF90CF90BF90AF90FA
:100C40009F908F9019948F929F92AF92BF92CF9264
:100C5000DF92EF92FF920F931F93CF93DF93EC01FC
:100C60005B014A0169017801E881F9810284F38519
:100C7000E02D1995C80CD91C860101501109E88195
:100C8000F9810488F589E02D9501A401B501CE0113
:100C90001995E881F9810688F789E02DCE01DF9169
:100CA000CF911F910F91FF90EF90DF90CF90BF9069
:100CB000AF909F908F901994EF92FF920F931F9394
:100CC000DC01ED91FC9100A0F1A1E02D19951F919F
:100CD0000F91FF90EF9008950F931F93DC01ED911A
:100CE000FC91068CF78DE02D19951F910F910895B9
:100CF0000F931F93DC01ED91FC91048CF58DE02D99
:100D000019951F910F910895DC01ED91FC910084DC
:100D1000F185E02D19942F923F924F925F926F923E
:100D20007F928F929F92AF92BF92CF92DF92EF927B
:100D3000FF920F931F93CF93DF9300D000D0CDB7D6
:100D4000DEB72C017E836D836A015901C801FC82E4
:100D5000EB824801841A950A97FE03C0919481940E
:100D6000910835012D813E81621A730A77FE03C016
:100D7000719461947108681479045CF43A2D2B2DF8
:100D80005C01832F922F3D812E81DE82CD82C32E86
:100D9000D22EAD81BE81AA16BB065CF43C2D2D2D52
:100DA0006C01832F922F3D812E81BE82AD82A32EB6
:100DB000B22E85012D813E81021B130B1C012C18C4
:100DC0003D0837FE03C0319421943108780117FFA4
:100DD00003C03FEFE31AF30AF594E794C816D90667
:100DE0002CF08FEF9FEF9A83898304C0A1E0B0E0DD
:100DF000BA83A9832D813E81A216B30624F1D201C4
:100E0000ED91FC910484F585E02D2B813C816814E3
:100E1000790424F44D815E81B60103C0A6016D8181
:100E20007E81C2011995E218F308F7FE06C02981F8
:100E30003A81C20ED31EE00EF11E8D819E81019675
:100E40009E838D83D7CF26960FB6F894DEBF0FBE54
:100E5000CDBFDF91CF911F910F91FF90EF90DF9069
:100E6000CF90BF90AF909F908F907F906F905F904A
:100E70004F903F902F9008950F931F93CF93DF9340
:100E8000DC0155968C915597823071F0833009F1D1
:100E9000813009F08CC01496ED91FC911597E41BFC
:100EA000F50BE21BF30B20C01496ED91FC91159706
:100EB000CF01861B970BBC01615071091696ED910D
:100EC000FC911797CF01841B950BAC01421B530B70
:100ED0006EC01696ED91FC911797CF01861B970B6C
:100EE000BC0161507109FA0177FD1BC116968D9105
:100EF0009C911797681779070CF013C1F7FF04C08E
:100F00002E0F3F1FE0E0F0E014968D919C91159715
:100F1000AF01420F531F841795071CF49C012E1B31
:100F20003F0B121613060CF0FCC0CB0177FD0796A1
:100F300043E0959587954A95E1F79695982F8827F0
:100F400097958795E80FF91FE050FE4F6770772758
:100F500081E090E001C0880F6A95EAF7482F0130E0
:100F6000110541F088F00230110509F0DAC02E0FAA
:100F70003F1F15C02E0F3F1FE217F30709F4D1C022
:100F80008081842B8193F8CF80952E0F3F1FE2172D
:100F9000F30709F4C6C0908198239193F8CFE21724
:100FA000F30709F4BEC0808184278193F8CF77FDD1
:100FB000B8C014968D919C911597681779070CF01D
:100FC000B0C057FF04C0240F351F40E050E0169614
:100FD0008D919C911797FA01E20FF31F8E179F07CF
:100FE0001CF49C01241B350B121613060CF099C03F
:100FF000A22F842F86958695869590E8899F600D0F
:10100000711D1124FB01E050FE4F4770A9F198E0DB
:10101000941B492F50E0EA01C25FD94F88812917FC
:1010200090F4421B51092FEF30E002C0359527950F
:101030004A95E2F782230130110541F068F0023051
:10104000110589F06EC00130110519F42081822B41
:101050000CC00130110520F480952081822305C049
:101060000230110531F4208182278083A91708F40A
:1010700058C0A91BE058FF4FA83048F102301105B5
:1010800059F4EF018A2F988190959883C058DF4FCB
:1010900088508830C0F730C081E00130110509F078
:1010A00080E08195EF019A2F8883C058DF4F9850D8
:1010B0009830D0F788EF8A0F86958695869590E8C8
:1010C000899FE00DF11D1124E058FF4FA770AA235E
:1010D00041F1B0E0AA5FB94F8C910130110529F0C0
:1010E00038F002301105E9F419C09081892B18C03D
:1010F00080959081892314C088EF8A0F8695869504
:10110000869590E8899FE00DF11D1124E058FF4F6E
:10111000A77039F0B0E0AA5FB94F8C919081892710
:101120008083DF91CF911F910F910895AF92BF926D
:10113000CF92EF92FF920F931F93CF93DF93EC0127
:10114000262F888D998D009709F03FC06A3059F499
:101150001D861C862C898E859F8538E0239F800DF7
:10116000911D112440C06D3009F4A8C08E898823D8
:10117000C1F03C898C859D8546E0349F800D911D92
:10118000112448855985481759075CF41D861C862B
:101190008E859F8548E0349F800D911D11249F8787
:1011A0008E87EA88FB88088919894E855F856C855A
:1011B0007D85CC88CE0186D62C898C859D8536E0B0
:1011C000239F800D911D112442C06A3079F41D8641
:1011D0001C862C89FC013696E4918E859F852E9F76
:1011E000800D911D11249F878E8768C06D3009F492
:1011F00065C0FC0134963491631708F45FC03196E2
:10120000E491E61708F45AC0FC0132966591749196
:10121000422F50E0431B510937E0349F5001359F66
:10122000B00C1124A60EB71EF501329634913196FA
:10123000E491332311F0E1110DC0F5013496E491EE
:101240002C898C859D85E29F800D911D11249D87A1
:101250008C8734C0F501359644915E89552311F190
:101260006C89E32FF0E0E40FF11D47FDFA956E9FC6
:10127000D0016F9FB00D11244C855D854A0F5B1F17
:10128000E885F985E417F5076CF41D861C86FC01DA
:101290003696E4918E859F856E9F800D911D112459
:1012A0009F878E87EA88FB88088919894E855F8524
:1012B0006C857D85CC88CE0105D6BFCF81E090E0DE
:1012C000DF91CF911F910F91FF90EF90CF90BF9042
:1012D000AF90089590E0FC013197E231F10508F0FC
:1012E0004EC08827EE58FF4F8F4F0C94B41D80914D
:1012F00080008F7703C0809180008F7D8093800075
:10130000089580918000877FF9CF84B58F7702C0E0
:1013100084B58F7D84BD08958091B0008F7703C020
:101320008091B0008F7D8093B000089580919000EF
:101330008F7707C0809190008F7D03C080919000CF
:10134000877F8093900008958091A0008F7707C0D9
:101350008091A0008F7D03C08091A000877F809343
:10136000A0000895809120018F7707C0809120010F
:101370008F7D03C080912001877F80932001089595
:101380001F93CF93DF93282F30E0F901EE5DFE4FDE
:101390008491F901EE57FE4FD491F901EE51FE4FC1
:1013A000C491CC23B9F0162F811194DFEC2FF0E01B
:1013B000EE0FFF1FE853FE4FA591B4919FB7F8942D
:1013C000111104C08C91D095D82302C0EC91DE2B72
:1013D000DC939FBFDF91CF911F910895CF93DF934F
:1013E00090E0FC01EE57FE4F2491FC01EE51FE4FC0
:1013F0008491882361F190E0880F991FFC01E859DE
:10140000FE4FC591D491FC01E853FE4FA591B491D4
:10141000611109C09FB7F894888120958223888341
:10142000EC912E230BC0623061F49FB7F894888151
:10143000322F309583238883EC912E2B2C939FBFE2
:1014400006C08FB7F894E8812E2B28838FBFDF91D9
:10145000CF9108958F929F92AF92BF92CF92DF92D9
:10146000EF92FF926B017C0192D94B015C01C11498
:10147000D104E104F104E9F08AD9DC01CB01881937
:101480009909AA09BB09883E9340A105B10578F3E3
:1014900021E0C21AD108E108F10888EE880E83E045
:1014A000981EA11CB11CC114D104E104F10421F760
:1014B000DECFFF90EF90DF90CF90BF90AF909F90E6
:1014C0008F9008951F920F920FB60F9211242F93B1
:1014D0003F938F939F93AF93BF9380910A0990910D
:1014E0000B09A0910C09B0910D093091710923E00D
:1014F000230F2D3720F40196A11DB11D05C026E84C
:10150000230F0296A11DB11D2093710980930A0932
:1015100090930B09A0930C09B0930D098091720967
:1015200090917309A0917409B09175090196A11D5C
:10153000B11D8093720990937309A0937409B093BD
:101540007509BF91AF919F918F913F912F910F900E
:101550000FBE0F901F9018951F920F920FB60F920B
:1015600011240BB60F922F933F934F935F936F937A
:101570007F938F939F93AF93BF93EF93FF9380914C
:10158000B900887F803609F49CC068F5883209F478
:101590005BC090F4803109F454C038F4882309F416
:1015A000F6C0883009F44DC0F5C0883109F44CC04C
:1015B000803209F45DC0EEC0803409F468C048F49C
:1015C000803309F455C0883309F0E4C08093A7093B
:1015D000D8C0803509F44FC0883509F45DC088341F
:1015E00009F0D8C0D6C0883909F4C7C0A8F4883734
:1015F00009F467C038F4883609F463C0803709F409
:1016000060C0C8C0883809F4B8C0803909F45FC028
:10161000803809F0BFC05BC0803B09F486C038F455
:10162000803A09F466C0883A09F47FC0B3C0803CB0
:1016300009F4A7C0883C09F4A4C0883B09F48AC017
:10164000A9C08091840910C09091A6098091A50934
:10165000981770F5E091A60981E08E0F8093A60996
:10166000F0E0EB57F64F80818093BB0085EC86C09D
:101670008093A7098EC0E091A60981E08E0F809328
:10168000A6098091BB00F0E0EB57F64F8083909164
:10169000A6098091A5096EC0E091A60981E08E0F90
:1016A0008093A6098091BB00F0E0EB57F64F808352
:1016B0008091A80981116DC081E08093830984EA3B
:1016C00061C083E08093A90910927009CFCF809107
:1016D0007009803208F051C0E091700981E08E0FEE
:1016E000809370098091BB00F0E0E05BF64F80834F
:1016F000BDCF85EC8093BC001092A9098091700940
:10170000803230F4E0917009F0E0E05BF64F108237
:101710006091700970E0E0917609F091770980E5B9
:1017200099E019951092700935C084E08093A90959
:1017300010924F0910924E09E0917809F0917909C1
:10174000199580914E09811105C081E080934E0961
:1017500010922E09E0914F0981E08E0F80934F097E
:10176000F0E0E25DF64F80818093BB0090914F09DD
:1017700080914E09981708F479CF85E88093BC00D2
:1017800009C085EC8093BC001092A90903C0109297
:10179000A70922D8FF91EF91BF91AF919F918F91AF
:1017A0007F916F915F914F913F912F910F900BBE61
:1017B0000F900FBE0F901F901895CF92DF92EF926F
:1017C000FF920F931F93CF93DF936C017A018B01EC
:1017D000C0E0D0E0CE15DF0581F0D8016D918D011C
:1017E000D601ED91FC910190F081E02DC601199593
:1017F000892B11F02196EECF7E01C701DF91CF91A9
:101800001F910F91FF90EF90DF90CF900895FC0112
:10181000538D448D252F30E0842F90E0821B930B55
:10182000541710F0CF96089501970895FC01918DFB
:10183000828D981761F0828DDF01A80FB11D5D9632
:101840008C91928D9F5F9F73928F90E008958FEFA0
:101850009FEF0895FC01918D828D981731F0828D54
:10186000E80FF11D858D90E008958FEF9FEF0895AB
:10187000FC01918D228D892F90E0805C9F4F821B0F
:1018800091098F73992708958EEC99E0F1DF21E09B
:10189000892B09F420E0822F0895FC01848DDF015B
:1018A000A80FB11DA35ABF4F2C91848D90E00196D3
:1018B0008F739927848FA689B7892C93A089B189C2
:1018C0008C91837080648C93938D848D981306C063
:1018D0000288F389E02D80818F7D80830895EF92C7
:1018E000FF920F931F93CF93DF93EC0181E0888FDA
:1018F0009B8D8C8D981305C0E889F989808185FDC1
:1019000025C0F62E0B8D10E00F5F1F4F0F731127B0
:10191000E02E8C8DE8120BC00FB607FCFACFE889D9
:10192000F989808185FFF5CFCE01B7DFF2CF8B8DAE
:10193000FE01E80FF11DE35AFF4FF0829FB7F894C4
:101940000B8FEA89FB89808180620AC09FB7F89477
:10195000EE89FF896083E889F989808183708064DA
:1019600080839FBF81E090E0DF91CF911F910F9125
:10197000FF90EF900895CF93DF93EC01888D88233B
:10198000C1F0EA89FB89808185FD05C0A889B989F4
:101990008C9186FD0EC00FB607FCF5CF808185FFC8
:1019A000F2CFA889B9898C9185FFEDCFCE0175DF83
:1019B000E8CFDF91CF91089580E090E0892B19F076
:1019C00063DF811125C080E090E0892B41F080E049
:1019D00090E0892B21F00E94000081111CC080E062
:1019E00090E0892B41F080E090E0892B21F00E946B
:1019F0000000811113C080E090E0892BA1F080E00D
:101A000090E0892B81F00E94000081110AC00895A6
:101A10000E940000D8CF0E940000E1CF0E94000089
:101A2000EACF0C94000008950E94BC1D6115710559
:101A300079F0FB0101900020E9F73197AF01461BD7
:101A4000570BDC01ED91FC910280F381E02D19949C
:101A500080E090E008951F920F920FB60F9211242C
:101A60000BB60F922F933F934F935F936F937F9398
:101A70008F939F93AF93BF93EF93FF938EEC99E077
:101A80000CDFFF91EF91BF91AF919F918F917F916B
:101A90006F915F914F913F912F910F900BBE0F90DF
:101AA0000FBE0F901F9018951F920F920FB60F92B6
:101AB00011240BB60F922F938F939F93EF93FF9365
:101AC000E091DE09F091DF098081E091E409F09175
:101AD000E50982FD12C090818091E7098F5F8F73C5
:101AE0002091E809821751F0E091E709F0E0E25314
:101AF000F64F958F8093E70901C08081FF91EF91A8
:101B00009F918F912F910F900BBE0F900FBE0F9052
:101B10001F901895CF93DF93282F30E0F901EE5DE9
:101B2000FE4F8491F901EE57FE4FD491F901EE5129
:101B3000FE4FC491CC2389F08111CCDBEC2FF0E077
:101B4000EE0FFF1FE85FFE4FA591B491EC91ED23DE
:101B500081E090E021F480E002C080E090E0DF913D
:101B6000CF9108954F925F926F927F928F929F9242
:101B7000AF92BF92CF92DF92EF92FF920F931F939B
:101B8000CF93DF93CDB7DEB7A1970FB6F894DEBF42
:101B90000FBECDBF8C016B01770FEE08FF08F7FE7B
:101BA0002EC0DC01ED91FC910190F081E02D6DE201
:101BB00019955C0122273327A9012C193D094E09EB
:101BC0005F0919A2FE01B1967F019AE0492E512CBE
:101BD000612C712CCA01B901A30192010E94921DCE
:101BE000605DD7016E937D012115310541055105D9
:101BF00089F7BD01C8011ADF8A0D9B1D1DC0A70111
:101C0000960119A2FE01B1967F018AE0882E912CDF
:101C1000A12CB12CCA01B901A50194010E94921D09
:101C2000605DD7016E937D01211531054105510598
:101C300089F7BD01C801FADEA1960FB6F894DEBFA0
:101C40000FBECDBFDF91CF911F910F91FF90EF900D
:101C5000DF90CF90BF90AF909F908F907F906F90CC
:101C60005F904F900895CF93DF93BC018EEC99E085
:101C700079DFEC0164E878E08EEC99E0D7DE8C0F38
:101C80009D1FDF91CF910895CF93DF93BC018EEC20
:101C900099E0CCDEEC0164E878E08EEC99E0C6DEF9
:101CA0008C0F9D1FDF91CF9108953091CD09313276
:101CB00008F04BC08091A9098111FCCF9091CC090B
:101CC00022E02093A90921E02093A8092FEF209377
:101CD000A7091092A6093093A509ECEAF9E0A5E856
:101CE000B9E020E0321721F041914D932F5FFACFF8
:101CF0001092840920918409990F922B9093840962
:101D000090918309913061F4109283099091840934
:101D10009093BB009091BC0093FDF8CF95EC01C06F
:101D200095EE9093BC009091A9099230E1F39091C7
:101D3000A7099F3F79F08091A709803241F08091F7
:101D4000A709803331F084E005C081E003C082E060
:101D500001C083E01092AB091092CD091092AA093C
:101D60000895FC0181A1882339F06EBD00000DB4F7
:101D700007FEFDCF8EB5089528E030E090E8A4A1DD
:101D8000B5A14C9183A5809584238C93A2A1B3A186
:101D900082A5462F492319F04C91842B03C04C9106
:101DA000809584238C93A4A1B5A14C9183A5842B09
:101DB0008C9396952150310911F708959F92AF9217
:101DC000BF92CF92DF92EF92FF920F931F93CF9328
:101DD000DF93EC0161E276D660E0CE0173D66FE767
:101DE000CE0170D662E2CE016DD660E0CE016AD639
:101DF00067E0CE0167D68C8D8F3F41F1EEA1FFA148
:101E000090818CA5892B8083E8A5F9A590818DA56B
:101E1000892B8083EEA1FFA190818CA580958923D9
:101E2000808300E012E020E0E22E26E0F22EF801AE
:101E300061918F01CE0195DFE016F106C1F7EEA1A9
:101E4000FFA190818CA5892B808330C0E090B800E1
:101E50008CE08093B80000E012E090E0A92E96E0BC
:101E6000B92E992493948A8D9092AA098093CC09D3
:101E70001092AB091092CD0960E48BE69AE00E94C3
:101E80007804680180E1F82EF60161916F018BE61C
:101E90009AE00E947804FA94F110F6CF06DF005F12
:101EA0001F4FA016B106F9F6E092B800DF91CF916E
:101EB0001F910F91FF90EF90DF90CF90BF90AF9068
:101EC0009F9008952F923F924F925F926F927F92D0
:101ED0008F929F92AF92BF92CF92DF92EF92FF923A
:101EE0000F931F93CF93DF93CDB7DEB76B970FB6EA
:101EF000F894DEBF0FBECDBF9B8F8A8F5B011A01A6
:101F0000D22E1F830E833701C982DC0158962D9192
:101F10003C9159972115310509F0E6C018968D912D
:101F20009C911997681779070CF0CDC11A968D917D
:101F30009C911B97481759070CF0C5C18C2C912C0C
:101F4000FB0126E0C29EE00DF11D1124FB87EA870C
:101F50001E161F060CF0B7C1A40183E0440F551FE5
:101F60008A95E1F75D874C87CA01820D931D18168B
:101F700019060CF0A8C157968C91811104C05FEA34
:101F80005D1508F4D394AA8DBB8DED91FC9111974A
:101F90000284F385E02DCD011995B5E0DB9EC001EB
:101FA0001124F5013596FF87EE87BB82AA822501B1
:101FB0009C012A193B09398B288BA101485F5F4F8F
:101FC0005B8B4A8BE889F989E40DF51DE85DFD4FCF
:101FD0005491588761013D822C82888580FF13C00F
:101FE000AA8DBB8DED91FC91B981B13031F404849F
:101FF000F585E02D2E813F8116C00684F785E02D02
:10200000EE80FF801AC0EE81FF81E615F705F1F042
:10201000AA8DBB8DED91FC91B981B13051F404844E
:10202000F585E02D9301A601B2018A8D9B8D19954E
:102030000DC00684F785E02D7301840194014C8165
:102040005D816A817B818A8D9B8D1995E885E695F6
:10205000E887FFEFCF1ADF0A2C813D81280D391D5B
:102060003D832C834A895B89C416D50609F0B5CF18
:102070005FEF451A550A8A819B81880D991D9B83C4
:102080008A83AE85BF854A165B0609F09BCFEE8139
:10209000FF81E615F70509F4F4C0EA8DFB8DA081F8
:1020A000B181F981F13079F4B5016B5F7F4F5096C2
:1020B000ED91FC915197830128E030E0A1018A8DD8
:1020C0009B8D1995DEC06A857B85681979091E96F6
:1020D000ED91FC911F9773010C851D859401A10161
:1020E0008A8D9B8D1995CDC0F9013496E491DE1A45
:1020F000F901329685919491B7E0DB9E800D911D98
:102100001124F901259134913B8B2A8BFC012591F7
:1021100034912901FC013296C490319634913E8766
:10212000329614913196D4904981423058F0612E04
:10213000012E000C77088D2D0D2C000C990B998722
:10214000888704C019861886612C712CAA8DBB8DD6
:10215000ED91FC9111970284F385E02DCD01199545
:10216000B9818B2E912C689CC001699C900D789C44
:10217000900D1124FC01EA0DFB1DFD87EC871A82EE
:10218000712C612CE12F110FFF0B95012E0F3F1FBA
:102190003B872A87AC0CB11CA5014E0F5F1F5F8BDC
:1021A0004E8BC1018D0D911DD7FC9A95998F888F0B
:1021B0009E85691608F065C0862D90E04885598592
:1021C000480F591F489D9001499D300D589D300D75
:1021D0001124D101A20FB31FB98BA88BEC85FD850B
:1021E000FD83EC83AA84BB84DA80FA85DF1A288D0C
:1021F000398D280F391F3D8B2C8B8D2D8A0D4E89E3
:102200005F89A416B506C1F1877041F4C201019639
:10221000EA89FB89E40DF51D74902C0177FE21C03D
:10222000AA8DBB8DED91FC91B981B13061F404842C
:10223000F585E02D2E813F814C895D89B5018A8D20
:102240009B8D19950EC00684F785E02DEE80FF80EA
:1022500084019401488959896C817D818A8D9B8D87
:102260001995770CEFEFAE1ABE0A2C813D81280D2F
:10227000391D3D832C83C1CF3A813C0D3A83639451
:1022800097CFAA8DBB8DED91FC9111970688F789A8
:10229000E02DCD016B960FB6F894DEBF0FBECDBF1B
:1022A000DF91CF911F910F91FF90EF90DF90CF9032
:1022B000BF90AF909F908F907F906F905F904F9066
:1022C0003F902F9019946B960FB6F894DEBF0FBE17
:1022D000CDBFDF91CF911F910F91FF90EF90DF90D5
:1022E000CF90BF90AF909F908F907F906F905F90B6
:1022F0004F903F902F900895FC01611101C061E063
:10230000648B81E090E0938B828B918B808B80E05B
:1023100094E0E0E0F2E0DF019C011D9221503040AA
:10232000E1F7089583CB8F929F92AF92BF92CF92A5
:10233000DF92EF92FF920F931F93CF93DF93EC0105
:10234000C72ED52E5901E0E48E2E860EF0E49F2E86
:10235000940E8AE078136CC058136EC0232B91F44E
:10236000EE24E394F12C00E110E02CE030E046E2B2
:1023700050E069E070E0CE010E94A5051B8A1A8A30
:10238000198A188A8AE090E09D878C8787E290E01E
:102390009F878E87682DCE010E94960881E090E08D
:1023A0009B8B8A8B998B888BAA94AB2891F4EE2413
:1023B000E394F12C00E110E028E130E046E250E047
:1023C00065E170E0CE010E94A5051B8A1A8A198A70
:1023D000188A86E190E09D878C8707E210E01F87CE
:1023E0000E876AE070E0CE01BDDB81E090E09B8B60
:1023F0008A8B998B888B88E290E09D878C871F87DA
:102400000E8767E878E0CE018DDF82E590E09D875A
:102410008C871F870E87692DCE010E9496088EE556
:1024200090E09D878C871F870E876AE070E03FC130
:1024300089E0871708F069C089E08D1508F4CDC0E0
:10244000A114B10491F4EE24E394F12C00E110E026
:102450002CE030E046E250E06FE070E0CE010E94F8
:10246000A5051B8A1A8A198A188A80E190E09D873F
:102470008C8787E290E09F878E87682DCE010E942F
:10248000960881E090E09B8B8A8B998B888BAA942D
:10249000AB2891F4EE24E394F12C00E110E028E164
:1024A00030E046E250E06BE170E0CE010E94A5050D
:1024B0001B8A1A8A198A188A8CE190E09D878C877A
:1024C00007E210E01F870E876C2D70E0CE014ADB1B
:1024D00081E090E09B8B8A8B998B888B8EE290E0D9
:1024E0009D878C871F870E8767E878E0CE011ADF0B
:1024F00088E590E09D878C871F870E87692DCE0128
:102500000E94960884E690E0CCC089E0851708F028
:1025100064C0232B91F4EE24E394F12C00E110E04D
:102520002CE030E046E250E06FE070E0CE010E9427
:10253000A5051B8A1A8A198A188A80E190E09D876E
:102540008C8787E290E09F878E87682DCE010E945E
:10255000960881E090E09B8B8A8B998B888BAA945C
:10256000AB2891F4EE24E394F12C00E110E02CE090
:1025700030E046E250E06BE170E0CE010E94A5053C
:102580001B8A1A8A198A188A8CE190E09D878C87A9
:1025900007E210E01F870E876C2D70E0CE01E2DAB3
:1025A00081E090E09B8B8A8B998B888B82E290E014
:1025B0009D878C871F870E8767E878E0CE01B2DEA3
:1025C0008CE490E09D878C871F870E87692DCE0154
:1025D0000E94960888E590E064C0A114B10491F4CB
:1025E000EE24E394F12C00E110E02CE030E046E230
:1025F00050E065E170E0CE010E94A5051B8A1A8AB1
:10260000198A188A86E190E09D878C8787E290E09E
:102610009F878E87682DCE010E94960881E090E00A
:102620009B8B8A8B998B888BAA94AB2891F4EE2490
:10263000E394F12C00E110E02CE030E046E250E0C1
:1026400061E270E0CE010E94A5051B8A1A8A198AF0
:10265000188A82E290E09D878C8707E210E01F874E
:102660000E876C2D70E0CE017DDA81E090E09B8BCF
:102670008A8B998B888B88E290E09D878C871F8757
:102680000E8767E878E0CE014DDE82E590E09D8719
:102690008C871F870E87692DCE010E9496088EE5D4
:1026A00090E09D878C871F870E876D2D70E0CE018F
:1026B000DF91CF911F910F91FF90EF90DF90CF901E
:1026C000BF90AF909F908F904DCA0F931F93CF9361
:1026D000DF93DC01FB0155968C915597823089F090
:1026E000833021F1813009F0E7C014968D919C91DF
:1026F0001597BC01641B750BAB0141505109BF011B
:102700001DC014966D917C911597CB018E1B9F0B6C
:10271000FC0116968D919C911797BC01641B750B5B
:10272000AB0141505109E21BF30BC6C016966D91E7
:102730007C9117976E1B7F0B621B730B57FD1BC1A0
:1027400014968D919C911597481759070CF013C159
:1027500077FF04C0260F371F60E070E016968D915A
:102760009C911797FB01E20FF31F8E179F071CF434
:102770009C01261B370B121613060CF0FCC0A22F6F
:10278000862F86958695869590E8899F400D511DE8
:102790001124FA01E050FE4F6770A9F198E0961BF2
:1027A000492F50E0EA01C25FD94F8881291790F480
:1027B000421B51092FEF30E002C0359527954A950D
:1027C000E2F782230130110541F068F00230110573
:1027D00089F0D1C00130110519F42081822B0CC081
:1027E0000130110520F480952081822305C002303C
:1027F000110531F4208182278083A91708F4BBC01A
:10280000A91BE058FF4FA83048F10230110559F4D8
:10281000EF018A2F988190959883C058DF4F885098
:102820008830C0F733C081E00130110509F080E045
:102830008195EF019A2F8883C058DF4F98509830C8
:10284000D0F788EF8A0F86958695869560E8869FF3
:10285000E00DF11D1124E058FF4FA770AA2309F4E1
:102860008AC0B0E0AA5FB94F8C910130110531F0F8
:1028700040F00230110509F07EC01BC09081892B09
:1028800003C0809590818923808375C088EF8A0F6B
:1028900086958695869570E8879FE00DF11D112439
:1028A000E058FF4FA77009F466C0B0E0AA5FB94FC7
:1028B0008C9190818927E8CF57FD5DC016968D9148
:1028C0009C911797481759070CF055C0F7FF04C0A3
:1028D0002E0F3F1FE0E0F0E014968D919C9115972C
:1028E000BF01620F731F861797071CF49C012E1BF4
:1028F0003F0B121613060CF03EC0CA0157FD079697
:1029000063E0959587956A95E1F79695982F8827C6
:1029100097958795E80FF91FE050FE4F47705527B0
:1029200081E090E001C0880F4A95EAF7482F013016
:10293000110539F078F002301105E9F42E0F3F1F30
:1029400013C02E0F3F1FE217F307A9F08081842BDD
:102950008193F9CF80952E0F3F1FE217F30759F0AF
:10296000908198239193F9CFE217F30721F08081AA
:1029700084278193F9CFDF91CF911F910F91089513
:10298000FC0177FD9AC080859185681779070CF066
:1029900094C057FD92C082859385481759070CF063
:1029A0008CC08589823009F07CC084819581DC01EE
:1029B000A61BB70BBD016150710986819781FC018F
:1029C000E41BF50BAF01415051090AC0813041F4BD
:1029D00084819581841B950BAB01BC016150710909
:1029E0002130310529F008F122303105E1F1089557
:1029F000FA0157FD3796A3E0F595E795AA95E1F71B
:102A0000F695FE2FEE27F795E7956E0F7F1FFB01DA
:102A1000E050FE4F4770552781E090E001C0880FDD
:102A20004A95EAF79081892B3AC0FA0157FD37960B
:102A300023E0F595E7952A95E1F7F695FE2FEE2729
:102A4000F795E7956E0F7F1FFB01E050FE4F477033
:102A5000552781E090E001C0880F4A95EAF78095FC
:102A6000908189231CC0FA0157FD379683E0F595C4
:102A7000E7958A95E1F7F695FE2FEE27F795E7950E
:102A80006E0F7F1FFB01E050FE4F4770552781E01E
:102A900090E001C0880F4A95EAF7908189278083EA
:102AA0000895833009F092CF86819781861B970B1A
:102AB000BA01AC014150510993CF0895089580E0C7
:102AC00090E008951F93CF93DF93EC01162F8C8D28
:102AD0008F3F01F1EEA1FFA190818CA5892B80830E
:102AE000E8A5F9A590818DA5809589238083EEA125
:102AF000FFA190818CA5809589238083CE0131D957
:102B0000EEA1FFA190818CA5892B8083DF91CF91CD
:102B10001F9108958A8D91E09093AA098093CC0922
:102B20001092AB091092CD0960E08BE69AE00E940A
:102B30007804612F8BE69AE00E947804DF91CF91B0
:102B40001F91B3C8CF93DF931F921F92CDB7DEB70B
:102B500020917B0A30917C0ACE0101962115310526
:102B600019F48F579A4018C0AC01421B530BE091E7
:102B70007D0AF0917E0A80E090E0309759F09C0148
:102B80002E5F3F4F80819181820F931F0280F381DE
:102B9000E02DF3CF840F951F9A83898389819A81D1
:102BA0000F900F90DF91CF9108950F931F93CF93C4
:102BB000DF93EC018B016CE878E08EEC99E0B2DBFE
:102BC000C1DF51D86CE271E080E090E00E942A0AF7
:102BD000198308830230110599F040F4011511059D
:102BE00069F00130110571F484E00BC00330110568
:102BF00039F00430110531F482E003C085E001C0F2
:102C000083E08A839A819B8381E08C838D839E837A
:102C10008F83DF91CF911F910F9108958091770A53
:102C20009091780A892B89F58EE290E05AD6FC01C2
:102C30001382128220E830E03583248380E490E020
:102C4000978386833187208793878287158A1586A5
:102C500014861786168681E0848B2FEF3FEF338B27
:102C6000228B318B208B868B178A118E108E8AE4F3
:102C700096E0918380838FEF848F80A3868F858FEA
:102C8000878FF093780AE093770A8091770A909182
:102C9000780A08952F923F924F925F926F927F929F
:102CA0008F929F92AF92BF92CF92DF92EF92FF925C
:102CB0000F931F93CF93DF938B015A01AFDFEC018A
:102CC0008091790A90917A0A892BE9F483E090E067
:102CD00008D66C0187E3F601808388E3818389E36A
:102CE000828360E087E30E94EE0960E0F601818163
:102CF0000E94EE0960E0F60182810E94EE09D09206
:102D00007A0AC092790AC090790AD0907A0A34E09F
:102D1000232E312C4EE0842E912CF801808191815C
:102D20008230910509F43FC0B0F4009759F1019742
:102D300009F064C0F801448055806680778062E0C5
:102D4000CE01DADA84E090E09D878C879F868E86BC
:102D50006BEC78E049C083309105B1F1049709F03C
:102D60004DC0F801448055806680778062E0CE01D6
:102D7000C3DA8AE090E09D878C879F868E8668EE16
:102D800078E032C0F801448055806680778062E048
:102D9000CE01B2DA86E190E09D878C879F868E8691
:102DA00063EC78E021C0F80144805580668077802C
:102DB00062E0CE01A1DA86E190E09D878C879F8654
:102DC0008E8666ED78E010C0F801448055806680FC
:102DD000778062E0CE0190DA8AE090E09D878C8770
:102DE0009F868E866EED78E0CE019CDA9501A30178
:102DF000B201CE0198DACE010E94DE0EF60180818A
:102E00000E948A0D892B29F5F60181810E948A0D85
:102E1000892BF9F4F60182810E948A0D892BC9F46D
:102E200024E0E22EF12C13C083E099E00E94440ECE
:102E3000A114B10409F015C1F8019481292F30E0E3
:102E4000223031050CF001C192E0E92EF12C17017E
:102E500064CFF60180810E948A0D019731F4F6015A
:102E600081810E948A0D892B39F0F60180810E94B0
:102E70008A0D892B19F51CC0F60182810E948A0DEA
:102E8000892B99F7F4E02F16310479F7F601808148
:102E90000E948A0D019739F46AE070E080E090E0CA
:102EA0000E942A0AF3CF82EF98E00E94440EAAC043
:102EB000F60181810E948A0D019741F0F60180811F
:102EC0000E948A0D892B09F070C051C0F6018281E1
:102ED0000E948A0D892B91F7F4E02F16310471F7C7
:102EE0008FB7F89440900A0950900B0960900C0934
:102EF00070900D098FBFF60181810E948A0D0197A4
:102F000039F46AE070E080E090E00E942A0AF3CF92
:102F10002FB7F89480910A0990910B09A0910C09A0
:102F2000B0910D092FBF84199509A609B709843FEF
:102F30009140A105B105B0F087EF98E0DF91CF9106
:102F40001F910F91FF90EF90DF90CF90BF90AF90C7
:102F50009F908F907F906F905F904F903F902F90B9
:102F60000C94440E8CEF98E00E94440E22C0F601AF
:102F700081810E948A0D892BC1F4F60182810E9411
:102F80008A0D019791F4F4E02F16310471F4F601E3
:102F900082810E948A0D019709F046CF6AE070E0B5
:102FA00080E090E00E942A0AF2CFF1E0EF16F104EF
:102FB00029F5F801248186813581978128130CC079
:102FC000931B492F50E0420F511D4B30510594F493
:102FD000920F968337830EC039130CC0821B482F83
:102FE00050E0430F511D4B30510524F4830FF8017D
:102FF00087832683EE24E394F12C29CFE114F10496
:1030000009F048C0A114B10469F4F8018681282FA1
:1030100030E02A303105B4F494819F5F94838F5F50
:10302000868310C0F1E0AF16B10461F4F801878126
:10303000282F30E02A3031052CF495819F5F95834D
:103040008F5F8783E12CF12C02CF8681282F30E01F
:103050002C3031050CF0F8CE91509483815086834A
:10306000F3CEF1E0AF16B10409F0EECEF801958190
:10307000292F30E0223031050CF4E6CE8781282F4D
:1030800030E02C3031050CF0DFCE9150958381502B
:103090008783DACEF2E0EF16F10409F4C9CEF3E04B
:1030A000EF16F10409F0D3CEDF91CF911F910F916C
:1030B000FF90EF90DF90CF90BF90AF909F908F9058
:1030C0007F906F905F904F903F902F900895CF9397
:1030D000DF93CDB7DEB728970FB6F894DEBF0FBEEB
:1030E000CDBF789484B5826084BD84B5816084BD91
:1030F00085B5826085BD85B5816085BD80916E0096
:10310000816080936E0010928100809181008260C6
:103110008093810080918100816080938100809103
:1031200080008160809380008091B10084608093F2
:10313000B1008091B00081608093B00080919100D7
:1031400082608093910080919100816080939100D2
:10315000809190008160809390008091A1008260B6
:103160008093A1008091A10081608093A100809153
:10317000A00081608093A0008091210182608093F3
:1031800021018091210181608093210180912001A2
:1031900081608093200180917A00846080937A001E
:1031A00080917A00826080937A0080917A008160B9
:1031B00080937A0080917A00806880937A001092E0
:1031C000C100E091DE09F091DF0962E0D62ED082E5
:1031D000E091DA09F091DB091082E091DC09F091CD
:1031E000DD098FEC80831092E609E091E209F0910D
:1031F000E30986E08083E091E009F091E1098081B4
:1032000080618083E091E009F091E109808188602C
:103210008083E091E009F091E109808180688083FA
:10322000E091E009F091E10980818F7D808362E780
:1032300076E08EEC99E076D885DC0E94330E6CE265
:1032400071E080E090E00E942A0AE8DC8C01909313
:10325000820980938109DC015B96DC925B978CE3A9
:103260005A968C935A975C968C915C978F3F09F491
:10327000C3C061E05E968C910E94EE0961E0F801A6
:1032800080A10E94EE09D80190968C919097082E0B
:10329000000C990BFC01EE51FE4FE491F0E0EE0FB3
:1032A000FF1FE853FE4F25913491F80137A326A361
:1032B000FC01EE57FE4FE4919C96EC939C975E9632
:1032C0008C915E97082E000C990BFC01EE51FE4F7D
:1032D000E491F0E0EE0FFF1FE853FE4F259134918B
:1032E000F80131A720A7FC01EE57FE4FE4919D960F
:1032F000EC939D9791968C919197811140C061E0DC
:103300005C968C910E94EE0961E0F801858D0E9427
:10331000EE09D8015D968C915D97082E000C990BF3
:10332000FC01EE51FE4FE491F0E0EE0FFF1FE85379
:10333000FE4F25913491F80135A324A3FC01EE57EB
:10334000FE4FE4919B96EC939B975C968C915C97D7
:10335000082E000C990BFC01EE51FE4FE491F0E0B9
:10336000EE0FFF1FE853FE4F25913491F80133A370
:1033700022A3FC01EE57FE4FE4919A96EC93F801DC
:1033800081A1882309F46BC0DFB6F89480917C0991
:10339000811127C0E7E1F2E08491E7EBF1E094913D
:1033A000E82FF0E0EE0FFF1FE859FE4FA591B49112
:1033B000EC91E92321F461E085E30E94C00961E01A
:1033C00085E30E94EE098CB580618CBD8CB580646C
:1033D0008CBD61E084E30E94EE0961E083E30E941A
:1033E000EE0980917C098F5F80937C09DFBE80E5C8
:1033F0008CBD81E08DBD33C010927B0910927A099B
:103400001092AB091092CD091092A90981E0809326
:10341000A8091092830961E084E10E94C00961E07B
:1034200085E10E94C0098091B9008E7F8093B90028
:103430008091B9008D7F8093B90088E48093B800B3
:1034400085E48093BC008EE194E0909379098093A9
:1034500078098FE194E09093770980937609D801F9
:103460005F968C9187FD1FC061E00E94EE0961E0CC
:10347000F801878D0E94C00961E070E080E090E073
:103480000E942A0A60E0D8015F968C910E94C009D0
:103490006AE070E080E090E00E942A0A61E0F801B2
:1034A000878D0E94C0096EEAC8010CDB65EDC8017A
:1034B00009DB60E8C80106DB68EAC80103DB6FE3EB
:1034C000C80100DB63EDC801FDDA60E0C801FADA8B
:1034D00060E4C801F7DA6DE8C801F4DA64E1C80114
:1034E000F1DA60E2C801EEDA60E0C801EBDA61EA25
:1034F000C801E8DA68ECC801E5DA6AEDC801E2DA89
:1035000062E1C801DFDA61E8C801DCDA6FECC8010A
:10351000D9DA69EDC801D6DA61EFC801D3DA6BED0B
:10352000C801D0DA60E4C801CDDA64EAC801CADAB9
:1035300066EAC801C7DA6EE2C801C4DA6FEAC801F8
:10354000C1DAC0908109D090820963E0C6010E946F
:103550007C11712C60E0A62E62E0B62E812C74E006
:10356000972E672D70E0D6011A960D911C911B972E
:10357000C80117FD0196959587956817790744F559
:10358000CB01880F991F081B190BF6012085318587
:10359000281B390BEE24E394F12CAB01C6010E94E9
:1035A000A505C6010E94DE0E62E370E080E090E0B7
:1035B0000E942A0AD501F4011D923197E9F762E3CE
:1035C00070E080E090E00E942A0AF3E07F0EC9CF0D
:1035D0008CE090E0D6011D969C938E931C9786E01C
:1035E00090E01F969C938E931E976BE976E0C60140
:1035F0000E9492118EE190E0F6019587848787E220
:1036000090E09787868761ED78E0C6010E9492116D
:10361000C6010E94DE0E60ED77E080E090E00E943F
:103620002A0A62EA76E08EEC99E00E9492118ADA28
:103630000E94330E6CE271E080E090E00E942A0A62
:103640006FEC76E08EEC99E00E9492117BDA0E949A
:10365000330E6CE271E080E090E00E942A0A8091D3
:103660007D0990917E09892B09F05DC082EF90E081
:1036700038D18C0160E070E088539F4F96DA61E0AA
:1036800070E0C80180539F4F90DA62E070E0C8019B
:1036900088529F4F8ADA63E070E0C80180529F4FE2
:1036A00084DA64E070E0C80188519F4F7EDA61E0FF
:1036B00077E08EEC99E00E94921144DA0E94330E7A
:1036C0006CE271E080E090E00E942A0AA8012AE002
:1036D00064E070E080E090E0FA01E80FF91F718388
:1036E0006083029684319105B9F721504C5E5F4F9B
:1036F0002111F0CF93DAF801E051FF4F91838083DD
:1037000063E477E08EEC99E00E9492111BDA0E944C
:10371000330E6CE271E080E090E00E942A0A109380
:103720007E0900937D0965E877E08EEC99E00E94C0
:10373000921108DA0E94330E6CE271E080E090E0B2
:103740000E942A0A80917D0990917E0990938009B8
:1037500080937F096EEB77E08EEC99E00E949211E6
:10376000F1D90E94330E6CE271E080E090E00E949B
:103770002A0AC0907F09D09080096BEF77E08EEC29
:1037800099E00E949211DED90E94330E6CE271E042
:1037900080E090E00E942A0A5601F0EFAF0EB11CC3
:1037A000D5010D911C9162E0C8010E947C1184E05A
:1037B00090E0F801958784878EE090E09787868770
:1037C00064E378E0C8010E94921185E290E0D8019C
:1037D0001D969C938E931C9787E290E01F969C9376
:1037E0008E931E976FE378E0C8010E949211C80182
:1037F0000E94DE0E6CED75E080E090E00E942A0AE7
:10380000860108531F4F88E0F801DE0111960190F0
:103810000D928A95E1F740E050E0BE016F5F7F4F67
:10382000C60138DA88E0F801DE01119601900D92A8
:103830008A95E1F741E050E0BE016F5F7F4FC6011E
:1038400029DA085F1F4F0A151B05E9F665E478E0E1
:103850008EEC99E00E94921175D90E94330E6CE2B1
:1038600071E080E090E00E942A0A0E94DC0CFDCF0B
:10387000EEECF9E01382128288EE93E0A0E0B0E073
:1038800084839583A683B7832AE136E0318320833E
:1038900025EC30E03587248724EC30E03787268715
:1038A00020EC30E0318B208B21EC30E0338B228B0D
:1038B00022EC30E0358B248B26EC30E0378B268BE6
:1038C000118E128E138E148EEBE6FAE013821282A2
:1038D00084839583A683B78388E396E0918380836E
:1038E00008950F931F93CF93DF938230910510F4C7
:1038F00082E090E0E0917D0AF0917E0A20E030E0E5
:10390000A0E0B0E0309719F140815181028113812C
:1039100048175907C8F08417950769F4109731F0D4
:1039200012960C93129713961C9327C000937D0A4E
:1039300010937E0A22C02115310519F04217530752
:1039400018F49A01BD01EF01DF01F801DBCF211569
:103950003105F9F0281B390B2430310580F48A81B8
:103960009B816115710521F0FB019383828304C063
:1039700090937E0A80937D0AFE01329644C0FE0138
:10398000E20FF31F819391932250310939832883E9
:103990003AC020917B0A30917C0A232B41F420917C
:1039A00002063091030630937C0A20937B0A209113
:1039B0000006309101062115310541F42DB73EB7BF
:1039C0004091040650910506241B350BE0917B0ABB
:1039D000F0917C0AE217F307A0F42E1B3F0B281787
:1039E000390778F0AC014E5F5F4F2417350748F078
:1039F0004E0F5F1F50937C0A40937B0A81939193F3
:103A000002C0E0E0F0E0CF01DF91CF911F910F9174
:103A10000895CF93DF93009709F481C0FC0132979A
:103A200013821282A0917D0AB0917E0A109781F4D0
:103A300020813181820F931F20917B0A30917C0A73
:103A40002817390751F5F0937C0AE0937B0A67C089
:103A5000ED0120E030E0CE17DF0740F44A815B81C2
:103A60009E0141155105F1F0EA01F5CFD383C283E0
:103A700040815181840F951FC817D90759F4888157
:103A80009981840F951F0296918380838A819B81FF
:103A9000938382832115310529F4F0937E0AE09304
:103AA0007D0A3DC0E901FB83EA8349915991C40F26
:103AB000D51FEC17FD0761F480819181840F951F5C
:103AC0000296E90199838883828193819B838A830B
:103AD000E0E0F0E012968D919C911397009719F019
:103AE000FD01DC01F7CF8D919C9111979D012E5F17
:103AF0003F4F820F931F20917B0A30917C0A281739
:103B0000390769F4309729F410927E0A10927D0AE1
:103B100002C013821282B0937C0AA0937B0ADF91C9
:103B2000CF910895A1E21A2EAA1BBB1BFD010DC067
:103B3000AA1FBB1FEE1FFF1FA217B307E407F5075D
:103B400020F0A21BB30BE40BF50B661F771F881F39
:103B5000991F1A9469F760957095809590959B01CF
:103B6000AC01BD01CF010895EE0FFF1F881F8BBF71
:103B70000790F691E02D199481E090E0F89400C050
:043B8000F894FFCFE7
:103B84000000000000000000000000000000000031
:103B94000000000000000000000000000000000021
:103BA4000000000000000000000000000000000011
:103BB4000000000000000000000000000000008081
:103BC40080800000000000000000000000000000F1
:103BD400008080C0C0000000000000000000000061
:103BE40000000000000000000000000000000000D1
:103BF40000000000000000000000000000000000C1
:103C040000000000000000000000000000000000B0
:103C14000000000080C0E0F0F8FCF8E000000000C4
:103C24000000000000000000000000000080808010
:103C3400808000808000000000808080808000FF01
:103C4400FFFF000000008080808000008080000072
:103C540080FFFF80800080800080808080008080E2
:103C64000000000000808000008C8E84000080F83A
:103C7400F8F88000000000000000000000000000D0
:103C8400F0F0F0F0F0F0F0F0F0F0F0F0E0E0C080F0
:103C940000E0FCFEFFFFFF7FFFFFFFFFFF000000CF
:103CA4000000000000000000000000FEFFC701014A
:103CB400010183FFFF00007CFEC70101010183FFB6
:103CC400FFFF0038FEC78301010183C7FFFF000027
:103CD40001FFFF010100FFFF0701010100007FFF59
:103CE40080000000FFFF7F0000FFFFFF000001FFD6
:103CF400FFFF0100000000000000000000000000C1
:103D0400030F3F7F7FFFFFFFFFFFFFFFE7C7C78F63
:103D14008F9FBFFFFFC3C0F0FFFFFFFFFFFCFCFC52
:103D2400FCFCFCFCFCF8F8F0F0E0C0000103030329
:103D34000303010303000000000103030303010163
:103D44000301000000010303030301010303000056
:103D54000003030000000303000000000000000152
:103D64000303030303010000000103010000000337
:103D7400030100000000000000000000000000003B
:103D840000000080C0E0F0F9FFFFFFFFFF3F1F0FBE
:103D940087C7F7FFFF1F1F3DFCF8F8F8F87C7DFF8D
:103DA400FFFFFFFFFFFFFF7F3F0F070030300000E2
:103DB40000000000000000000000000000000000FF
:103DC40000000000FEFEFC000000000000000000F7
:103DD40000000000000000000000000000E0C0003F
:103DE400000000000000000000003030000000006F
:103DF40000000000000000000000000000000000BF
:103E040000C0FEFFFFFFFFFFFFFFFFFF7F7F3F1F9D
:103E14000F071F7FFFFFF8F8FFFFFFFFFFFEF8E02B
:103E2400000000010000000000000000FEFE000091
:103E340000FCFEFC0C06060EFCF80000F0F81C0E5C
:103E44000606060CFFFFFF0000FEFE00000000FC5B
:103E5400FEFC00183C7E66E6CE84000006FFFF06EA
:103E640006FCFEFC0C0606060000FEFE0000C0F880
:103E7400FC4E4646464E7C7840183C76E6CECC80D6
:103E8400000000000000000000000000000000002E
:103E94000000000001070F1F1F3F3F3F3F1F0F039C
:103EA4000000000000000000000000000F0F0000F0
:103EB400000F0F0F000000000F0F000003070E0C8F
:103EC40018180C060F0F0F0000010F0E0C180C0F22
:103ED400070100040E0C180C0F070000000F0F0060
:103EE400000F0F0F0000000000000F0F000000077C
:103EF400070C0C181C0C060600040E0C180C0F07FB
:103F040000000000000000000000000000000000AD
:103F1400000000000000000000000000000000009D
:103F2400000000000000000000000000000000008D
:103F3400000000000000000000000000000000007D
:103F4400000000000000000000000000000000006D
:103F5400000000000000000000000000000000005D
:103F6400000000000000000000000000000000004D
:103F7400000000000000000000000000000000003D
:103F840000007F0A8000000103070F1F3F7F0080AD
:103F9400C0E0F0F8FCFE000000006F0CDD0B070C25
:103FA400BB0C380C160C2A0C00000000140DDD0BA1
:103FB4005F155E150000000078044C045F152004B2
:103FC400440430042104000000009608DD0B5F1552
:103FD4005E15C014200484065C0678066C068B0605
:103FE4002004A704A6043C076513A50588051B0542
:103FF400BC044E616E6F2E696E6F3A20426567692C
:104004006E6E696E672053657475702E20467265F6
:10401400654D656D6F7279203D2000424154544CCA
:1040240045004E616E6F2E696E6F3A20496E697459
:1040340069616C697A656420446973706C61792E76
:1040440020467265654D656D6F7279203D2000478D
:10405400616D654C6F6769632E6370703A20456EBD
:10406400746572656420676574496E7374616E6308
:10407400652E20467265654D656D6F7279203D2011
:10408400004C6F776572477269642E6370703A20D2
:10409400426567696E6E696E6720436F6E737472F2
:1040A400756374696F6E206F66204C6F7765724715
:1040B4007269642E20467265654D656D6F72792054
:1040C4003D20004C6F776572477269642E6370708F
:1040D4003A20436F6D706C6574656420436F6E7332
:1040E4007472756374696F6E206F66204C6F7765A8
:1040F40072477269642E20467265654D656D6F72F4
:1041040079203D200047616D654C6F6769632E63BC
:1041140070703A2052657475726E696E67206672AB
:104124006F6D20676574496E7374616E63652E20CC
:10413400467265654D656D6F7279203D20004E6154
:104144006E6F2E696E6F3A20436F6D706C65746587
:104154006420436F6E737472756374696F6E206F3D
:10416400662047616D654C6F6769632E20467265F2
:10417400654D656D6F7279203D200047616D654C1A
:104184006F6769632E6370703A20496E6974616C5D
:10419400697A696E672053686970204C6F63617433
:1041A400696F6E732E20467265654D656D6F727909
:1041B400203D2000504C41434520594F5552005357
:1041C40048495053004E616E6F2E696E6F3A20431A
:1041D4006F6D706C6574656420496E697469616C97
:1041E400697A6174696F6E206F662047616D654CF2
:1041F4006F6769632E20467265654D656D6F7279D0
:10420400203D20000D0A0020544F2000536869709F
:104214002E6370703A20426567696E6E696E67201E
:104224006F66205368697020436F6E737472756390
:10423400746F722E20467265654D656D6F727920BC
:104244003D20004341525249455200424154544C8E
:10425400455348495000435255495345520053551C
:10426400424D4152494E450044455354524F5945DD
:1042740052004C6566740048656C64005075736840
:0A4284006564005269676874000069
:020000023000CC
:10E000000D9489F10D94B2F10D94B2F10D94B2F129
:10E010000D94B2F10D94B2F10D94B2F10D94B2F1F0
:10E020000D94B2F10D94B2F10D94B2F10D94B2F1E0
:10E030000D94B2F10D94B2F10D94B2F10D94B2F1D0
:10E040000D94B2F10D94B2F10D94B2F10D94B2F1C0
:10E050000D94B2F10D94B2F10D94B2F10D94B2F1B0
:10E060000D94B2F10D94B2F10D94B2F10D94B2F1A0
:10E070000D94B2F10D94B2F10D94B2F10D94B2F190
:10E080000D94B2F10D94B2F10D94B2F10D94B2F180
:10E090000D94B2F10D94B2F10D94B2F10D94B2F170
:10E0A0000D94B2F10D94B2F10D94B2F10D94B2F160
:10E0B0000D94B2F10D94B2F10D94B2F10D94B2F150
:10E0C0000D94B2F10D94B2F10D94B2F10D94B2F140
:10E0D0000D94B2F10D94B2F10D94B2F10D94B2F130
:10E0E0000D94B2F141546D656761323536300041AF
:10E0F000726475696E6F206578706C6F72657220DE
:10E1000073746B3530305632206279204D4C530099
:10E11000426F6F746C6F616465723E004875683F52
:10E1200000436F6D70696C6564206F6E203D200048
:10E130004350552054797065202020203D20005FF9
:10E140005F4156525F415243485F5F3D2000415658
:10E1500052204C696243205665723D20004743437C
:10E160002056657273696F6E203D20004350552024
:10E1700049442020202020203D20004C6F7720663D
:10E18000757365202020203D20004869676820665F
:10E190007573652020203D200045787420667573D6
:10E1A00065202020203D20004C6F636B2066757336
:10E1B000652020203D20004D617220203720323024
:10E1C000313300312E362E3800342E332E350056A2
:10E1D00023202020414444522020206F7020636F70
:10E1E00064652020202020696E73747275637469E1
:10E1F0006F6E2061646472202020496E74657272B3
:10E20000757074006E6F20766563746F7200726A49
:10E210006D702020006A6D70200057686174207056
:10E220006F72743A00506F7274206E6F7420737541
:10E2300070706F72746564004D7573742062652030
:10E2400061206C6574746572002000577269747483
:10E25000696E672045450052656164696E672045B7
:10E26000450045452065727220636E743D00504F35
:10E27000525400303D5A65726F2061646472003FF1
:10E280003D43505520737461747300403D454550C3
:10E29000524F4D207465737400423D426C696E6B41
:10E2A000204C454400453D44756D70204545505215
:10E2B0004F4D00463D44756D7020464C415348001B
:10E2C000483D48656C70004C3D4C69737420492F83
:10E2D0004F20506F72747300513D51756974005234
:10E2E0003D44756D702052414D00563D73686F7707
:10E2F00020696E7465727275707420566563746FF0
:10E30000727300593D506F727420626C696E6B00BD
:10E310002A0011241FBECFEFD1E2DEBFCDBF01E046
:10E320000CBF12E0A0E0B2E0EEE1FDEF03E00BBFB6
:10E3300002C007900D92A030B107D9F712E0A0E01B
:10E34000B2E001C01D92AE30B107E1F70F9460F367
:10E350000D948DFE01E20EBF0FEF0DBF11241FBE05
:10E360000D9460F30D9400F020E030E040ED57E0B4
:10E3700005C0FA013197F1F72F5F3F4F2817390792
:10E38000C0F308959C01260F311DC901A0E0B0E043
:10E390002F5F3F4FABBFFC018791882361F08093D3
:10E3A000C6008091C00086FFFCCF8091C0008064D1
:10E3B0008093C000EACF08958DE08093C6008091DD
:10E3C000C00086FFFCCF8091C00080648093C000B5
:10E3D0008AE08093C6008091C00086FFFCCF8091C8
:10E3E000C00080648093C00008950F94C2F10F9420
:10E3F000DCF10895FC019081992359F09093C600B7
:10E400008091C00086FFFCCF8091C0008064809323
:10E41000C0003196992379F70895282F982F929567
:10E420009F70892F805D8A3308F0895F8093C600D2
:10E430008091C00086FFFCCF8091C00080648093F3
:10E44000C000822F8F70982F905D9A3308F0995FEB
:10E450009093C6008091C00086FFFCCF8091C000E1
:10E4600080648093C00008959C01FB01853691056E
:10E470001CF46330710594F0C90164E670E00F94F8
:10E480002EFE605D7F4F6093C6008091C00086FFC6
:10E49000FCCF8091C00080648093C0002B30310598
:10E4A00014F43297B4F0C90164E670E00F942EFEC4
:10E4B0006AE070E00F942EFE605D7F4F6093C600AF
:10E4C0008091C00086FFFCCF8091C0008064809363
:10E4D000C000C9016AE070E00F942EFEC0968093E0
:10E4E000C6008091C00086FFFCCF8091C000806490
:10E4F0008093C00008951F93182F8EE692EE60E07F
:10E500000F94C2F11093C6008091C00086FFFCCF2B
:10E510008091C00080648093C0000F94DCF11F9153
:10E5200008952F923F924F925F926F927F928F92B7
:10E530009F92AF92BF92CF92DF92EF92FF920F9392
:10E540001F93DF93CF93CDB7DEB762970FB6F894E2
:10E55000DEBF0FBECDBF382E622ECA01DB015C01CB
:10E560006D01772420E2222E2E010894411C511CBB
:10E570008BC081E0A81680E0B80681E0C80680E084
:10E58000D80628F0C601AA27BB270F940DF2BB2797
:10E59000AD2D9C2D8B2D0F940DF28A2D0F940DF225
:10E5A0002092C6008091C00086FFFCCF8091C00001
:10E5B00080648093C0009DE29093C6008091C0006B
:10E5C00086FFFCCF8091C00080648093C0002092C1
:10E5D000C6008091C00086FFFCCF8091C00080649F
:10E5E0008093C00019828601750188249924A1E0D6
:10E5F0003A1651F03A1620F0B2E03B1661F409C029
:10E600000BBFF701779007C0C7010F9477FE782EF4
:10E6100002C0F7017080872D0F940DF22092C60082
:10E620008091C00086FFFCCF8091C0008064809301
:10E63000C000872D8052F401EF70F0708F3520F408
:10E64000E40DF51D708204C0E40DF51D8EE280839B
:10E650000894E11CF11C011D111D0894811C911CE2
:10E6600090E18916910409F0C2CF80E190E0A0E02A
:10E67000B0E0A80EB91ECA1EDB1E198AC2010F9493
:10E68000FAF10F94DCF16A94662009F072CF629679
:10E690000FB6F894DEBF0FBECDBFCF91DF911F91B3
:10E6A0000F91FF90EF90DF90CF90BF90AF909F9031
:10E6B0008F907F906F905F904F903F902F90089534
:10E6C0002F923F924F925F926F927F928F929F9282
:10E6D000AF92BF92CF92DF92EF92FF920F931F9370
:10E6E000DF93CF93CDB7DEB7CD53D1400FB6F894BB
:10E6F000DEBF0FBECDBF01E20EBF0FEF0DBF94B75F
:10E70000F894A89514BE80916000886180936000A1
:10E7100010926000789493FF05C0E0910002F091A0
:10E7200001021995279A2F9A8091C00082608093E8
:10E73000C00080E18093C40088E18093C1000000A4
:10E74000EE24FF24870144E0A42EB12CCC24DD2448
:10E7500024C0C5010197F1F70894E11CF11C011DCB
:10E76000111D21E2E2162EE4F20620E0020720E06D
:10E77000120718F031E0C32ED12CC801B70127ECE5
:10E780003BE140E050E00F9441FE611571058105C9
:10E79000910519F485B1805885B98091C00087FD35
:10E7A00003C0C114D104A9F2A6014F5F5F4FC25E3E
:10E7B000DE4F59834883CE51D140C25EDE4F8881FF
:10E7C0009981CE51D140019711F00D9410FEC05D9A
:10E7D000DE4F19821882C053D14060E0C15DDE4F28
:10E7E0001882CF52D14088249924C35DDE4F19820C
:10E7F0001882CD52D140C05EDE4F188219821A8233
:10E800001B82C052D140CE5CDE4F188219821A8220
:10E810001B82C253D140EE24FF2487010BBFF701B6
:10E8200007911691C45CDE4F19830883CC53D14005
:10E830000D940BFEC25EDE4F28813981CE51D1404E
:10E840002130310509F52091C600C25EDE4F1982E4
:10E850001882CE51D14022C02F5F3F4F4F4F5F4FA4
:10E86000213082E138078AE7480780E0580780F0C6
:10E87000C45CDE4FE881F981CC53D140EF5FFF4F9C
:10E8800019F0EE27FF27099420E030E040E050E047
:10E890008091C00087FFE0CF2091C600C35DDE4FAE
:10E8A00048815981CD52D1404F5F5F4FC35DDE4FEC
:10E8B00059834883CD52D140213209F063C64A3092
:10E8C000510508F05FC60894811C911C53E0851621
:10E8D000910409F059C600E010E018C081E280936D
:10E8E000C6008091C00086FFFCCF8091C00080648C
:10E8F0008093C0002F5F3F4F2931310579F70F9486
:10E90000DCF10F5F1F4F0530110519F020E030E0FA
:10E91000E5CF10920A0210920B0210920C02109294
:10E920000D02109206021092070210920802109235
:10E930000902109202021092030210920402109235
:10E9400005028FEE90EE60E00F94F5F180E191EE1C
:10E9500060E00F94C2F18091C00087FFFCCF9091DE
:10E96000C600903608F09F759032B8F09093C600BC
:10E970008091C00086FFFCCF8091C00080648093AE
:10E98000C000A0E2A093C6008091C00086FFFCCF2B
:10E990008091C00080648093C000983409F4D7C18E
:10E9A0009934B8F4923409F459C1933458F490333B
:10E9B00019F1903308F4E3C59F33A1F1903409F0C5
:10E9C000DEC5BDC0953409F470C1963409F0D7C5D1
:10E9D00098C1923509F42BC2933538F49C3409F46C
:10E9E000F5C1913509F0CBC518C2963509F445C279
:10E9F000993509F0C4C567C483E792EE62E00F94CD
:10EA0000F5F110920602109207021092080210927D
:10EA1000090210920A0210920B0210920C0210923C
:10EA20000D0213C18FE792EE62E00F94F5F18FEEC5
:10EA300090EE60E00F94F5F181E291EE60E00F94CA
:10EA4000C2F187EB91EE60E00F94F5F180E391EE77
:10EA500060E00F94C2F184EE90EE60E00F94F5F167
:10EA60008FE391EE60E00F94C2F186E090E061E008
:10EA700070E00F9434F20F94DCF18DE591EE60E0DC
:10EA80000F94C2F189EC91EE60E00F94F5F18EE401
:10EA900091EE60E00F94C2F183EC91EE60E00F9490
:10EAA000F5F18CE691EE60E00F94C2F18EE10F94E7
:10EAB0000DF288E90F940DF281E00F940DF20F949E
:10EAC000DCF18BE791EE60E00F94C2F119E0E0E039
:10EAD000F0E010935700E4918E2F0F940DF20F94F5
:10EAE000DCF18AE891EE60E00F94C2F1E3E0F0E03F
:10EAF00010935700E4918E2F0F940DF20F94DCF1D8
:10EB000089E991EE60E00F94C2F1E2E0F0E0109349
:10EB10005700E4918E2F0F940DF20F94DCF188EAE8
:10EB200091EE60E00F94C2F1E1E0F0E01093570045
:10EB30001491812F0F940DF20F94DCF107CF8BE825
:10EB400092EE62E00F94F5F18BE492EE60E00F94A8
:10EB5000F5F10F94DCF100E010E019C0C8016F2D51
:10EB60000F947FFEFF2031F489E492EE60E00F9471
:10EB7000C2F10BC0F092C6008091C00086FFFCCFAE
:10EB80008091C00080648093C0000F5F1F4FC80158
:10EB900081519F41A0E0B0E0ABBFFC01F790BAE229
:10EBA000FB1621F0E2E000301E07C1F60F94DCF105
:10EBB0000F94DCF187E592EE60E00F94F5F10F948D
:10EBC000DCF1CC24DD2400E010E01EC0C8010F946D
:10EBD00077FEF82E882331F489E492EE60E00F94FA
:10EBE000C2F10BC08093C6008091C00086FFFCCFAD
:10EBF0008091C00080648093C000FE1419F00894D6
:10EC0000C11CD11C0F5F1F4FC80181519F41A0E063
:10EC1000B0E0ABBFFC01E790FAE2EF1621F022E092
:10EC20000030120799F60F94DCF10F94DCF182E6C4
:10EC300092EE60E00F94C2F1C60161E070E00F94C3
:10EC400034F20F94DCF10F94DCF110920202109276
:10EC50000302109204021092050278CE89E992EE26
:10EC600062E00F94F5F1279A2F9A16C02F9880E052
:10EC700090E0E0EDF7E03197F1F7019684369105E9
:10EC8000C1F72F9A80E090E0E0EDF7E03197F1F7DF
:10EC9000019684369105C1F78091C00087FFE6CFC9
:10ECA0008091C00087FFFCCF64C485EA92EE62E0E9
:10ECB0000F94F5F140910202509103026091040219
:10ECC0007091050281E020E10F9491F2809102029F
:10ECD00090910302A0910402B091050280509F4FD1
:10ECE000AF4FBF4F8093020290930302A0930402A0
:10ECF000B093050280509041A040B04008F426CE69
:10ED0000A4CF83EB92EE62E00F94F5F140910602FE
:10ED100050910702609108027091090280E020E1A1
:10ED20000F9491F28091060290910702A09108023F
:10ED3000B091090280509F4FAF4FBF4F80930602A2
:10ED400090930702A0930802B0930902FFCD80ECD4
:10ED500092EE62E00F94F5F183E792EE60E00F949B
:10ED6000F5F18FE792EE60E00F94F5F18BE892EE0B
:10ED700060E00F94F5F189E992EE60E00F94F5F10F
:10ED800085EA92EE60E00F94F5F183EB92EE60E09D
:10ED90000F94F5F180EC92EE60E00F94F5F187ECC2
:10EDA00092EE60E00F94F5F188ED92EE60E00F9442
:10EDB000F5F18FED92EE60E00F94F5F18AEE92EEB0
:10EDC00060E00F94F5F183E093EEBDCD87EC92EE19
:10EDD00062E00F94F5F181E40F947BF282E40F94EA
:10EDE0007BF283E40F947BF284E40F947BF285E45E
:10EDF0000F947BF286E40F947BF287E40F947BF20E
:10EE000088E40F947BF28AE40F947BF28BE40F94F6
:10EE10007BF28CE40F947BF299CD88ED92EE62E068
:10EE20000F94F5F1772473948824992409C48FED05
:10EE300092EE62E00F94F5F140910A0250910B02BC
:10EE400060910C0270910D0282E020E10F9491F22A
:10EE500080910A0290910B02A0910C02B0910D02D8
:10EE600080509F4FAF4FBF4F80930A0290930B0289
:10EE7000A0930C02B0930D0269CD8AEE92EE62E08F
:10EE80000F94F5F184EE90EE60E00F94F5F18FECC5
:10EE900091EE60E00F94F5F1662477244301CC5D98
:10EEA000DE4F19821882C452D140D401C301B695F5
:10EEB000A79597958795CA5DDE4F88839983AA8326
:10EEC000BB83C652D140CC5DDE4FA881B981C4520C
:10EED000D1401196CC5DDE4FB983A883C452D14096
:10EEE000CD0162E070E00F9434F2B0E2B093C6005E
:10EEF0008091C00086FFFCCF8091C0008064809329
:10EF0000C000EDE2E093C6008091C00086FFFCCF18
:10EF10008091C00080648093C000F0E2F093C6004E
:10EF20008091C00086FFFCCF8091C00080648093F8
:10EF3000C000CA5DDE4FE880F9800A811B81C6529D
:10EF4000D140BB27A12F902F8F2D0F940DF2CA5DBA
:10EF5000DE4F8881C652D1400F940DF2B0E2FB2EF5
:10EF6000F092C6008091C00086FFFCCF8091C00067
:10EF700080648093C0000DE30093C6008091C000C0
:10EF800086FFFCCF8091C00080648093C00010E2B7
:10EF90001093C6008091C00086FFFCCF8091C00016
:10EFA00080648093C0008BBEF3012791C65DDE4F65
:10EFB0002883CA52D140A22EBB24CC24DD2408943D
:10EFC000611C711C811C911C8BBEF3018791282E42
:10EFD0003324442455240894611C711C811C911C09
:10EFE0008BBEF3013791C55DDE4F3883CB52D140E4
:10EFF0000894611C711C811C911C8BBEF30147910C
:10F00000C45DDE4F4883CC52D140ADEFEA2EAFEF66
:10F01000FA2EAFEF0A2FAFEF1A2F6E0C7F1C801E57
:10F02000911E142D032DF22CEE24EA0CFB1C0C1D5A
:10F030001D1D0F940DF220E22093C6008091C000A8
:10F0400086FFFCCF8091C00080648093C000C65DC5
:10F05000DE4F8881CA52D1400F940DF230E23093D6
:10F06000C6008091C00086FFFCCF8091C000806404
:10F070008093C000C45DDE4F8881CC52D1400F9494
:10F080000DF240E24093C6008091C00086FFFCCFA5
:10F090008091C00080648093C000C55DDE4F888190
:10F0A000CB52D1400F940DF250E25093C6008091A4
:10F0B000C00086FFFCCF8091C00080648093C000B8
:10F0C0008FEFE8168FEFF80680E0080780E018075A
:10F0D00031F484E092EE60E00F94C2F1DFC0D80119
:10F0E000C7018070907CA070B0708050904CA040A0
:10F0F000B040D1F52FEF3FE340E050E0E222F322B1
:10F1000004231523CA5DDE4FA880B980CA80DB8046
:10F11000C652D140AE0CBF1CC01ED11EAA0CBB1CD7
:10F12000CC1CDD1C8EE092EE60E00F94C2F1BB2798
:10F13000A12F902F8F2D0F940DF28E2D0F940DF285
:10F1400030E23093C6008091C00086FFFCCF8091F2
:10F15000C00080648093C0004EE34093C60080915D
:10F16000C00086FFFCCF87C08EE09EEFA0E0B0E03D
:10F17000E822F9220A231B239CE0E91694E9F90608
:10F1800090E0090790E0190709F088C0C45DDE4FE0
:10F19000A881CC52D140EA2EFF2400E010E0102FCD
:10F1A0000F2DFE2CEE24C55DDE4FB881CB52D14031
:10F1B000EB0EF11C011D111DD601C501817090706F
:10F1C000A070B070DC0199278827E80EF91E0A1F8D
:10F1D0001B1F20EF30E040E050E0A222B322C42207
:10F1E000D52241E1AA0CBB1CCC1CDD1C4A95D1F7F1
:10F1F000EA0CFB1C0C1D1D1D81E090E0A0E0B0E0BE
:10F20000282239224A225B2235E1220C331C441C7D
:10F21000551C3A95D1F7E20CF31C041D151D57013E
:10F220006801AA0CBB1CCC1CDD1C85E192EE60E0E1
:10F230000F94C2F1C801AA27BB270F940DF2BB2778
:10F24000A12F902F8F2D0F940DF28E2D0F940DF274
:10F2500090E29093C6008091C00086FFFCCF809121
:10F26000C00080648093C000AEE3A093C60080918C
:10F27000C00086FFFCCF8091C00080648093C000F6
:10F28000C601AA27BB270F940DF2BB27AD2D9C2DDD
:10F290008B2D0F940DF28A2D0F940DF20F94DCF14B
:10F2A000CC5DDE4FE881F981C452D140F99709F471
:10F2B0004DCBF4E0EF2EF12C012D112D6E0C7F1CA7
:10F2C000801E911EF2CD83E093EE62E00F94F5F183
:10F2D0008AE192EE60E00F94C2F18091C00087FF56
:10F2E000FCCF1091C6001F751093C6008091C0001E
:10F2F00086FFFCCF8091C00080648093C0000F9493
:10F30000DCF1812F81548A3108F036C1163409F4BA
:10F3100095C0173490F4133409F44EC0143430F40B
:10F320001134F1F0123409F01DC130C0143409F465
:10F3300059C0153409F016C16BC01A3409F4C4C0A1
:10F340001B3438F4173409F48FC0183409F00AC19B
:10F35000A1C01B3409F4D2C01C3409F003C1E8C0B9
:10F360008FEF81B90DC082B1809582B980E090E0C5
:10F37000E0EDF7E03197F1F70196883C9105C1F790
:10F380008091C00087FFEFCF12B8EFC08FEF84B934
:10F390000DC085B1809585B980E090E0E0EDF7E0A3
:10F3A0003197F1F70196883C9105C1F78091C00033
:10F3B00087FFEFCF15B8D9C08FEF87B90DC088B1DF
:10F3C000809588B980E090E0E0EDF7E03197F1F7C3
:10F3D0000196883C9105C1F78091C00087FFEFCF6F
:10F3E00018B8C3C08FEF8AB90DC08BB180958BB9A7
:10F3F00080E090E0E0EDF7E03197F1F70196883C8E
:10F400009105C1F78091C00087FFEFCF1BB8ADC059
:10F410008FEF8DB90DC08EB180958EB980E090E0F0
:10F42000E0EDF7E03197F1F70196883C9105C1F7DF
:10F430008091C00087FFEFCF1EB897C08FEF80BBD1
:10F440000DC081B3809581BB80E090E0E0EDF7E0F6
:10F450003197F1F70196883C9105C1F78091C00082
:10F4600087FFEFCF11BA81C08FEF83BB0DC084B38C
:10F47000809584BB80E090E0E0EDF7E03197F1F714
:10F480000196883C9105C1F78091C00087FFEFCFBE
:10F4900014BA6BC08FEF809301010FC080910201FD
:10F4A00080958093020180E090E0E0EDF7E03197F5
:10F4B000F1F70196883C9105C1F78091C00087FF64
:10F4C000EDCF1092020151C08FEF809304010FC065
:10F4D0008091050180958093050180E090E0E0ED4A
:10F4E000F7E03197F1F70196883C9105C1F78091DB
:10F4F000C00087FFEDCF1092050137C08FEF8093DA
:10F5000007010FC08091080180958093080180E079
:10F5100090E0E0EDF7E03197F1F70196883C910536
:10F52000C1F78091C00087FFEDCF109208011DC088
:10F530008FEF80930A010FC080910B01809580931B
:10F540000B0180E090E0E0EDF7E03197F1F70196F4
:10F55000883C9105C1F78091C00087FFEDCF1092E4
:10F560000B0103C085E292EEEEC98091C00087FFD7
:10F57000FCCF8091C600EAC988E392EEE4C98CE131
:10F5800091EEE1C988249924933011F1943028F444
:10F59000913089F09230B8F408C0953061F195301F
:10F5A000F0F0963009F048C043C02B3109F042C951
:10F5B00091E06BE13FC96227C15DDE4F2883CF52E6
:10F5C000D14092E037C9B22FA0E0622793E032C960
:10F5D000822F90E0A82BB92B622794E02BC92E3004
:10F5E00009F039C3622795E0C05DDE4F19821882A9
:10F5F000C053D1401FC9E1E0F0E0EC0FFD1FC05D3A
:10F60000DE4F08811981C053D140E00FF11F2083E4
:10F610000F5F1F4FC05DDE4F19830883C053D14079
:10F6200062270A171B0709F005C9D80196E002C92D
:10F63000261709F010C303C0973009F0FBC87724E0
:10F640009981933109F412C19431C8F4963009F4C8
:10F65000D8C0973050F4923009F406C1933009F4C1
:10F660006DC0913009F059C253C0913109F477C08F
:10F67000923108F0BBC0903109F04FC2F5C098310B
:10F6800009F487C0993150F4953109F4EFC09531F0
:10F6900008F4C6C1963109F040C2C2C19A3109F4DA
:10F6A0006CC09A3108F491C09B3109F45BC09D3164
:10F6B00009F033C29D81903359F48F81882311F46E
:10F6C0009EE11CC0813011F091E018C098E916C08D
:10F6D000892F807591F0903539F4E0E0F0E089E011
:10F6E0008093570094910AC0983539F4E3E0F0E034
:10F6F00089E080935700949101C090E01A821B82A8
:10F700008D818C831D829E831F8227E030E009C299
:10F710001A8288E08B8381E48C8386E58D8382E581
:10F720008E8389E48F8383E5888780E589878FE5E9
:10F730008A8782E38B872BE030E0F3C18A818139AD
:10F7400041F0823941F0803911F48FE005C080E04A
:10F7500003C082E001C08AE01A828B8344C0772410
:10F76000739482C08D81882311F48EE12CC0813086
:10F7700011F081E028C088E926C01A82E1E0F0E0BB
:10F7800089E08093570084918B831C8224E030E0D1
:10F79000C8C18B81803589F48C81883039F4E2E0EE
:10F7A000F0E089E08093570084910DC0E0E0F0E044
:10F7B00089E080935700849106C0E3E0F0E089E09F
:10F7C0008093570084911A82DFCF8D81836C99E0FA
:10F7D000E1E0F0E0082E90935700E89507B600FCB2
:10F7E000FDCF1A821B8223E030E09BC180EC8A832C
:10F7F000CE5CDE4F188219821A821B82C253D1401E
:10F800008EC18A8190E0A0E0B0E0582F44273327D2
:10F8100022278B8190E0A0E0B0E0DC0199278827C7
:10F82000282B392B4A2B5B2B8D8190E0A0E0B0E098
:10F83000282B392B4A2B5B2B8C8190E0A0E0B0E089
:10F84000BA2FA92F982F8827282B392B4A2B5B2BCF
