:100000005BC400008AC4000088C4000086C40000ED
:1000100084C4000082C4000080C400007EC40000CC
:100020007CC400007AC4000078C4000076C40000DC
:1000300074C4000072C4000070C400006EC40000EC
:100040006CC400006AC4000068C4000066C40000FC
:1000500064C4000062C4000060C400000C94EC138F
:100060005CC400000C94A20D0C94790D56C40000E1
:1000700054C4000052C4000050C400004EC400002C
:100080004CC400004AC4000048C4000046C400003C
:100090000C944F0D0C94260D40C400000C94691470
:1000A0003CC400003AC4000038C4000036C400005C
:1000B00034C4000032C4000030C400002EC400006C
:1000C0002CC400002AC4000028C400000C94FC0CBE
:1000D0000C94D30C22C400000C94A90C0C94800C3A
:1000E0001CC400004D0E500E3F0E430E490E870EED
:1000F000540E580E5E0E620E660E6C0E700E740E6E
:10010000870E7A0E7E0E820E4341525249455200AE
:10011000424154544C455348495000435255495369
:100120004552005355424D4152494E4500444553B6
:1001300054524F594552005269676874507573683C
:10014000656400526967687448656C640043656E55
:100150007465725075736865640043656E7465728A
:1001600048656C64004C656674507573686564001E
:100170004C65667448656C6400536869702E6370E2
:10018000703A20426567696E6E696E67206F6620FF
:100190005368697020436F6E7374727563746F7205
:1001A0002E20467265654D656D6F7279203D200089
:1001B00000002100240027002A002D003000330019
:1001C00001010000040107010A01010210202008BA
:1001D00008102040102040800201020108040201A2
:1001E0000102040810204080804020100804020111
:1001F000800402018040201008040201080402016A
:1002000001020408102040800102040810204080F0
:1002100000002200250028002B002E0031003400B1
:1002200002010000050108010B0105050505070590
:1002300008080808020202020A0A08080404040462
:10024000010101010101010103030303030303038E
:10025000040707070C0C0C0C0C0C0C0C020202021D
:1002600006060606060606060B0B0B0B0B0B0B0B06
:100270005348495000424154544C45005041525457
:100280004E4552005345454B494E47004641494C67
:100290004544005345454B494E4700434F4D504C54
:1002A000455445005345454B494E47004C6F7765D3
:1002B00072477269642E6370703A20436F6D706C80
:1002C0006574656420436F6E737472756374696FCF
:1002D0006E206F66204C6F776572477269642E20BE
:1002E000467265654D656D6F7279203D20004C6FDB
:1002F000776572477269642E6370703A2042656751
:10030000696E6E696E6720436F6E73747275637485
:10031000696F6E206F66204C6F77657247726964F3
:100320002E20467265654D656D6F7279203D200007
:10033000534849505300504C41434520594F555262
:1003400000000020002300260029002C002F00328E
:10035000000001000003010601090100000A0B0270
:10036000090C0D0E08070304010000000000000046
:10037000000000000000000000000000000000007D
:10038000000000000000001211100000000000003A
:10039000000000000000000000000000000000005D
:1003A0000000000000003E5B4F5B3E3E6B4F6B3E2B
:1003B0001C3E7C3E1C183C7E3C181C577D571C1C68
:1003C0005E7F5E1C00183C1800FFE7C3E7FF0018C3
:1003D000241800FFE7DBE7FF30483A060E262979AC
:1003E0002926407F050507407F05253F5A3CE73C0D
:1003F0005A7F3E1C1C08081C1C3E7F14227F2214BE
:100400005F5F005F5F06097F017F006689956A6014
:100410006060606094A2FFA29408047E040810202B
:100420007E201008082A1C08081C2A08081E101024
:1004300010100C1E0C1E0C30383E3830060E3E0ECE
:1004400006000000000000005F0000000700070039
:10045000147F147F14242A7F2A122313086462361F
:10046000495620500008070300001C2241000041AB
:10047000221C002A1C7F1C2A08083E0808008070E5
:100480003000080808080800006060002010080418
:10049000023E5149453E00427F400072494949466B
:1004A0002141494D331814127F1027454545393CE9
:1004B0004A494931412111090736494949364649D6
:1004C00049291E00001400000040340000000814F8
:1004D0002241141414141400412214080201590971
:1004E000063E415D594E7C1211127C7F49494936C6
:1004F0003E414141227F4141413E7F494949417F3F
:10050000090909013E414151737F0808087F0041F4
:100510007F41002040413F017F081422417F40403D
:1005200040407F021C027F7F0408107F3E41414112
:100530003E7F090909063E4151215E7F091929467E
:10054000264949493203017F01033F4040403F1F94
:100550002040201F3F4038403F63140814630304C9
:100560007804036159494D43007F41414102040829
:100570001020004141417F040201020440404040FC
:1005800040000307080020545478407F2844443832
:100590003844444428384444287F3854545418007C
:1005A000087E090218A4A49C787F080404780044FB
:1005B0007D40002040403D007F1028440000417FE6
:1005C00040007C047804787C08040478384444446F
:1005D00038FC1824241818242418FC7C0804040867
:1005E000485454542404043F44243C4040207C1C80
:1005F0002040201C3C4030403C44281028444C9073
:1006000090907C4464544C440008364100000077CC
:100610000000004136080002010204023C262326A5
:100620003C1EA1A161123A4040207A3854545559D9
:10063000215555794122545478422155547840200F
:10064000545579400C1E527212395555555939542A
:1006500054545939555454580000457C41000245C2
:100660007D420001457C407D1211127DF028252835
:10067000F07C545545002054547C547C0A097F4931
:1006800032494949323A4444443A324A4848303A75
:100690004141217A3A42402078009DA0A07D3D4210
:1006A00042423D3D4040403D3C24FF2424487E4999
:1006B00043662B2FFC2F2BFF0929F620C0887E09CB
:1006C0000320545479410000447D413048484A3267
:1006D000384040227A007A0A0A727D0D19317D264F
:1006E00029292F28262929292630484D4020380835
:1006F00008080808080808382F10C8ACBA2F1028B6
:1007000034FA00007B000008142A142222142A1450
:10071000085500550055AA55AA55AAFF55FF55FF83
:10072000000000FF00101010FF00141414FF001050
:1007300010FF00FF1010F010F0141414FC0014143B
:10074000F700FF0000FF00FF1414F404FC1414175A
:10075000101F10101F101F1414141F00101010F081
:10076000000000001F101010101F10101010F010CB
:10077000000000FF101010101010101010FF1000DB
:100780000000FF140000FF00FF00001F1017000012
:10079000FC04F414141710171414F404F40000FFEC
:1007A00000F714141414141414F700F71414141785
:1007B0001410101F101F141414F4141010F010F063
:1007C00000001F101F0000001F14000000FC140098
:1007D00000F010F01010FF10FF141414FF1410108C
:1007E000101F00000000F010FFFFFFFFFFF0F0F00F
:1007F000F0F0FFFFFF0000000000FFFF0F0F0F0FE2
:100800000F3844443844FC4A4A4A347E0202060601
:10081000027E027E0263554941633844443C0440F1
:100820007E201E2006027E020299A5E7A5991C2AB9
:10083000492A1C4C7201724C304A4D4D3030487878
:100840004830BC625A463D3E494949007E0101019B
:100850007E2A2A2A2A2A44445F444440514A44407A
:1008600040444A51400000FF0103E080FF000008BF
:10087000086B6B083612362436060F090F06000087
:1008800018180000001010003040FF0101001F0187
:10089000011E00191D1712003C3C3C3C00000000EA
:1008A0000020544F200020544F200020544F20009F
:1008B00020544F200000CC2011241FBECFEFD1E2E6
:1008C000DEBFCDBF00E00CBF16E0A0E0B2E0E0E983
:1008D000F5E400E00BBF02C007900D92A238B1070B
:1008E000D9F729E0A2E8B6E001C01D92A03DB20709
:1008F000E1F714E0CCE5D4E000E006C0219701095F
:10090000802FFE010E94BA22CB35D10780E0080774
:10091000A9F70E942F1C0C94C62272CB0F931F9331
:10092000CF93DF93DC0155968C915597823071F00F
:10093000833009F1813009F08CC01496ED91FC915F
:100940001597E41BF50BE21BF30B20C01496ED91F9
:10095000FC911597CF01861B970BBC016150710963
:100960001696ED91FC911797CF01841B950BAC0166
:10097000421B530B6EC01696ED91FC911797CF0159
:10098000861B970BBC0161507109FA0177FD1BC1F1
:1009900016968D919C911797681779070CF013C1E3
:1009A000F7FF04C02E0F3F1FE0E0F0E014968D919A
:1009B0009C911597AF01420F531F841795071CF4A4
:1009C0009C012E1B3F0B121613060CF0FCC0CB0132
:1009D00077FD079643E0959587954A95E1F79695BB
:1009E000982F882797958795E80FF91FE050FE4FBD
:1009F0006770772781E090E001C0880F6A95EAF779
:100A0000482F0130110541F088F00230110509F03E
:100A1000DAC02E0F3F1F15C02E0F3F1FE217F3073E
:100A200009F4D1C08081842B8193F8CF80952E0F5B
:100A30003F1FE217F30709F4C6C0908198239193F2
:100A4000F8CFE217F30709F4BEC0808184278193B1
:100A5000F8CF77FDB8C014968D919C9115976817C3
:100A600079070CF0B0C057FF04C0240F351F40E0D9
:100A700050E016968D919C911797FA01E20FF31FA3
:100A80008E179F071CF49C01241B350B12161306AE
:100A90000CF099C0A22F842F86958695869590E8B4
:100AA000899F600D711D1124FB01E050FE4F4770BE
:100AB000A9F198E0941B492F50E0EA01C65CD94F98
:100AC0008881291790F4421B51092FEF30E002C0B2
:100AD000359527954A95E2F782230130110541F0BB
:100AE00068F00230110589F06EC00130110519F46B
:100AF0002081822B0CC00130110520F480952081CB
:100B0000822305C00230110531F4208182278083C1
:100B1000A91708F458C0A91BE058FF4FA83048F1A6
:100B20000230110559F4EF018A2F9881909598832E
:100B3000C058DF4F88508830C0F730C081E00130A6
:100B4000110509F080E08195EF019A2F8883C05844
:100B5000DF4F98509830D0F788EF8A0F86958695AA
:100B6000869590E8899FE00DF11D1124E058FF4F14
:100B7000A770AA2341F1B0E0AE5CB94F8C9101306F
:100B8000110529F038F002301105E9F419C09081FF
:100B9000892B18C080959081892314C088EF8A0F13
:100BA00086958695869590E8899FE00DF11D112424
:100BB000E058FF4FA77039F0B0E0AE5CB94F8C91B0
:100BC000908189278083DF91CF911F910F910895A4
:100BD0000F931F93CF93DF93DC01FB0155968C910C
:100BE0005597823089F0833021F1813009F0E7C0D8
:100BF00014968D919C911597BC01641B750BAB01EC
:100C000041505109BF011DC014966D917C911597FB
:100C1000CB018E1B9F0BFC0116968D919C91179713
:100C2000BC01641B750BAB0141505109E21BF30B76
:100C3000C6C016966D917C9117976E1B7F0B621B39
:100C4000730B57FD1BC114968D919C9115974817F6
:100C500059070CF013C177FF04C0260F371F60E05F
:100C600070E016968D919C911797FB01E20FF31F90
:100C70008E179F071CF49C01261B370B12161306B8
:100C80000CF0FCC0A22F862F86958695869590E85D
:100C9000899F400D511D1124FA01E050FE4F6770ED
:100CA000A9F198E0961B492F50E0EA01C65CD94FA4
:100CB0008881291790F4421B51092FEF30E002C0C0
:100CC000359527954A95E2F782230130110541F0C9
:100CD00068F00230110589F0D1C00130110519F416
:100CE0002081822B0CC00130110520F480952081D9
:100CF000822305C00230110531F4208182278083D0
:100D0000A91708F4BBC0A91BE058FF4FA83048F151
:100D10000230110559F4EF018A2F9881909598833C
:100D2000C058DF4F88508830C0F733C081E00130B1
:100D3000110509F080E08195EF019A2F8883C05852
:100D4000DF4F98509830D0F788EF8A0F86958695B8
:100D5000869560E8869FE00DF11D1124E058FF4F55
:100D6000A770AA2309F48AC0B0E0AE5CB94F8C9199
:100D70000130110531F040F00230110509F07EC05C
:100D80001BC09081892B03C080959081892380832B
:100D900075C088EF8A0F86958695869570E8879F3F
:100DA000E00DF11D1124E058FF4FA77009F466C053
:100DB000B0E0AE5CB94F8C9190818927E8CF57FDA8
:100DC0005DC016968D919C911797481759070CF0A6
:100DD00055C0F7FF04C02E0F3F1FE0E0F0E014966F
:100DE0008D919C911597BF01620F731F861797070E
:100DF0001CF49C012E1B3F0B121613060CF03EC078
:100E0000CA0157FD079663E0959587956A95E1F7C6
:100E10009695982F882797958795E80FF91FE050AA
:100E2000FE4F4770552781E090E001C0880F4A953A
:100E3000EAF7482F0130110539F078F0023011053A
:100E4000E9F42E0F3F1F13C02E0F3F1FE217F307C9
:100E5000A9F08081842B8193F9CF80952E0F3F1FBD
:100E6000E217F30759F0908198239193F9CFE21795
:100E7000F30721F0808184278193F9CFDF91CF910F
:100E80001F910F910895FC0177FD9AC0808591858F
:100E9000681779070CF094C057FD92C0828593853E
:100EA000481759070CF08CC08589823009F07CC046
:100EB00084819581DC01A61BB70BBD0161507109CE
:100EC00086819781FC01E41BF50BAF01415051096C
:100ED0000AC0813041F484819581841B950BAB015C
:100EE000BC01615071092130310529F008F122302F
:100EF0003105E1F10895FA0157FD3796A3E0F59524
:100F0000E795AA95E1F7F695FE2FEE27F795E79579
:100F10006E0F7F1FFB01E050FE4F4770552781E0A9
:100F200090E001C0880F4A95EAF79081892B3AC07A
:100F3000FA0157FD379623E0F595E7952A95E1F7F5
:100F4000F695FE2FEE27F795E7956E0F7F1FFB01B5
:100F5000E050FE4F4770552781E090E001C0880FB8
:100F60004A95EAF78095908189231CC0FA0157FDC4
:100F7000379683E0F595E7958A95E1F7F695FE2F8C
:100F8000EE27F795E7956E0F7F1FFB01E050FE4FB0
:100F90004770552781E090E001C0880F4A95EAF735
:100FA0009081892780830895833009F092CF8681CC
:100FB0009781861B970BBA01AC014150510993CF21
:100FC0000895089580E090E008951F93CF93DF93F4
:100FD000EC01162F8C8D8F3F09F1EEA1FFA19081BE
:100FE0008CA5892B8083E8A5F9A590818DA5809596
:100FF00089238083EEA1FFA190818CA58095892310
:101000008083CE010E946A16EEA1FFA190818CA57B
:10101000892B8083DF91CF911F9108958A8D91E074
:101020009093280780934A071092290710924B0744
:1010300060E080EC99E01DD7612F80EC99E019D732
:10104000DF91CF911F910C940E16FC0120858481B5
:101050009581222311F0960F0895860F08950F931E
:101060001F93CF93DF93EC018B01188669E771E042
:1010700083E299E00E94131A0E9436140E941E1CFB
:101080006CE271E080E090E00E94A813198308836D
:101090000230110599F040F40115110569F0013095
:1010A000110571F484E00BC00330110539F00430F0
:1010B000110531F482E003C085E001C083E08A833A
:1010C0009A819B8381E08C838D839E838F83DF91C4
:1010D000CF911F910F910895CF93DF93D62FCFEF2C
:1010E000C50F6FEF640F86E898E0BED36C2F86E8DB
:1010F00098E0BAD36D2F86E898E0B6D3CAE086E8C8
:1011000098E059D58D9751F061E070E080E090E073
:101110000E94A813C15099F780E001C081E0DF91DF
:10112000CF910895CF93DF93DC01EB01E881F98142
:1011300090E089E0692F70E06E177F070CF5869FBD
:101140009001879F300D11242A0F3B1FE901C453E2
:10115000DF4F68814617B0F022966881641790F0DF
:1011600021976881561770F022966881651750F0B4
:10117000F901E553FF4F80818150808380E004C0F6
:1011800081E002C09F5FD6CFDF91CF910895CF92CB
:10119000DF92EF92FF921F93CF93DF93CDB7DEB72D
:1011A00029970FB6F894DEBF0FBECDBF6C017B014F
:1011B00010E0F7018281181748F5612FC70145DF5C
:1011C000AC0199E0F701DE01119601900D929A951C
:1011D000E1F7BE016F5F7F4FC601A4DF612F882357
:1011E00031F0C70132DFAC0163E070E005C0C70138
:1011F0002CDFAC0160E070E0C6016EDF6FE070E0F4
:1012000080E090E00E94A8131F5FD3CF29960FB60D
:10121000F894DEBF0FBECDBFDF91CF911F91FF903D
:10122000EF90DF90CF90089580918406909185068D
:10123000892B91F58EE290E00E947721FC011382C8
:10124000128220E830E03583248380E490E09783A5
:1012500086833187208793878287158A158614862F
:101260001786168681E0848B2FEF3FEF338B228B1E
:10127000318B208B868B178A118E108E8AE096E038
:10128000918380838FEF848F80A3868F858F878F54
:10129000F0938506E09384068091840690918506FC
:1012A0000895CF93DF938091820690918306892BD6
:1012B000D9F483E090E00E947721EC0187E38883F2
:1012C00088E3898389E38A8360E087E30E946C1363
:1012D00060E089810E946C1360E08A810E946C1337
:1012E000D0938306C09382068091820690918306F4
:1012F000DF91CF9108952F923F924F925F926F921C
:101300007F928F929F92AF92BF92CF92DF92EF9295
:10131000FF920F931F93CF93DF93CDB7DEB7649700
:101320000FB6F894DEBF0FBECDBF4C018B015A0142
:1013300062E776E083E299E00E94091C6FE776E0BD
:1013400083E299E00E94091C6FDF7C01AADF1C0187
:1013500089E0F801DE01119601900D928A95E1F77E
:10136000BE016F5F7F4FC40112DF86E090E09C8B6F
:101370008B8BF801808191818230910509F44CC0FA
:10138000D0F40097A1F1019709F07BC0F8014480E7
:1013900055806680778062E0C7010E94E41984E08E
:1013A00090E0F701958784878EE090E097878687A5
:1013B00060E171E05AC08330910509F442C004979E
:1013C00009F05FC0F801448055806680778062E054
:1013D000C7010E94E4198AE090E0F70195878487AD
:1013E0008EE090E0978786876DE271E03EC0F8015D
:1013F000448055806680778062E0C7010E94E419CE
:1014000086E190E0F701958784878EE090E09787EA
:10141000868768E071E029C0F801448055806680C5
:10142000778062E0C7010E94E41986E190E0F7014D
:10143000958784878EE090E0978786876BE171E0DF
:1014400014C0F801448055806680778062E0C7014F
:101450000E94E4198AE090E0F701958784878EE086
:1014600090E09787868763E271E0C7010E94131AB4
:101470009501A301B201C7010E94371AC7010E945A
:101480009716F10180810E941613892B99F4F101BE
:1014900081810E941613892B69F4F10182810E94D7
:1014A0001613892B39F4E6E0F0E0FC8BEB8BCB884C
:1014B000DC885FCFEB89FC893697A9F7F101808141
:1014C0000E941613019709F028C1F10181810E9441
:1014D0001613892B09F021C1F10182810E94161394
:1014E000892B09F01AC10E94E0132B013C01F10184
:1014F00080810E941613019739F46AE070E080E061
:1015000090E00E94A813F3CF0E94E013DC01CB010E
:1015100084199509A609B709843F9140A105B10531
:1015200040F080E791E00E94FD15CC24C394D12CBB
:101530001CC085E691E00E94FD15C12CD12C15C080
:101540000E94E013DC01CB0184199509A609B709B3
:10155000843F9140A105B10508F404C18AE591E0FA
:101560000E94FD1533E0C32ED12C89E0F801DE0185
:101570001A9601900D928A95E1F7712C8C85781658
:1015800068F5672DCE010A9660DDAC0199E0FE0199
:101590003A96DE01119601900D929A95E1F7BE01FF
:1015A0006F5F7F4FC401BEDD672D882339F0CE0108
:1015B0000A964BDDAC0164E070E006C0CE010A96ED
:1015C00044DDAC0163E070E0C40186DD6FE070E0F3
:1015D00080E090E00E94A8137394D0CF22E0C2165E
:1015E000D10441F5F801208597818681222381F07D
:1015F0004581941B292F30E0280F311D2B303105F8
:101600000CF07BC08481980F96834783108675C049
:10161000F8014481841B282F30E0290F311D2B3025
:1016200031050CF06AC09581890F8783468321E0DC
:10163000208763C0C114D10461F5A114B10499F4E9
:10164000F8019481292F30E0223031050CF455C087
:101650008681282F30E02C3031050CF04EC091509F
:101660009483815028C0F1E0AF16B10409F045C061
:10167000F8019581292F30E022303105F4F187817E
:10168000282F30E02C303105C4F5915095838150DE
:1016900023C0F4E0CF16D10409F5A114B10469F414
:1016A000F8018681282F30E02A30310534F5948105
:1016B0009F5F94838F5F868320C0F1E0AF16B104F3
:1016C000E1F4F8018781282F30E02A303105ACF4AD
:1016D00095819F5F95838F5F87830FC0F3E0CF165F
:1016E000D10409F483C021E0C216D10409F47EC0FC
:1016F00085E0C816D10409F479C089E0F801DE015B
:10170000119601900D928A95E1F7BE016F5F7F4FB0
:10171000C4013DDDDC8ACB8ACACEF101808186D747
:10172000892B29F4F101818181D7019731F0F101F1
:1017300080817CD7892B41F51DC0F101828176D74C
:10174000892BA9F70E94E0132B013C01F101818153
:101750006DD7019709F0F4CE6AE070E080E090E088
:10176000F7D7F4CF8DE491E00E94FD1522E0C22E60
:10177000D12CFBCEF101818159D7892B29F4F101BC
:10178000828154D7019731F0F6E0CF16D10409F0E9
:10179000ECCE89CE0E94E0132B013C01F101828145
:1017A00045D7019731F46AE070E080E090E0D0D74F
:1017B000F5CF0E94E013DC01CB0184199509A6093D
:1017C000B709843F9140A105B10540F083E491E061
:1017D0000E94FD1595E0C92ED12CC7CE87E391E07C
:1017E0000E94FD1584E0C82ED12CBFCEC6016496A0
:1017F0000FB6F894DEBF0FBECDBFDF91CF911F9122
:101800000F91FF90EF90DF90CF90BF90AF909F909F
:101810008F907F906F905F904F903F902F900895A2
:101820008CE497E0EAD121E0892B09F420E0822FB3
:10183000089589EE97E0E1D121E0892B09F420E0B9
:10184000822F089586E898E0D8D121E0892B09F409
:1018500020E0822F089583E299E0CFD121E0892B07
:1018600009F420E0822F0895EF92FF920F931F93C7
:10187000CF93DF93EC0181E0888F9B8D8C8D981343
:1018800005C0E889F989808185FD25C0F62E0B8D7C
:1018900010E00F5F1F4F0F731127E02E8C8DE812A1
:1018A0000BC00FB607FCFACFE889F989808185FF64
:1018B000F5CFCE0178D6F2CF8B8DFE01E80FF11D6A
:1018C000E35AFF4FF0829FB7F8940B8FEA89FB89A8
:1018D000808180620AC09FB7F894EE89FF89608397
:1018E000E889F98980818370806480839FBF81E06B
:1018F00090E0DF91CF911F910F91FF90EF900895AD
:101900001F920F920FB60F9211240BB60F922F93C6
:101910003F934F935F936F937F938F939F93AF9377
:10192000BF93EF93FF938CE497E03DD6FF91EF9147
:10193000BF91AF919F918F917F916F915F914F91E7
:101940003F912F910F900BBE0F900FBE0F901F90E5
:1019500018951F920F920FB60F9211240BB60F928B
:101960002F933F934F935F936F937F938F939F93A7
:10197000AF93BF93EF93FF938CE497E00E94FA1923
:10198000FF91EF91BF91AF919F918F917F916F9157
:101990005F914F913F912F910F900BBE0F900FBE13
:1019A0000F901F9018951F920F920FB60F9211244F
:1019B0000BB60F922F933F934F935F936F937F9349
:1019C0008F939F93AF93BF93EF93FF9389EE97E02D
:1019D000EAD5FF91EF91BF91AF919F918F917F9148
:1019E0006F915F914F913F912F910F900BBE0F9090
:1019F0000FBE0F901F9018951F920F920FB60F9267
:101A000011240BB60F922F933F934F935F936F93D5
:101A10007F938F939F93AF93BF93EF93FF9389EE41
:101A200097E00E94FA19FF91EF91BF91AF919F91BA
:101A30008F917F916F915F914F913F912F910F9077
:101A40000BBE0F900FBE0F901F9018951F920F9214
:101A50000FB60F9211240BB60F922F933F934F9313
:101A60005F936F937F938F939F93AF93BF93EF9306
:101A7000FF9386E898E097D5FF91EF91BF91AF91E2
:101A80009F918F917F916F915F914F913F912F9196
:101A90000F900BBE0F900FBE0F901F9018951F92C6
:101AA0000F920FB60F9211240BB60F922F933F9304
:101AB0004F935F936F937F938F939F93AF93BF9356
:101AC000EF93FF9386E898E00E94FA19FF91EF9157
:101AD000BF91AF919F918F917F916F915F914F9146
:101AE0003F912F910F900BBE0F900FBE0F901F9044
:101AF00018951F920F920FB60F9211240BB60F92EA
:101B00002F933F934F935F936F937F938F939F9305
:101B1000AF93BF93EF93FF9383E299E044D5FF9196
:101B2000EF91BF91AF919F918F917F916F915F9155
:101B30004F913F912F910F900BBE0F900FBE0F90C2
:101B40001F9018951F920F920FB60F9211240BB68B
:101B50000F922F933F934F935F936F937F938F9346
:101B60009F93AF93BF93EF93FF9383E299E00E941B
:101B7000FA19FF91EF91BF91AF919F918F917F9152
:101B80006F915F914F913F912F910F900BBE0F90EE
:101B90000FBE0F901F901895FC01538D448D252F7B
:101BA00030E0842F90E0821B930B541710F0CF96F7
:101BB000089501970895FC01918D828D981761F029
:101BC000828DDF01A80FB11D5D968C91928D9F5F74
:101BD0009F73928F90E008958FEF9FEF0895FC011F
:101BE000918D828D981731F0828DE80FF11D858DD2
:101BF00090E008958FEF9FEF0895FC01918D228D65
:101C0000892F90E0805C9F4F821B91098F739927E9
:101C1000089580E090E0892B19F01DDE811116C037
:101C200080E090E0892B19F00DDE811112C080E078
:101C300090E0892B19F0FDDD81110EC080E090E06D
:101C4000892B79F0EDDD81110AC008950E94000012
:101C5000E7CF0E940000EBCF0E940000EFCF0C9472
:101C60000000089590E0FC013197E231F10508F0A1
:101C70004EC08827EE58FF4F8F4F0C94BA228091A8
:101C800080008F7703C0809180008F7D80938000DB
:101C9000089580918000877FF9CF84B58F7702C047
:101CA00084B58F7D84BD08958091B0008F7703C087
:101CB0008091B0008F7D8093B00008958091900056
:101CC0008F7707C0809190008F7D03C08091900036
:101CD000877F8093900008958091A0008F7707C040
:101CE0008091A0008F7D03C08091A000877F8093AA
:101CF000A0000895809120018F7707C08091200176
:101D00008F7D03C080912001877F809320010895FB
:101D10003FB7F8948091FD069091FE06A091FF06D2
:101D2000B091000726B5A89B05C02F3F19F001967A
:101D3000A11DB11D3FBFBA2FA92F982F8827820F51
:101D4000911DA11DB11DBC01CD0142E0660F771FA1
:101D5000881F991F4A95D1F7089585ED8093BC009F
:101D60008091BC0084FDFCCF10922707089540911C
:101D7000D506262F30E0240F311D21323105DCF449
:101D8000209127072430C9F4FC0180E090E08617F9
:101D900058F43091D5062191DC01AB54B94FA30F13
:101DA000B11D2C930196F3CF8091D506680F6093F7
:101DB000D50680E0089581E0089582E008950895B1
:101DC00008950895E0918B0680918A06E81730F413
:101DD000F0E0EB56F94F808190E008958FEF9FEF90
:101DE000089590918B0680918A06981750F4E92FF8
:101DF000F0E0EB56F94F208130E09F5F90938B0627
:101E000002C02FEF3FEFC901089580918A0690E04C
:101E100020918B06821B91090895CF92DF92EF9259
:101E2000FF920F931F93CF93DF937C01CB018A0125
:101E300020912807222389F0EB016B01C40ED51EE7
:101E4000CC15DD0561F06991D701ED91FC91019010
:101E5000F081E02DC7011995F3CF642F88DFC80109
:101E6000DF91CF911F910F91FF90EF90DF90CF9076
:101E70000895CF93DF931F92CDB7DEB7698320918A
:101E800028072223D1F020914B07203240F021E097
:101E900030E0FC013383228380E090E014C0809125
:101EA0002907E82FF0E0E65DF84F998190838F5F76
:101EB0008093290780934B0704C061E0CE0101960F
:101EC00056DF81E090E00F90DF91CF910895089563
:101ED000FC016370658B8481958126813781613037
:101EE00039F0633029F091878087338722870895FE
:101EF000318720879387828708956F927F928F9290
:101F00009F92AF92BF92CF92DF92EF92FF920F9388
:101F10001F93CF93DF93EC014B015A016901380104
:101F2000E881F9810284F385E02D1995E881F98132
:101F30000288F389E02D87019601A501B401CE0145
:101F40001995A501460D571D41505109E881F981A8
:101F50000288F389E02D9601B401CE011995E8813C
:101F6000F9810088F189E02D9301A501B401CE012A
:101F70001995C80CD91CB60161507109E881F98125
:101F80000088F189E02D9301A501CE011995E88122
:101F9000F9810688F789E02DCE01DF91CF911F915D
:101FA0000F91FF90EF90DF90CF90BF90AF909F90F8
:101FB0008F907F906F9019948F929F92AF92BF9263
:101FC000CF92DF92EF92FF920F931F93CF93DF9305
:101FD0004C016B015A01E901DC01ED91FC916217A2
:101FE000730781F40417150724F48B2D5801042F6F
:101FF000182F0A191B0998012F5F3F4F048CF58D8C
:10200000E02D12C04017510709F52617370724F4B1
:102010008D2D6901C62FD82F9E012C193D092F5FE8
:102020003F4F068CF78DE02D8701A501B601C40155
:102030001995DF91CF911F910F91FF90EF90DF9055
:10204000CF90BF90AF909F908F9008950284F385BA
:10205000E02D1995D401ED91FC910488F589E02DCE
:102060009E01A501B601C4011995D401ED91FC9121
:102070000688F789E02DC401DF91CF911F910F9160
:10208000FF90EF90DF90CF90BF90AF909F908F9098
:102090001994EF92FF920F931F93DC011A960D9102
:1020A0001C911B9718962D913C911997ED91FC91DD
:1020B00000A0F1A1E02D7B0140E050E060E070E085
:1020C00019951F910F91FF90EF9008954F925F9295
:1020D0006F927F928F929F92AF92BF92CF92DF9238
:1020E000EF92FF920F931F93CF93DF936C012B011D
:1020F0005A0139014801DC01ED91FC910284F3851C
:10210000E02D1995E201640C751CD601ED91FC914E
:10211000C615D7055CF40088F189E02D870194018C
:10212000A501BE01C60119952196EFCF0688F78952
:10213000E02DC601DF91CF911F910F91FF90EF909D
:10214000DF90CF90BF90AF909F908F907F906F90D7
:102150005F904F9019948F929F92AF92BF92CF92BF
:10216000DF92EF92FF920F931F93CF93DF93EC01D7
:102170005B014A016901E881F9810284F385E02D60
:10218000199595012C0D3D1D21503109E881F981EA
:102190000488F589E02D78018401A401B501CE0100
:1021A0001995E881F9810688F789E02DCE01DF9144
:1021B000CF911F910F91FF90EF90DF90CF90BF9044
:1021C000AF909F908F9019948F929F92AF92BF92F1
:1021D000CF92DF92EF92FF920F931F93CF93DF93F3
:1021E000EC015B014A0169017801E881F98102840F
:1021F000F385E02D1995C80CD91C860101501109F1
:10220000E881F9810488F589E02D9501A401B501E3
:10221000CE011995E881F9810688F789E02DCE0174
:10222000DF91CF911F910F91FF90EF90DF90CF90B2
:10223000BF90AF909F908F901994EF92FF920F9361
:102240001F93DC01ED91FC9100A0F1A1E02D199507
:102250001F910F91FF90EF9008950F931F93DC0152
:10226000ED91FC91068CF78DE02D19951F910F9142
:1022700008950F931F93DC01ED91FC91048CF58D73
:10228000E02D19951F910F910895DC01ED91FC91BE
:102290000084F185E02D19942F923F924F925F9226
:1022A0006F927F928F929F92AF92BF92CF92DF9266
:1022B000EF92FF920F931F93CF93DF9300D000D044
:1022C000CDB7DEB72C017E836D836A015901C80149
:1022D000FC82EB824801841A950A97FE03C0919410
:1022E0008194910835012D813E81621A730A77FE2F
:1022F00003C0719461947108681479045CF43A2DF8
:102300002B2D5C01832F922F3D812E81DE82CD8289
:10231000C32ED22EAD81BE81AA16BB065CF43C2D25
:102320002D2D6C01832F922F3D812E81BE82AD8297
:10233000A32EB22E85012D813E81021B130B1C01A1
:102340002C183D0837FE03C03194219431087801E0
:1023500017FF03C03FEFE31AF30AF594E794C8169A
:10236000D9062CF08FEF9FEF9A83898304C0A1E0F8
:10237000B0E0BA83A9832D813E81A216B30624F171
:10238000D201ED91FC910484F585E02D2B813C81F7
:102390006814790424F44D815E81B60103C0A6015E
:1023A0006D817E81C2011995E218F308F7FE06C01F
:1023B00029813A81C20ED31EE00EF11E8D819E81CD
:1023C00001969E838D83D7CF26960FB6F894DEBFF5
:1023D0000FBECDBFDF91CF911F910F91FF90EF9076
:1023E000DF90CF90BF90AF909F908F907F906F9035
:1023F0005F904F903F902F9008950E94C222AF921D
:10240000BF92CF92EF92FF920F931F93CF93DF93E0
:10241000EC01262F888D998D009709F03FC06A3016
:1024200059F41D861C862C898E859F8538E0239F54
:10243000800D911D112440C06D3009F4A8C08E8913
:102440008823C1F03C898C859D8546E0349F800DB2
:10245000911D112448855985481759075CF41D863C
:102460001C868E859F8548E0349F800D911D112428
:102470009F878E87EA88FB88088919894E855F8542
:102480006C857D85CC88CE015BD52C898C859D851E
:1024900036E0239F800D911D112442C06A3079F4EB
:1024A0001D861C862C89FC013696E4918E859F85BD
:1024B0002E9F800D911D11249F878E8768C06D30DF
:1024C00009F465C0FC0134963491631708F45FC0C9
:1024D0003196E491E61708F45AC0FC0132966591F2
:1024E0007491422F50E0431B510937E0349F500153
:1024F000359FB00C1124A60EB71EF501329634910B
:102500003196E491332311F0E1110DC0F5013496B9
:10251000E4912C898C859D85E29F800D911D11246D
:102520009D878C8734C0F501359644915E8955238B
:1025300011F16C89E32FF0E0E40FF11D47FDFA95EE
:102540006E9FD0016F9FB00D11244C855D854A0FA1
:102550005B1FE885F985E417F5076CF41D861C867A
:10256000FC013696E4918E859F856E9F800D911DAE
:1025700011249F878E87EA88FB88088919894E85F0
:102580005F856C857D85CC88CE01DAD4BFCF81E0B4
:1025900090E0DF91CF911F910F91FF90EF90CF903E
:1025A000BF90AF900895FC01848DDF01A80FB11D8D
:1025B000A35ABF4F2C91848D90E001968F73992779
:1025C000848FA689B7892C93A089B1898C91837057
:1025D00080648C93938D848D981306C00288F38950
:1025E000E02D80818F7D80830895CF93DF93EC0170
:1025F000888D8823C1F0EA89FB89808185FD05C02B
:10260000A889B9898C9186FD0EC00FB607FCF5CF5D
:10261000808185FFF2CFA889B9898C9185FFEDCFA4
:10262000CE01C1DFE8CFDF91CF910895CF93DF9343
:10263000282F30E0F901E55AFC4F8491F901E65367
:10264000FE4FD491F901E65DFD4FC491CC2389F092
:10265000811108DBEC2FF0E0EE0FFF1FEF5BFC4F6A
:10266000A591B491EC91ED2381E090E021F480E01C
:1026700002C080E090E0DF91CF9108951F93CF9347
:10268000DF93282F30E0F901E55AFC4F8491F901DE
:10269000E653FE4FD491F901E65DFD4FC491CC2382
:1026A000B9F0162F8111DEDAEC2FF0E0EE0FFF1FEC
:1026B000E05FFD4FA591B4919FB7F894111104C04C
:1026C0008C91D095D82302C0EC91DE2BDC939FBF78
:1026D000DF91CF911F910895CF93DF9390E0FC019C
:1026E000E653FE4F2491FC01E65DFD4F8491882363
:1026F00061F190E0880F991FFC01E055FE4FC591F4
:10270000D491FC01E05FFD4FA591B491611109C026
:102710009FB7F8948881209582238883EC912E239B
:102720000BC0623061F49FB7F8948881322F3095E6
:1027300083238883EC912E2B2C939FBF06C08FB7E9
:10274000F894E8812E2B28838FBFDF91CF910895D5
:102750008F929F92AF92BF92CF92DF92EF92FF92B1
:102760006B017C01D5DA4B015C01C114D104E10499
:10277000F104E9F0CDDADC01CB0188199909AA0945
:10278000BB09883E9340A105B10578F321E0C21A48
:10279000D108E108F10888EE880E83E0981EA11C9C
:1027A000B11CC114D104E104F10421F7DECFFF9084
:1027B000EF90DF90CF90BF90AF909F908F90089553
:1027C0002FB7F8946091F9067091FA068091FB0694
:1027D0009091FC062FBF08951F920F920FB60F9293
:1027E00011242F933F938F939F93AF93BF93809127
:1027F000F9069091FA06A091FB06B091FC06309183
:10280000F80623E0230F2D3720F40196A11DB11DFA
:1028100005C026E8230F0296A11DB11D2093F806DE
:102820008093F9069093FA06A093FB06B093FC06FA
:102830008091FD069091FE06A091FF06B0910007E1
:102840000196A11DB11D8093FD069093FE06A093F5
:10285000FF06B0930007BF91AF919F918F913F9179
:102860002F910F900FBE0F901F901895CF93DF936D
:102870001F921F92CDB7DEB72091CC093091CD09C0
:10288000CE0101962115310519F4805D994018C0DB
:10289000AC01421B530BE091CE09F091CF0980E0CF
:1028A00090E0309759F09C012E5F3F4F80819181DD
:1028B000820F931F0280F381E02DF3CF840F951FC9
:1028C0009A83898389819A810F900F90DF91CF91AC
:1028D00008951F920F920FB60F9211240BB60F920C
:1028E0002F933F934F935F936F937F938F939F9318
:1028F000AF93BF93EF93FF938091B900887F8036A9
:1029000009F49CC068F5883209F45BC090F480310A
:1029100009F454C038F4882309F4F6C0883009F467
:102920004DC0F5C0883109F44CC0803209F45DC057
:10293000EEC0803409F468C048F4803309F455C00F
:10294000883309F0E4C080932507D8C0803509F4A6
:102950004FC0883509F45DC0883409F0D8C0D6C0AE
:10296000883909F4C7C0A8F4883709F467C038F477
:10297000883609F463C0803709F460C0C8C088385D
:1029800009F4B8C0803909F45FC0803809F0BFC0CD
:102990005BC0803B09F486C038F4803A09F466C015
:1029A000883A09F47FC0B3C0803C09F4A7C0883CD2
:1029B00009F4A4C0883B09F48AC0A9C08091020729
:1029C00010C09091240780912307981770F5E0912B
:1029D000240781E08E0F80932407F0E0ED5FF84F2D
:1029E00080818093BB0085EC86C0809325078EC0D4
:1029F000E091240781E08E0F809324078091BB0033
:102A0000F0E0ED5FF84F80839091240780912307D9
:102A10006EC0E091240781E08E0F8093240780919F
:102A2000BB00F0E0ED5FF84F8083809126078111B5
:102A30006DC081E08093010784EA61C083E08093E8
:102A400027071092F706CFCF8091F706803208F063
:102A500051C0E091F70681E08E0F8093F7068091D8
:102A6000BB00F0E0E952F94F8083BDCF85EC809345
:102A7000BC00109227078091F706803230F4E09175
:102A8000F706F0E0E952F94F10826091F70670E026
:102A9000E0918606F091870687ED96E019951092F1
:102AA000F70635C084E0809327071092D60610926F
:102AB000D506E0918806F091890619958091D50692
:102AC000811105C081E08093D5061092B506E09192
:102AD000D60681E08E0F8093D606F0E0EB54F94FD6
:102AE00080818093BB009091D6068091D50698177F
:102AF00008F479CF85E88093BC0009C085EC809309
:102B0000BC001092270703C01092250726D9FF9119
:102B1000EF91BF91AF919F918F917F916F915F9155
:102B20004F913F912F910F900BBE0F900FBE0F90C2
:102B30001F901895CF92DF92EF92FF92CF93DF9381
:102B4000EC016A017B01E889F98982E08083411503
:102B5000514E61057105B1F060E079E08DE390E0E0
:102B6000A70196010E949822DA01C9010197A109E3
:102B7000B109B695A795979587959C01211580E198
:102B80003807A8F0E889F989108260E874E88EE1D6
:102B900090E0A70196010E949822DA01C9010197ED
:102BA000A109B109B695A795979587959C01EC85E4
:102BB000FD853083EE85FF852083188EEC89FD89A5
:102BC00086E08083EA89FB89808180618083EA894D
:102BD000FB89808188608083EA89FB8980818068A5
:102BE0008083EA89FB8980818F7D8083DF91CF910B
:102BF000FF90EF90DF90CF900895CF93DF93BC01CB
:102C000083E299E010D4EC016FE776E083E299E08B
:102C100000D68C0F9D1FDF91CF91089530914B0707
:102C2000313208F04BC0809127078111FCCF909181
:102C30004A0722E02093270721E0209326072FEF61
:102C4000209325071092240730932307EAE2F7E048
:102C5000A3E0B7E020E0321721F041914D932F5FC0
:102C6000FACF1092020720910207990F922B9093AE
:102C7000020790910107913061F410920107909141
:102C800002079093BB009091BC0093FDF8CF95ECA8
:102C900001C095EE9093BC00909127079230E1F32C
:102CA000909125079F3F79F080912507803241F070
:102CB00080912507803331F084E005C081E003C0B6
:102CC00082E001C083E01092290710924B07109216
:102CD00028070895FC0181A1882339F06EBD00000A
:102CE0000DB407FEFDCF8EB5089528E030E090E8E2
:102CF000A4A1B5A14C9183A5809584238C93A2A116
:102D0000B3A182A5462F492319F04C91842B03C00F
:102D10004C91809584238C93A4A1B5A14C9183A55B
:102D2000842B8C9396952150310911F708959F9229
:102D3000AF92BF92CF92DF92EF92FF920F931F93C9
:102D4000CF93DF93EC0161E20E94E50760E0CE01E2
:102D50000E94E5076FE7CE010E94E50762E2CE011F
:102D60000E94E50760E0CE010E94E50767E0CE0122
:102D70000E94E5078C8D8F3F41F1EEA1FFA190816C
:102D80008CA5892B8083E8A5F9A590818DA5892B39
:102D90008083EEA1FFA190818CA5809589238083FB
:102DA00000E012E020E0E22E26E0F22EF801619130
:102DB0008F01CE018FDFE016F106C1F7EEA1FFA172
:102DC00090818CA5892B80832EC0E090B8008CE088
:102DD0008093B80000E012E090E0A92E96E0B92EB2
:102DE000992493948A8D9092280780934A07109291
:102DF000290710924B0760E480EC99E03AD868010B
:102E000080E1F82EF60161916F0180EC99E031D8F4
:102E1000FA94F110F7CF02DF005F1F4FA016B10642
:102E200009F7E092B800DF91CF911F910F91FF90C9
:102E3000EF90DF90CF90BF90AF909F9008954F920A
:102E40005F926F927F928F929F92AF92BF92CF923A
:102E5000DF92EF92FF920F931F93CF93DF93CDB743
:102E6000DEB7A1970FB6F894DEBF0FBECDBF8C01C1
:102E70006B01770FEE08FF08F7FE2EC0DC01ED9125
:102E8000FC910190F081E02D6DE219955C01222703
:102E90003327A9012C193D094E095F0919A2FE012A
:102EA000B1967F019AE0492E512C612C712CCA01F8
:102EB000B901A30192010E949822605DD7016E932F
:102EC0007D01211531054105510589F7BD01C80175
:102ED000A0D48A0D9B1D1DC0A701960119A2FE0159
:102EE000B1967F018AE0882E912CA12CB12CCA01C9
:102EF000B901A50194010E949822605DD7016E93EB
:102F00007D01211531054105510589F7BD01C80134
:102F100080D4A1960FB6F894DEBF0FBECDBFDF916F
:102F2000CF911F910F91FF90EF90DF90CF90BF90C6
:102F3000AF909F908F907F906F905F904F9008958B
:102F40002F923F924F925F926F927F928F929F92B9
:102F5000AF92BF92CF92DF92EF92FF920F931F93A7
:102F6000CF93DF93CDB7DEB76B970FB6F894DEBF84
:102F70000FBECDBF9B8F8A8F5B011A01D22E1F839C
:102F80000E833701C982DC0158962D913C915997E7
:102F90002115310509F0E6C018968D919C9119977D
:102FA000681779070CF0CDC11A968D919C911B97EB
:102FB000481759070CF0C5C18C2C912CFB0126E059
:102FC000C29EE00DF11D1124FB87EA871E161F0625
:102FD0000CF0B7C1A40183E0440F551F8A95E1F7B7
:102FE0005D874C87CA01820D931D181619060CF0D7
:102FF000A8C157968C91811104C05FEA5D1508F451
:10300000D394AA8DBB8DED91FC9111970284F38529
:10301000E02DCD011995B5E0DB9EC0011124F5012D
:103020003596FF87EE87BB82AA8225019C012A196B
:103030003B09398B288BA101485F5F4F5B8B4A8B23
:10304000E889F989E40DF51DEF55FC4F5491588737
:1030500061013D822C82888580FF13C0AA8DBB8DC3
:10306000ED91FC91B981B13031F40484F585E02D06
:103070002E813F8116C00684F785E02DEE80FF800B
:103080001AC0EE81FF81E615F705F1F0AA8DBB8D20
:10309000ED91FC91B981B13051F40484F585E02DB6
:1030A0009301A601B2018A8D9B8D19950DC00684EE
:1030B000F785E02D7301840194014C815D816A8163
:1030C0007B818A8D9B8D1995E885E695E887FFEFD2
:1030D000CF1ADF0A2C813D81280D391D3D832C83B9
:1030E0004A895B89C416D50609F0B5CF5FEF451A4A
:1030F000550A8A819B81880D991D9B838A83AE85A1
:10310000BF854A165B0609F09BCFEE81FF81E6156D
:10311000F70509F4F4C0EA8DFB8DA081B181F98136
:10312000F13079F4B5016B5F7F4F5096ED91FC91D2
:103130005197830128E030E0A1018A8D9B8D19957C
:10314000DEC06A857B85681979091E96ED91FC9130
:103150001F9773010C851D859401A1018A8D9B8D9C
:103160001995CDC0F9013496E491DE1AF901329631
:1031700085919491B7E0DB9E800D911D1124F9019A
:10318000259134913B8B2A8BFC01259134912901A7
:10319000FC013296C490319634913E873296149158
:1031A0003196D4904981423058F0612E012E000CA6
:1031B00077088D2D0D2C000C990B9987888704C0FA
:1031C00019861886612C712CAA8DBB8DED91FC910E
:1031D00011970284F385E02DCD011995B9818B2ECD
:1031E000912C689CC001699C900D789C900D1124D5
:1031F000FC01EA0DFB1DFD87EC871A82712C612C06
:10320000E12F110FFF0B95012E0F3F1F3B872A87E0
:10321000AC0CB11CA5014E0F5F1F5F8B4E8BC10123
:103220008D0D911DD7FC9A95998F888F9E85691673
:1032300008F065C0862D90E048855985480F591FD4
:10324000489D9001499D300D589D300D1124D101AC
:10325000A20FB31FB98BA88BEC85FD85FD83EC8392
:10326000AA84BB84DA80FA85DF1A288D398D280F6D
:10327000391F3D8B2C8B8D2D8A0D4E895F89A416AD
:10328000B506C1F1877041F4C2010196EA89FB8954
:10329000E40DF51D74902C0177FE21C0AA8DBB8D25
:1032A000ED91FC91B981B13061F40484F585E02D94
:1032B0002E813F814C895D89B5018A8D9B8D199541
:1032C0000EC00684F785E02DEE80FF808401940116
:1032D000488959896C817D818A8D9B8D1995770CE0
:1032E000EFEFAE1ABE0A2C813D81280D391D3D83BA
:1032F0002C83C1CF3A813C0D3A83639497CFAA8D3A
:10330000BB8DED91FC9111970688F789E02DCD01D9
:103310006B960FB6F894DEBF0FBECDBFDF91CF9195
:103320001F910F91FF90EF90DF90CF90BF90AF90E3
:103330009F908F907F906F905F904F903F902F90D5
:1033400019946B960FB6F894DEBF0FBECDBFDF9118
:10335000CF911F910F91FF90EF90DF90CF90BF9092
:10336000AF909F908F907F906F905F904F903F9025
:103370002F900895CF92DF92EF92FF920F931F93B9
:10338000CF93DF936C017A018B01C0E0D0E0CE15C2
:10339000DF0581F0D8016D918D01D601ED91FC9191
:1033A0000190F081E02DC6011995892B11F021962D
:1033B000EECF7E01C701DF91CF911F910F91FF905A
:1033C000EF90DF90CF900895FC01611101C061E0A2
:1033D000648B81E090E0938B828B918B808B80E07B
:1033E00094E0E0E0F2E0DF019C011D9221503040CA
:1033F000E1F70895FC01A089B1898C91A689B7896C
:1034000082FD0FC09C91818D8F5F8F73228D8217FB
:1034100049F0218DDF01A20FB11D5D969C93818F34
:1034200008958C910895EF92FF920F931F93CF937D
:10343000DF938C017B01C0E0D0E0F701EC0FFD1FB2
:103440006491662361F0D801ED91FC910190F081C7
:10345000E02DC8011995892B11F02196EECFCE01F0
:10346000DF91CF911F910F91FF90EF9008958F9270
:103470009F92AF92BF92CF92DF92EF92FF920F9303
:103480001F93CF93DF93EC01C72ED52E5901E0E4B3
:103490008E2E860EF0E49F2E940E8AE078136CC078
:1034A00058136EC0232B91F4EE24E394F12C00E129
:1034B00010E02CE030E046E250E069E070E0CE0140
:1034C0000E9466101B8A1A8A198A188A8AE090E07C
:1034D0009D878C8787E290E09F878E87682DCE013D
:1034E0000E94FF1181E090E09B8B8A8B998B888BE7
:1034F000AA94AB2891F4EE24E394F12C00E110E0BF
:1035000028E130E046E250E065E170E0CE010E9443
:1035100066101B8A1A8A198A188A86E190E09D87AC
:103520008C8707E210E01F870E876AE070E0CE010B
:1035300086DC81E090E09B8B8A8B998B888B88E27C
:1035400090E09D878C871F870E8760EB78E0CE0127
:103550006ADF82E590E09D878C871F870E87692D43
:10356000CE010E94FF118EE590E09D878C871F871A
:103570000E876AE070E03FC189E0871708F069C0F4
:1035800089E08D1508F4CDC0A114B10491F4EE24A6
:10359000E394F12C00E110E02CE030E046E250E052
:1035A0006FE070E0CE010E9466101B8A1A8A198AA9
:1035B000188A80E190E09D878C8787E290E09F8762
:1035C0008E87682DCE010E94FF1181E090E09B8BD9
:1035D0008A8B998B888BAA94AB2891F4EE24E39480
:1035E000F12C00E110E028E130E046E250E06BE130
:1035F00070E0CE010E9466101B8A1A8A198A188A06
:103600008CE190E09D878C8707E210E01F870E8792
:103610006C2D70E0CE0113DC81E090E09B8B8A8BF7
:10362000998B888B8EE290E09D878C871F870E8711
:103630006BEA78E0CE01F7DE88E590E09D878C8725
:103640001F870E87692DCE010E94FF1184E690E04E
:10365000CCC089E0851708F064C0232B91F4EE24D8
:10366000E394F12C00E110E02CE030E046E250E081
:103670006FE070E0CE010E9466101B8A1A8A198AD8
:10368000188A80E190E09D878C8787E290E09F8791
:103690008E87682DCE010E94FF1181E090E09B8B08
:1036A0008A8B998B888BAA94AB2891F4EE24E394AF
:1036B000F12C00E110E02CE030E046E250E06BE15C
:1036C00070E0CE010E9466101B8A1A8A198A188A35
:1036D0008CE190E09D878C8707E210E01F870E87C2
:1036E0006C2D70E0CE01ABDB81E090E09B8B8A8B90
:1036F000998B888B82E290E09D878C871F870E874D
:1037000066EA78E0CE018FDE8CE490E09D878C87BE
:103710001F870E87692DCE010E94FF1188E590E07A
:1037200064C0A114B10491F4EE24E394F12C00E1FF
:1037300010E02CE030E046E250E065E170E0CE01C0
:103740000E9466101B8A1A8A198A188A86E190E0FC
:103750009D878C8787E290E09F878E87682DCE01BA
:103760000E94FF1181E090E09B8B8A8B998B888B64
:10377000AA94AB2891F4EE24E394F12C00E110E03C
:103780002CE030E046E250E061E270E0CE010E94C1
:1037900066101B8A1A8A198A188A82E290E09D872D
:1037A0008C8707E210E01F870E876C2D70E0CE013A
:1037B00046DB81E090E09B8B8A8B998B888B88E23B
:1037C00090E09D878C871F870E8761EA78E0CE01A5
:1037D0002ADE82E590E09D878C871F870E87692D02
:1037E000CE010E94FF118EE590E09D878C871F8798
:1037F0000E876D2D70E0CE01DF91CF911F910F915B
:10380000FF90EF90DF90CF90BF90AF909F908F9000
:1038100016CB6115710579F0FB0101900020E9F7E5
:103820003197AF01461B570BDC01ED91FC910280F3
:10383000F381E02D199480E090E00895CF93DF9319
:10384000BC0183E299E0FBDAEC016FE776E083E20A
:1038500099E0DFDF8C0F9D1FDF91CF910895CF930B
:10386000DF93CDB7DEB762970FB6F894DEBF0FBE19
:10387000CDBF789484B5826084BD84B5816084BDF9
:1038800085B5826085BD85B5816085BD80916E00FE
:10389000816080936E00109281008091810082602F
:1038A000809381008091810081608093810080916C
:1038B00080008160809380008091B100846080935B
:1038C000B1008091B00081608093B0008091910040
:1038D000826080939100809191008160809391003B
:1038E000809190008160809390008091A10082601F
:1038F0008093A1008091A10081608093A1008091BC
:10390000A00081608093A00080912101826080935B
:10391000210180912101816080932101809120010A
:1039200081608093200180917A00846080937A0086
:1039300080917A00826080937A0080917A00816021
:1039400080937A0080917A00806880937A00109248
:10395000C10040E855E260E070E083E299E0EAD817
:1039600040E052EC61E070E086E898E0E3D840E0A7
:1039700052EC61E070E089EE97E0DCD840E056E977
:1039800060E070E08CE497E0D5D80E9414098C01C7
:10399000909394068093930682E0D8015B968C9373
:1039A0005B978CE35A968C935A975C968C915C97B4
:1039B0008F3F09F4C3C061E05E968C910E946C1346
:1039C00061E0F80180A10E946C13D80190968C915F
:1039D0009097082E000C990BFC01E65DFD4FE491D9
:1039E000F0E0EE0FFF1FE05FFD4F25913491F801ED
:1039F00037A326A3FC01E653FE4FE4919C96EC937B
:103A00009C975E968C915E97082E000C990BFC019A
:103A1000E65DFD4FE491F0E0EE0FFF1FE05FFD4F2C
:103A200025913491F80131A720A7FC01E653FE4F00
:103A3000E4919D96EC939D9791968C91919781112D
:103A400040C061E05C968C910E946C1361E0F801CB
:103A5000858D0E946C13D8015D968C915D97082E20
:103A6000000C990BFC01E65DFD4FE491F0E0EE0FD8
:103A7000FF1FE05FFD4F25913491F80135A324A38A
:103A8000FC01E653FE4FE4919B96EC939B975C966A
:103A90008C915C97082E000C990BFC01E65DFD4FA4
:103AA000E491F0E0EE0FFF1FE05FFD4F25913491B0
:103AB000F80133A322A3FC01E653FE4FE4919A964A
:103AC000EC93F80181A1882309F46BC0FFB6F89448
:103AD00080918C06811127C0EFE5F2E08491EFEF31
:103AE000F1E09491E82FF0E0EE0FFF1FE055FE4F5C
:103AF000A591B491EC91E92321F461E085E30E9462
:103B00003E1361E085E30E946C138CB580618CBD2F
:103B10008CB580648CBD61E084E30E946C1361E02D
:103B200083E30E946C1380918C068F5F80938C06D8
:103B3000FFBE80E58CBD81E08DBD33C010928B0649
:103B400010928A061092290710924B0710922707AD
:103B500081E0809326071092010761E084E10E94D2
:103B60003E1361E085E10E943E138091B9008E7F93
:103B70008093B9008091B9008D7F8093B90088E46B
:103B80008093B80085E48093BC008FED9EE0909315
:103B900089068093880680EE9EE090938706809346
:103BA0008606D8015F968C9187FD1FC061E00E9458
:103BB0006C1361E0F801878D0E943E1361E070E0B4
:103BC00080E090E00E94A81360E0D8015F968C919D
:103BD0000E943E136AE070E080E090E00E94A8132B
:103BE00061E0F801878D0E943E136EEAC8010E94D1
:103BF000E50765EDC8010E94E50760E8C8010E947D
:103C0000E50768EAC8010E94E5076FE3C8010E9462
:103C1000E50763EDC8010E94E50760E0C8010E9466
:103C2000E50760E4C8010E94E5076DE8C8010E944D
:103C3000E50764E1C8010E94E50760E2C8010E944F
:103C4000E50760E0C8010E94E50761EAC8010E943B
:103C5000E50768ECC8010E94E5076AEDC8010E940B
:103C6000E50762E1C8010E94E50761E8C8010E941A
:103C7000E5076FECC8010E94E50769EDC8010E94E5
:103C8000E50761EFC8010E94E5076BEDC8010E94DE
:103C9000E50760E4C8010E94E50764EAC8010E94E4
:103CA000E50766EAC8010E94E5076EE2C8010E94C6
:103CB000E5076FEAC8010E94E507C0909306D0901F
:103CC000940663E0C60180DB912CB0E0AB2EB2E03D
:103CD000BB2E612C14E0712E692D70E0D6011A966E
:103CE0000D911C911B97C80117FD0196959587951D
:103CF000681779073CF5CB01880F991F081B190B32
:103D0000F60120853185281B390BEE24E394F12C34
:103D1000AB01C6010E946610C60109D862E370E0DB
:103D200080E090E00E94A813D501F3011D92319725
:103D3000E9F762E370E080E090E00E94A813F3E00E
:103D40009F0ECACF8CE090E0D6011D969C938E9377
:103D50001C9786E090E01F969C938E931E9765E7D4
:103D600072E0C60160DB8EE190E0F6019587848702
:103D700087E290E09787868760E772E0C60153DBB1
:103D8000C6010E94971660ED77E080E090E00E9407
:103D9000A8130E94510980918D0690918E06892B5F
:103DA00039F481E090E0A3D290938E0680938D0643
:103DB00080918D0690918E06909392068093910645
:103DC000009193061091940662E0C801FDDA66E165
:103DD000E62EF12CD8011D96FC92EE921C978EE0F7
:103DE00090E01F969C938E931E9764E872E0C80142
:103DF0001ADBF801F586E48687E290E097878687EC
:103E00006CE772E0C8010FDBC8010E9497160E94A0
:103E1000E0136B017C0110E0F8EECF0EF3E0DF1E43
:103E2000E11CF11C1F3109F486C10E94E0136C15DE
:103E30007D058E059F05B0F31F5F0E94E0136B01A7
:103E40007C018CE497E00E94FD0D892B29F38CE422
:103E500097E00E94DB0D81359105F1F686E898E048
:103E60000E94FD0D181619062CF486E898E00E94B1
:103E7000DB0DF4CF63E48CE497E00E94340C0091F6
:103E800093061091940662E0C8019EDA86E190E004
:103E9000D8011D969C938E931C978EE090E01F9600
:103EA0009C938E931E9764EA72E0C801BCDA82E1AB
:103EB00090E0F8019587848787E290E0978786876E
:103EC0006BE972E0C801AFDAC8010E9497168091D1
:103ED0008F0690919006892B09F061C087EF90E0E2
:103EE00006D28C0160E070E088539F4F0E942F083B
:103EF00061E070E0C8018F529F4F0E942F0862E07E
:103F000070E0C80186529F4F0E942F0863E070E066
:103F1000C8018D519F4F0E942F0864E070E0C801D6
:103F200084519F4F0E942F086EEE72E083E299E069
:103F30007ADA0E94361482DC6CE271E080E090E074
:103F40000E94A813A8012AE064E070E080E090E0FD
:103F5000FA01E80FF91F718360830296843191059D
:103F6000B9F721504C5E5F4F2111F0CF0E94140928
:103F7000F801EB50FF4F918380836CEA72E083E29B
:103F800099E051DA0E94361459DC6CE271E080E06D
:103F900090E00E94A8131093900600938F06009162
:103FA0008F0610919006F801EB50FF4FE080F180F2
:103FB00062E0C70109DA84E090E0D7011D969C9386
:103FC0008E931C978EE090E01F969C938E931E9785
:103FD00066E373E0C70127DA85E290E0F701958791
:103FE000848787E290E09787868760E373E0C70164
:103FF0001ADAC7010E9497166CED75E080E090E038
:104000000E94A813C12CD12C39E0B32E4AE0942E83
:1040100053E0E52EF12CBC9C3001BD9C700C1124AA
:10402000F8EC6F0E711C600E711E40E050E0B301A1
:10403000C8010E947B0981309105B9F3059719F4F5
:1040400041E050E0F4CFBC9CF001BD9CF00D112488
:10405000E00FF11FE853FF4FDE011A968B2D019000
:104060000D928A95E1F7A12C8C85A816C8F46A2DCB
:10407000CE010A960E942508AC0199E0FE013A960D
:10408000DE01119601900D929A95E1F7BE016F5FE6
:104090007F4FC8010E9492088823A1F0A394E4CF27
:1040A000BC9CF001BD9CF00D1124E00FF11FE85302
:1040B000FF4FDE0111968B2D01900D928A95E1F74D
:1040C000A12C04C081E0C81AD1082AC08B81A8168F
:1040D00038F56A2DCE0101960E942508282F30E080
:1040E00021503109E92FF0E0929EB001939E700DAE
:1040F00011243197E60FF71FEE0FFF1FE00FF11F9E
:10410000F182E082AC0163E070E0C8010E946C08BB
:1041100064E170E080E090E00E94A813A394D6CF01
:104120009FEFC91AD90AA5E0CA16D1040CF473CFBF
:104130000E94090EFDCF009193061091940662E053
:10414000C80142D986E190E0F801958784878EE026
:1041500090E09787868763E972E0C80164D988E1B7
:1041600090E0D8011D969C938E931C9787E290E077
:104170001F969C938E931E976CE872E0C80153D9EA
:10418000C8010E94971668EE73E080E090E00E94FC
:10419000A81384E991E0FAD1ECE4F7E013821282EB
:1041A00088EE93E0A0E0B0E084839583A683B78394
:1041B00026E436E03183208345E351E05587448788
:1041C00044E351E05787468740E351E0518B408BF1
:1041D00041E351E0538B428B42E351E0558B448BDA
:1041E00046E351E0578B468B118E128E138E148E40
:1041F000E9EEF7E01382128284839583A683B78366
:104200003183208345ED50E05587448744ED50E0ED
:104210005787468740ED50E0518B408B41ED50E091
:10422000538B428B42ED50E0558B448B46ED50E072
:10423000578B468B118E128E138E148EE6E8F8E0A3
:104240001382128284839583A683B783318320836C
:104250004DEC50E0558744874CEC50E0578746873B
:1042600048EC50E0518B408B49EC50E0538B428B33
:104270004AEC50E0558B448B4EEC50E0578B468B0C
:10428000118E128E138E148EE3E2F9E013821282E5
:1042900084839583A683B7833183208325EC30E024
:1042A0003587248724EC30E03787268720EC30E000
:1042B000318B208B21EC30E0338B228B22EC30E0F1
:1042C000358B248B26EC30E0378B268B118E128EAB
:1042D000138E148EE0ECF9E01382128284839583AE
:1042E000A683B78384E696E09183808308950F9335
:1042F0001F93CF93DF938230910510F482E090E01A
:10430000E091CE09F091CF0920E030E0A0E0B0E0EC
:10431000309719F140815181028113814817590763
:10432000C8F08417950769F4109731F012960C9332
:10433000129713961C9327C00093CE091093CF09B0
:1043400022C02115310519F04217530718F49A01BC
:10435000BD01EF01DF01F801DBCF21153105F9F0D7
:10436000281B390B2430310580F48A819B8161152B
:10437000710521F0FB019383828304C09093CF09E0
:104380008093CE09FE01329644C0FE01E20FF31F76
:104390008193919322503109398328833AC0209127
:1043A000CC093091CD09232B41F4209102063091A4
:1043B00003063093CD092093CC092091000630915B
:1043C00001062115310541F42DB73EB74091040691
:1043D00050910506241B350BE091CC09F091CD09D5
:1043E000E217F307A0F42E1B3F0B2817390778F0CC
:1043F000AC014E5F5F4F2417350748F04E0F5F1F2B
:104400005093CD094093CC098193919302C0E0E091
:10441000F0E0CF01DF91CF911F910F910895CF93DD
:10442000DF93009709F481C0FC0132971382128256
:10443000A091CE09B091CF09109781F420813181EC
:10444000820F931F2091CC093091CD09281739078D
:1044500051F5F093CD09E093CC0967C0ED0120E060
:1044600030E0CE17DF0740F44A815B819E014115A1
:104470005105F1F0EA01F5CFD383C2834081518128
:10448000840F951FC817D90759F488819981840F23
:10449000951F0296918380838A819B819383828377
:1044A0002115310529F4F093CF09E093CE093DC0E1
:1044B000E901FB83EA8349915991C40FD51FEC1799
:1044C000FD0761F480819181840F951F0296E901B7
:1044D00099838883828193819B838A83E0E0F0E0E3
:1044E00012968D919C911397009719F0FD01DC01B4
:1044F000F7CF8D919C9111979D012E5F3F4F820FB9
:10450000931F2091CC093091CD092817390769F400
:10451000309729F41092CF091092CE0902C013826D
:104520001282B093CD09A093CC09DF91CF91089569
:10453000A1E21A2EAA1BBB1BFD010DC0AA1FBB1FA7
:10454000EE1FFF1FA217B307E407F50720F0A21B19
:10455000B30BE40BF50B661F771F881F991F1A9486
:1045600069F760957095809590959B01AC01BD01B0
:10457000CF010895EE0FFF1F881F8BBF0790F691A4
:10458000E02D199481E090E0F89400C0F894FFCFFA
:10459000000000000000000000000000000000001B
:1045A000000000000000000000000000000000000B
:1045B00000000000000000000000000000000000FB
:1045C000000000000000000000000000000000806B
:1045D00080800000000000000000000000000000DB
:1045E000008080C0C000000000000000000000004B
:1045F00000000000000000000000000000000000BB
:1046000000000000000000000000000000000000AA
:10461000000000000000000000000000000000009A
:104620000000000080C0E0F0F8FCF8E000000000AE
:1046300000000000000000000000000000808080FA
:10464000808000808000000000808080808000FFEB
:10465000FFFF00000000808080800000808000005C
:1046600080FFFF80800080800080808080008080CC
:104670000000000000808000008C8E84000080F824
:10468000F8F88000000000000000000000000000BA
:10469000F0F0F0F0F0F0F0F0F0F0F0F0E0E0C080DA
:1046A00000E0FCFEFFFFFF7FFFFFFFFFFF000000B9
:1046B0000000000000000000000000FEFFC7010134
:1046C000010183FFFF00007CFEC70101010183FFA0
:1046D000FFFF0038FEC78301010183C7FFFF000011
:1046E00001FFFF010100FFFF0701010100007FFF43
:1046F00080000000FFFF7F0000FFFFFF000001FFC0
:10470000FFFF0100000000000000000000000000AA
:10471000030F3F7F7FFFFFFFFFFFFFFFE7C7C78F4D
:104720008F9FBFFFFFC3C0F0FFFFFFFFFFFCFCFC3C
:10473000FCFCFCFCFCF8F8F0F0E0C0000103030313
:10474000030301030300000000010303030301014D
:104750000301000000010303030301010303000040
:10476000000303000000030300000000000000013C
:104770000303030303010000000103010000000321
:104780000301000000000000000000000000000025
:1047900000000080C0E0F0F9FFFFFFFFFF3F1F0FA8
:1047A00087C7F7FFFF1F1F3DFCF8F8F8F87C7DFF77
:1047B000FFFFFFFFFFFFFF7F3F0F070030300000CC
:1047C00000000000000000000000000000000000E9
:1047D00000000000FEFEFC000000000000000000E1
:1047E00000000000000000000000000000E0C00029
:1047F0000000000000000000000030300000000059
:1048000000000000000000000000000000000000A8
:1048100000C0FEFFFFFFFFFFFFFFFFFF7F7F3F1F87
:104820000F071F7FFFFFF8F8FFFFFFFFFFFEF8E015
:10483000000000010000000000000000FEFE00007B
:1048400000FCFEFC0C06060EFCF80000F0F81C0E46
:104850000606060CFFFFFF0000FEFE00000000FC45
:10486000FEFC00183C7E66E6CE84000006FFFF06D4
:1048700006FCFEFC0C0606060000FEFE0000C0F86A
:10488000FC4E4646464E7C7840183C76E6CECC80C0
:104890000000000000000000000000000000000018
:1048A0000000000001070F1F1F3F3F3F3F1F0F0386
:1048B0000000000000000000000000000F0F0000DA
:1048C000000F0F0F000000000F0F000003070E0C79
:1048D00018180C060F0F0F0000010F0E0C180C0F0C
:1048E000070100040E0C180C0F070000000F0F004A
:1048F000000F0F0F0000000000000F0F0000000766
:10490000070C0C181C0C060600040E0C180C0F07E4
:104910000000000000000000000000000000000097
:104920000000000000000000000000000000000087
:104930000000000000000000000000000000000077
:104940000000000000000000000000000000000067
:104950000000000000000000000000000000000057
:104960000000000000000000000000000000000047
:104970000000000000000000000000000000000037
:104980000000000000000000000000000000000027
:104990000000D009800000000000FF11BA19E207F2
:1049A000E1074307E10E45111D1139112D114C117D
:1049B000E10E680F670F8E04E80566104910DC0FE2
:1049C0007D0F000103070F1F3F7F0080C0E0F0F85C
:1049D000FCFE00000000340CBA19CC0DF512FD0DE0
:1049E000DB0DEF0D00000000FD11BA19E207E10731
:1049F00000000000390F0D0FE207E10E050FF10E68
:104A0000E20E506C6163696E672053686970000D37
:024A10000A009A
:020000023000CC
:10E000000D9489F10D94B2F10D94B2F10D94B2F129
:10E010000D94B2F10D94B2F10D94B2F10D94B2F1F0
:10E020000D94B2F10D94B2F10D94B2F10D94B2F1E0
:10E030000D94B2F10D94B2F10D94B2F10D94B2F1D0
:10E040000D94B2F10D94B2F10D94B2F10D94B2F1C0
:10E050000D94B2F10D94B2F10D94B2F10D94B2F1B0
:10E060000D94B2F10D94B2F10D94B2F10D94B2F1A0
:10E070000D94B2F10D94B2F10D94B2F10D94B2F190
:10E080000D94B2F10D94B2F10D94B2F10D94B2F180
:10E090000D94B2F10D94B2F10D94B2F10D94B2F170
:10E0A0000D94B2F10D94B2F10D94B2F10D94B2F160
:10E0B0000D94B2F10D94B2F10D94B2F10D94B2F150
:10E0C0000D94B2F10D94B2F10D94B2F10D94B2F140
:10E0D0000D94B2F10D94B2F10D94B2F10D94B2F130
:10E0E0000D94B2F141546D656761323536300041AF
:10E0F000726475696E6F206578706C6F72657220DE
:10E1000073746B3530305632206279204D4C530099
:10E11000426F6F746C6F616465723E004875683F52
:10E1200000436F6D70696C6564206F6E203D200048
:10E130004350552054797065202020203D20005FF9
:10E140005F4156525F415243485F5F3D2000415658
:10E1500052204C696243205665723D20004743437C
:10E160002056657273696F6E203D20004350552024
:10E1700049442020202020203D20004C6F7720663D
:10E18000757365202020203D20004869676820665F
:10E190007573652020203D200045787420667573D6
:10E1A00065202020203D20004C6F636B2066757336
:10E1B000652020203D20004D617220203720323024
:10E1C000313300312E362E3800342E332E350056A2
:10E1D00023202020414444522020206F7020636F70
:10E1E00064652020202020696E73747275637469E1
:10E1F0006F6E2061646472202020496E74657272B3
:10E20000757074006E6F20766563746F7200726A49
:10E210006D702020006A6D70200057686174207056
:10E220006F72743A00506F7274206E6F7420737541
:10E2300070706F72746564004D7573742062652030
:10E2400061206C6574746572002000577269747483
:10E25000696E672045450052656164696E672045B7
:10E26000450045452065727220636E743D00504F35
:10E27000525400303D5A65726F2061646472003FF1
:10E280003D43505520737461747300403D454550C3
:10E29000524F4D207465737400423D426C696E6B41
:10E2A000204C454400453D44756D70204545505215
:10E2B0004F4D00463D44756D7020464C415348001B
:10E2C000483D48656C70004C3D4C69737420492F83
:10E2D0004F20506F72747300513D51756974005234
:10E2E0003D44756D702052414D00563D73686F7707
:10E2F00020696E7465727275707420566563746FF0
:10E30000727300593D506F727420626C696E6B00BD
:10E310002A0011241FBECFEFD1E2DEBFCDBF01E046
:10E320000CBF12E0A0E0B2E0EEE1FDEF03E00BBFB6
:10E3300002C007900D92A030B107D9F712E0A0E01B
:10E34000B2E001C01D92AE30B107E1F70F9460F367
:10E350000D948DFE01E20EBF0FEF0DBF11241FBE05
:10E360000D9460F30D9400F020E030E040ED57E0B4
:10E3700005C0FA013197F1F72F5F3F4F2817390792
:10E38000C0F308959C01260F311DC901A0E0B0E043
:10E390002F5F3F4FABBFFC018791882361F08093D3
:10E3A000C6008091C00086FFFCCF8091C0008064D1
:10E3B0008093C000EACF08958DE08093C6008091DD
:10E3C000C00086FFFCCF8091C00080648093C000B5
:10E3D0008AE08093C6008091C00086FFFCCF8091C8
:10E3E000C00080648093C00008950F94C2F10F9420
:10E3F000DCF10895FC019081992359F09093C600B7
:10E400008091C00086FFFCCF8091C0008064809323
:10E41000C0003196992379F70895282F982F929567
:10E420009F70892F805D8A3308F0895F8093C600D2
:10E430008091C00086FFFCCF8091C00080648093F3
:10E44000C000822F8F70982F905D9A3308F0995FEB
:10E450009093C6008091C00086FFFCCF8091C000E1
:10E4600080648093C00008959C01FB01853691056E
:10E470001CF46330710594F0C90164E670E00F94F8
:10E480002EFE605D7F4F6093C6008091C00086FFC6
:10E49000FCCF8091C00080648093C0002B30310598
:10E4A00014F43297B4F0C90164E670E00F942EFEC4
:10E4B0006AE070E00F942EFE605D7F4F6093C600AF
:10E4C0008091C00086FFFCCF8091C0008064809363
:10E4D000C000C9016AE070E00F942EFEC0968093E0
:10E4E000C6008091C00086FFFCCF8091C000806490
:10E4F0008093C00008951F93182F8EE692EE60E07F
:10E500000F94C2F11093C6008091C00086FFFCCF2B
:10E510008091C00080648093C0000F94DCF11F9153
:10E5200008952F923F924F925F926F927F928F92B7
:10E530009F92AF92BF92CF92DF92EF92FF920F9392
:10E540001F93DF93CF93CDB7DEB762970FB6F894E2
:10E55000DEBF0FBECDBF382E622ECA01DB015C01CB
:10E560006D01772420E2222E2E010894411C511CBB
:10E570008BC081E0A81680E0B80681E0C80680E084
:10E58000D80628F0C601AA27BB270F940DF2BB2797
:10E59000AD2D9C2D8B2D0F940DF28A2D0F940DF225
:10E5A0002092C6008091C00086FFFCCF8091C00001
:10E5B00080648093C0009DE29093C6008091C0006B
:10E5C00086FFFCCF8091C00080648093C0002092C1
:10E5D000C6008091C00086FFFCCF8091C00080649F
:10E5E0008093C00019828601750188249924A1E0D6
:10E5F0003A1651F03A1620F0B2E03B1661F409C029
:10E600000BBFF701779007C0C7010F9477FE782EF4
:10E6100002C0F7017080872D0F940DF22092C60082
:10E620008091C00086FFFCCF8091C0008064809301
:10E63000C000872D8052F401EF70F0708F3520F408
:10E64000E40DF51D708204C0E40DF51D8EE280839B
:10E650000894E11CF11C011D111D0894811C911CE2
:10E6600090E18916910409F0C2CF80E190E0A0E02A
:10E67000B0E0A80EB91ECA1EDB1E198AC2010F9493
:10E68000FAF10F94DCF16A94662009F072CF629679
:10E690000FB6F894DEBF0FBECDBFCF91DF911F91B3
:10E6A0000F91FF90EF90DF90CF90BF90AF909F9031
:10E6B0008F907F906F905F904F903F902F90089534
:10E6C0002F923F924F925F926F927F928F929F9282
:10E6D000AF92BF92CF92DF92EF92FF920F931F9370
:10E6E000DF93CF93CDB7DEB7CD53D1400FB6F894BB
:10E6F000DEBF0FBECDBF01E20EBF0FEF0DBF94B75F
:10E70000F894A89514BE80916000886180936000A1
:10E7100010926000789493FF05C0E0910002F091A0
:10E7200001021995279A2F9A8091C00082608093E8
:10E73000C00080E18093C40088E18093C1000000A4
:10E74000EE24FF24870144E0A42EB12CCC24DD2448
:10E7500024C0C5010197F1F70894E11CF11C011DCB
:10E76000111D21E2E2162EE4F20620E0020720E06D
:10E77000120718F031E0C32ED12CC801B70127ECE5
:10E780003BE140E050E00F9441FE611571058105C9
:10E79000910519F485B1805885B98091C00087FD35
:10E7A00003C0C114D104A9F2A6014F5F5F4FC25E3E
:10E7B000DE4F59834883CE51D140C25EDE4F8881FF
:10E7C0009981CE51D140019711F00D9410FEC05D9A
:10E7D000DE4F19821882C053D14060E0C15DDE4F28
:10E7E0001882CF52D14088249924C35DDE4F19820C
:10E7F0001882CD52D140C05EDE4F188219821A8233
:10E800001B82C052D140CE5CDE4F188219821A8220
:10E810001B82C253D140EE24FF2487010BBFF701B6
:10E8200007911691C45CDE4F19830883CC53D14005
:10E830000D940BFEC25EDE4F28813981CE51D1404E
:10E840002130310509F52091C600C25EDE4F1982E4
:10E850001882CE51D14022C02F5F3F4F4F4F5F4FA4
:10E86000213082E138078AE7480780E0580780F0C6
:10E87000C45CDE4FE881F981CC53D140EF5FFF4F9C
:10E8800019F0EE27FF27099420E030E040E050E047
:10E890008091C00087FFE0CF2091C600C35DDE4FAE
:10E8A00048815981CD52D1404F5F5F4FC35DDE4FEC
:10E8B00059834883CD52D140213209F063C64A3092
:10E8C000510508F05FC60894811C911C53E0851621
:10E8D000910409F059C600E010E018C081E280936D
:10E8E000C6008091C00086FFFCCF8091C00080648C
:10E8F0008093C0002F5F3F4F2931310579F70F9486
:10E90000DCF10F5F1F4F0530110519F020E030E0FA
:10E91000E5CF10920A0210920B0210920C02109294
:10E920000D02109206021092070210920802109235
:10E930000902109202021092030210920402109235
:10E9400005028FEE90EE60E00F94F5F180E191EE1C
:10E9500060E00F94C2F18091C00087FFFCCF9091DE
:10E96000C600903608F09F759032B8F09093C600BC
:10E970008091C00086FFFCCF8091C00080648093AE
:10E98000C000A0E2A093C6008091C00086FFFCCF2B
:10E990008091C00080648093C000983409F4D7C18E
:10E9A0009934B8F4923409F459C1933458F490333B
:10E9B00019F1903308F4E3C59F33A1F1903409F0C5
:10E9C000DEC5BDC0953409F470C1963409F0D7C5D1
:10E9D00098C1923509F42BC2933538F49C3409F46C
:10E9E000F5C1913509F0CBC518C2963509F445C279
:10E9F000993509F0C4C567C483E792EE62E00F94CD
:10EA0000F5F110920602109207021092080210927D
:10EA1000090210920A0210920B0210920C0210923C
:10EA20000D0213C18FE792EE62E00F94F5F18FEEC5
:10EA300090EE60E00F94F5F181E291EE60E00F94CA
:10EA4000C2F187EB91EE60E00F94F5F180E391EE77
:10EA500060E00F94C2F184EE90EE60E00F94F5F167
:10EA60008FE391EE60E00F94C2F186E090E061E008
:10EA700070E00F9434F20F94DCF18DE591EE60E0DC
:10EA80000F94C2F189EC91EE60E00F94F5F18EE401
:10EA900091EE60E00F94C2F183EC91EE60E00F9490
:10EAA000F5F18CE691EE60E00F94C2F18EE10F94E7
:10EAB0000DF288E90F940DF281E00F940DF20F949E
:10EAC000DCF18BE791EE60E00F94C2F119E0E0E039
:10EAD000F0E010935700E4918E2F0F940DF20F94F5
:10EAE000DCF18AE891EE60E00F94C2F1E3E0F0E03F
:10EAF00010935700E4918E2F0F940DF20F94DCF1D8
:10EB000089E991EE60E00F94C2F1E2E0F0E0109349
:10EB10005700E4918E2F0F940DF20F94DCF188EAE8
:10EB200091EE60E00F94C2F1E1E0F0E01093570045
:10EB30001491812F0F940DF20F94DCF107CF8BE825
:10EB400092EE62E00F94F5F18BE492EE60E00F94A8
:10EB5000F5F10F94DCF100E010E019C0C8016F2D51
:10EB60000F947FFEFF2031F489E492EE60E00F9471
:10EB7000C2F10BC0F092C6008091C00086FFFCCFAE
:10EB80008091C00080648093C0000F5F1F4FC80158
:10EB900081519F41A0E0B0E0ABBFFC01F790BAE229
:10EBA000FB1621F0E2E000301E07C1F60F94DCF105
:10EBB0000F94DCF187E592EE60E00F94F5F10F948D
:10EBC000DCF1CC24DD2400E010E01EC0C8010F946D
:10EBD00077FEF82E882331F489E492EE60E00F94FA
:10EBE000C2F10BC08093C6008091C00086FFFCCFAD
:10EBF0008091C00080648093C000FE1419F00894D6
:10EC0000C11CD11C0F5F1F4FC80181519F41A0E063
:10EC1000B0E0ABBFFC01E790FAE2EF1621F022E092
:10EC20000030120799F60F94DCF10F94DCF182E6C4
:10EC300092EE60E00F94C2F1C60161E070E00F94C3
:10EC400034F20F94DCF10F94DCF110920202109276
:10EC50000302109204021092050278CE89E992EE26
:10EC600062E00F94F5F1279A2F9A16C02F9880E052
:10EC700090E0E0EDF7E03197F1F7019684369105E9
:10EC8000C1F72F9A80E090E0E0EDF7E03197F1F7DF
:10EC9000019684369105C1F78091C00087FFE6CFC9
:10ECA0008091C00087FFFCCF64C485EA92EE62E0E9
:10ECB0000F94F5F140910202509103026091040219
:10ECC0007091050281E020E10F9491F2809102029F
:10ECD00090910302A0910402B091050280509F4FD1
:10ECE000AF4FBF4F8093020290930302A0930402A0
:10ECF000B093050280509041A040B04008F426CE69
:10ED0000A4CF83EB92EE62E00F94F5F140910602FE
:10ED100050910702609108027091090280E020E1A1
:10ED20000F9491F28091060290910702A09108023F
:10ED3000B091090280509F4FAF4FBF4F80930602A2
:10ED400090930702A0930802B0930902FFCD80ECD4
:10ED500092EE62E00F94F5F183E792EE60E00F949B
:10ED6000F5F18FE792EE60E00F94F5F18BE892EE0B
:10ED700060E00F94F5F189E992EE60E00F94F5F10F
:10ED800085EA92EE60E00F94F5F183EB92EE60E09D
:10ED90000F94F5F180EC92EE60E00F94F5F187ECC2
:10EDA00092EE60E00F94F5F188ED92EE60E00F9442
:10EDB000F5F18FED92EE60E00F94F5F18AEE92EEB0
:10EDC00060E00F94F5F183E093EEBDCD87EC92EE19
:10EDD00062E00F94F5F181E40F947BF282E40F94EA
:10EDE0007BF283E40F947BF284E40F947BF285E45E
:10EDF0000F947BF286E40F947BF287E40F947BF20E
:10EE000088E40F947BF28AE40F947BF28BE40F94F6
:10EE10007BF28CE40F947BF299CD88ED92EE62E068
:10EE20000F94F5F1772473948824992409C48FED05
:10EE300092EE62E00F94F5F140910A0250910B02BC
:10EE400060910C0270910D0282E020E10F9491F22A
:10EE500080910A0290910B02A0910C02B0910D02D8
:10EE600080509F4FAF4FBF4F80930A0290930B0289
:10EE7000A0930C02B0930D0269CD8AEE92EE62E08F
:10EE80000F94F5F184EE90EE60E00F94F5F18FECC5
:10EE900091EE60E00F94F5F1662477244301CC5D98
:10EEA000DE4F19821882C452D140D401C301B695F5
:10EEB000A79597958795CA5DDE4F88839983AA8326
:10EEC000BB83C652D140CC5DDE4FA881B981C4520C
:10EED000D1401196CC5DDE4FB983A883C452D14096
:10EEE000CD0162E070E00F9434F2B0E2B093C6005E
:10EEF0008091C00086FFFCCF8091C0008064809329
:10EF0000C000EDE2E093C6008091C00086FFFCCF18
:10EF10008091C00080648093C000F0E2F093C6004E
:10EF20008091C00086FFFCCF8091C00080648093F8
:10EF3000C000CA5DDE4FE880F9800A811B81C6529D
:10EF4000D140BB27A12F902F8F2D0F940DF2CA5DBA
:10EF5000DE4F8881C652D1400F940DF2B0E2FB2EF5
:10EF6000F092C6008091C00086FFFCCF8091C00067
:10EF700080648093C0000DE30093C6008091C000C0
:10EF800086FFFCCF8091C00080648093C00010E2B7
:10EF90001093C6008091C00086FFFCCF8091C00016
:10EFA00080648093C0008BBEF3012791C65DDE4F65
:10EFB0002883CA52D140A22EBB24CC24DD2408943D
:10EFC000611C711C811C911C8BBEF3018791282E42
:10EFD0003324442455240894611C711C811C911C09
:10EFE0008BBEF3013791C55DDE4F3883CB52D140E4
:10EFF0000894611C711C811C911C8BBEF30147910C
:10F00000C45DDE4F4883CC52D140ADEFEA2EAFEF66
:10F01000FA2EAFEF0A2FAFEF1A2F6E0C7F1C801E57
:10F02000911E142D032DF22CEE24EA0CFB1C0C1D5A
:10F030001D1D0F940DF220E22093C6008091C000A8
:10F0400086FFFCCF8091C00080648093C000C65DC5
:10F05000DE4F8881CA52D1400F940DF230E23093D6
:10F06000C6008091C00086FFFCCF8091C000806404
:10F070008093C000C45DDE4F8881CC52D1400F9494
:10F080000DF240E24093C6008091C00086FFFCCFA5
:10F090008091C00080648093C000C55DDE4F888190
:10F0A000CB52D1400F940DF250E25093C6008091A4
:10F0B000C00086FFFCCF8091C00080648093C000B8
