:1000000009C4000038C4000036C4000034C4000035
:1000100032C4000030C400002EC400002CC4000014
:100020002AC4000028C4000026C4000024C4000024
:1000300022C4000020C400001EC400001CC4000034
:100040001AC4000018C4000016C4000014C4000044
:1000500012C4000010C400000EC400000C940D1463
:100060000AC400000C94280E0C94FF0D04C4000078
:1000700002C4000000C40000FEC30000FCC3000076
:10008000FAC30000F8C30000F6C30000F4C3000088
:100090000C94D50D0C94AC0DEEC300000C945714C9
:1000A000EAC30000E8C30000E6C30000E4C30000A8
:1000B000E2C30000E0C30000DEC30000DCC30000B8
:1000C000DAC30000D8C30000D6C300000C94820D30
:1000D0000C94590DD0C300000C942F0D0C94060DF8
:1000E000CAC30000D30ED60EC50EC90ECF0E0D0F1B
:1000F000DA0EDE0EE40EE80EEC0EF20EF60EFA0E3E
:100100000D0F000F040F080F526967687450757364
:1001100068656400526967687448656C640043658B
:100120006E7465725075736865640043656E7465BE
:100130007248656C64004C656674507573686564DC
:10014000004C65667448656C6400434152524945F1
:100150005200424154544C45534849500043525573
:1001600049534552005355424D4152494E45004472
:10017000455354524F59455200536869702E63706D
:10018000703A20426567696E6E696E67206F6620FF
:100190005368697020436F6E7374727563746F7205
:1001A0002E20467265654D656D6F7279203D200089
:1001B00000002100240027002A002D003000330019
:1001C00001010000040107010A01010210202008BA
:1001D00008102040102040800201020108040201A2
:1001E0000102040810204080804020100804020111
:1001F000800402018040201008040201080402016A
:1002000001020408102040800102040810204080F0
:1002100000002200250028002B002E0031003400B1
:1002200002010000050108010B0105050505070590
:1002300008080808020202020A0A08080404040462
:10024000010101010101010103030303030303038E
:10025000040707070C0C0C0C0C0C0C0C020202021D
:1002600006060606060606060B0B0B0B0B0B0B0B06
:100270005348495000424154544C4500534849505A
:100280005300504C41434520594F5552005455524C
:100290004E00594F555200544152474554000000FA
:1002A00020002300260029002C002F00320000012E
:1002B000000003010601090100000A0B02090C0DF0
:1002C0000E08070304010000000000000000000009
:1002D000000000000000000000000000000000001E
:1002E00000000000121110000000000000000000DB
:1002F00000000000000000000000000000000000FE
:100300000000003E5B4F5B3E3E6B4F6B3E1C3E7CF5
:100310003E1C183C7E3C181C577D571C1C5E7F5EA3
:100320001C00183C1800FFE7C3E7FF001824180062
:10033000FFE7DBE7FF30483A060E262979292640F9
:100340007F050507407F05253F5A3CE73C5A7F3E25
:100350001C1C08081C1C3E7F14227F22145F5F00B7
:100360005F5F06097F017F006689956A6060606053
:100370006094A2FFA29408047E040810207E20103E
:1003800008082A1C08081C2A08081E101010100C47
:100390001E0C1E0C30383E3830060E3E0E06000095
:1003A00000000000005F00000007000700147F1439
:1003B0007F14242A7F2A12231308646236495620A8
:1003C000500008070300001C2241000041221C00CD
:1003D0002A1C7F1C2A08083E08080080703000088C
:1003E00008080808000060600020100804023E5160
:1003F00049453E00427F40007249494946214149F2
:100400004D331814127F1027454545393C4A494958
:100410003141211109073649494936464949291EC2
:1004200000001400000040340000000814224114B1
:1004300014141414004122140802015909063E4103
:100440005D594E7C1211127C7F494949363E41412B
:1004500041227F4141413E7F494949417F09090984
:10046000013E414151737F0808087F00417F4100F0
:100470002040413F017F081422417F404040407F9F
:10048000021C027F7F0408107F3E4141413E7F09EC
:100490000909063E4151215E7F091929462649492D
:1004A000493203017F01033F4040403F1F2040206D
:1004B0001F3F4038403F631408146303047804036B
:1004C0006159494D43007F41414102040810200019
:1004D0004141417F0402010204404040404000038A
:1004E00007080020545478407F2844443838444456
:1004F0004428384444287F385454541800087E094E
:100500000218A4A49C787F0804047800447D40006D
:100510002040403D007F1028440000417F40007C87
:10052000047804787C080404783844444438FC187F
:1005300024241818242418FC7C0804040848545463
:10054000542404043F44243C4040207C1C20402090
:100550001C3C4030403C44281028444C9090907CF7
:100560004464544C44000836410000007700000009
:100570004136080002010204023C2623263C1EA14B
:10058000A161123A4040207A3854545559215555AA
:100590007941225454784221555478402054557959
:1005A000400C1E52721239555555593954545459EC
:1005B00039555454580000457C410002457D4200A5
:1005C00001457C407D1211127DF0282528F07C54D5
:1005D0005545002054547C547C0A097F49324949CE
:1005E00049323A4444443A324A4848303A41412137
:1005F0007A3A42402078009DA0A07D3D4242423D93
:100600003D4040403D3C24FF2424487E4943662B26
:100610002FFC2F2BFF0929F620C0887E09032054C8
:100620005479410000447D413048484A32384040C6
:10063000227A007A0A0A727D0D19317D2629292F26
:1006400028262929292630484D402038080808083E
:1006500008080808382F10C8ACBA2F102834FA0040
:10066000007B000008142A142222142A14085500C2
:10067000550055AA55AA55AAFF55FF55FF00000081
:10068000FF00101010FF00141414FF001010FF00E2
:10069000FF1010F010F0141414FC001414F700FFF5
:1006A0000000FF00FF1414F404FC141417101F10B2
:1006B000101F101F1414141F00101010F000000061
:1006C000001F101010101F10101010F0100000006C
:1006D000FF101010101010101010FF10000000FF7D
:1006E000140000FF00FF00001F10170000FC04F4BE
:1006F00014141710171414F404F40000FF00F71476
:10070000141414141414F700F714141417141010FC
:100710001F101F141414F4141010F010F000001F18
:10072000101F0000001F14000000FC140000F01057
:10073000F01010FF10FF141414FF141010101F00FD
:10074000000000F010FFFFFFFFFFF0F0F0F0F0FFFF
:10075000FFFF0000000000FFFF0F0F0F0F0F3844D6
:10076000443844FC4A4A4A347E02020606027E02AB
:100770007E0263554941633844443C04407E201E58
:100780002006027E020299A5E7A5991C2A492A1C87
:100790004C7201724C304A4D4D303048784830BC74
:1007A000625A463D3E494949007E0101017E2A2A9E
:1007B0002A2A2A44445F444440514A444040444A1F
:1007C00051400000FF0103E080FF000008086B6B50
:1007D000083612362436060F090F060000181800D6
:1007E00000001010003040FF0101001F01011E0039
:1007F000191D1712003C3C3C3C0000000000205436
:100800004F200020544F200020544F200020544FF0
:1008100020004C2111241FBECFEFD1E2DEBFCDBF9F
:1008200000E00CBF16E0A0E0B2E0E0E9F6E400E092
:100830000BBF02C007900D92A23AB107D9F729E089
:10084000A2EAB6E001C01D92AE3EB207E1F714E0A5
:10085000CAE0D4E000E006C021970109802FFE0124
:100860000E943A23C930D10780E00807A9F70E9407
:100870001D1C0C944623C4CB2F923F924F925F9243
:100880006F927F928F929F92AF92BF92CF92DF92A0
:10089000EF92FF920F931F93CF93DF9300D000D07E
:1008A000CDB7DEB72C017E836D836A015901C80183
:1008B000FC82EB824801841A950A97FE03C091944A
:1008C0008194910835012D813E81621A730A77FE69
:1008D00003C0719461947108681479045CF43A2D32
:1008E0002B2D5C01832F922F3D812E81DE82CD82C4
:1008F000C32ED22EAD81BE81AA16BB065CF43C2D60
:100900002D2D6C01832F922F3D812E81BE82AD82D1
:10091000A32EB22E85012D813E81021B130B1C01DB
:100920002C183D0837FE03C031942194310878011A
:1009300017FF03C03FEFE31AF30AF594E794C816D4
:10094000D9062CF08FEF9FEF9A83898304C0A1E032
:10095000B0E0BA83A9832D813E81A216B30624F1AB
:10096000D201ED91FC910484F585E02D2B813C8131
:100970006814790424F44D815E81B60103C0A60198
:100980006D817E81C2011995E218F308F7FE06C059
:1009900029813A81C20ED31EE00EF11E8D819E8107
:1009A00001969E838D83D7CF26960FB6F894DEBF2F
:1009B0000FBECDBFDF91CF911F910F91FF90EF90B0
:1009C000DF90CF90BF90AF909F908F907F906F906F
:1009D0005F904F903F902F9008950F931F93CF9368
:1009E000DF93DC0155968C915597823071F08330FE
:1009F00009F1813009F08CC01496ED91FC911597A6
:100A0000E41BF50BE21BF30B20C01496ED91FC9157
:100A10001597CF01861B970BBC0161507109169683
:100A2000ED91FC911797CF01841B950BAC01421BF4
:100A3000530B6EC01696ED91FC911797CF01861B54
:100A4000970BBC0161507109FA0177FD1BC1169625
:100A50008D919C911797681779070CF013C1F7FFD8
:100A600004C02E0F3F1FE0E0F0E014968D919C91A2
:100A70001597AF01420F531F841795071CF49C0173
:100A80002E1B3F0B121613060CF0FCC0CB0177FD9A
:100A9000079643E0959587954A95E1F79695982FA7
:100AA000882797958795E80FF91FE050FE4F6770EC
:100AB000772781E090E001C0880F6A95EAF7482F18
:100AC0000130110541F088F00230110509F0DAC05B
:100AD0002E0F3F1F15C02E0F3F1FE217F30709F41B
:100AE000D1C08081842B8193F8CF80952E0F3F1F3A
:100AF000E217F30709F4C6C0908198239193F8CFC9
:100B0000E217F30709F4BEC0808184278193F8CFF0
:100B100077FDB8C014968D919C9115976817790749
:100B20000CF0B0C057FF04C0240F351F40E050E068
:100B300016968D919C911797FA01E20FF31F8E176D
:100B40009F071CF49C01241B350B121613060CF096
:100B500099C0A22F842F86958695869590E8899FC7
:100B6000600D711D1124FB01E050FE4F4770A9F18B
:100B700098E0941B492F50E0EA01C65CD94F888168
:100B8000291790F4421B51092FEF30E002C0359530
:100B900027954A95E2F782230130110541F068F06C
:100BA0000230110589F06EC00130110519F4208161
:100BB000822B0CC00130110520F480952081822306
:100BC00005C00230110531F4208182278083A917E6
:100BD00008F458C0A91BE058FF4FA83048F1023074
:100BE000110559F4EF018A2F988190959883C05888
:100BF000DF4F88508830C0F730C081E001301105E8
:100C000009F080E08195EF019A2F8883C058DF4F6B
:100C100098509830D0F788EF8A0F869586958695FC
:100C200090E8899FE00DF11D1124E058FF4FA77057
:100C3000AA2341F1B0E0AE5CB94F8C9101301105AF
:100C400029F038F002301105E9F419C09081892BA0
:100C500018C080959081892314C088EF8A0F8695EB
:100C60008695869590E8899FE00DF11D1124E05846
:100C7000FF4FA77039F0B0E0AE5CB94F8C91908116
:100C800089278083DF91CF911F910F9108950F9352
:100C90001F93CF93DF93DC01FB0155968C91559701
:100CA000823089F0833021F1813009F0E7C0149659
:100CB0008D919C911597BC01641B750BAB01415044
:100CC0005109BF011DC014966D917C911597CB0100
:100CD0008E1B9F0BFC0116968D919C911797BC0162
:100CE000641B750BAB0141505109E21BF30BC6C0ED
:100CF00016966D917C9117976E1B7F0B621B730B81
:100D000057FD1BC114968D919C9115974817590753
:100D10000CF013C177FF04C0260F371F60E070E0AE
:100D200016968D919C911797FB01E20FF31F8E177A
:100D30009F071CF49C01261B370B121613060CF0A0
:100D4000FCC0A22F862F86958695869590E8899F70
:100D5000400D511D1124FA01E050FE4F6770A9F1BA
:100D600098E0961B492F50E0EA01C65CD94F888174
:100D7000291790F4421B51092FEF30E002C035953E
:100D800027954A95E2F782230130110541F068F07A
:100D90000230110589F0D1C00130110519F420810C
:100DA000822B0CC00130110520F480952081822314
:100DB00005C00230110531F4208182278083A917F4
:100DC00008F4BBC0A91BE058FF4FA83048F102301F
:100DD000110559F4EF018A2F988190959883C05896
:100DE000DF4F88508830C0F733C081E001301105F3
:100DF00009F080E08195EF019A2F8883C058DF4F7A
:100E000098509830D0F788EF8A0F8695869586950A
:100E100060E8869FE00DF11D1124E058FF4FA77098
:100E2000AA2309F48AC0B0E0AE5CB94F8C910130BE
:100E3000110531F040F00230110509F07EC01BC0F1
:100E40009081892B03C0809590818923808375C010
:100E500088EF8A0F86958695869570E8879FE00DC6
:100E6000F11D1124E058FF4FA77009F466C0B0E0EF
:100E7000AE5CB94F8C9190818927E8CF57FD5DC05A
:100E800016968D919C911797481759070CF055C0ED
:100E9000F7FF04C02E0F3F1FE0E0F0E014968D91A5
:100EA0009C911597BF01620F731F861797071CF45B
:100EB0009C012E1B3F0B121613060CF03EC0CA01FC
:100EC00057FD079663E0959587956A95E1F79695A6
:100ED000982F882797958795E80FF91FE050FE4FC8
:100EE0004770552781E090E001C0880F4A95EAF7E6
:100EF000482F0130110539F078F002301105E9F47E
:100F00002E0F3F1F13C02E0F3F1FE217F307A9F04C
:100F10008081842B8193F9CF80952E0F3F1FE2179C
:100F2000F30759F0908198239193F9CFE217F307D3
:100F300021F0808184278193F9CFDF91CF911F9198
:100F40000F910895FC0177FD9AC0808591856817FF
:100F500079070CF094C057FD92C08285938548179D
:100F600059070CF08CC08589823009F07CC08481DF
:100F70009581DC01A61BB70BBD016150710986810B
:100F80009781FC01E41BF50BAF01415051090AC0E8
:100F9000813041F484819581841B950BAB01BC01A8
:100FA000615071092130310529F008F122303105F5
:100FB000E1F10895FA0157FD3796A3E0F595E7951D
:100FC000AA95E1F7F695FE2FEE27F795E7956E0FB8
:100FD0007F1FFB01E050FE4F4770552781E090E0F6
:100FE00001C0880F4A95EAF79081892B3AC0FA012F
:100FF00057FD379623E0F595E7952A95E1F7F695A5
:10100000FE2FEE27F795E7956E0F7F1FFB01E0504F
:10101000FE4F4770552781E090E001C0880F4A9548
:10102000EAF78095908189231CC0FA0157FD379615
:1010300083E0F595E7958A95E1F7F695FE2FEE2783
:10104000F795E7956E0F7F1FFB01E050FE4F47704D
:10105000552781E090E001C0880F4A95EAF790811A
:10106000892780830895833009F092CF8681978104
:10107000861B970BBA01AC014150510993CF0895DB
:10108000089580E090E008951F93CF93DF93EC01E3
:10109000162F8C8D8F3F09F1EEA1FFA190818CA5B9
:1010A000892B8083E8A5F9A590818DA5809589235A
:1010B0008083EEA1FFA190818CA5809589238083F8
:1010C000CE010E946916EEA1FFA190818CA5892B0B
:1010D0008083DF91CF911F9108958A8D91E0909345
:1010E000460780936807109247071092690760E0EF
:1010F0008EED99E044D7612F8EED99E040D7DF91D6
:10110000CF911F910C940D16CF93DF93D62FCFEF75
:10111000C50F6FEF640F87E098E00E94CA126C2F32
:1011200087E098E00E94CA126D2F87E098E00E9445
:10113000CA12CAE087E098E0C4D58D9751F061E00B
:1011400070E080E090E00E94C913C15099F780E000
:1011500001C081E0DF91CF910895FC012085848159
:101160009581222311F0960F0895860F0895EF922E
:10117000FF920F931F93CF93DF931F921F92CDB7D0
:10118000DEB78C017B01FC01108669E771E081E428
:1011900099E00E94121A2091EA093091EB09CE01E0
:1011A00001962115310519F48E5E994018C0AC01E5
:1011B000421B530BE091EC09F091ED0980E090E0C7
:1011C000309759F09C012E5F3F4F80819181820FB3
:1011D000931F0280F381E02DF3CF840F951F9A8334
:1011E000898369817A8181E499E00E941E1762E710
:1011F00076E081E499E00E94081C6CE271E080E0F6
:1012000090E00E94C913F801F182E082F2E0EF164B
:10121000F104A9F040F4E114F10479F0EA94EF2824
:1012200089F484E00DC0F3E0EF16F10441F084E0AE
:10123000E816F10439F482E003C085E001C083E0E0
:10124000F8018283F8019281938381E0848385830E
:10125000968387830F900F90DF91CF911F910F910D
:10126000FF90EF900895CF93DF93D62FCFEFC50F68
:101270006FEF640F84EA98E00E94CA126C2F84EA30
:1012800098E00E94CA126D2F84EA98E00E94CA1268
:10129000CAE084EA98E015D58D9751F061E070E0DE
:1012A00080E090E00E94C913C15099F780E001C02E
:1012B00081E0DF91CF910895CF93DF93DC01EB01C3
:1012C000E881F98190E089E0692F70E06E177F076F
:1012D0000CF5869F9001879F300D11242A0F3B1F2C
:1012E000E901C453DF4F68814617B0F02296688148
:1012F000641790F021976881561770F022966881E4
:10130000651750F0F901E553FF4F808181508083CC
:1013100080E004C081E002C09F5FD6CFDF91CF9113
:101320000895CF92DF92EF92FF921F93CF93DF93B6
:10133000CDB7DEB729970FB6F894DEBF0FBECDBF8D
:101340006C017B0110E0F7018281181748F5612FCD
:10135000C70103DFAC0199E0F701DE0111960190AE
:101360000D929A95E1F7BE016F5F7F4FC601A4DF32
:10137000612F882331F0C701F0DEAC0163E070E03B
:1013800005C0C701EADEAC0160E070E0C6016BDFBA
:101390006FE070E080E090E00E94C9131F5FD3CF40
:1013A00029960FB6F894DEBF0FBECDBFDF91CF9167
:1013B0001F91FF90EF90DF90CF9008958091A40649
:1013C0009091A506892B91F58EE290E00E94F7217D
:1013D000FC011382128220E830E03583248380E40C
:1013E00090E0978386833187208793878287158A49
:1013F000158614861786168681E0848B2FEF3FEFC3
:10140000338B228B318B208B868B178A118E108E1B
:101410008AE096E0918380838FEF848F80A3868F0C
:10142000858F878FF093A506E093A4068091A4068C
:101430009091A5060895CF92DF92EF92FF92CF93FD
:10144000DF93EC017B0188810E943713892B01F522
:1014500089810E943713892BD9F48A810E9437131E
:10146000892BB1F486E012C00E940114DC01CB018B
:101470008C199D09AE09BF09843F9140A105B105B2
:10148000E0F181E491E00E94FC1581E090E09FC0D2
:1014900086E0E816F10431F788810E94371301973E
:1014A00051F489810E943713892B29F48A810E9483
:1014B0003713892B89F088810E943713892B19F5FE
:1014C00089810E9437130197F1F48A810E943713B2
:1014D000892B09F453C017C00E9401146B017C01D1
:1014E00088810E943713019709F0BECF6AE070E04F
:1014F00080E090E00E94C913F3CF86E391E00E9460
:10150000FC1580E0C3CF88810E943713892B09F036
:101510005EC089810E943713892B09F058C08A81E7
:101520000E943713019709F052C00E9401146B0109
:101530007C018A810E943713019739F46AE070E0D8
:1015400080E090E00E94C913F4CF0E940114DC01F6
:10155000CB018C199D09AE09BF09843F9140A105BB
:10156000B10530F084E191E00E94FC1585E08ECF5A
:1015700088E091E00E94FC1584E088CF0E9401146D
:101580006B017C0189810E943713019739F46AE06D
:1015900070E080E090E00E94C913F4CF0E94011433
:1015A000DC01CB018C199D09AE09BF09843F914034
:1015B000A105B10530F08BE291E00E94FC1583E0BB
:1015C00065CF8EE191E00E94FC1582E05FCFDF9154
:1015D000CF91FF90EF90DF90CF9008952F923F92A0
:1015E0004F925F926F927F928F929F92AF92BF9233
:1015F000CF92DF92EF92FF920F931F93CF93DF93DF
:10160000CDB7DEB766970FB6F894DEBF0FBECDBF7D
:101610005C018B016A0185E796E00E94EB1589E089
:10162000F801DE01119601900D928A95E1F7BE0155
:101630006F5F7F4FC50175DE86E0E82EF12CC50196
:101640008B509F4F9C8B8B8B9EE0292E312CF5016C
:10165000E950FF4FFE8BED8BF80180819181823044
:10166000910509F452C0E0F40097C1F1019709F027
:1016700085C0F8014480558066807780EB89FC89BD
:101680008080918062E0C4010E94B91984E090E0FA
:10169000F401958784873786268662E571E062C00B
:1016A0008330910509F448C0049709F067C0F80138
:1016B0004480558066807780EB89FC8980809180AA
:1016C00062E0C4010E94B9198AE090E0F4019587B4
:1016D0008487378626866FE671E044C0F80144802F
:1016E000558066807780EB89FC898080918062E0FC
:1016F000C4010E94B91986E190E0F40195878487BE
:10170000378626866AE471E02DC0F8014480558052
:1017100066807780EB89FC898080918062E0C401DB
:101720000E94B91986E190E0F40195878487378695
:1017300026866DE571E016C0F8014480558066800C
:101740007780EB89FC898080918062E0C4010E94EF
:10175000B9198AE090E0F401958784873786268658
:1017600065E671E0C4010E94121A9601A301B2015C
:10177000C4010E94361AC4010E949616B701ED8971
:10178000FE898081918157DE7C01069709F464CF40
:1017900089E0F801DE011A9601900D928A95E1F731
:1017A000912C8C85981660F5692DCE010A96D5DCB2
:1017B000AC0199E0FE013A96DE01119601900D927E
:1017C0009A95E1F7BE016F5F7F4FC50175DD692D09
:1017D000882339F0CE010A96C0DCAC0164E070E0E9
:1017E00006C0CE010A96B9DCAC0163E070E0C50129
:1017F0003ADD6FE070E080E090E0CBD79394D1CFFA
:1018000082E0E816F10441F5F80120859781868190
:10181000222381F04581941B292F30E0280F311DB0
:101820002B3031050CF078C08481980F9683478364
:10183000108672C0F8014481841B282F30E0290FE4
:10184000311D2B3031050CF067C09581890F8783DE
:10185000468381E0808760C0E114F10461F5C11422
:10186000D10499F4F8019481292F30E02230310518
:101870000CF452C08681282F30E02C3031050CF05A
:101880004BC091509483815028C0F1E0CF16D10411
:1018900009F042C0F8019581292F30E0223031054E
:1018A000DCF18781282F30E02C303105ACF59150E8
:1018B0009583815023C0F4E0EF16F10409F5C114BB
:1018C000D10469F4F8018681282F30E02A303105EF
:1018D0001CF594819F5F94838F5F86831DC0F1E028
:1018E000CF16D104C9F4F8018781282F30E02A30BF
:1018F000310594F495819F5F95838F5F87830CC03A
:10190000F3E0EF16F104B1F081E0E816F104A9F07C
:1019100095E0E916F104A1F089E0F801DE011196E5
:1019200001900D928A95E1F7BE016F5F7F4FC5016F
:10193000F8DC92CE83E090E005C081E090E002C048
:1019400085E090E066960FB6F894DEBF0FBECDBF7F
:10195000DF91CF911F910F91FF90EF90DF90CF908B
:10196000BF90AF909F908F907F906F905F904F90BF
:101970003F902F900895CF93DF938091A20690918E
:10198000A306892BC1F483E090E00E94F721EC01CB
:1019900087E3888388E3898389E38A8360E087E338
:1019A000BCD660E08981B9D660E08A81B6D6D09392
:1019B000A306C093A2068091A2069091A306DF9190
:1019C000CF9108958AE697E09ED121E0892B09F412
:1019D00020E0822F089587E098E095D121E0892BBF
:1019E00009F420E0822F089584EA98E08CD121E068
:1019F000892B09F420E0822F089581E499E083D1B6
:101A000021E0892B09F420E0822F08951F920F9284
:101A10000FB60F9211240BB60F922F933F934F9353
:101A20005F936F937F938F939F93AF93BF93EF9346
:101A3000FF938AE697E08CD5FF91EF91BF91AF912C
:101A40009F918F917F916F915F914F913F912F91D6
:101A50000F900BBE0F900FBE0F901F9018951F9206
:101A60000F920FB60F9211240BB60F922F933F9344
:101A70004F935F936F937F938F939F93AF93BF9396
:101A8000EF93FF938AE697E00E94F919FF91EF9197
:101A9000BF91AF919F918F917F916F915F914F9186
:101AA0003F912F910F900BBE0F900FBE0F901F9084
:101AB00018951F920F920FB60F9211240BB60F922A
:101AC0002F933F934F935F936F937F938F939F9346
:101AD000AF93BF93EF93FF9387E098E039D5FF91E1
:101AE000EF91BF91AF919F918F917F916F915F9196
:101AF0004F913F912F910F900BBE0F900FBE0F9003
:101B00001F9018951F920F920FB60F9211240BB6CB
:101B10000F922F933F934F935F936F937F938F9386
:101B20009F93AF93BF93EF93FF9387E098E00E945A
:101B3000F919FF91EF91BF91AF919F918F917F9193
:101B40006F915F914F913F912F910F900BBE0F902E
:101B50000FBE0F901F9018951F920F920FB60F9205
:101B600011240BB60F922F933F934F935F936F9374
:101B70007F938F939F93AF93BF93EF93FF9384EAE9
:101B800098E0E6D4FF91EF91BF91AF919F918F9133
:101B90007F916F915F914F913F912F910F900BBE6D
:101BA0000F900FBE0F901F9018951F920F920FB6B7
:101BB0000F9211240BB60F922F933F934F935F9385
:101BC0006F937F938F939F93AF93BF93EF93FF9305
:101BD00084EA98E00E94F919FF91EF91BF91AF91CB
:101BE0009F918F917F916F915F914F913F912F9135
:101BF0000F900BBE0F900FBE0F901F9018951F9265
:101C00000F920FB60F9211240BB60F922F933F93A2
:101C10004F935F936F937F938F939F93AF93BF93F4
:101C2000EF93FF9381E499E093D4FF91EF91BF91FB
:101C3000AF919F918F917F916F915F914F913F9164
:101C40002F910F900BBE0F900FBE0F901F90189505
:101C50001F920F920FB60F9211240BB60F922F9373
:101C60003F934F935F936F937F938F939F93AF9324
:101C7000BF93EF93FF9381E499E00E94F919FF91DC
:101C8000EF91BF91AF919F918F917F916F915F91F4
:101C90004F913F912F910F900BBE0F900FBE0F9061
:101CA0001F901895FC01538D448D252F30E0842F13
:101CB00090E0821B930B541710F0CF960895019774
:101CC0000895FC01918D828D981761F0828DDF015E
:101CD000A80FB11D5D968C91928D9F5F9F73928F1F
:101CE00090E008958FEF9FEF0895FC01918D828D14
:101CF000981731F0828DE80FF11D858D90E00895E1
:101D00008FEF9FEF0895FC01918D228D892F90E038
:101D1000805C9F4F821B91098F739927089580E003
:101D200090E0892B19F069DE811116C080E090E007
:101D3000892B19F059DE811112C080E090E0892BC7
:101D400019F049DE81110EC080E090E0892B79F016
:101D500039DE81110AC008950E940000E7CF0E9479
:101D60000000EBCF0E940000EFCF0C94000008951C
:101D700090E0FC013197E231F10508F04EC0882770
:101D8000EE58FF4F8F4F0C943A23809180008F774D
:101D900003C0809180008F7D8093800008958091A2
:101DA0008000877FF9CF84B58F7702C084B58F7D9F
:101DB00084BD08958091B0008F7703C08091B000FA
:101DC0008F7D8093B0000895809190008F7707C039
:101DD000809190008F7D03C080919000877F8093D9
:101DE000900008958091A0008F7707C08091A00097
:101DF0008F7D03C08091A000877F8093A00008950D
:101E0000809120018F7707C0809120018F7D03C0D2
:101E100080912001877F8093200108953FB7F89437
:101E200080911B0790911C07A0911D07B0911E0780
:101E300026B5A89B05C02F3F19F00196A11DB11D25
:101E40003FBFBA2FA92F982F8827820F911DA11D60
:101E5000B11DBC01CD0142E0660F771F881F991F9D
:101E60004A95D1F7089585ED8093BC008091BC0020
:101E700084FDFCCF1092450708954091F306262F6C
:101E800030E0240F311D21323105DCF4209145076B
:101E90002430C9F4FC0180E090E0861758F43091BA
:101EA000F3062191DC01AD52B94FA30FB11D2C9364
:101EB0000196F3CF8091F306680F6093F30680E0FC
:101EC000089581E0089582E00895089508950895A1
:101ED000E091AB068091AA06E81730F4F0E0ED54EB
:101EE000F94F808190E008958FEF9FEF08959091D2
:101EF000AB068091AA06981750F4E92FF0E0ED5454
:101F0000F94F208130E09F5F9093AB0602C02FEF26
:101F10003FEFC90108958091AA0690E02091AB0699
:101F2000821B91090895CF92DF92EF92FF920F9357
:101F30001F93CF93DF937C01CB018A012091460749
:101F4000222389F0EB016B01C40ED51ECC15DD05F3
:101F500061F06991D701ED91FC910190F081E02D44
:101F6000C7011995F3CF642F88DFC801DF91CF91A6
:101F70001F910F91FF90EF90DF90CF900895CF9336
:101F8000DF931F92CDB7DEB76983209146072223E6
:101F9000D1F020916907203240F021E030E0FC01CF
:101FA0003383228380E090E014C080914707E82FBC
:101FB000F0E0E85BF84F998190838F5F809347074B
:101FC0008093690704C061E0CE01019656DF81E08D
:101FD00090E00F90DF91CF9108950895FC01637018
:101FE000658B8481958126813781613039F063303A
:101FF00029F091878087338722870895318720874A
:102000009387828708956F927F928F929F92AF926B
:10201000BF92CF92DF92EF92FF920F931F93CF93D5
:10202000DF93EC014B015A0169013801E881F98124
:102030000284F385E02D1995E881F9810288F389FE
:10204000E02D87019601A501B401CE011995A501E6
:10205000460D571D41505109E881F9810288F389E5
:10206000E02D9601B401CE011995E881F98100882F
:10207000F189E02D9301A501B401CE011995C80C99
:10208000D91CB60161507109E881F9810088F18994
:10209000E02D9301A501CE011995E881F98106880B
:1020A000F789E02DCE01DF91CF911F910F91FF9025
:1020B000EF90DF90CF90BF90AF909F908F907F90E8
:1020C0006F9019948F929F92AF92BF92CF92DF92AE
:1020D000EF92FF920F931F93CF93DF934C016B010D
:1020E0005A01E901DC01ED91FC916217730781F45B
:1020F0000417150724F48B2D5801042F182F0A19E3
:102100001B0998012F5F3F4F048CF58DE02D12C005
:102110004017510709F52617370724F48D2D69015B
:10212000C62FD82F9E012C193D092F5F3F4F068CDB
:10213000F78DE02D8701A501B601C4011995DF9146
:10214000CF911F910F91FF90EF90DF90CF90BF90B4
:10215000AF909F908F9008950284F385E02D19959C
:10216000D401ED91FC910488F589E02D9E01A50133
:10217000B601C4011995D401ED91FC910688F78947
:10218000E02DC401DF91CF911F910F91FF90EF904F
:10219000DF90CF90BF90AF909F908F901994EF9267
:1021A000FF920F931F93DC011A960D911C911B97C0
:1021B00018962D913C911997ED91FC9100A0F1A1F9
:1021C000E02D7B0140E050E060E070E019951F9148
:1021D0000F91FF90EF9008954F925F926F927F92D0
:1021E0008F929F92AF92BF92CF92DF92EF92FF9227
:1021F0000F931F93CF93DF936C012B015A01390189
:102200004801DC01ED91FC910284F385E02D1995E4
:10221000E201640C751CD601ED91FC91C615D70541
:102220005CF40088F189E02D87019401A501BE01CD
:10223000C60119952196EFCF0688F789E02DC601D2
:10224000DF91CF911F910F91FF90EF90DF90CF9092
:10225000BF90AF909F908F907F906F905F904F90C6
:1022600019948F929F92AF92BF92CF92DF92EF928A
:10227000FF920F931F93CF93DF93EC015B014A0111
:102280006901E881F9810284F385E02D19959501B2
:102290002C0D3D1D21503109E881F9810488F58913
:1022A000E02D78018401A401B501CE011995E881E2
:1022B000F9810688F789E02DCE01DF91CF911F913A
:1022C0000F91FF90EF90DF90CF90BF90AF909F90D5
:1022D0008F9019948F929F92AF92BF92CF92DF927C
:1022E000EF92FF920F931F93CF93DF93EC015B016B
:1022F0004A0169017801E881F9810284F385E02DC2
:102300001995C80CD91C860101501109E881F98181
:102310000488F589E02D9501A401B501CE01199538
:10232000E881F9810688F789E02DCE01DF91CF9110
:102330001F910F91FF90EF90DF90CF90BF90AF90E3
:102340009F908F901994EF92FF920F931F93DC014F
:10235000ED91FC9100A0F1A1E02D19951F910F9135
:10236000FF90EF9008950F931F93DC01ED91FC9186
:10237000068CF78DE02D19951F910F9108950F93FD
:102380001F93DC01ED91FC91048CF58DE02D1995E6
:102390001F910F910895DC01ED91FC910084F1856E
:1023A000E02D19940E944223AF92BF92CF92EF92F8
:1023B000FF920F931F93CF93DF93EC01262F888D0D
:1023C000998D009709F03FC06A3059F41D861C862C
:1023D0002C898E859F8538E0239F800D911D1124C7
:1023E00040C06D3009F4A8C08E898823C1F03C89B3
:1023F0008C859D8546E0349F800D911D1124488574
:102400005985481759075CF41D861C868E859F8563
:1024100048E0349F800D911D11249F878E87EA88A4
:10242000FB88088919894E855F856C857D85CC88F8
:10243000CE0185D52C898C859D8536E0239F800D26
:10244000911D112442C06A3079F41D861C862C89A6
:10245000FC013696E4918E859F852E9F800D911DFF
:1024600011249F878E8768C06D3009F465C0FC0118
:1024700034963491631708F45FC03196E491E617FF
:1024800008F45AC0FC01329665917491422F50E0D5
:10249000431B510937E0349F5001359FB00C112484
:1024A000A60EB71EF501329634913196E49133238E
:1024B00011F0E1110DC0F5013496E4912C898C8561
:1024C0009D85E29F800D911D11249D878C8734C0CE
:1024D000F501359644915E89552311F16C89E32FFE
:1024E000F0E0E40FF11D47FDFA956E9FD0016F9F5C
:1024F000B00D11244C855D854A0F5B1FE885F98579
:10250000E417F5076CF41D861C86FC013696E491F1
:102510008E859F856E9F800D911D11249F878E87CC
:10252000EA88FB88088919894E855F856C857D85D9
:10253000CC88CE0104D5BFCF81E090E0DF91CF9170
:102540001F910F91FF90EF90CF90BF90AF900895A3
:10255000FC01848DDF01A80FB11DA35ABF4F2C9140
:10256000848D90E001968F739927848FA689B7890F
:102570002C93A089B1898C91837080648C93938D06
:10258000848D981306C00288F389E02D80818F7DA9
:1025900080830895EF92FF920F931F93CF93DF9361
:1025A000EC0181E0888F9B8D8C8D981305C0E889A4
:1025B000F989808185FD25C0F62E0B8D10E00F5F17
:1025C0001F4F0F731127E02E8C8DE8120BC00FB632
:1025D00007FCFACFE889F989808185FFF5CFCE0124
:1025E000B7DFF2CF8B8DFE01E80FF11DE35AFF4FED
:1025F000F0829FB7F8940B8FEA89FB898081806213
:102600000AC09FB7F894EE89FF896083E889F98949
:1026100080818370806480839FBF81E090E0DF9140
:10262000CF911F910F91FF90EF900895CF93DF937B
:10263000EC01888D8823C1F0EA89FB89808185FDC2
:1026400005C0A889B9898C9186FD0EC00FB607FC1C
:10265000F5CF808185FFF2CFA889B9898C9185FF5C
:10266000EDCFCE0175DFE8CFDF91CF910895CF9305
:10267000DF93282F30E0F901E854FD4F8491F901F0
:10268000E653FE4FD491F901E65DFD4FC491CC2392
:1026900089F081116DDBEC2FF0E0EE0FFF1FE256A9
:1026A000FD4FA591B491EC91ED2381E090E021F4F0
:1026B00080E002C080E090E0DF91CF9108951F9309
:1026C000CF93DF93282F30E0F901E854FD4F849138
:1026D000F901E653FE4FD491F901E65DFD4FC49137
:1026E000CC23B9F0162F811143DBEC2FF0E0EE0F75
:1026F000FF1FE05FFD4FA591B4919FB7F8941111B2
:1027000004C08C91D095D82302C0EC91DE2BDC93D1
:102710009FBFDF91CF911F910895CF93DF9390E0FA
:10272000FC01E653FE4F2491FC01E65DFD4F8491D0
:10273000882361F190E0880F991FFC01E055FE4F5E
:10274000C591D491FC01E05FFD4FA591B491611159
:1027500009C09FB7F8948881209582238883EC91E3
:102760002E230BC0623061F49FB7F8948881322F1A
:10277000309583238883EC912E2B2C939FBF06C02A
:102780008FB7F894E8812E2B28838FBFDF91CF91EC
:1027900008958F929F92AF92BF92CF92DF92EF9265
:1027A000FF926B017C013ADB4B015C01C114D10447
:1027B000E104F104E9F032DBDC01CB01881999096D
:1027C000AA09BB09883E9340A105B10578F321E031
:1027D000C21AD108E108F10888EE880E83E0981E3D
:1027E000A11CB11CC114D104E104F10421F7DECF16
:1027F000FF90EF90DF90CF90BF90AF909F908F9021
:1028000008952FB7F8946091170770911807809179
:10281000190790911A072FBF08951F920F920FB6B4
:102820000F9211242F933F938F939F93AF93BF9356
:102830008091170790911807A0911907B0911A0776
:102840003091160723E0230F2D3720F40196A11DA8
:10285000B11D05C026E8230F0296A11DB11D2093CE
:1028600016078093170790931807A0931907B09342
:102870001A0780911B0790911C07A0911D07B0912A
:102880001E070196A11DB11D80931B0790931C0785
:10289000A0931D07B0931E07BF91AF919F918F9199
:1028A0003F912F910F900FBE0F901F9018951F9280
:1028B0000F920FB60F9211240BB60F922F933F93E6
:1028C0004F935F936F937F938F939F93AF93BF9338
:1028D000EF93FF938091B900887F803609F49CC004
:1028E00068F5883209F45BC090F4803109F454C073
:1028F00038F4882309F4F6C0883009F44DC0F5C0D7
:10290000883109F44CC0803209F45DC0EEC08034D7
:1029100009F468C048F4803309F455C0883309F0DD
:10292000E4C080934307D8C0803509F44FC0883590
:1029300009F45DC0883409F0D8C0D6C0883909F4DC
:10294000C7C0A8F4883709F467C038F4883609F49A
:1029500063C0803709F460C0C8C0883809F4B8C0C3
:10296000803909F45FC0803809F0BFC05BC0803B8C
:1029700009F486C038F4803A09F466C0883A09F44C
:102980007FC0B3C0803C09F4A7C0883C09F4A4C050
:10299000883B09F48AC0A9C08091200710C090919B
:1029A000420780914107981770F5E091420781E056
:1029B0008E0F80934207F0E0EF5DF84F80818093A7
:1029C000BB0085EC86C0809343078EC0E091420730
:1029D00081E08E0F809342078091BB00F0E0EF5DB5
:1029E000F84F808390914207809141076EC0E0913B
:1029F000420781E08E0F809342078091BB00F0E098
:102A0000EF5DF84F80838091440781116DC081E0B4
:102A100080931F0784EA61C083E08093450710928A
:102A20001507CFCF80911507803208F051C0E09193
:102A3000150781E08E0F809315078091BB00F0E0B1
:102A4000EB50F94F8083BDCF85EC8093BC00109292
:102A5000450780911507803230F4E0911507F0E0CA
:102A6000EB50F94F10826091150770E0E091A606D7
:102A7000F091A70685EF96E019951092150735C0DD
:102A800084E0809345071092F4061092F306E091DB
:102A9000A806F091A90619958091F306811105C049
:102AA00081E08093F3061092D306E091F40681E072
:102AB0008E0F8093F406F0E0ED52F94F8081809301
:102AC000BB009091F4068091F306981708F479CF33
:102AD00085E88093BC0009C085EC8093BC0010920F
:102AE000450703C010924307BED9FF91EF91BF91F4
:102AF000AF919F918F917F916F915F914F913F9196
:102B00002F910F900BBE0F900FBE0F901F90189536
:102B1000CF92DF92EF92FF92CF93DF93EC016A01A5
:102B20007B01E889F98982E080834115514E610576
:102B30007105B1F060E079E08DE390E0A7019601C6
:102B40000E941823DA01C9010197A109B109B695BC
:102B5000A795979587959C01211580E13807A8F0E6
:102B6000E889F989108260E874E88EE190E0A701B5
:102B700096010E941823DA01C9010197A109B10940
:102B8000B695A795979587959C01EC85FD85308333
:102B9000EE85FF852083188EEC89FD8986E0808391
:102BA000EA89FB89808180618083EA89FB89808151
:102BB00088608083EA89FB89808180688083EA89D4
:102BC000FB8980818F7D8083DF91CF91FF90EF9093
:102BD000DF90CF900895CF93DF93BC0181E499E01B
:102BE00017D6EC0162E776E081E499E011D68C0F0C
:102BF0009D1FDF91CF910895CF93DF93BC0181E4B6
:102C000099E010D4EC0162E776E081E499E000D627
:102C10008C0F9D1FDF91CF9108953091690731325C
:102C200008F04BC0809145078111FCCF9091680757
:102C300022E02093450721E0209344072FEF2093C3
:102C400043071092420730934107E8E4F7E0A1E21E
:102C5000B7E020E0321721F041914D932F5FFACF7A
:102C60001092200720912007990F922B9093200714
:102C700090911F07913061F410921F0790912007E7
:102C80009093BB009091BC0093FDF8CF95EC01C0F0
:102C900095EE9093BC00909145079230E1F39091AE
:102CA00043079F3F79F080914307803241F0809144
:102CB0004307803331F084E005C081E003C082E047
:102CC00001C083E0109247071092690710924607EF
:102CD0000895FC0181A1882339F06EBD00000DB478
:102CE00007FEFDCF8EB5089528E030E090E8A4A15E
:102CF000B5A14C9183A5809584238C93A2A1B3A107
:102D000082A5462F492319F04C91842B03C04C9186
:102D1000809584238C93A4A1B5A14C9183A5842B89
:102D20008C9396952150310911F708959F92AF9297
:102D3000BF92CF92DF92EF92FF920F931F93CF93A8
:102D4000DF93EC0161E20E94440860E0CE010E9442
:102D500044086FE7CE010E94440862E2CE010E945F
:102D6000440860E0CE010E94440867E0CE010E9462
:102D700044088C8D8F3F41F1EEA1FFA190818CA57D
:102D8000892B8083E8A5F9A590818DA5892B808367
:102D9000EEA1FFA190818CA580958923808300E01E
:102DA00012E020E0E22E26E0F22EF80161918F0180
:102DB000CE018FDFE016F106C1F7EEA1FFA19081F1
:102DC0008CA5892B80832EC0E090B8008CE0809386
:102DD000B80000E012E090E0A92E96E0B92E992408
:102DE00093948A8D909246078093680710924707C4
:102DF0001092690760E48EED99E0C1D8680180E126
:102E0000F82EF60161916F018EED99E0B8D8FA9431
:102E1000F110F7CF02DF005F1F4FA016B10609F7D0
:102E2000E092B800DF91CF911F910F91FF90EF904A
:102E3000DF90CF90BF90AF909F9008954F925F9298
:102E40006F927F928F929F92AF92BF92CF92DF92BA
:102E5000EF92FF920F931F93CF93DF93CDB7DEB71F
:102E6000A1970FB6F894DEBF0FBECDBF8C016B01EA
:102E7000770FEE08FF08F7FE2EC0DC01ED91FC9104
:102E80000190F081E02D6DE219955C012227332736
:102E9000A9012C193D094E095F0919A2FE01B1963D
:102EA0007F019AE0492E512C612C712CCA01B90185
:102EB000A30192010E941823605DD7016E937D01EA
:102EC000211531054105510589F7BD01C801A0D47F
:102ED0008A0D9B1D1DC0A701960119A2FE01B19686
:102EE0007F018AE0882E912CA12CB12CCA01B90156
:102EF000A50194010E941823605DD7016E937D01A6
:102F0000211531054105510589F7BD01C80180D45E
:102F1000A1960FB6F894DEBF0FBECDBFDF91CF9163
:102F20001F910F91FF90EF90DF90CF90BF90AF90E7
:102F30009F908F907F906F905F904F9008952F9209
:102F40003F924F925F926F927F928F929F92AF9239
:102F5000BF92CF92DF92EF92FF920F931F93CF9386
:102F6000DF93CDB7DEB76B970FB6F894DEBF0FBE19
:102F7000CDBF9B8F8A8F5B011A01D22E1F830E83D8
:102F80003701C982DC0158962D913C915997211542
:102F9000310509F0E6C018968D919C911997681734
:102FA00079070CF0CDC11A968D919C911B9748170B
:102FB00059070CF0C5C18C2C912CFB0126E0C29E58
:102FC000E00DF11D1124FB87EA871E161F060CF089
:102FD000B7C1A40183E0440F551F8A95E1F75D87CF
:102FE0004C87CA01820D931D181619060CF0A8C152
:102FF00057968C91811104C05FEA5D1508F4D39453
:10300000AA8DBB8DED91FC9111970284F385E02D83
:10301000CD011995B5E0DB9EC0011124F50135966F
:10302000FF87EE87BB82AA8225019C012A193B09F2
:10303000398B288BA101485F5F4F5B8B4A8BE889F6
:10304000F989E40DF51DE250FD4F54915887610157
:103050003D822C82888580FF13C0AA8DBB8DED91A7
:10306000FC91B981B13031F40484F585E02D2E81D5
:103070003F8116C00684F785E02DEE80FF801AC0E0
:10308000EE81FF81E615F705F1F0AA8DBB8DED917C
:10309000FC91B981B13051F40484F585E02D9301A0
:1030A000A601B2018A8D9B8D19950DC00684F78506
:1030B000E02D7301840194014C815D816A817B81E3
:1030C0008A8D9B8D1995E885E695E887FFEFCF1AE5
:1030D000DF0A2C813D81280D391D3D832C834A89CF
:1030E0005B89C416D50609F0B5CF5FEF451A550ABE
:1030F0008A819B81880D991D9B838A83AE85BF85BC
:103100004A165B0609F09BCFEE81FF81E615F705B5
:1031100009F4F4C0EA8DFB8DA081B181F981F13011
:1031200079F4B5016B5F7F4F5096ED91FC9151970B
:10313000830128E030E0A1018A8D9B8D1995DEC0C6
:103140006A857B85681979091E96ED91FC911F9718
:1031500073010C851D859401A1018A8D9B8D1995A4
:10316000CDC0F9013496E491DE1AF90132968591C9
:103170009491B7E0DB9E800D911D1124F9012591FA
:1031800034913B8B2A8BFC01259134912901FC0160
:103190003296C490319634913E873296149131968E
:1031A000D4904981423058F0612E012E000C7708EE
:1031B0008D2D0D2C000C990B9987888704C01986DA
:1031C0001886612C712CAA8DBB8DED91FC91119705
:1031D0000284F385E02DCD011995B9818B2E912CB8
:1031E000689CC001699C900D789C900D1124FC0195
:1031F000EA0DFB1DFD87EC871A82712C612CE12FF3
:10320000110FFF0B95012E0F3F1F3B872A87AC0C38
:10321000B11CA5014E0F5F1F5F8B4E8BC1018D0D41
:10322000911DD7FC9A95998F888F9E85691608F015
:1032300065C0862D90E048855985480F591F489DE7
:103240009001499D300D589D300D1124D101A20FE0
:10325000B31FB98BA88BEC85FD85FD83EC83AA8415
:10326000BB84DA80FA85DF1A288D398D280F391F43
:103270003D8B2C8B8D2D8A0D4E895F89A416B5064A
:10328000C1F1877041F4C2010196EA89FB89E40D1E
:10329000F51D74902C0177FE21C0AA8DBB8DED9198
:1032A000FC91B981B13061F40484F585E02D2E8163
:1032B0003F814C895D89B5018A8D9B8D19950EC022
:1032C0000684F785E02DEE80FF8084019401488913
:1032D00059896C817D818A8D9B8D1995770CEFEFD3
:1032E000AE1ABE0A2C813D81280D391D3D832C83E9
:1032F000C1CF3A813C0D3A83639497CFAA8DBB8DA1
:10330000ED91FC9111970688F789E02DCD016B9620
:103310000FB6F894DEBF0FBECDBFDF91CF911F91E6
:103320000F91FF90EF90DF90CF90BF90AF909F9064
:103330008F907F906F905F904F903F902F90199457
:103340006B960FB6F894DEBF0FBECDBFDF91CF9165
:103350001F910F91FF90EF90DF90CF90BF90AF90B3
:103360009F908F907F906F905F904F903F902F90A5
:103370000895FC01611101C061E0648B81E090E07F
:10338000938B828B918B808B80E094E0E0E0F2E085
:10339000DF019C011D9221503040E1F70895CF924A
:1033A000DF92EF92FF920F931F93CF93DF936C0105
:1033B0007A018B01C0E0D0E0CE15DF0581F0D801A5
:1033C0006D918D01D601ED91FC910190F081E02D80
:1033D000C6011995892B11F02196EECF7E01C70108
:1033E000DF91CF911F910F91FF90EF90DF90CF90E1
:1033F0000895FC01A089B1898C91A689B78982FDC5
:103400000FC09C91818D8F5F8F73228D821749F041
:10341000218DDF01A20FB11D5D969C93818F0895D0
:103420008C910895EF92FF920F931F93CF93DF93A8
:103430008C017B01C0E0D0E0F701EC0FFD1F64912F
:10344000662361F0D801ED91FC910190F081E02DAF
:10345000C8011995892B11F02196EECFCE01DF918D
:10346000CF911F910F91FF90EF9008958F929F92AF
:10347000AF92BF92CF92DF92EF92FF920F931F9382
:10348000CF93DF93EC01C72ED52E5901E0E48E2EA9
:10349000860EF0E49F2E940E8AE078136CC05813C9
:1034A0006EC0232B91F4EE24E394F12C00E110E0A4
:1034B0002CE030E046E250E069E070E0CE010E948E
:1034C000EC101B8A1A8A198A188A8AE090E09D8774
:1034D0008C8787E290E09F878E87682DCE010E94BF
:1034E000D41181E090E09B8B8A8B998B888BAA9476
:1034F000AB2891F4EE24E394F12C00E110E028E1F4
:1035000030E046E250E065E170E0CE010E94EC1050
:103510001B8A1A8A198A188A86E190E09D878C870F
:1035200007E210E01F870E876AE070E0CE0186DCBC
:1035300081E090E09B8B8A8B998B888B88E290E06E
:103540009D878C871F870E876DE078E0CE016ADF4C
:1035500082E590E09D878C871F870E87692DCE01BD
:103560000E94D4118EE590E09D878C871F870E877F
:103570006AE070E03FC189E0871708F069C089E020
:103580008D1508F4CDC0A114B10491F4EE24E39498
:10359000F12C00E110E02CE030E046E250E06FE07A
:1035A00070E0CE010E94EC101B8A1A8A198A188AD0
:1035B00080E190E09D878C8787E290E09F878E87EF
:1035C000682DCE010E94D41181E090E09B8B8A8B04
:1035D000998B888BAA94AB2891F4EE24E394F12C78
:1035E00000E110E028E130E046E250E06BE170E0FD
:1035F000CE010E94EC101B8A1A8A198A188A8CE163
:1036000090E09D878C8707E210E01F870E876C2D66
:1036100070E0CE0113DC81E090E09B8B8A8B998B6C
:10362000888B8EE290E09D878C871F870E8768E0ED
:1036300078E0CE01F7DE88E590E09D878C871F87D4
:103640000E87692DCE010E94D41184E690E0CCC093
:1036500089E0851708F064C0232B91F4EE24E394ED
:10366000F12C00E110E02CE030E046E250E06FE0A9
:1036700070E0CE010E94EC101B8A1A8A198A188AFF
:1036800080E190E09D878C8787E290E09F878E871E
:10369000682DCE010E94D41181E090E09B8B8A8B33
:1036A000998B888BAA94AB2891F4EE24E394F12CA7
:1036B00000E110E02CE030E046E250E06BE170E029
:1036C000CE010E94EC101B8A1A8A198A188A8CE192
:1036D00090E09D878C8707E210E01F870E876C2D96
:1036E00070E0CE01ABDB81E090E09B8B8A8B998B05
:1036F000888B82E290E09D878C871F870E8763E02E
:1037000078E0CE018FDE8CE490E09D878C871F8768
:103710000E87692DCE010E94D41188E590E064C027
:10372000A114B10491F4EE24E394F12C00E110E033
:103730002CE030E046E250E065E170E0CE010E940E
:10374000EC101B8A1A8A198A188A86E190E09D87F4
:103750008C8787E290E09F878E87682DCE010E943C
:10376000D41181E090E09B8B8A8B998B888BAA94F3
:10377000AB2891F4EE24E394F12C00E110E02CE06E
:1037800030E046E250E061E270E0CE010E94EC10D1
:103790001B8A1A8A198A188A82E290E09D878C8790
:1037A00007E210E01F870E876C2D70E0CE0146DB2C
:1037B00081E090E09B8B8A8B998B888B88E290E0EC
:1037C0009D878C871F870E876EEF77E0CE012ADEFC
:1037D00082E590E09D878C871F870E87692DCE013B
:1037E0000E94D4118EE590E09D878C871F870E87FD
:1037F0006D2D70E0CE01DF91CF911F910F91FF9061
:10380000EF90DF90CF90BF90AF909F908F9016CBAE
:103810006115710579F0FB0101900020E9F73197FE
:10382000AF01461B570BDC01ED91FC910280F38147
:10383000E02D199480E090E00895CF93DF93CDB709
:10384000DEB762970FB6F894DEBF0FBECDBF789497
:1038500084B5826084BD84B5816084BD85B5826095
:1038600085BD85B5816085BD80916E008160809346
:103870006E001092810080918100826080938100AF
:1038800080918100816080938100809180008160BF
:10389000809380008091B10084608093B10080911A
:1038A000B00081608093B00080919100826080932D
:1038B00091008091910081608093910080919000AF
:1038C0008160809390008091A10082608093A1002C
:1038D0008091A10081608093A1008091A00081600F
:1038E0008093A000809121018260809321018091CA
:1038F000210181608093210180912001816080936A
:10390000200180917A00846080937A0080917A000F
:10391000826080937A0080917A00816080937A003F
:1039200080917A00806880937A001092C10040E80C
:1039300055E260E070E081E499E0EAD840E052ECC2
:1039400061E070E084EA98E0E3D840E052EC61E0A6
:1039500070E087E098E0DCD840E056E960E070E095
:103960008AE697E0D5D80E94DE098C019093B206D2
:103970008093B10682E0D8015B968C935B978CE3D1
:103980005A968C935A975C968C915C978F3F09F46A
:10399000C3C061E05E968C910E948D1361E0F801D6
:1039A00080A10E948D13D80190968C919097082E3B
:1039B000000C990BFC01E65DFD4FE491F0E0EE0F89
:1039C000FF1FE05FFD4F25913491F80137A326A337
:1039D000FC01E653FE4FE4919C96EC939C975E9617
:1039E0008C915E97082E000C990BFC01E65DFD4F53
:1039F000E491F0E0EE0FFF1FE05FFD4F2591349161
:103A0000F80131A720A7FC01E653FE4FE4919D96F3
:103A1000EC939D9791968C919197811140C061E0B4
:103A20005C968C910E948D1361E0F801858D0E9457
:103A30008D13D8015D968C915D97082E000C990B23
:103A4000FC01E65DFD4FE491F0E0EE0FFF1FE05F4B
:103A5000FD4F25913491F80135A324A3FC01E653D1
:103A6000FE4FE4919B96EC939B975C968C915C97B0
:103A7000082E000C990BFC01E65DFD4FE491F0E08F
:103A8000EE0FFF1FE05FFD4F25913491F80133A346
:103A900022A3FC01E653FE4FE4919A96EC93F801C1
:103AA00081A1882309F46BC0FFB6F8948091AC061D
:103AB000811127C0EFE5F2E08491EFEFF1E09491FE
:103AC000E82FF0E0EE0FFF1FE055FE4FA591B491F7
:103AD000EC91E92321F461E085E30E945F1361E04A
:103AE00085E30E948D138CB580618CBD8CB580649C
:103AF0008CBD61E084E30E948D1361E083E30E944A
:103B00008D138091AC068F5F8093AC06FFBE80E57D
:103B10008CBD81E08DBD33C01092AB061092AA0619
:103B200010924707109269071092450781E0809331
:103B3000440710921F0761E084E10E945F1361E077
:103B400085E10E945F138091B9008E7F8093B90058
:103B50008091B9008D7F8093B90088E48093B8008C
:103B600085E48093BC0085E69FE09093A90680934E
:103B7000A80686E69FE09093A7068093A606D80144
:103B80005F968C9187FD1FC061E00E948D1361E0FC
:103B9000F801878D0E945F1361E070E080E090E0A3
:103BA0000E94C91360E0D8015F968C910E945F1358
:103BB0006AE070E080E090E00E94C91361E0F801E3
:103BC000878D0E945F136EEAC8010E94440865ED6C
:103BD000C8010E94440860E8C8010E94440868EADD
:103BE000C8010E9444086FE3C8010E94440863EDC5
:103BF000C8010E94440860E0C8010E94440860E4D3
:103C0000C8010E9444086DE8C8010E94440864E1AC
:103C1000C8010E94440860E2C8010E94440860E0B4
:103C2000C8010E94440861EAC8010E94440868EC87
:103C3000C8010E9444086AEDC8010E94440862E17C
:103C4000C8010E94440861E8C8010E9444086FEC62
:103C5000C8010E94440869EDC8010E94440861EF50
:103C6000C8010E9444086BEDC8010E94440860E44A
:103C7000C8010E94440864EAC8010E94440866EA38
:103C8000C8010E9444086EE2C8010E9444086FEA1D
:103C9000C8010E944408C090B106D090B20663E00B
:103CA000C60167DB712CB0E0AB2EB2E0BB2E812CDD
:103CB00014E0912E672D70E0D6011A960D911C919B
:103CC0001B97C80117FD0196959587956817790789
:103CD0003CF5CB01880F991F081B190BF6012085B5
:103CE0003185281B390BEE24E394F12CAB01C6017E
:103CF0000E94EC10C6011AD862E370E080E090E008
:103D00000E94C913D501F4011D923197E9F762E3CE
:103D100070E080E090E00E94C913F3E07F0ECACF0C
:103D20008CE090E0D6011D969C938E931C9786E0C4
:103D300090E01F969C938E931E9765E772E0C601F4
:103D400071DB8EE190E0F6019587848787E290E051
:103D50009787868760E772E0C60164DBC6010E9430
:103D6000961660ED77E080E090E00E94C9130E9413
:103D7000BB0C8091AF069091B006892B09F08BC0E7
:103D800087EC91E034D38C0160E070E082539F4F68
:103D90000E94B70861E070E0C80189529F4F0E94FD
:103DA000B70862E070E0C80180529F4F0E94B708D8
:103DB00063E070E0C80187519F4F0E94B70864E03C
:103DC00070E0C8018E509F4F0E94B7087801A8018B
:103DD0002AE064E070E080E090E0FA01E80FF91F6B
:103DE00077836683029684319105B9F721504C5E42
:103DF0005F4F2111F0CF0E94DE09F801E550FF4F1F
:103E0000918380830E94BB0CF801E350FF4F9183A4
:103E100080832AE044E050E080E090E0FC01E15043
:103E2000FF4FEE0DFF1D51834083029684319105B3
:103E3000A9F72150F4E1EF0EF11C2111EDCF0E9402
:103E4000DE09D8018D939C930E94BB0CF8019383EB
:103E500082838091AD069091AE06892B39F481E082
:103E600090E0C5D29093AE068093AD068091AD06EA
:103E70009091AE06D80115969C938E93149740E8C6
:103E800055E260E070E081E499E00E9488151093AB
:103E9000B0060093AF06C090AF06D090B006760192
:103EA000B6E0EB0EF11CF601E550FF4F00811181E9
:103EB00062E0C8015EDA84E090E0F80195878487CB
:103EC0008EE090E09787868762E872E0C801AADA00
:103ED00085E290E0D8011D969C938E931C9787E213
:103EE00090E01F969C938E931E976CE772E0C8013A
:103EF00099DAC8010E9496166CED75E080E090E0BA
:103F00000E94C91300E010E049E0742E5AE0652ECB
:103F100063E0A62EB12C709E4001719E900C11247E
:103F2000B8EC8B0E911C8E0C9F1C40E050E0B4014D
:103F3000C7010E94EE0A81309105B9F3059719F483
:103F400041E050E0F4CF709EF001719EF00D11241D
:103F5000EC0DFD1DE253FF4FDE011A96872D0190F7
:103F60000D928A95E1F7912C8C859816C8F4692DED
:103F7000CE010A960E94AD08AC0199E0FE013A9686
:103F8000DE01119601900D929A95E1F7BE016F5FE7
:103F90007F4FC7010E945C098823A1F09394E4CF6E
:103FA000709EF001719EF00D1124EC0DFD1DE25389
:103FB000FF4FDE011196872D01900D928A95E1F752
:103FC000912C03C0015011092AC08B81981638F535
:103FD000692DCE0101960E94AD08282F30E02150B6
:103FE0003109E92FF0E0629EB001639E700D11244B
:103FF0003197E60FF71FEE0FFF1FEC0DFD1DB78287
:10400000A682AC0163E070E0C7010E94330964E15D
:1040100070E080E090E00E94C9139394D6CF0F5FC8
:104020001F4F053011050CF476CF62E876E081E48D
:1040300099E0EEDBF6010081118162E0C80199D9B7
:1040400099E2E92EF12CD8011D96FC92EE921C9774
:104050008EE090E01F969C938E931E9762E972E02B
:10406000C801E0D9F801F586E48687E290E09787F9
:1040700086876DE872E0C801D5D9C8010E949616FE
:104080006CEB72E080E090E00E94C9134601FFEF04
:104090008F0E911C41E051E063E070E0C4010E948A
:1040A00084086FE070E080E090E00E94C91366240D
:1040B00063947724739426E0A22EB12C89E896E0CD
:1040C0000E94EB15D6010D911C9162E0C80151D9F7
:1040D0008CE190E0F80195878487AEE0B0E0B78787
:1040E000A68767E972E0C8019DD984E390E0F801F2
:1040F00095878487A7E2B0E0B787A68760E4670D5D
:10410000C8010E94D41181E090E0F801938B828B6A
:10411000918B808BA0E4B0E0B587A48787E290E024
:1041200097878687E62CF12CB701C8010E941E17DD
:10413000E1E0F0E0D8015396FC93EE93529751964C
:10414000FC93EE935097C8010E949616B501D601D4
:1041500012968D919C9113970E941B0A5C01069701
:1041600009F4ACCF872D90E001972AE0289FF00159
:10417000299FF00D112481E0E81AF108EE0DFF1DD2
:10418000EE0FFF1FE80DF91D60817181472D562D3F
:10419000C4010E9484086FE070E080E090E00E941B
:1041A000C91392E0A916B10409F04AC080E996E06B
:1041B0000E94EB150E9401141B012C0110E0EE245B
:1041C000EA94E70CFF24FA94F60CA8EB2A0EABE075
:1041D0003A1E411C511C1B3009F450C00E940114AE
:1041E0006215730584059505B0F31F5F0E940114E5
:1041F0001B012C016E2D8AE697E00E94CA126F2DDA
:104200008AE697E00E94CA120AE08AE697E00E94D6
:10421000610E8D9761F48AE697E00E94830E18166E
:10422000190664F58AE697E00E94610EF4CF68EC07
:1042300070E080E090E00E94C913015031F7C5CFD3
:10424000A114B10449F487E996E00E94EB15B9E0A6
:10425000B71578F0739412C0E4E0AE16B10471F4AF
:104260008CE996E00E94EB15F9E0F61528F06394CE
:1042700005C07724739402C066246394472D562D9D
:1042800063E070E0C4010E9484086FE070E080E0A9
:1042900090E00E94C91312CFEAE6F7E0138212827F
:1042A00088EE93E0A0E0B0E084839583A683B78393
:1042B00026E436E03183208345E351E05587448787
:1042C00044E351E05787468740E351E0518B408BF0
:1042D00041E351E0538B428B42E351E0558B448BD9
:1042E00046E351E0578B468B118E128E138E148E3F
:1042F000E7E0F8E01382128284839583A683B78374
:104300003183208345ED50E05587448744ED50E0EC
:104310005787468740ED50E0518B408B41ED50E090
:10432000538B428B42ED50E0558B448B46ED50E071
:10433000578B468B118E128E138E148EE4EAF8E0A2
:104340001382128284839583A683B783318320836B
:104350004DEC50E0558744874CEC50E0578746873A
:1043600048EC50E0518B408B49EC50E0538B428B32
:104370004AEC50E0558B448B4EEC50E0578B468B0B
:10438000118E128E138E148EE1E4F9E013821282E4
:1043900084839583A683B7833183208325EC30E023
:1043A0003587248724EC30E03787268720EC30E0FF
:1043B000318B208B21EC30E0338B228B22EC30E0F0
:1043C000358B248B26EC30E0378B268B118E128EAA
:1043D000138E148EEEEDF9E013821282848395839E
:1043E000A683B78384E696E09183808308950F9334
:1043F0001F93CF93DF938230910510F482E090E019
:10440000E091EC09F091ED0920E030E0A0E0B0E0AF
:10441000309719F140815181028113814817590762
:10442000C8F08417950769F4109731F012960C9331
:10443000129713961C9327C00093EC091093ED0973
:1044400022C02115310519F04217530718F49A01BB
:10445000BD01EF01DF01F801DBCF21153105F9F0D6
:10446000281B390B2430310580F48A819B8161152A
:10447000710521F0FB019383828304C09093ED09C1
:104480008093EC09FE01329644C0FE01E20FF31F57
:104490008193919322503109398328833AC0209126
:1044A000EA093091EB09232B41F420910206309167
:1044B00003063093EB092093EA092091000630911E
:1044C00001062115310541F42DB73EB74091040690
:1044D00050910506241B350BE091EA09F091EB0998
:1044E000E217F307A0F42E1B3F0B2817390778F0CB
:1044F000AC014E5F5F4F2417350748F04E0F5F1F2A
:104500005093EB094093EA098193919302C0E0E054
:10451000F0E0CF01DF91CF911F910F910895CF93DC
:10452000DF93009709F481C0FC0132971382128255
:10453000A091EC09B091ED09109781F420813181AF
:10454000820F931F2091EA093091EB092817390750
:1045500051F5F093EB09E093EA0967C0ED0120E023
:1045600030E0CE17DF0740F44A815B819E014115A0
:104570005105F1F0EA01F5CFD383C2834081518127
:10458000840F951FC817D90759F488819981840F22
:10459000951F0296918380838A819B819383828376
:1045A0002115310529F4F093ED09E093EC093DC0A4
:1045B000E901FB83EA8349915991C40FD51FEC1798
:1045C000FD0761F480819181840F951F0296E901B6
:1045D00099838883828193819B838A83E0E0F0E0E2
:1045E00012968D919C911397009719F0FD01DC01B3
:1045F000F7CF8D919C9111979D012E5F3F4F820FB8
:10460000931F2091EA093091EB092817390769F4C3
:10461000309729F41092ED091092EC0902C0138230
:104620001282B093EB09A093EA09DF91CF9108952C
:10463000A1E21A2EAA1BBB1BFD010DC0AA1FBB1FA6
:10464000EE1FFF1FA217B307E407F50720F0A21B18
:10465000B30BE40BF50B661F771F881F991F1A9485
:1046600069F760957095809590959B01AC01BD01AF
:10467000CF010895EE0FFF1F881F8BBF0790F691A3
:10468000E02D199481E090E0F89400C0F894FFCFF9
:10469000000000000000000000000000000000001A
:1046A000000000000000000000000000000000000A
:1046B00000000000000000000000000000000000FA
:1046C000000000000000000000000000000000806A
:1046D00080800000000000000000000000000000DA
:1046E000008080C0C000000000000000000000004A
:1046F00000000000000000000000000000000000BA
:1047000000000000000000000000000000000000A9
:104710000000000000000000000000000000000099
:104720000000000080C0E0F0F8FCF8E000000000AD
:1047300000000000000000000000000000808080F9
:10474000808000808000000000808080808000FFEA
:10475000FFFF00000000808080800000808000005B
:1047600080FFFF80800080800080808080008080CB
:104770000000000000808000008C8E84000080F823
:10478000F8F88000000000000000000000000000B9
:10479000F0F0F0F0F0F0F0F0F0F0F0F0E0E0C080D9
:1047A00000E0FCFEFFFFFF7FFFFFFFFFFF000000B8
:1047B0000000000000000000000000FEFFC7010133
:1047C000010183FFFF00007CFEC70101010183FF9F
:1047D000FFFF0038FEC78301010183C7FFFF000010
:1047E00001FFFF010100FFFF0701010100007FFF42
:1047F00080000000FFFF7F0000FFFFFF000001FFBF
:10480000FFFF0100000000000000000000000000A9
:10481000030F3F7F7FFFFFFFFFFFFFFFE7C7C78F4C
:104820008F9FBFFFFFC3C0F0FFFFFFFFFFFCFCFC3B
:10483000FCFCFCFCFCF8F8F0F0E0C0000103030312
:10484000030301030300000000010303030301014C
:10485000030100000001030303030101030300003F
:10486000000303000000030300000000000000013B
:104870000303030303010000000103010000000320
:104880000301000000000000000000000000000024
:1048900000000080C0E0F0F9FFFFFFFFFF3F1F0FA7
:1048A00087C7F7FFFF1F1F3DFCF8F8F8F87C7DFF76
:1048B000FFFFFFFFFFFFFF7F3F0F070030300000CB
:1048C00000000000000000000000000000000000E8
:1048D00000000000FEFEFC000000000000000000E0
:1048E00000000000000000000000000000E0C00028
:1048F0000000000000000000000030300000000058
:1049000000000000000000000000000000000000A7
:1049100000C0FEFFFFFFFFFFFFFFFFFF7F7F3F1F86
:104920000F071F7FFFFFF8F8FFFFFFFFFFFEF8E014
:10493000000000010000000000000000FEFE00007A
:1049400000FCFEFC0C06060EFCF80000F0F81C0E45
:104950000606060CFFFFFF0000FEFE00000000FC44
:10496000FEFC00183C7E66E6CE84000006FFFF06D3
:1049700006FCFEFC0C0606060000FEFE0000C0F869
:10498000FC4E4646464E7C7840183C76E6CECC80BF
:104990000000000000000000000000000000000017
:1049A0000000000001070F1F1F3F3F3F3F1F0F0385
:1049B0000000000000000000000000000F0F0000D9
:1049C000000F0F0F000000000F0F000003070E0C78
:1049D00018180C060F0F0F0000010F0E0C180C0F0B
:1049E000070100040E0C180C0F070000000F0F0049
:1049F000000F0F0F0000000000000F0F0000000765
:104A0000070C0C181C0C060600040E0C180C0F07E3
:104A10000000000000000000000000000000000096
:104A20000000000000000000000000000000000086
:104A30000000000000000000000000000000000076
:104A40000000000000000000000000000000000066
:104A50000000000000000000000000000000000056
:104A60000000000000000000000000000000000046
:104A70000000000000000000000000000000000036
:104A80000000000000000000000000000000000026
:104A90000000EE09800000000000D411CF19410889
:104AA0004008A207670FCB11A311BF11B3113C043B
:104AB000670FEE0FED0FED044706EC10CF106210FC
:104AC0000310000103070F1F3F7F0080C0E0F0F8D4
:104AD000FCFE00000000CA12CF19520E1613830EFE
:104AE000610E750E00000000D211CF194108400878
:104AF00000000000BF0F930F4108670F8B0F770F67
:104B0000680F0D0A00506C6163696E672053686915
:104B10007000436865636B3000436865636B310008
:104B200043656E746572004C65667400526967680F
:024B300074000F
:020000023000CC
:10E000000D9489F10D94B2F10D94B2F10D94B2F129
:10E010000D94B2F10D94B2F10D94B2F10D94B2F1F0
:10E020000D94B2F10D94B2F10D94B2F10D94B2F1E0
:10E030000D94B2F10D94B2F10D94B2F10D94B2F1D0
:10E040000D94B2F10D94B2F10D94B2F10D94B2F1C0
:10E050000D94B2F10D94B2F10D94B2F10D94B2F1B0
:10E060000D94B2F10D94B2F10D94B2F10D94B2F1A0
:10E070000D94B2F10D94B2F10D94B2F10D94B2F190
:10E080000D94B2F10D94B2F10D94B2F10D94B2F180
:10E090000D94B2F10D94B2F10D94B2F10D94B2F170
:10E0A0000D94B2F10D94B2F10D94B2F10D94B2F160
:10E0B0000D94B2F10D94B2F10D94B2F10D94B2F150
:10E0C0000D94B2F10D94B2F10D94B2F10D94B2F140
:10E0D0000D94B2F10D94B2F10D94B2F10D94B2F130
:10E0E0000D94B2F141546D656761323536300041AF
:10E0F000726475696E6F206578706C6F72657220DE
:10E1000073746B3530305632206279204D4C530099
:10E11000426F6F746C6F616465723E004875683F52
:10E1200000436F6D70696C6564206F6E203D200048
:10E130004350552054797065202020203D20005FF9
:10E140005F4156525F415243485F5F3D2000415658
:10E1500052204C696243205665723D20004743437C
:10E160002056657273696F6E203D20004350552024
:10E1700049442020202020203D20004C6F7720663D
:10E18000757365202020203D20004869676820665F
:10E190007573652020203D200045787420667573D6
:10E1A00065202020203D20004C6F636B2066757336
:10E1B000652020203D20004D617220203720323024
:10E1C000313300312E362E3800342E332E350056A2
:10E1D00023202020414444522020206F7020636F70
:10E1E00064652020202020696E73747275637469E1
:10E1F0006F6E2061646472202020496E74657272B3
:10E20000757074006E6F20766563746F7200726A49
:10E210006D702020006A6D70200057686174207056
:10E220006F72743A00506F7274206E6F7420737541
:10E2300070706F72746564004D7573742062652030
:10E2400061206C6574746572002000577269747483
:10E25000696E672045450052656164696E672045B7
:10E26000450045452065727220636E743D00504F35
:10E27000525400303D5A65726F2061646472003FF1
:10E280003D43505520737461747300403D454550C3
:10E29000524F4D207465737400423D426C696E6B41
:10E2A000204C454400453D44756D70204545505215
:10E2B0004F4D00463D44756D7020464C415348001B
:10E2C000483D48656C70004C3D4C69737420492F83
:10E2D0004F20506F72747300513D51756974005234
:10E2E0003D44756D702052414D00563D73686F7707
:10E2F00020696E7465727275707420566563746FF0
:10E30000727300593D506F727420626C696E6B00BD
:10E310002A0011241FBECFEFD1E2DEBFCDBF01E046
:10E320000CBF12E0A0E0B2E0EEE1FDEF03E00BBFB6
:10E3300002C007900D92A030B107D9F712E0A0E01B
:10E34000B2E001C01D92AE30B107E1F70F9460F367
:10E350000D948DFE01E20EBF0FEF0DBF11241FBE05
:10E360000D9460F30D9400F020E030E040ED57E0B4
:10E3700005C0FA013197F1F72F5F3F4F2817390792
:10E38000C0F308959C01260F311DC901A0E0B0E043
:10E390002F5F3F4FABBFFC018791882361F08093D3
:10E3A000C6008091C00086FFFCCF8091C0008064D1
:10E3B0008093C000EACF08958DE08093C6008091DD
:10E3C000C00086FFFCCF8091C00080648093C000B5
:10E3D0008AE08093C6008091C00086FFFCCF8091C8
:10E3E000C00080648093C00008950F94C2F10F9420
:10E3F000DCF10895FC019081992359F09093C600B7
:10E400008091C00086FFFCCF8091C0008064809323
:10E41000C0003196992379F70895282F982F929567
:10E420009F70892F805D8A3308F0895F8093C600D2
:10E430008091C00086FFFCCF8091C00080648093F3
:10E44000C000822F8F70982F905D9A3308F0995FEB
:10E450009093C6008091C00086FFFCCF8091C000E1
:10E4600080648093C00008959C01FB01853691056E
:10E470001CF46330710594F0C90164E670E00F94F8
:10E480002EFE605D7F4F6093C6008091C00086FFC6
:10E49000FCCF8091C00080648093C0002B30310598
:10E4A00014F43297B4F0C90164E670E00F942EFEC4
:10E4B0006AE070E00F942EFE605D7F4F6093C600AF
:10E4C0008091C00086FFFCCF8091C0008064809363
:10E4D000C000C9016AE070E00F942EFEC0968093E0
:10E4E000C6008091C00086FFFCCF8091C000806490
:10E4F0008093C00008951F93182F8EE692EE60E07F
:10E500000F94C2F11093C6008091C00086FFFCCF2B
:10E510008091C00080648093C0000F94DCF11F9153
:10E5200008952F923F924F925F926F927F928F92B7
:10E530009F92AF92BF92CF92DF92EF92FF920F9392
:10E540001F93DF93CF93CDB7DEB762970FB6F894E2
:10E55000DEBF0FBECDBF382E622ECA01DB015C01CB
:10E560006D01772420E2222E2E010894411C511CBB
:10E570008BC081E0A81680E0B80681E0C80680E084
:10E58000D80628F0C601AA27BB270F940DF2BB2797
:10E59000AD2D9C2D8B2D0F940DF28A2D0F940DF225
:10E5A0002092C6008091C00086FFFCCF8091C00001
:10E5B00080648093C0009DE29093C6008091C0006B
:10E5C00086FFFCCF8091C00080648093C0002092C1
:10E5D000C6008091C00086FFFCCF8091C00080649F
:10E5E0008093C00019828601750188249924A1E0D6
:10E5F0003A1651F03A1620F0B2E03B1661F409C029
:10E600000BBFF701779007C0C7010F9477FE782EF4
:10E6100002C0F7017080872D0F940DF22092C60082
:10E620008091C00086FFFCCF8091C0008064809301
:10E63000C000872D8052F401EF70F0708F3520F408
:10E64000E40DF51D708204C0E40DF51D8EE280839B
:10E650000894E11CF11C011D111D0894811C911CE2
:10E6600090E18916910409F0C2CF80E190E0A0E02A
:10E67000B0E0A80EB91ECA1EDB1E198AC2010F9493
:10E68000FAF10F94DCF16A94662009F072CF629679
:10E690000FB6F894DEBF0FBECDBFCF91DF911F91B3
:10E6A0000F91FF90EF90DF90CF90BF90AF909F9031
:10E6B0008F907F906F905F904F903F902F90089534
:10E6C0002F923F924F925F926F927F928F929F9282
:10E6D000AF92BF92CF92DF92EF92FF920F931F9370
:10E6E000DF93CF93CDB7DEB7CD53D1400FB6F894BB
:10E6F000DEBF0FBECDBF01E20EBF0FEF0DBF94B75F
:10E70000F894A89514BE80916000886180936000A1
:10E7100010926000789493FF05C0E0910002F091A0
:10E7200001021995279A2F9A8091C00082608093E8
:10E73000C00080E18093C40088E18093C1000000A4
:10E74000EE24FF24870144E0A42EB12CCC24DD2448
:10E7500024C0C5010197F1F70894E11CF11C011DCB
:10E76000111D21E2E2162EE4F20620E0020720E06D
:10E77000120718F031E0C32ED12CC801B70127ECE5
:10E780003BE140E050E00F9441FE611571058105C9
:10E79000910519F485B1805885B98091C00087FD35
:10E7A00003C0C114D104A9F2A6014F5F5F4FC25E3E
:10E7B000DE4F59834883CE51D140C25EDE4F8881FF
:10E7C0009981CE51D140019711F00D9410FEC05D9A
:10E7D000DE4F19821882C053D14060E0C15DDE4F28
:10E7E0001882CF52D14088249924C35DDE4F19820C
:10E7F0001882CD52D140C05EDE4F188219821A8233
:10E800001B82C052D140CE5CDE4F188219821A8220
:10E810001B82C253D140EE24FF2487010BBFF701B6
:10E8200007911691C45CDE4F19830883CC53D14005
:10E830000D940BFEC25EDE4F28813981CE51D1404E
:10E840002130310509F52091C600C25EDE4F1982E4
:10E850001882CE51D14022C02F5F3F4F4F4F5F4FA4
:10E86000213082E138078AE7480780E0580780F0C6
:10E87000C45CDE4FE881F981CC53D140EF5FFF4F9C
:10E8800019F0EE27FF27099420E030E040E050E047
:10E890008091C00087FFE0CF2091C600C35DDE4FAE
:10E8A00048815981CD52D1404F5F5F4FC35DDE4FEC
:10E8B00059834883CD52D140213209F063C64A3092
:10E8C000510508F05FC60894811C911C53E0851621
:10E8D000910409F059C600E010E018C081E280936D
:10E8E000C6008091C00086FFFCCF8091C00080648C
:10E8F0008093C0002F5F3F4F2931310579F70F9486
:10E90000DCF10F5F1F4F0530110519F020E030E0FA
:10E91000E5CF10920A0210920B0210920C02109294
:10E920000D02109206021092070210920802109235
:10E930000902109202021092030210920402109235
:10E9400005028FEE90EE60E00F94F5F180E191EE1C
:10E9500060E00F94C2F18091C00087FFFCCF9091DE
:10E96000C600903608F09F759032B8F09093C600BC
:10E970008091C00086FFFCCF8091C00080648093AE
:10E98000C000A0E2A093C6008091C00086FFFCCF2B
:10E990008091C00080648093C000983409F4D7C18E
:10E9A0009934B8F4923409F459C1933458F490333B
:10E9B00019F1903308F4E3C59F33A1F1903409F0C5
:10E9C000DEC5BDC0953409F470C1963409F0D7C5D1
:10E9D00098C1923509F42BC2933538F49C3409F46C
:10E9E000F5C1913509F0CBC518C2963509F445C279
:10E9F000993509F0C4C567C483E792EE62E00F94CD
:10EA0000F5F110920602109207021092080210927D
:10EA1000090210920A0210920B0210920C0210923C
:10EA20000D0213C18FE792EE62E00F94F5F18FEEC5
:10EA300090EE60E00F94F5F181E291EE60E00F94CA
:10EA4000C2F187EB91EE60E00F94F5F180E391EE77
:10EA500060E00F94C2F184EE90EE60E00F94F5F167
:10EA60008FE391EE60E00F94C2F186E090E061E008
:10EA700070E00F9434F20F94DCF18DE591EE60E0DC
:10EA80000F94C2F189EC91EE60E00F94F5F18EE401
:10EA900091EE60E00F94C2F183EC91EE60E00F9490
:10EAA000F5F18CE691EE60E00F94C2F18EE10F94E7
:10EAB0000DF288E90F940DF281E00F940DF20F949E
:10EAC000DCF18BE791EE60E00F94C2F119E0E0E039
:10EAD000F0E010935700E4918E2F0F940DF20F94F5
:10EAE000DCF18AE891EE60E00F94C2F1E3E0F0E03F
:10EAF00010935700E4918E2F0F940DF20F94DCF1D8
:10EB000089E991EE60E00F94C2F1E2E0F0E0109349
:10EB10005700E4918E2F0F940DF20F94DCF188EAE8
:10EB200091EE60E00F94C2F1E1E0F0E01093570045
:10EB30001491812F0F940DF20F94DCF107CF8BE825
:10EB400092EE62E00F94F5F18BE492EE60E00F94A8
:10EB5000F5F10F94DCF100E010E019C0C8016F2D51
:10EB60000F947FFEFF2031F489E492EE60E00F9471
:10EB7000C2F10BC0F092C6008091C00086FFFCCFAE
:10EB80008091C00080648093C0000F5F1F4FC80158
:10EB900081519F41A0E0B0E0ABBFFC01F790BAE229
:10EBA000FB1621F0E2E000301E07C1F60F94DCF105
:10EBB0000F94DCF187E592EE60E00F94F5F10F948D
:10EBC000DCF1CC24DD2400E010E01EC0C8010F946D
:10EBD00077FEF82E882331F489E492EE60E00F94FA
:10EBE000C2F10BC08093C6008091C00086FFFCCFAD
:10EBF0008091C00080648093C000FE1419F00894D6
:10EC0000C11CD11C0F5F1F4FC80181519F41A0E063
:10EC1000B0E0ABBFFC01E790FAE2EF1621F022E092
:10EC20000030120799F60F94DCF10F94DCF182E6C4
:10EC300092EE60E00F94C2F1C60161E070E00F94C3
:10EC400034F20F94DCF10F94DCF110920202109276
:10EC50000302109204021092050278CE89E992EE26
:10EC600062E00F94F5F1279A2F9A16C02F9880E052
:10EC700090E0E0EDF7E03197F1F7019684369105E9
:10EC8000C1F72F9A80E090E0E0EDF7E03197F1F7DF
:10EC9000019684369105C1F78091C00087FFE6CFC9
:10ECA0008091C00087FFFCCF64C485EA92EE62E0E9
:10ECB0000F94F5F140910202509103026091040219
:10ECC0007091050281E020E10F9491F2809102029F
:10ECD00090910302A0910402B091050280509F4FD1
:10ECE000AF4FBF4F8093020290930302A0930402A0
:10ECF000B093050280509041A040B04008F426CE69
:10ED0000A4CF83EB92EE62E00F94F5F140910602FE
:10ED100050910702609108027091090280E020E1A1
:10ED20000F9491F28091060290910702A09108023F
:10ED3000B091090280509F4FAF4FBF4F80930602A2
:10ED400090930702A0930802B0930902FFCD80ECD4
:10ED500092EE62E00F94F5F183E792EE60E00F949B
:10ED6000F5F18FE792EE60E00F94F5F18BE892EE0B
:10ED700060E00F94F5F189E992EE60E00F94F5F10F
:10ED800085EA92EE60E00F94F5F183EB92EE60E09D
:10ED90000F94F5F180EC92EE60E00F94F5F187ECC2
:10EDA00092EE60E00F94F5F188ED92EE60E00F9442
:10EDB000F5F18FED92EE60E00F94F5F18AEE92EEB0
:10EDC00060E00F94F5F183E093EEBDCD87EC92EE19
:10EDD00062E00F94F5F181E40F947BF282E40F94EA
:10EDE0007BF283E40F947BF284E40F947BF285E45E
:10EDF0000F947BF286E40F947BF287E40F947BF20E
:10EE000088E40F947BF28AE40F947BF28BE40F94F6
:10EE10007BF28CE40F947BF299CD88ED92EE62E068
:10EE20000F94F5F1772473948824992409C48FED05
:10EE300092EE62E00F94F5F140910A0250910B02BC
:10EE400060910C0270910D0282E020E10F9491F22A
:10EE500080910A0290910B02A0910C02B0910D02D8
:10EE600080509F4FAF4FBF4F80930A0290930B0289
:10EE7000A0930C02B0930D0269CD8AEE92EE62E08F
:10EE80000F94F5F184EE90EE60E00F94F5F18FECC5
:10EE900091EE60E00F94F5F1662477244301CC5D98
:10EEA000DE4F19821882C452D140D401C301B695F5
:10EEB000A79597958795CA5DDE4F88839983AA8326
:10EEC000BB83C652D140CC5DDE4FA881B981C4520C
:10EED000D1401196CC5DDE4FB983A883C452D14096
:10EEE000CD0162E070E00F9434F2B0E2B093C6005E
:10EEF0008091C00086FFFCCF8091C0008064809329
:10EF0000C000EDE2E093C6008091C00086FFFCCF18
:10EF10008091C00080648093C000F0E2F093C6004E
:10EF20008091C00086FFFCCF8091C00080648093F8
:10EF3000C000CA5DDE4FE880F9800A811B81C6529D
:10EF4000D140BB27A12F902F8F2D0F940DF2CA5DBA
:10EF5000DE4F8881C652D1400F940DF2B0E2FB2EF5
:10EF6000F092C6008091C00086FFFCCF8091C00067
:10EF700080648093C0000DE30093C6008091C000C0
:10EF800086FFFCCF8091C00080648093C00010E2B7
:10EF90001093C6008091C00086FFFCCF8091C00016
