:1000000028C4000057C4000055C4000053C40000B9
:1000100051C400004FC400004DC400004BC4000098
:1000200049C4000047C4000045C4000043C40000A8
:1000300041C400003FC400003DC400003BC40000B8
:1000400039C4000037C4000035C4000033C40000C8
:1000500031C400002FC400002DC400000C94011412
:1000600029C400000C9402130C94D91223C400007C
:1000700021C400001FC400001DC400001BC40000F8
:1000800019C4000017C4000015C4000013C4000008
:100090000C94B0120C9487120DC400000C944B14F5
:1000A00009C4000007C4000005C4000003C4000028
:1000B00001C40000FFC30000FDC30000FBC300003B
:1000C000F9C30000F7C30000F5C300000C945E12F2
:1000D0000C943512EFC300000C940C120C94E31135
:1000E000E9C300002D0E300E1F0E230E290E670EE1
:1000F000340E380E3E0E420E460E4C0E500E540E6E
:10010000670E5A0E5E0E620E0000210024002700CA
:100110002A002D0030003300010100000401070116
:100120000A01010210202008081020401020408001
:1001300002010201080402010102040810204080AB
:100140008040201008040201800402018040201039
:100150000804020108040201010204081020408082
:100160000102040810204080000022002500280021
:100170002B002E00310034000201000005010801AF
:100180000B0105050505070508080808020202021B
:100190000A0A080804040404010101010101010123
:1001A0000303030303030303040707070C0C0C0CEE
:1001B0000C0C0C0C020202020606060606060606D7
:1001C0000B0B0B0B0B0B0B0B5348495000424154CC
:1001D000544C4500504152544E4552005345454BF6
:1001E000494E47004641494C4544005345454B491B
:1001F0004E4700434F4D504C455445005345454BE9
:10020000494E4700534849505300504C4143452004
:10021000594F5552005455524E00594F55520054A3
:1002200041524745540046495245210053454E44EA
:10023000494E472E2E2E005455524E0054484549E3
:10024000520057494E00594F55004C4F53450059E5
:100250004F55005269676874507573686564005241
:100260006967687448656C640043656E74657250B4
:1002700075736865640043656E74657248656C6487
:10028000004C656674507573686564004C656674EF
:1002900048656C64004849542100414E4420535540
:1002A0004E4B00484954004D49535300434152526C
:1002B00049455200424154544C455348495000432B
:1002C000525549534552005355424D4152494E45AE
:1002D0000044455354524F5945520000002000231A
:1002E00000260029002C002F00320000010000032E
:1002F000010601090100000A0B02090C0D0E080796
:1003000003040100000000000000000000000000E5
:1003100000000000000000000000000000000000DD
:10032000001211100000000000000000000000009A
:1003300000000000000000000000000000000000BD
:100340003E5B4F5B3E3E6B4F6B3E1C3E7C3E1C1843
:100350003C7E3C181C577D571C1C5E7F5E1C0018A1
:100360003C1800FFE7C3E7FF0018241800FFE7DB95
:10037000E7FF30483A060E2629792926407F0505F1
:1003800007407F05253F5A3CE73C5A7F3E1C1C082E
:10039000081C1C3E7F14227F22145F5F005F5F06F3
:1003A000097F017F006689956A606060606094A241
:1003B000FFA29408047E040810207E201008082A5A
:1003C0001C08081C2A08081E101010100C1E0C1EF9
:1003D0000C30383E3830060E3E0E0600000000009D
:1003E00000005F00000007000700147F147F142442
:1003F0002A7F2A12231308646236495620500008C7
:10040000070300001C2241000041221C002A1C7F1F
:100410001C2A08083E0808008070300008080808F8
:1004200008000060600020100804023E5149453E6B
:1004300000427F400072494949462141494D3318E5
:1004400014127F1027454545393C4A49493141211D
:100450001109073649494936464949291E00001401
:100460000000004034000000081422411414141449
:1004700014004122140802015909063E415D594EFB
:100480007C1211127C7F494949363E414141227F0D
:100490004141413E7F494949417F090909013E41A6
:1004A0004151737F0808087F00417F41002040418F
:1004B0003F017F081422417F404040407F021C02E0
:1004C0007F7F0408107F3E4141413E7F09090906B4
:1004D0003E4151215E7F0919294626494949320387
:1004E000017F01033F4040403F1F2040201F3F400D
:1004F00038403F63140814630304780403615949C6
:100500004D43007F41414102040810200041414118
:100510007F040201020440404040400003070800FD
:1005200020545478407F2844443838444444283880
:100530004444287F385454541800087E090218A4F3
:10054000A49C787F0804047800447D40002040404B
:100550003D007F1028440000417F40007C04780467
:10056000787C080404783844444438FC182424185F
:1005700018242418FC7C0804040848545454240407
:10058000043F44243C4040207C1C2040201C3C4034
:1005900030403C44281028444C9090907C44645453
:1005A0004C44000836410000007700000041360846
:1005B0000002010204023C2623263C1EA1A1611276
:1005C0003A4040207A3854545559215555794122A2
:1005D00054547842215554784020545579400C1E8B
:1005E0005272123955555559395454545939555434
:1005F00054580000457C410002457D420001457C85
:10060000407D1211127DF0282528F07C54554500BC
:100610002054547C547C0A097F4932494949323A72
:100620004444443A324A4848303A4141217A3A42B5
:10063000402078009DA0A07D3D4242423D3D40408B
:10064000403D3C24FF2424487E4943662B2FFC2F49
:100650002BFF0929F620C0887E09032054547941D4
:100660000000447D413048484A32384040227A00F8
:100670007A0A0A727D0D19317D2629292F2826290B
:1006800029292630484D402038080808080808085D
:1006900008382F10C8ACBA2F102834FA00007B009D
:1006A0000008142A142222142A1408550055005553
:1006B000AA55AA55AAFF55FF55FF000000FF0010DC
:1006C0001010FF00141414FF001010FF00FF101092
:1006D000F010F0141414FC001414F700FF0000FFD5
:1006E00000FF1414F404FC141417101F10101F1032
:1006F0001F1414141F00101010F0000000001F1031
:100700001010101F10101010F010000000FF10103B
:1007100010101010101010FF10000000FF14000047
:10072000FF00FF00001F10170000FC04F414141752
:1007300010171414F404F40000FF00F71414141438
:10074000141414F700F7141414171410101F101FAA
:10075000141414F4141010F010F000001F101F00F7
:1007600000001F14000000FC140000F010F0101036
:10077000FF10FF141414FF141010101F00000000CD
:10078000F010FFFFFFFFFFF0F0F0F0F0FFFFFF00C1
:1007900000000000FFFF0F0F0F0F0F3844443844D4
:1007A000FC4A4A4A347E02020606027E027E026348
:1007B000554941633844443C04407E201E200602D3
:1007C0007E020299A5E7A5991C2A492A1C4C7201B0
:1007D000724C304A4D4D303048784830BC625A46F1
:1007E0003D3E494949007E0101017E2A2A2A2A2AE2
:1007F00044445F444440514A444040444A514000CC
:1008000000FF0103E080FF000008086B6B08361250
:10081000362436060F090F060000181800000010D5
:1008200010003040FF0101001F01011E00191D17BB
:1008300012003C3C3C3C000000000020544F2000D3
:1008400020544F200020544F200020544F200000FF
:100850004E2411241FBECFEFD1E2DEBFCDBF00E09A
:100860000CBF16E0A0E0B2E0E4E9FCE400E00BBF5E
:1008700002C007900D92A637B107D9F729E0A6E785
:10088000B6E001C01D92A83CB207E1F714E0C9E24E
:10089000D4E000E006C021970109802FFE010E94EC
:1008A0003C26C832D10780E00807A9F70E940E1C39
:1008B0000C944826A5CB0F931F93DC01ED91FC917E
:1008C000068CF78DE02D19951F910F9108950F93C8
:1008D0001F93DC01ED91FC91048CF58DE02D1995B1
:1008E0001F910F910895DC01ED91FC910084F18539
:1008F000E02D19942F923F924F925F926F927F92C8
:100900008F929F92AF92BF92CF92DF92EF92FF921F
:100910000F931F93CF93DF9300D000D0CDB7DEB7F6
:100920002C017E836D836A015901C801FC82EB8230
:100930004801841A950A97FE03C091948194910806
:1009400035012D813E81621A730A77FE03C07194CE
:1009500061947108681479045CF43A2D2B2D5C01C4
:10096000832F922F3D812E81DE82CD82C32ED22E07
:10097000AD81BE81AA16BB065CF43C2D2D2D6C0109
:10098000832F922F3D812E81BE82AD82A32EB22E67
:1009900085012D813E81021B130B1C012C183D0883
:1009A00037FE03C0319421943108780117FF03C04A
:1009B0003FEFE31AF30AF594E794C816D9062CF032
:1009C0008FEF9FEF9A83898304C0A1E0B0E0BA83E0
:1009D000A9832D813E81A216B30624F1D201ED91A7
:1009E000FC910484F585E02D2B813C816814790409
:1009F00024F44D815E81B60103C0A6016D817E8124
:100A0000C2011995E218F308F7FE06C029813A8160
:100A1000C20ED31EE00EF11E8D819E8101969E8333
:100A20008D83D7CF26960FB6F894DEBF0FBECDBF0D
:100A3000DF91CF911F910F91FF90EF90DF90CF90BA
:100A4000BF90AF909F908F907F906F905F904F90EE
:100A50003F902F9008950F931F93CF93DF93DC0166
:100A600055968C915597823071F0833009F1813021
:100A700009F08CC01496ED91FC911597E41BF50BD1
:100A8000E21BF30B20C01496ED91FC911597CF015A
:100A9000861B970BBC01615071091696ED91FC9174
:100AA0001797CF01841B950BAC01421B530B6EC0F3
:100AB0001696ED91FC911797CF01861B970BBC0101
:100AC00061507109FA0177FD1BC116968D919C91B9
:100AD0001797681779070CF013C1F7FF04C02E0FA2
:100AE0003F1FE0E0F0E014968D919C911597AF01C7
:100AF000420F531F841795071CF49C012E1B3F0BBC
:100B0000121613060CF0FCC0CB0177FD079643E0EC
:100B1000959587954A95E1F79695982F882797950B
:100B20008795E80FF91FE050FE4F6770772781E047
:100B300090E001C0880F6A95EAF7482F013011054F
:100B400041F088F00230110509F0DAC02E0F3F1F86
:100B500015C02E0F3F1FE217F30709F4D1C08081A3
:100B6000842B8193F8CF80952E0F3F1FE217F30758
:100B700009F4C6C0908198239193F8CFE217F30748
:100B800009F4BEC0808184278193F8CF77FDB8C077
:100B900014968D919C911597681779070CF0B0C049
:100BA00057FF04C0240F351F40E050E016968D918A
:100BB0009C911797FA01E20FF31F8E179F071CF401
:100BC0009C01241B350B121613060CF099C0A22FA2
:100BD000842F86958695869590E8899F600D711D76
:100BE0001124FB01E050FE4F4770A9F198E0941BDF
:100BF000492F50E0EA01C65CD94F8881291790F44B
:100C0000421B51092FEF30E002C0359527954A95D8
:100C1000E2F782230130110541F068F0023011053E
:100C200089F06EC00130110519F42081822B0CC0AF
:100C30000130110520F480952081822305C0023007
:100C4000110531F4208182278083A91708F458C048
:100C5000A91BE058FF4FA83048F10230110559F4A4
:100C6000EF018A2F988190959883C058DF4F885064
:100C70008830C0F730C081E00130110509F080E014
:100C80008195EF019A2F8883C058DF4F9850983094
:100C9000D0F788EF8A0F86958695869590E8899F8C
:100CA000E00DF11D1124E058FF4FA770AA2341F178
:100CB000B0E0AE5CB94F8C910130110529F038F0ED
:100CC00002301105E9F419C09081892B18C0809574
:100CD0009081892314C088EF8A0F86958695869522
:100CE00090E8899FE00DF11D1124E058FF4FA77097
:100CF00039F0B0E0AE5CB94F8C9190818927808348
:100D0000DF91CF911F910F9108950F931F93CF9370
:100D1000DF93DC01FB0155968C915597823089F069
:100D2000833021F1813009F0E7C014968D919C91B8
:100D30001597BC01641B750BAB0141505109BF01F4
:100D40001DC014966D917C911597CB018E1B9F0B46
:100D5000FC0116968D919C911797BC01641B750B35
:100D6000AB0141505109E21BF30BC6C016966D91C1
:100D70007C9117976E1B7F0B621B730B57FD1BC17A
:100D800014968D919C911597481759070CF013C133
:100D900077FF04C0260F371F60E070E016968D9134
:100DA0009C911797FB01E20FF31F8E179F071CF40E
:100DB0009C01261B370B121613060CF0FCC0A22F49
:100DC000862F86958695869590E8899F400D511DC2
:100DD0001124FA01E050FE4F6770A9F198E0961BCC
:100DE000492F50E0EA01C65CD94F8881291790F459
:100DF000421B51092FEF30E002C0359527954A95E7
:100E0000E2F782230130110541F068F0023011054C
:100E100089F0D1C00130110519F42081822B0CC05A
:100E20000130110520F480952081822305C0023015
:100E3000110531F4208182278083A91708F4BBC0F3
:100E4000A91BE058FF4FA83048F10230110559F4B2
:100E5000EF018A2F988190959883C058DF4F885072
:100E60008830C0F733C081E00130110509F080E01F
:100E70008195EF019A2F8883C058DF4F98509830A2
:100E8000D0F788EF8A0F86958695869560E8869FCD
:100E9000E00DF11D1124E058FF4FA770AA2309F4BB
:100EA0008AC0B0E0AE5CB94F8C910130110531F0D1
:100EB00040F00230110509F07EC01BC09081892BE3
:100EC00003C0809590818923808375C088EF8A0F45
:100ED00086958695869570E8879FE00DF11D112413
:100EE000E058FF4FA77009F466C0B0E0AE5CB94FA0
:100EF0008C9190818927E8CF57FD5DC016968D9122
:100F00009C911797481759070CF055C0F7FF04C07C
:100F10002E0F3F1FE0E0F0E014968D919C91159705
:100F2000BF01620F731F861797071CF49C012E1BCD
:100F30003F0B121613060CF03EC0CA0157FD079670
:100F400063E0959587956A95E1F79695982F8827A0
:100F500097958795E80FF91FE050FE4F477055278A
:100F600081E090E001C0880F4A95EAF7482F0130F0
:100F7000110539F078F002301105E9F42E0F3F1F0A
:100F800013C02E0F3F1FE217F307A9F08081842BB7
:100F90008193F9CF80952E0F3F1FE217F30759F089
:100FA000908198239193F9CFE217F30721F0808184
:100FB00084278193F9CFDF91CF911F910F910895ED
:100FC000FC0177FD9AC080859185681779070CF040
:100FD00094C057FD92C082859385481759070CF03D
:100FE0008CC08589823009F07CC084819581DC01C8
:100FF000A61BB70BBD016150710986819781FC0169
:10100000E41BF50BAF01415051090AC0813041F496
:1010100084819581841B950BAB01BC0161507109E2
:101020002130310529F008F122303105E1F1089530
:10103000FA0157FD3796A3E0F595E795AA95E1F7F4
:10104000F695FE2FEE27F795E7956E0F7F1FFB01B4
:10105000E050FE4F4770552781E090E001C0880FB7
:101060004A95EAF79081892B3AC0FA0157FD3796E5
:1010700023E0F595E7952A95E1F7F695FE2FEE2703
:10108000F795E7956E0F7F1FFB01E050FE4F47700D
:10109000552781E090E001C0880F4A95EAF78095D6
:1010A000908189231CC0FA0157FD379683E0F5959E
:1010B000E7958A95E1F7F695FE2FEE27F795E795E8
:1010C0006E0F7F1FFB01E050FE4F4770552781E0F8
:1010D00090E001C0880F4A95EAF7908189278083C4
:1010E0000895833009F092CF86819781861B970BF4
:1010F000BA01AC014150510993CF0895089580E0A1
:1011000090E008951F93CF93DF93EC01162F8C8D01
:101110008F3F09F1EEA1FFA190818CA5892B8083DF
:10112000E8A5F9A590818DA5809589238083EEA1FE
:10113000FFA190818CA5809589238083CE010E9498
:10114000D815EEA1FFA190818CA5892B8083DF911A
:10115000CF911F9108958A8D91E0909320078093FD
:101160004207109221071092430760E088EB99E054
:1011700060D6612F88EB99E05CD6DF91CF911F910B
:101180000C947C15CF93DF93C62FD52F642F81EE5F
:1011900097E0B2D46D2F81EE97E0AED46C2F81EE44
:1011A00097E0AAD4CAE081EE97E032D48D9751F04F
:1011B00061E070E080E090E00E94BD13C15099F7BB
:1011C00080E001C081E0DF91CF910895FC0120858E
:1011D00084819581222311F0960F0895860F08953A
:1011E000CF93DF93C62FD52F642F8EE798E084D45A
:1011F0006D2F8EE798E080D46C2F8EE798E07CD43A
:10120000CAE08EE798E004D48D9751F061E070E079
:1012100080E090E00E94BD13C15099F780E001C0CA
:1012200081E0DF91CF910895CF93DF93DC01EB0153
:10123000E881F98190E089E0692F70E06E177F07FF
:101240000CF5869F9001879F300D11242A0F3B1FBC
:10125000E901C453DF4F68814617B0F022966881D8
:10126000641790F021976881561770F02296688174
:10127000651750F0F901E553FF4F8081815080835D
:1012800080E004C081E002C09F5FD6CFDF91CF91A4
:101290000895CF92DF92EF92FF921F93CF93DF9347
:1012A000CDB7DEB729970FB6F894DEBF0FBECDBF1E
:1012B0006C017B0110E0F7018281181748F5612F5E
:1012C000C70184DFAC0199E0F701DE0111960190BE
:1012D0000D929A95E1F7BE016F5F7F4FC601A4DFC3
:1012E000612F882331F0C70171DFAC0163E070E04A
:1012F00005C0C7016BDFAC0160E070E0C60170DFC4
:101300006FE070E080E090E00E94BD131F5FD3CFDC
:1013100029960FB6F894DEBF0FBECDBFDF91CF91F7
:101320001F91FF90EF90DF90CF90089580918B06F2
:1013300090918C06892B91F58EE290E00E94F92421
:10134000FC011382128220E830E03583248380E49C
:1013500090E0978386833187208793878287158AD9
:10136000158614861786168681E0848B2FEF3FEF53
:10137000338B228B318B208B868B178A118E108EAC
:101380008AE096E0918380838FEF848F80A3868F9D
:10139000858F878FF0938C06E0938B0680918B0668
:1013A00090918C060895CF93DF93FC016130710515
:1013B00029F198F06230710509F043C0C081D181F4
:1013C00064E0CE010E94981682E190E09D878C87B0
:1013D0009F878E8767EA72E02EC0C081D18164E06A
:1013E000CE010E94981684E190E09D878C8782E16F
:1013F00090E09F878E8765E972E01DC0C081D18132
:1014000062E0CE010E9498168EE290E09D878C8764
:101410008EE090E09F878E8763EA72E0CE010E94A3
:10142000101A80E190E09D878C8787E290E09F878B
:101430008E876AE972E0CE010E94101ACE010E94E6
:10144000051668EE73E080E090E0DF91CF910C9498
:10145000BD13CF92DF92EF92FF92CF93DF93EC0117
:101460007B0188810E942B13892B01F589810E94C1
:101470002B13892BD9F48A810E942B13892BB1F469
:1014800086E012C00E94F513DC01CB018C199D0986
:10149000AE09BF09843F9140A105B105E0F18CE898
:1014A00092E00E94071781E090E09FC086E0E81676
:1014B000F10431F788810E942B13019751F489813F
:1014C0000E942B13892B29F48A810E942B13892BCC
:1014D00089F088810E942B13892B19F589810E943C
:1014E0002B130197F1F48A810E942B13892B09F4A5
:1014F00053C017C00E94F5136B017C0188810E94C4
:101500002B13019709F0BECF6AE070E080E090E015
:101510000E94BD13F3CF81E892E00E94071780E09C
:10152000C3CF88810E942B13892B09F05EC089816B
:101530000E942B13892B09F058C08A810E942B131B
:10154000019709F052C00E94F5136B017C018A815A
:101550000E942B13019739F46AE070E080E090E07C
:101560000E94BD13F4CF0E94F513DC01CB018C194E
:101570009D09AE09BF09843F9140A105B10530F036
:101580008FE592E00E94071785E08ECF83E592E019
:101590000E94071784E088CF0E94F5136B017C013D
:1015A00089810E942B13019739F46AE070E080E092
:1015B00090E00E94BD13F4CF0E94F513DC01CB0133
:1015C0008C199D09AE09BF09843F9140A105B10561
:1015D00030F086E792E00E94071783E065CF89E646
:1015E00092E00E94071782E05FCFDF91CF91FF90DA
:1015F000EF90DF90CF9008952F923F924F925F929D
:101600006F927F928F929F92AF92BF92CF92DF9212
:10161000EF92FF920F931F93CF93DF93CDB7DEB777
:1016200066970FB6F894DEBF0FBECDBF5C018B018D
:101630006A0189E0FB01DE01119601900D928A9505
:10164000E1F7BE016F5F7F4FC50123DE86E0E82E24
:10165000F12CC5018B509F4F9C8B8B8B9EE0292ECC
:10166000312CF501E950FF4FFE8BED8BF8018081A5
:1016700091818230910509F452C0E0F40097C1F1E4
:10168000019709F085C0F801448055806680778015
:10169000EB89FC898080918062E0C4010E949816E9
:1016A00084E090E0F401958784873786268664EB92
:1016B00072E062C08330910509F448C0049709F0D4
:1016C00067C0F8014480558066807780EB89FC898B
:1016D0008080918062E0C4010E9498168AE090E0C8
:1016E000F401958784873786268661ED72E044C0D1
:1016F000F8014480558066807780EB89FC89808082
:10170000918062E0C4010E94981686E190E0F401A5
:1017100095878487378626866CEA72E02DC0F801AB
:101720004480558066807780EB89FC898080918039
:1017300062E0C4010E94981686E190E0F40195876A
:101740008487378626866FEB72E016C0F8014480E6
:10175000558066807780EB89FC898080918062E08B
:10176000C4010E9498168AE090E0F401958784876E
:101770003786268667EC72E0C4010E94101A960133
:10178000A301B201C4010E94341AC4010E940516CB
:10179000B701ED89FE89808191815BDE7C0106972E
:1017A00009F464CF89E0F801DE011A9601900D92E8
:1017B0008A95E1F7912C8C85981660F5692DCE01FC
:1017C0000A9604DDAC0199E0FE013A96DE0111961D
:1017D00001900D929A95E1F7BE016F5F7F4FC501B1
:1017E00023DD692D882339F0CE010A96EFDCAC01A8
:1017F00064E070E006C0CE010A96E8DCAC0163E06C
:1018000070E0C501EDDC6FE070E080E090E0B5D7FE
:101810009394D1CF82E0E816F10441F5F8012085D8
:1018200097818681222381F04581941B292F30E006
:10183000280F311D2A3031050CF072C08481980FB9
:101840009683478310866CC0F8014481841B282F3F
:1018500030E0290F311D2A3031050CF061C095812F
:10186000890F8783468381E080875AC0E114F104A1
:1018700031F5C114D10481F4F8019481992309F45C
:101880004FC08681282F30E02B3031050CF048C046
:1018900091509483815025C0F1E0CF16D10409F016
:1018A0003FC0F80195819923D9F18781282F30E035
:1018B0002B303105ACF591509583815023C0F4E075
:1018C000EF16F10409F5C114D10469F4F801868119
:1018D000282F30E0293031051CF594819F5F9483D7
:1018E0008F5F86831DC0F1E0CF16D104C9F4F801E3
:1018F0008781282F30E02930310594F495819F5F4E
:1019000095838F5F87830CC0F3E0EF16F104B1F08D
:1019100081E0E816F104A9F095E0E916F104A1F0E0
:1019200089E0F801DE01119601900D928A95E1F7A8
:10193000BE016F5F7F4FC501ACDC98CE83E090E0C5
:1019400005C081E090E002C085E090E066960FB6A9
:10195000F894DEBF0FBECDBFDF91CF911F910F91E5
:10196000FF90EF90DF90CF90BF90AF909F908F90BF
:101970007F906F905F904F903F902F900895CF93FE
:10198000DF938091890690918A06892BC1F483E0C8
:1019900090E00E94F924EC0187E3888388E389833F
:1019A00089E38A8360E087E3ACD660E08981A9D6C9
:1019B00060E08A81A6D6D0938A06C093890680917A
:1019C000890690918A06DF91CF91089580918706CC
:1019D00090918806892B41F481E090E00E94F924DF
:1019E0009093880680938706809187069091880659
:1019F0000895FC01538D448D252F30E0842F90E015
:101A0000821B930B541710F0CF96089501970895F9
:101A1000FC01918D828D981761F0828DDF01A80FF6
:101A2000B11D5D968C91928D9F5F9F73928F90E018
:101A300008958FEF9FEF0895FC01918D828D981787
:101A400031F0828DE80FF11D858D90E008958FEFC4
:101A50009FEF0895FC01918D228D892F90E0805C8D
:101A60009F4F821B91098F739927089584E497E013
:101A7000F1DF21E0892B09F420E0822F089581EE27
:101A800097E0E8DF21E0892B09F420E0822F089518
:101A90008EE798E0DFDF21E0892B09F420E0822F38
:101AA00008958BE199E0D6DF21E0892B09F420E04D
:101AB000822F0895FC01848DDF01A80FB11DA35A68
:101AC000BF4F2C91848D90E001968F739927848F5E
:101AD000A689B7892C93A089B1898C918370806481
:101AE0008C93938D848D981306C00288F389E02D22
:101AF00080818F7D80830895EF92FF920F931F93D3
:101B0000CF93DF93EC0181E0888F9B8D8C8D9813B0
:101B100005C0E889F989808185FD25C0F62E0B8DE9
:101B200010E00F5F1F4F0F731127E02E8C8DE8120E
:101B30000BC00FB607FCFACFE889F989808185FFD1
:101B4000F5CFCE01B7DFF2CF8B8DFE01E80FF11D8F
:101B5000E35AFF4FF0829FB7F8940B8FEA89FB8915
:101B6000808180620AC09FB7F894EE89FF89608304
:101B7000E889F98980818370806480839FBF81E0D8
:101B800090E0DF91CF911F910F91FF90EF9008951A
:101B9000CF93DF93EC01888D8823C1F0EA89FB891C
:101BA000808185FD05C0A889B9898C9186FD0EC00C
:101BB0000FB607FCF5CF808185FFF2CFA889B989E0
:101BC0008C9185FFEDCFCE0175DFE8CFDF91CF910E
:101BD000089580E090E0892B19F063DF811116C031
:101BE00080E090E0892B19F053DF811112C080E072
:101BF00090E0892B19F043DF81110EC080E090E066
:101C0000892B79F033DF81110AC008950E9400000A
:101C1000E7CF0E940000EBCF0E940000EFCF0C94B2
:101C20000000089590E0FC013197E231F10508F0E1
:101C30004EC08827EE58FF4F8F4F0C943C26809162
:101C400080008F7703C0809180008F7D809380001B
:101C5000089580918000877FF9CF84B58F7702C087
:101C600084B58F7D84BD08958091B0008F7703C0C7
:101C70008091B0008F7D8093B00008958091900096
:101C80008F7707C0809190008F7D03C08091900076
:101C9000877F8093900008958091A0008F7707C080
:101CA0008091A0008F7D03C08091A000877F8093EA
:101CB000A0000895809120018F7707C080912001B6
:101CC0008F7D03C080912001877F8093200108953C
:101CD0003FB7F8948091F5069091F606A091F7062B
:101CE000B091F80626B5A89B05C02F3F19F00196C4
:101CF000A11DB11D3FBFBA2FA92F982F8827820F92
:101D0000911DA11DB11DBC01CD0142E0660F771FE1
:101D1000881F991F4A95D1F7089585ED8093BC00DF
:101D20008091BC0084FDFCCF10921F070895409164
:101D3000CD06262F30E0240F311D21323105DCF491
:101D400020911F072430C9F4FC0180E090E0861741
:101D500058F43091CD062191DC01A355B94FA30F62
:101D6000B11D2C930196F3CF8091CD06680F60933F
:101D7000CD0680E0089581E0089582E008950895F9
:101D800008950895E0917B0680917A06E81730F473
:101D9000F0E0E357F94F808190E008958FEF9FEFD7
:101DA000089590917B0680917A06981750F4E92F58
:101DB000F0E0E357F94F208130E09F5F90937B067E
:101DC00002C02FEF3FEFC901089580917A0690E09D
:101DD00020917B06821B91090895CF92DF92EF92AA
:101DE000FF920F931F93CF93DF937C01CB018A0166
:101DF00020912007222389F0EB016B01C40ED51E30
:101E0000CC15DD0561F06991D701ED91FC91019050
:101E1000F081E02DC7011995F3CF642F88DFC80149
:101E2000DF91CF911F910F91FF90EF90DF90CF90B6
:101E30000895CF93DF931F92CDB7DEB769832091CA
:101E400020072223D1F020914307203240F021E0E7
:101E500030E0FC013383228380E090E014C0809165
:101E60002107E82FF0E0EE5DF84F998190838F5FB6
:101E7000809321078093430704C061E0CE0101965F
:101E800056DF81E090E00F90DF91CF9108950895A3
:101E9000FC016370658B8481958126813781613077
:101EA00039F0633029F0918780873387228708953E
:101EB000318720879387828708956F927F928F92D0
:101EC0009F92AF92BF92CF92DF92EF92FF920F93C9
:101ED0001F93CF93DF93EC014B015A016901380145
:101EE000E881F9810284F385E02D1995E881F98173
:101EF0000288F389E02D87019601A501B401CE0186
:101F00001995A501460D571D41505109E881F981E8
:101F10000288F389E02D9601B401CE011995E8817C
:101F2000F9810088F189E02D9301A501B401CE016A
:101F30001995C80CD91CB60161507109E881F98165
:101F40000088F189E02D9301A501CE011995E88162
:101F5000F9810688F789E02DCE01DF91CF911F919D
:101F60000F91FF90EF90DF90CF90BF90AF909F9038
:101F70008F907F906F9019948F929F92AF92BF92A3
:101F8000CF92DF92EF92FF920F931F93CF93DF9345
:101F90004C016B015A01E901DC01ED91FC916217E2
:101FA000730781F40417150724F48B2D5801042FAF
:101FB000182F0A191B0998012F5F3F4F048CF58DCC
:101FC000E02D12C04017510709F52617370724F4F2
:101FD0008D2D6901C62FD82F9E012C193D092F5F29
:101FE0003F4F068CF78DE02D8701A501B601C40196
:101FF0001995DF91CF911F910F91FF90EF90DF9096
:10200000CF90BF90AF909F908F9008950284F385FA
:10201000E02D1995D401ED91FC910488F589E02D0E
:102020009E01A501B601C4011995D401ED91FC9161
:102030000688F789E02DC401DF91CF911F910F91A0
:10204000FF90EF90DF90CF90BF90AF909F908F90D8
:102050001994EF92FF920F931F93DC011A960D9142
:102060001C911B9718962D913C911997ED91FC911D
:1020700000A0F1A1E02D7B0140E050E060E070E0C5
:1020800019951F910F91FF90EF9008954F925F92D5
:102090006F927F928F929F92AF92BF92CF92DF9278
:1020A000EF92FF920F931F93CF93DF936C012B015D
:1020B0005A0139014801DC01ED91FC910284F3855C
:1020C000E02D1995E201640C751CD601ED91FC918F
:1020D000C615D7055CF40088F189E02D87019401CD
:1020E000A501BE01C60119952196EFCF0688F78993
:1020F000E02DC601DF91CF911F910F91FF90EF90DE
:10210000DF90CF90BF90AF909F908F907F906F9017
:102110005F904F9019948F929F92AF92BF92CF92FF
:10212000DF92EF92FF920F931F93CF93DF93EC0117
:102130005B014A016901E881F9810284F385E02DA0
:10214000199595012C0D3D1D21503109E881F9812A
:102150000488F589E02D78018401A401B501CE0140
:102160001995E881F9810688F789E02DCE01DF9184
:10217000CF911F910F91FF90EF90DF90CF90BF9084
:10218000AF909F908F9019948F929F92AF92BF9231
:10219000CF92DF92EF92FF920F931F93CF93DF9333
:1021A000EC015B014A0169017801E881F98102844F
:1021B000F385E02D1995C80CD91C86010150110931
:1021C000E881F9810488F589E02D9501A401B50124
:1021D000CE011995E881F9810688F789E02DCE01B5
:1021E000DF91CF911F910F91FF90EF90DF90CF90F3
:1021F000BF90AF909F908F901994EF92FF920F93A2
:102200001F93DC01ED91FC9100A0F1A1E02D199547
:102210001F910F91FF90EF9008950E944426AF9276
:10222000BF92CF92EF92FF920F931F93CF93DF93C2
:10223000EC01262F888D998D009709F03FC06A30F8
:1022400059F41D861C862C898E859F8538E0239F36
:10225000800D911D112440C06D3009F4A8C08E89F5
:102260008823C1F03C898C859D8546E0349F800D94
:10227000911D112448855985481759075CF41D861E
:102280001C868E859F8548E0349F800D911D11240A
:102290009F878E87EA88FB88088919894E855F8524
:1022A0006C857D85CC88CE01FDD52C898C859D855E
:1022B00036E0239F800D911D112442C06A3079F4CD
:1022C0001D861C862C89FC013696E4918E859F859F
:1022D0002E9F800D911D11249F878E8768C06D30C1
:1022E00009F465C0FC0134963491631708F45FC0AB
:1022F0003196E491E61708F45AC0FC0132966591D4
:102300007491422F50E0431B510937E0349F500134
:10231000359FB00C1124A60EB71EF50132963491EC
:102320003196E491332311F0E1110DC0F50134969B
:10233000E4912C898C859D85E29F800D911D11244F
:102340009D878C8734C0F501359644915E8955236D
:1023500011F16C89E32FF0E0E40FF11D47FDFA95D0
:102360006E9FD0016F9FB00D11244C855D854A0F83
:102370005B1FE885F985E417F5076CF41D861C865C
:10238000FC013696E4918E859F856E9F800D911D90
:1023900011249F878E87EA88FB88088919894E85D2
:1023A0005F856C857D85CC88CE017CD5BFCF81E0F3
:1023B00090E0DF91CF911F910F91FF90EF90CF9020
:1023C000BF90AF9008951F920F920FB60F921124F5
:1023D0000BB60F922F933F934F935F936F937F931F
:1023E0008F939F93AF93BF93EF93FF9384E497E012
:1023F00061DBFF91EF91BF91AF919F918F917F91A1
:102400006F915F914F913F912F910F900BBE0F9065
:102410000FBE0F901F9018951F920F920FB60F923C
:1024200011240BB60F922F933F934F935F936F93AB
:102430007F938F939F93AF93BF93EF93FF9384E426
:1024400097E079D7FF91EF91BF91AF919F918F91D5
:102450007F916F915F914F913F912F910F900BBEA4
:102460000F900FBE0F901F9018951F920F920FB6EE
:102470000F9211240BB60F922F933F934F935F93BC
:102480006F937F938F939F93AF93BF93EF93FF933C
:1024900081EE97E00FDBFF91EF91BF91AF919F919C
:1024A0008F917F916F915F914F913F912F910F90FD
:1024B0000BBE0F900FBE0F901F9018951F920F929A
:1024C0000FB60F9211240BB60F922F933F934F9399
:1024D0005F936F937F938F939F93AF93BF93EF938C
:1024E000FF9381EE97E027D7FF91EF91BF91AF91D6
:1024F0009F918F917F916F915F914F913F912F911C
:102500000F900BBE0F900FBE0F901F9018951F924B
:102510000F920FB60F9211240BB60F922F933F9389
:102520004F935F936F937F938F939F93AF93BF93DB
:10253000EF93FF938EE798E0BDDAFF91EF91BF91A3
:10254000AF919F918F917F916F915F914F913F914B
:102550002F910F900BBE0F900FBE0F901F901895EC
:102560001F920F920FB60F9211240BB60F922F935A
:102570003F934F935F936F937F938F939F93AF930B
:10258000BF93EF93FF938EE798E0D5D6FF91EF913D
:10259000BF91AF919F918F917F916F915F914F917B
:1025A0003F912F910F900BBE0F900FBE0F901F9079
:1025B00018951F920F920FB60F9211240BB60F921F
:1025C0002F933F934F935F936F937F938F939F933B
:1025D000AF93BF93EF93FF938BE199E06BDAFF9199
:1025E000EF91BF91AF919F918F917F916F915F918B
:1025F0004F913F912F910F900BBE0F900FBE0F90F8
:102600001F9018951F920F920FB60F9211240BB6C0
:102610000F922F933F934F935F936F937F938F937B
:102620009F93AF93BF93EF93FF938BE199E083D692
:10263000FF91EF91BF91AF919F918F917F916F919A
:102640005F914F913F912F910F900BBE0F900FBE56
:102650000F901F901895CF93DF93282F30E0F9014A
:10266000EB50FD4F8491F901EE5DFE4FD491F901DD
:10267000EE57FE4FC491CC2389F08111D3DAEC2FB1
:10268000F0E0EE0FFF1FE552FD4FA591B491EC91E4
:10269000ED2381E090E021F480E002C080E090E052
:1026A000DF91CF9108951F93CF93DF93282F30E0D0
:1026B000F901EB50FD4F8491F901EE5DFE4FD4918D
:1026C000F901EE57FE4FC491CC23B9F0162F8111BA
:1026D000A9DAEC2FF0E0EE0FFF1FE859FE4FA591AD
:1026E000B4919FB7F894111104C08C91D095D82360
:1026F00002C0EC91DE2BDC939FBFDF91CF911F9145
:102700000895CF93DF9390E0FC01EE5DFE4F24919E
:10271000FC01EE57FE4F8491882361F190E0880F11
:10272000991FFC01E85FFE4FC591D491FC01E85967
:10273000FE4FA591B491611109C09FB7F8948881AB
:10274000209582238883EC912E230BC0623061F4A4
:102750009FB7F8948881322F309583238883EC913A
:102760002E2B2C939FBF06C08FB7F894E8812E2B99
:1027700028838FBFDF91CF9108958F929F92AF9260
:10278000BF92CF92DF92EF92FF926B017C01A0DAB1
:102790004B015C01C114D104E104F104E9F098DAC1
:1027A000DC01CB0188199909AA09BB09883E93402D
:1027B000A105B10578F321E0C21AD108E108F108BA
:1027C00088EE880E83E0981EA11CB11CC114D104B0
:1027D000E104F10421F7DECFFF90EF90DF90CF907E
:1027E000BF90AF909F908F9008952FB7F89460910D
:1027F000F1067091F2068091F3069091F4062FBFD6
:1028000008951F920F920FB60F9211242F933F93AA
:102810008F939F93AF93BF938091F1069091F206AF
:10282000A091F306B091F4063091F00623E0230F57
:102830002D3720F40196A11DB11D05C026E8230FF8
:102840000296A11DB11D2093F0068093F10690938E
:10285000F206A093F306B093F4068091F5069091EA
:10286000F606A091F706B091F8060196A11DB11DDC
:102870008093F5069093F606A093F706B093F806BA
:10288000BF91AF919F918F913F912F910F900FBE6C
:102890000F901F9018951F920F920FB60F92112450
:1028A0000BB60F922F933F934F935F936F937F934A
:1028B0008F939F93AF93BF93EF93FF938091B90052
:1028C000887F803609F49CC068F5883209F45BC0C3
:1028D00090F4803109F454C038F4882309F4F6C028
:1028E000883009F44DC0F5C0883109F44CC08032FD
:1028F00009F45DC0EEC0803409F468C048F4803348
:1029000009F455C0883309F0E4C080931D07D8C08E
:10291000803509F44FC0883509F45DC0883409F06A
:10292000D8C0D6C0883909F4C7C0A8F4883709F4DC
:1029300067C038F4883609F463C0803709F460C092
:10294000C8C0883809F4B8C0803909F45FC080383D
:1029500009F0BFC05BC0803B09F486C038F4803A00
:1029600009F466C0883A09F47FC0B3C0803C09F41A
:10297000A7C0883C09F4A4C0883B09F48AC0A9C058
:102980008091FA0610C090911C0780911B07981740
:1029900070F5E0911C0781E08E0F80931C07F0E03A
:1029A000E550F94F80818093BB0085EC86C0809311
:1029B0001D078EC0E0911C0781E08E0F80931C07DD
:1029C0008091BB00F0E0E550F94F808390911C07A7
:1029D00080911B076EC0E0911C0781E08E0F8093F1
:1029E0001C078091BB00F0E0E550F94F8083809197
:1029F0001E0781116DC081E08093F90684EA61C0F1
:102A000083E080931F071092EF06CFCF8091EF06EF
:102A1000803208F051C0E091EF0681E08E0F809384
:102A2000EF068091BB00F0E0E153F94F8083BDCF0A
:102A300085EC8093BC0010921F078091EF068032D6
:102A400030F4E091EF06F0E0E153F94F108260912D
:102A5000EF0670E0E0917606F09177068FEC96E055
:102A600019951092EF0635C084E080931F071092ED
:102A7000CE061092CD06E0917806F0917906199570
:102A80008091CD06811105C081E08093CD06109222
:102A9000AD06E091CE0681E08E0F8093CE06F0E089
:102AA000E355F94F80818093BB009091CE068091D1
:102AB000CD06981708F479CF85E88093BC0009C04B
:102AC00085EC8093BC0010921F0703C010921D0775
:102AD00024D9FF91EF91BF91AF919F918F917F91F9
:102AE0006F915F914F913F912F910F900BBE0F907F
:102AF0000FBE0F901F90189530914307313208F0A8
:102B00004BC080911F078111FCCF9091420722E0BA
:102B100020931F0721E020931E072FEF20931D070E
:102B200010921C0730931B07E2E2F7E0ABEFB6E030
:102B300020E0321721F041914D932F5FFACF109290
:102B4000FA062091FA06990F922B9093FA0690912B
:102B5000F906913061F41092F9069091FA0690937B
:102B6000BB009091BC0093FDF8CF95EC01C095EEB1
:102B70009093BC0090911F079230E1F390911D0754
:102B80009F3F79F080911D07803241F080911D07B1
:102B9000803331F084E005C081E003C082E001C0F1
:102BA00083E01092210710924307109220070895A6
:102BB000FC0181A1882339F06EBD00000DB407FE31
:102BC000FDCF8EB5089528E030E090E8A4A1B5A12E
:102BD0004C9183A5809584238C93A2A1B3A182A557
:102BE000462F492319F04C91842B03C04C918095BA
:102BF00084238C93A4A1B5A14C9183A5842B8C93A1
:102C000096952150310911F708959F92AF92BF9286
:102C1000CF92DF92EF92FF920F931F93CF93DF93A8
:102C2000EC0161E20E94820860E0CE010E9482080D
:102C30006FE7CE010E94820862E2CE010E94820804
:102C400060E0CE010E94820867E0CE010E94820807
:102C50008C8D8F3F41F1EEA1FFA190818CA5892B36
:102C60008083E8A5F9A590818DA5892B8083EEA1AD
:102C7000FFA190818CA580958923808300E012E0DC
:102C800020E0E22E26E0F22EF80161918F01CE01C4
:102C90008FDFE016F106C1F7EEA1FFA190818CA5B0
:102CA000892B80832EC0E090B8008CE08093B80020
:102CB00000E012E090E0A92E96E0B92E99249394BA
:102CC0008A8D9092200780934207109221071092DC
:102CD000430760E488EB99E0ACD8680180E1F82E06
:102CE000F60161916F0188EB99E0A3D8FA94F11095
:102CF000F7CF02DF005F1F4FA016B10609F7E09281
:102D0000B800DF91CF911F910F91FF90EF90DF906E
:102D1000CF90BF90AF909F90089580E094E0E0E066
:102D2000F2E0DF019C011D9221503040E1F708954F
:102D3000FC01611101C061E0648B81E090E0938B44
:102D4000828B918B808BE9CFCF92DF92EF92FF92B3
:102D5000CF93DF93EC016A017B01E889F98982E076
:102D600080834115514E61057105B1F060E079E055
:102D70008DE390E0A70196010E941A26DA01C901AD
:102D80000197A109B109B695A795979587959C01DB
:102D9000211580E13807A8F0E889F989108260E8F8
:102DA00074E88EE190E0A70196010E941A26DA01EC
:102DB000C9010197A109B109B695A795979587957E
:102DC0009C01EC85FD853083EE85FF852083188E80
:102DD000EC89FD8986E08083EA89FB8980818061B6
:102DE0008083EA89FB89808188608083EA89FB8906
:102DF000808180688083EA89FB8980818F7D8083E0
:102E0000DF91CF91FF90EF90DF90CF900895CF9317
:102E1000DF93BC018BE199E003D3EC0142E050E089
:102E200062E776E08BE199E057D28C0F9D1FDF912E
:102E3000CF910895CF92DF92EF92FF920F931F935D
:102E4000CF93DF936B01770FEE08FF08F7FE1EC0EC
:102E5000EC01E881F9810190F081E02D6DE2199596
:102E60008C0144275527BA014C195D096E097F0969
:102E70002AE0CE0179D2800F911FDF91CF911F916F
:102E80000F91FF90EF90DF90CF9008952AE0B70167
:102E9000A601DF91CF911F910F91FF90EF90DF90EE
:102EA000CF9062C22F923F924F925F926F927F9229
:102EB0008F929F92AF92BF92CF92DF92EF92FF924A
:102EC0000F931F93CF93DF93CDB7DEB76B970FB6FA
:102ED000F894DEBF0FBECDBF9B8F8A8F5B011A01B6
:102EE000D22E1F830E833701C982DC0158962D91A3
:102EF0003C9159972115310509F0E6C018968D913E
:102F00009C911997681779070CF0CDC11A968D918D
:102F10009C911B97481759070CF0C5C18C2C912C1C
:102F2000FB0126E0C29EE00DF11D1124FB87EA871C
:102F30001E161F060CF0B7C1A40183E0440F551FF5
:102F40008A95E1F75D874C87CA01820D931D18169B
:102F500019060CF0A8C157968C91811104C05FEA44
:102F60005D1508F4D394AA8DBB8DED91FC9111975A
:102F70000284F385E02DCD011995B5E0DB9EC001FB
:102F80001124F5013596FF87EE87BB82AA822501C1
:102F90009C012A193B09398B288BA101485F5F4F9F
:102FA0005B8B4A8BE889F989E40DF51DE55CFC4FE4
:102FB0005491588761013D822C82888580FF13C01F
:102FC000AA8DBB8DED91FC91B981B13031F40484AF
:102FD000F585E02D2E813F8116C00684F785E02D12
:102FE000EE80FF801AC0EE81FF81E615F705F1F053
:102FF000AA8DBB8DED91FC91B981B13051F404845F
:10300000F585E02D9301A601B2018A8D9B8D19955E
:103010000DC00684F785E02D7301840194014C8175
:103020005D816A817B818A8D9B8D1995E885E69506
:10303000E887FFEFCF1ADF0A2C813D81280D391D6B
:103040003D832C834A895B89C416D50609F0B5CF28
:103050005FEF451A550A8A819B81880D991D9B83D4
:103060008A83AE85BF854A165B0609F09BCFEE8149
:10307000FF81E615F70509F4F4C0EA8DFB8DA08108
:10308000B181F981F13079F4B5016B5F7F4F5096D2
:10309000ED91FC915197830128E030E0A1018A8DE8
:1030A0009B8D1995DEC06A857B85681979091E9606
:1030B000ED91FC911F9773010C851D859401A10171
:1030C0008A8D9B8D1995CDC0F9013496E491DE1A55
:1030D000F901329685919491B7E0DB9E800D911DA8
:1030E0001124F901259134913B8B2A8BFC01259108
:1030F00034912901FC013296C490319634913E8777
:10310000329614913196D4904981423058F0612E14
:10311000012E000C77088D2D0D2C000C990B998732
:10312000888704C019861886612C712CAA8DBB8DE6
:10313000ED91FC9111970284F385E02DCD01199555
:10314000B9818B2E912C689CC001699C900D789C54
:10315000900D1124FC01EA0DFB1DFD87EC871A82FE
:10316000712C612CE12F110FFF0B95012E0F3F1FCA
:103170003B872A87AC0CB11CA5014E0F5F1F5F8BEC
:103180004E8BC1018D0D911DD7FC9A95998F888F1B
:103190009E85691608F065C0862D90E048855985A2
:1031A000480F591F489D9001499D300D589D300D85
:1031B0001124D101A20FB31FB98BA88BEC85FD851B
:1031C000FD83EC83AA84BB84DA80FA85DF1A288D1C
:1031D000398D280F391F3D8B2C8B8D2D8A0D4E89F3
:1031E0005F89A416B506C1F1877041F4C20101964A
:1031F000EA89FB89E40DF51D74902C0177FE21C04E
:10320000AA8DBB8DED91FC91B981B13061F404843C
:10321000F585E02D2E813F814C895D89B5018A8D30
:103220009B8D19950EC00684F785E02DEE80FF80FA
:1032300084019401488959896C817D818A8D9B8D97
:103240001995770CEFEFAE1ABE0A2C813D81280D3F
:10325000391D3D832C83C1CF3A813C0D3A83639461
:1032600097CFAA8DBB8DED91FC9111970688F789B8
:10327000E02DCD016B960FB6F894DEBF0FBECDBF2B
:10328000DF91CF911F910F91FF90EF90DF90CF9042
:10329000BF90AF909F908F907F906F905F904F9076
:1032A0003F902F9019946B960FB6F894DEBF0FBE27
:1032B000CDBFDF91CF911F910F91FF90EF90DF90E5
:1032C000CF90BF90AF909F908F907F906F905F90C6
:1032D0004F903F902F900895CF92DF92EF92FF9200
:1032E0000F931F93CF93DF936C017A018B01C0E0A2
:1032F000D0E0CE15DF0581F0D8016D918D01D601AA
:10330000ED91FC910190F081E02DC6011995892B7A
:1033100011F02196EECF7E01C701DF91CF911F9171
:103320000F91FF90EF90DF90CF900895682F84E485
:1033300097E00C947C0DFC01A089B1898C91A68941
:10334000B78982FD0FC09C91818D8F5F8F73228D15
:10335000821749F0218DDF01A20FB11D5D969C936C
:10336000818F08958C9108958F929F92AF92BF9212
:10337000EF92FF920F931F93CF93DF93CDB7DEB7FA
:10338000A1970FB6F894DEBF0FBECDBF7C01FA0146
:10339000CB0119A2223008F42AE08E010F5D1F4FE5
:1033A000822E912CA12CB12CBF01A50194010E9469
:1033B0001A26F901CA01015011096A3014F4605D3E
:1033C00001C0695CD8016C93232B242B252B61F75A
:1033D0000115110591F0F80101900020E9F73197EE
:1033E000AF01401B510BD701ED91FC910280F3819D
:1033F000E02DB801C701199502C080E090E0A196C8
:103400000FB6F894DEBF0FBECDBFDF91CF911F91F5
:103410000F91FF90EF90BF90AF909F908F90089585
:10342000EF92FF920F931F93CF93DF938C017B0159
:10343000C0E0D0E0F701EC0FFD1F6491662361F05E
:10344000D801ED91FC910190F081E02DC801199512
:10345000892B11F02196EECFCE01DF91CF911F91F4
:103460000F91FF90EF9008958F929F92AF92BF922D
:10347000CF92DF92EF92FF920F931F93CF93DF9340
:10348000EC01A72EB52E4901E1E4DE2ED60EF1E4C3
:10349000CF2EC40E89E078136CC058136EC0232B56
:1034A00091F4EE24E394F12C00E110E02CE030E004
:1034B00046E250E069E070E0CE010E9446101B8AAF
:1034C0001A8A198A188A8AE090E09D878C8787E299
:1034D00090E09F878E876D2DCE010E940F1181E0B5
:1034E00090E09B8B8A8B998B888B8A94892891F4A6
:1034F000EE24E394F12C00E110E028E130E046E214
:1035000050E065E170E0CE010E9446101B8A1A8AE5
:10351000198A188A86E190E09D878C8707E210E07F
:103520001F870E876AE070E0CE0184DC81E090E0C6
:103530009B8B8A8B998B888B88E290E09D878C8708
:103540001F870E876AE478E0CE016ADF82E590E0AB
:103550009D878C871F870E876C2DCE010E940F11CF
:103560008EE590E09D878C871F870E876AE070E06C
:1035700047C188E0871708F06BC088E08B1508F416
:10358000D1C08114910491F4EE24E394F12C00E174
:1035900010E02CE030E046E250E06FE070E0CE0159
:1035A0000E9446101B8A1A8A198A188A80E190E0C4
:1035B0009D878C8787E290E09F878E876D2DCE0157
:1035C0000E940F1181E090E09B8B8A8B998B888BF6
:1035D0008A94892891F4EE24E394F12C00E110E020
:1035E00028E130E046E250E06BE170E0CE010E945D
:1035F00046101B8A1A8A198A188A8CE190E09D87E6
:103600008C8707E210E01F870E876A2D70E06F5FDE
:103610007F4FCE010FDC81E090E09B8B8A8B998BF2
:10362000888B8EE290E09D878C871F870E8765E4EC
:1036300078E0CE01F5DE88E590E09D878C871F87D6
:103640000E876C2DCE010E940F1184E690E0D0C051
:1036500088E0851708F066C0232B91F4EE24E394EC
:10366000F12C00E110E02CE030E046E250E06FE0A9
:1036700070E0CE010E9446101B8A1A8A198A188AA5
:1036800080E190E09D878C8787E290E09F878E871E
:103690006D2DCE010E940F1181E090E09B8B8A8BF3
:1036A000998B888B8A94892891F4EE24E394F12CE9
:1036B00000E110E02CE030E046E250E06BE170E029
:1036C000CE010E9446101B8A1A8A198A188A8CE138
:1036D00090E09D878C8707E210E01F870E876A2D98
:1036E00070E06F5F7F4FCE01A5DB81E090E09B8BA8
:1036F0008A8B998B888B82E290E09D878C871F87CD
:103700000E8760E478E0CE018BDE8CE490E09D874C
:103710008C871F870E876C2DCE010E940F1188E5C4
:1037200090E066C08114910491F4EE24E394F12CAE
:1037300000E110E02CE030E046E250E065E170E0AE
:10374000CE010E9446101B8A1A8A198A188A86E1BD
:1037500090E09D878C8787E290E09F878E876D2D14
:10376000CE010E940F1181E090E09B8B8A8B998B98
:10377000888B8A94892891F4EE24E394F12C00E15B
:1037800010E02CE030E046E250E061E270E0CE0173
:103790000E9446101B8A1A8A198A188A82E290E0CF
:1037A0009D878C8707E210E01F870E876A2D70E0E7
:1037B0006F5F7F4FCE013EDB81E090E09B8B8A8B79
:1037C000998B888B88E290E09D878C871F870E8776
:1037D0006BE378E0CE0124DE82E590E09D878C8764
:1037E0001F870E876C2DCE010E940F118EE590E091
:1037F0009D878C871F870E876B2D70E06F5F7F4FD3
:10380000CE01DF91CF911F910F91FF90EF90DF904C
:10381000CF90BF90AF909F908F900CCBCF93DF93C2
:10382000CDB7DEB768970FB6F894DEBF0FBECDBF39
:10383000789484B5826084BD84B5816084BD85B58B
:10384000826085BD85B5816085BD80916E00816097
:1038500080936E001092810080918100826080933D
:10386000810080918100816080938100809180003F
:103870008160809380008091B10084608093B1006A
:103880008091B00081608093B0008091910082604F
:10389000809391008091910081608093910080914C
:1038A00090008160809390008091A100826080935D
:1038B000A1008091A10081608093A1008091A0006F
:1038C00081608093A000809121018260809321011A
:1038D000809121018160809321018091200181608C
:1038E0008093200180917A00846080937A00809197
:1038F0007A00826080937A0080917A008160809360
:103900007A0080917A00806880937A001092C100DA
:1039100040E855E260E070E08BE199E015DA40E0C4
:1039200052EC61E070E08EE798E00EDA40E052EC95
:1039300061E070E081EE97E007DA40E056E960E090
:1039400070E084E497E000DA0E9496098C0190937D
:1039500082068093810682E0D8015B968C935B9708
:103960008CE35A968C935A975C968C915C978F3F18
:1039700009F4C3C061E05E968C910E94811361E0FE
:10398000F80180A10E948113D80190968C919097A4
:10399000082E000C990BFC01EE57FE4FE491F0E06D
:1039A000EE0FFF1FE859FE4F25913491F80137A320
:1039B00026A3FC01EE5DFE4FE4919C96EC939C9750
:1039C0005E968C915E97082E000C990BFC01EE57C9
:1039D000FE4FE491F0E0EE0FFF1FE859FE4F2591F6
:1039E0003491F80131A720A7FC01EE5DFE4FE49170
:1039F0009D96EC939D9791968C919197811140C0E3
:103A000061E05C968C910E94811361E0F801858DE4
:103A10000E948113D8015D968C915D97082E000C51
:103A2000990BFC01EE57FE4FE491F0E0EE0FFF1F03
:103A3000E859FE4F25913491F80135A324A3FC01E8
:103A4000EE5DFE4FE4919B96EC939B975C968C9178
:103A50005C97082E000C990BFC01EE57FE4FE49189
:103A6000F0E0EE0FFF1FE859FE4F25913491F80169
:103A700033A322A3FC01EE5DFE4FE4919A96EC93F2
:103A8000F80181A1882309F46BC0FFB6F8948091F6
:103A90007C06811127C0E7EBF1E08491E7E5F1E0D6
:103AA0009491E82FF0E0EE0FFF1FE85FFE4FA59125
:103AB000B491EC91E92321F461E085E30E94531372
:103AC00061E085E30E9481138CB580618CBD8CB56B
:103AD00080648CBD61E084E30E94811361E083E334
:103AE0000E94811380917C068F5F80937C06FFBECD
:103AF00080E58CBD81E08DBD33C010927B061092B5
:103B00007A06109221071092430710921F0781E056
:103B100080931E071092F90661E084E10E9453131E
:103B200061E085E10E9453138091B9008E7F8093FC
:103B3000B9008091B9008D7F8093B90088E48093AB
:103B4000B80085E48093BC008FEB9EE090937906EB
:103B50008093780680EC9EE09093770680937606BB
:103B6000D8015F968C9187FD1FC061E00E94811390
:103B700061E0F801878D0E94531361E070E080E0FE
:103B800090E00E94BD1360E0D8015F968C910E9486
:103B900053136AE070E080E090E00E94BD1361E0A2
:103BA000F801878D0E9453136EEAC8010E948208B3
:103BB00065EDC8010E94820860E8C8010E94820881
:103BC00068EAC8010E9482086FE3C8010E94820867
:103BD00063EDC8010E94820860E0C8010E9482086B
:103BE00060E4C8010E9482086DE8C8010E94820852
:103BF00064E1C8010E94820860E2C8010E94820854
:103C000060E0C8010E94820861EAC8010E9482083F
:103C100068ECC8010E9482086AEDC8010E9482080F
:103C200062E1C8010E94820861E8C8010E9482081E
:103C30006FECC8010E94820869EDC8010E948208E9
:103C400061EFC8010E9482086BEDC8010E948208E2
:103C500060E4C8010E94820864EAC8010E948208E8
:103C600066EAC8010E9482086EE2C8010E948208CA
:103C70006FEAC8010E948208C0908106D090820637
:103C800063E0C60155D8B12C6B2D70E0D6011A96B1
:103C90000D911C911B97C80117FD0196959587956D
:103CA0006817790724F5CB01880F991F081B190B9A
:103CB000F60120853185281B390BEE24E394F12C85
:103CC000AB01C6010E944610C6010E94051662E3C0
:103CD00070E080E090E00E94BD131FD862E370E0C6
:103CE00080E090E00E94BD13F3E0BF0ECDCF8CE0EA
:103CF00090E0D6011D969C938E931C9786E090E0F1
:103D00001F969C938E931E976DEC71E0C60188DB25
:103D10008EE190E0F6019587848727E2E22EF12C70
:103D2000F786E68668EC71E0C6017ADBC6010E9480
:103D3000051660ED77E080E090E00E94BD130E94E0
:103D4000BF0C0E94E60C9093800680937F06009142
:103D500081061091820662E0C8010E94981636E141
:103D6000C32ED12CD8011D96DC92CE921C978EE0EA
:103D700090E01F969C938E931E976CED71E0C801A6
:103D80004FDBF801D586C486F786E68664ED71E0E0
:103D9000C80146DBC8010E9405160E94F5136B019D
:103DA0007C0110E0F8EECF0EF3E0DF1EE11CF11C09
:103DB0001F3109F43DC50E94F5136C157D058E0574
:103DC0009F05B0F31F5F0E94F5136B017C0184E433
:103DD00097E00E942A0D892B29F384E497E00E9442
:103DE000080D81359105F1F68EE798E00E942A0DC5
:103DF000181619062CF48EE798E00E94080DF4CFEF
:103E000083E490E093DA009181061091820662E0EB
:103E1000C8010E94981686E190E0D8011D969C93F7
:103E20008E931C978EE090E01F969C938E931E9726
:103E30006CEF71E0C801F4DA82E190E0F801958757
:103E4000848787E290E09787868763EF71E0C801F7
:103E5000E7DAC8010E94051680917D0690917E06E2
:103E6000892B09F09AC089EC91E0C3D58C01FC0143
:103E7000E253FF4F10861182108285E08283838394
:103E80001482158284E0868317823996108621E099
:103E900030E031832083828383831482158283E020
:103EA000868317823996108622E030E031832083A2
:103EB000828383831482158292E0968317823996D7
:103EC000108623E030E03183208382838383148251
:103ED0001582968317823996108624E030E031836C
:103EE0002083928393831482158281E086831782D4
:103EF0007801A8012AE064E070E080E090E0FA0137
:103F0000E80FF91F77836683029684319105B9F72C
:103F100021504C5E5F4F2111F0CF0E949609F801AD
:103F2000E550FF4F918380830E94BF0CF801E3505E
:103F3000FF4F918380832AE044E050E080E090E0EE
:103F4000FC01E150FF4FEE0DFF1D518340830296AF
:103F500084319105A9F72150F4E1EF0EF11C2111F4
:103F6000EDCF0E949609D8018D939C930E94BF0CBF
:103F7000F801938382830E94E60CD80115969C93E6
:103F80008E931497F801E953FE4F85E080833196B4
:103F9000808310937E0600937D06A0907D06B090EE
:103FA0007E06B0928406A09283066501B6E0CB0E31
:103FB000D11CF501E550FF4F0081118162E0C8017D
:103FC0000E94981684E090E0F801958784878EE03F
:103FD00090E0978786876AE072E0C80121DA85E27F
:103FE00090E0D8011D969C938E931C9787E290E0F9
:103FF0001F969C938E931E9764E072E0C80110DABE
:10400000C8010E9405166CED75E080E090E00E940A
:10401000BD1300E010E0B9E05B2E8AE0482E93E08B
:10402000892E912C509E7001519EF00C1124B8ECF9
:10403000EB0EF11CEC0CFD1C40E050E0B701C6019A
:104040000E94FC0A81309105B9F3059719F441E00B
:1040500050E0F4CF509EF001519EF00D1124EA0D76
:10406000FB1DE253FF4FDE011A96852D01900D9244
:104070008A95E1F7F12C8C85F816C8F46F2DCE01E6
:104080000A960E94E608AC0199E0FE013A96DE012C
:10409000119601900D929A95E1F7BE016F5F7F4FE7
:1040A000C6010E9414098823A1F0F394E4CF509E26
:1040B000F001519EF00D1124EA0DFB1DE253FF4F5C
:1040C000DE011196852D01900D928A95E1F7F12C74
:1040D00003C00150110921C08B81F816F0F46F2D37
:1040E000CE0101960E94E608489EF0011124E90FD6
:1040F000F11DEE0FFF1FEA0DFB1D97828682AC01BA
:1041000063E070E0C6010E94F00864E170E080E0C6
:1041100090E00E94BD13F394DFCF0F5F1F4F053077
:1041200011050CF47FCF80918506009183061091D4
:10413000840680FD17C2F801E080F18062E0C701CB
:104140000E94981659E2C52ED12CD7011D96DC92FB
:10415000CE921C97EEE0F0E01F96FC93EE931E9734
:104160006AE172E0C7015CD9D7011D96DC92CE925C
:104170001C97E7E2F0E01F96FC93EE931E9765E133
:1041800072E0C7014DD9C7010E9405166EEE72E0BC
:1041900080E090E00E94BD131801FFEF2F0E311C4C
:1041A00040E050E063E070E0C1010E94C2086FE0AF
:1041B00070E080E090E00E94BD13812C912C66E0BD
:1041C000C62ED12C7AE0B72ED801ED90FC9062E09B
:1041D000C7010E9498162CE130E0F701358724874B
:1041E0008EE090E0978786876FE172E0C70118D96B
:1041F000E4E3F0E0D7011D96FC93EE931C9727E2D1
:1042000030E01F963C932E931E9761E4690DC70121
:104210000E940F11E1E0F0E0D7015396FC93EE937A
:1042200052975196FC93EE93509720E430E01D9600
:104230003C932E931C9787E290E01F969C938E935D
:104240001E97A82DB0E0BE8BAD8BBD016F5F7F4F79
:10425000C7010E941A1721E030E0F701338B228B4F
:10426000318B208BC7010E940516B601D80112962A
:104270008D919C9113970E94290A6C01069709F46D
:10428000A3CFE92DF0E0F88FEF8BED89FE89B99C83
:10429000E00DF11D1124EE0FFF1FE20DF31D6081F3
:1042A0007181492D582DC1010E94C2086FE070E054
:1042B00080E090E00E94BD13F2E0CF16D10461F4DB
:1042C000D801ED90FC9095E0592E28E0A22EB12C5B
:1042D00032E1C32ED12C22C0C114D10429F4B8E09C
:1042E000B91558F093940CC0E4E0CE16D10441F413
:1042F000F8E0F81520F0839403C0912C01C0812CC4
:10430000492D582D63E070E0C1010E94C2086FE0A2
:1043100070E080E090E00E94BD1356CF64E0C701DA
:104320000E949816D7011D96BC92AE921C971F96BC
:10433000DC92CE921E9766E272E0C70171D8C70187
:104340000E94051668EC70E080E090E00E94BD13CA
:104350000E948D1668EC70E080E090E00E94BD1332
:10436000C7010E94051668EC70E080E090E00E94B2
:10437000BD130E948D1668EC70E080E090E00E9412
:10438000BD135A945110CACFF801E080F180A5E026
:104390005A2EB4E0AB2EB12C88E1C82ED12C62E0AD
:1043A000C7010E949816D7011D96BC92AE921C9729
:1043B0001F96DC92CE921E976CE272E0C70130D855
:1043C000C7010E9405165A945110E9CF0E94F513B7
:1043D0006B017C01B12CAA24AA94A90C55245A94EF
:1043E000580CB8EBCB0EBBE0DB1EE11CF11CEBE084
:1043F000BE16A1F10E94F5136C157D058E059F0573
:10440000B0F3B3940E94F5136B017C016A2D84E430
:1044100097E00E947C0D652D84E497E00E947C0D5E
:10442000FAE04F2E84E497E00E94080D8D9761F426
:1044300084E497E00E942A0D181619067CF484E49F
:1044400097E00E94080DF4CF68EC70E080E090E007
:104450000E94BD134A944110E5CFC3CF0E94F513CB
:104460005B016C01512C76016501F8EECF0EF3E093
:10447000DF1EE11CF11C2FE1521609F44EC00E9410
:10448000F5136C157D058E059F05A8F353940E94C6
:10449000F5135B016C0184E497E00E942A0D892BDF
:1044A00011F384E497E00E94080D7C0184E497E016
:1044B0000E942A0D181619062CF484E497E00E9435
:1044C000080DF4CF8DE290E00E949619FF2432E0AF
:1044D000E316F104C1F054F4E114F104E1F0EA94BC
:1044E000EF2809F666246394712C17C0A3E0EA163E
:1044F000F10469F0B4E0EB16F10409F0B4CF54E034
:10450000652E712C0AC072E0672E712C06C063E024
:10451000662E712C02C0612C712CB301C8010E945F
:10452000D3098AE02F89388D829FF001839FF00D97
:1045300011248D899E89E80FF91FEE0FFF1FE20DF0
:10454000F31D71826082492D582DB301C1010E9473
:10455000C20891E06916710409F0F5C0F801E8534A
:10456000FE4FEEC0D801ED90FC9062E0C7010E94C2
:10457000981623E230E0F701358724878EE090E03B
:10458000978786876CE372E0C7010E94101A89E260
:1045900090E0D7011D969C938E931C97E7E2F0E084
:1045A0001F96FC93EE931E9767E372E0C7010E948B
:1045B000101AC7010E9405166EEE72E080E090E0CE
:1045C0000E94BD130E94F5136B017C01B12CF8EE23
:1045D000CF0EF3E0DF1EE11CF11C2FE1B21661F1FA
:1045E0000E94F5136C157D058E059F05B0F3B394FD
:1045F0000E94F5136B017C0184E497E00E942A0D70
:1046000002972CF384E497E00E94080D8C8B84E4DD
:1046100097E00E94080D8B8B84E497E00E942A0D9E
:10462000181619062CF484E497E00E94080DF4CFC4
:104630008DE290E00E949619680136E0C30ED11C0D
:10464000F801E253FF4FC80185509F4F8E179F0717
:10465000D9F02481AC89A21708F41EC126812A173B
:1046600008F41AC12581BB89B21708F415C1278146
:104670002B1708F411C191E080E02381213009F06B
:1046800090E0E92EF82E03C032E0E32EF12C0E94D8
:10469000F5134B015C01512CE8EB8E0EEBE09E1EF6
:1046A000A11CB11CFBE05F1669F10E94F5136815AF
:1046B00079058A059B05B0F353940E94F5134B01CD
:1046C0005C01C7010E9496192AE0422E84E497E01B
:1046D0000E94080D8D9761F484E497E00E942A0DF2
:1046E000181619067CF484E497E00E94080DF4CFB4
:1046F00068EC70E080E090E00E94BD134A944110A5
:10470000E5CFCACFB701C8010E94D3093C892AE08E
:10471000329FF00111248B89E80FF11DEE0FFF1F6E
:10472000E00FF11FF782E682432F582FB701C60131
:104730000E94F008EA94EF2831F4F801E953FE4FA3
:1047400080818150808380918506909186060196B4
:1047500090938606809385068091830690918406C7
:10476000FC01E953FE4F2081222389F1319680819B
:1047700081115BC0009181061091820663E0C8013F
:104780000E94981686E2E82EF12CD8011D96FC9224
:10479000EE921C9786E090E01F969C938E931E9756
:1047A00066E472E0C8010E94101AF801F586E486FA
:1047B00087E290E09787868762E472E0C8010E94F2
:1047C000101AC8010E9405168AE090E02DC00091E1
:1047D00081061091820663E0C8010E94981686E265
:1047E00090E0D8011D969C938E931C9786E090E0F4
:1047F0001F969C938E931E976FE472E0C8010E94EF
:10480000101A8CE190E0F8019587848787E290E0A8
:10481000978786876AE472E0C8010E94101AC8016F
:104820000E94051684E190E033D20E94E90D7BCC12
:10483000009181061091820662E0C8010E949816DC
:1048400086E190E0D8011D969C938E931C978EE094
:1048500090E01F969C938E931E976BEE71E0C801BB
:104860000E94101A8CE190E0F8019587848787E216
:1048700090E09787868764EE71E0C8010E94101A65
:10488000C8010E94051668EE73E080E090E00E9487
:10489000BD1384E991E0C8CF3996D8CEE4E4F7E0BF
:1048A0001382128288EE93E0A0E0B0E084839583C7
:1048B000A683B78326E436E03183208345E351E0C5
:1048C0005587448744E351E05787468740E351E0EA
:1048D000518B408B41E351E0538B428B42E351E0DB
:1048E000558B448B46E351E0578B468B118E128ECD
:1048F000138E148EE1EEF7E0138212828483958387
:10490000A683B7833183208345ED50E055874487E4
:1049100044ED50E05787468740ED50E0518B408B87
:1049200041ED50E0538B428B42ED50E0558B448B70
:1049300046ED50E0578B468B118E128E138E148EDF
:10494000EEE7F8E01382128284839583A683B7830F
:10495000318320834DEC50E0558744874CEC50E088
:104960005787468748EC50E0518B408B49EC50E02C
:10497000538B428B4AEC50E0558B448B4EEC50E00D
:10498000578B468B118E128E138E148EEBE1F9E04D
:104990001382128284839583A683B7833183208315
:1049A00025EC30E03587248724EC30E037872687F4
:1049B00020EC30E0318B208B21EC30E0338B228BEC
:1049C00022EC30E0358B248B26EC30E0378B268BC5
:1049D000118E128E138E148EE8EBF9E01382128280
:1049E00084839583A683B78384E696E0918380834E
:1049F00008950F931F93CF93DF938230910510F4A6
:104A000082E090E0E091C609F091C70920E030E033
:104A1000A0E0B0E0309719F140815181028113810B
:104A200048175907C8F08417950769F4109731F0B3
:104A300012960C93129713961C9327C00093C609E5
:104A40001093C70922C02115310519F042175307E9
:104A500018F49A01BD01EF01DF01F801DBCF211548
:104A60003105F9F0281B390B2430310580F48A8197
:104A70009B816115710521F0FB019383828304C042
:104A80009093C7098093C609FE01329644C0FE0187
:104A9000E20FF31F819391932250310939832883C8
:104AA0003AC02091C4093091C509232B41F42091CB
:104AB0000206309103063093C5092093C409209162
:104AC0000006309101062115310541F42DB73EB79E
:104AD0004091040650910506241B350BE091C40952
:104AE000F091C509E217F307A0F42E1B3F0B28171E
:104AF000390778F0AC014E5F5F4F2417350748F057
:104B00004E0F5F1F5093C5094093C4098193919341
:104B100002C0E0E0F0E0CF01DF91CF911F910F9153
:104B20000895CF93DF93009709F481C0FC01329779
:104B300013821282A091C609B091C709109781F41F
:104B400020813181820F931F2091C4093091C509C2
:104B50002817390751F5F093C509E093C40967C0D8
:104B6000ED0120E030E0CE17DF0740F44A815B81A1
:104B70009E0141155105F1F0EA01F5CFD383C283BF
:104B800040815181840F951FC817D90759F4888136
:104B90009981840F951F0296918380838A819B81DE
:104BA000938382832115310529F4F093C709E0939B
:104BB000C6093DC0E901FB83EA8349915991C40FBD
:104BC000D51FEC17FD0761F480819181840F951F3B
:104BD0000296E90199838883828193819B838A83EA
:104BE000E0E0F0E012968D919C911397009719F0F8
:104BF000FD01DC01F7CF8D919C9111979D012E5FF6
:104C00003F4F820F931F2091C4093091C509281787
:104C1000390769F4309729F41092C7091092C60930
:104C200002C013821282B093C509A093C409DF9118
:104C3000CF910895A1E21A2EAA1BBB1BFD010DC046
:104C4000AA1FBB1FEE1FFF1FA217B307E407F5073C
:104C500020F0A21BB30BE40BF50B661F771F881F18
:104C6000991F1A9469F760957095809590959B01AE
:104C7000AC01BD01CF010895EE0FFF1F881F8BBF50
:104C80000790F691E02D199481E090E0F89400C02F
:044C9000F894FFCFC6
:104C94000000000000000000000000000000000010
:104CA4000000000000000000000000000000000000
:104CB40000000000000000000000000000000000F0
:104CC4000000000000000000000000000000008060
:104CD40080800000000000000000000000000000D0
:104CE400008080C0C0000000000000000000000040
:104CF40000000000000000000000000000000000B0
:104D0400000000000000000000000000000000009F
:104D1400000000000000000000000000000000008F
:104D24000000000080C0E0F0F8FCF8E000000000A3
:104D340000000000000000000000000000808080EF
:104D4400808000808000000000808080808000FFE0
:104D5400FFFF000000008080808000008080000051
:104D640080FFFF80800080800080808080008080C1
:104D74000000000000808000008C8E84000080F819
:104D8400F8F88000000000000000000000000000AF
:104D9400F0F0F0F0F0F0F0F0F0F0F0F0E0E0C080CF
:104DA40000E0FCFEFFFFFF7FFFFFFFFFFF000000AE
:104DB4000000000000000000000000FEFFC7010129
:104DC400010183FFFF00007CFEC70101010183FF95
:104DD400FFFF0038FEC78301010183C7FFFF000006
:104DE40001FFFF010100FFFF0701010100007FFF38
:104DF40080000000FFFF7F0000FFFFFF000001FFB5
:104E0400FFFF01000000000000000000000000009F
:104E1400030F3F7F7FFFFFFFFFFFFFFFE7C7C78F42
:104E24008F9FBFFFFFC3C0F0FFFFFFFFFFFCFCFC31
:104E3400FCFCFCFCFCF8F8F0F0E0C0000103030308
:104E44000303010303000000000103030303010142
:104E54000301000000010303030301010303000035
:104E64000003030000000303000000000000000131
:104E74000303030303010000000103010000000316
:104E8400030100000000000000000000000000001A
:104E940000000080C0E0F0F9FFFFFFFFFF3F1F0F9D
:104EA40087C7F7FFFF1F1F3DFCF8F8F8F87C7DFF6C
:104EB400FFFFFFFFFFFFFF7F3F0F070030300000C1
:104EC40000000000000000000000000000000000DE
:104ED40000000000FEFEFC000000000000000000D6
:104EE40000000000000000000000000000E0C0001E
:104EF400000000000000000000003030000000004E
:104F0400000000000000000000000000000000009D
:104F140000C0FEFFFFFFFFFFFFFFFFFF7F7F3F1F7C
:104F24000F071F7FFFFFF8F8FFFFFFFFFFFEF8E00A
:104F3400000000010000000000000000FEFE000070
:104F440000FCFEFC0C06060EFCF80000F0F81C0E3B
:104F54000606060CFFFFFF0000FEFE00000000FC3A
:104F6400FEFC00183C7E66E6CE84000006FFFF06C9
:104F740006FCFEFC0C0606060000FEFE0000C0F85F
:104F8400FC4E4646464E7C7840183C76E6CECC80B5
:104F9400000000000000000000000000000000000D
:104FA4000000000001070F1F1F3F3F3F3F1F0F037B
:104FB4000000000000000000000000000F0F0000CF
:104FC400000F0F0F000000000F0F000003070E0C6E
:104FD40018180C060F0F0F0000010F0E0C180C0F01
:104FE400070100040E0C180C0F070000000F0F003F
:104FF400000F0F0F0000000000000F0F000000075B
:10500400070C0C181C0C060600040E0C180C0F07D9
:10501400000000000000000000000000000000008C
:10502400000000000000000000000000000000007C
:10503400000000000000000000000000000000006C
:10504400000000000000000000000000000000005C
:10505400000000000000000000000000000000004C
:10506400000000000000000000000000000000003C
:10507400000000000000000000000000000000002C
:10508400000000000000000000000000000000001C
:105094000000C8098000000000000F116C197F088F
:1050A4007E08E007C10E7304FD1067045B047A04F4
:1050B400C10E480F470F2B05850646102910BC0F5B
:1050C4005D0F000103070F1F3F7F0080C0E0F0F871
:1050D400FCFE000000007C0D6C19F90CC80D2A0DB3
:1050E400080D1C0D000000000D116C197F087E08CE
:1050F40000000000190FED0E7F08C10EE50ED10E61
:06510400C20E0D0A0000BE
:00000001FF
