:100000000C94DD020C9405030C9405030C94050379
:100010000C9405030C9405030C9405030C94050340
:100020000C9405030C9405030C9405030C94050330
:100030000C9405030C9405030C9405030C94050320
:100040000C94AA0B0C9405030C94C10D0C949B0DFD
:100050000C9405030C9405030C9405030C94050300
:100060000C94F40B0C94050300000008000201003E
:100070000003040700000000000000000000000072
:10008000003E5B4F5B3E3E6B4F6B3E1C3E7C3E1C1E
:10009000183C7E3C181C577D571C1C5E7F5E1C0064
:1000A000183C1800FFE7C3E7FF0018241800FFE71B
:1000B000DBE7FF30483A060E2629792926407F05DE
:1000C0000507407F05253F5A3CE73C5A7F3E1C1CF4
:1000D00008081C1C3E7F14227F22145F5F005F5FB4
:1000E00006097F017F006689956A606060606094A0
:1000F000A2FFA29408047E040810207E20100808A5
:100100002A1C08081C2A08081E101010100C1E0CAF
:100110001E0C30383E3830060E3E0E060000000041
:100120000000005F00000007000700147F147F1428
:10013000242A7F2A1223130864623649562050006D
:1001400008070300001C2241000041221C002A1C59
:100150007F1C2A08083E0808008070300008080844
:100160000808000060600020100804023E51494564
:100170003E00427F400072494949462141494D3382
:100180001814127F1027454545393C4A49493141E9
:10019000211109073649494936464949291E0000B7
:1001A000140000004034000000081422411414140C
:1001B0001414004122140802015909063E415D59F8
:1001C0004E7C1211127C7F494949363E4141412201
:1001D0007F4141413E7F494949417F090909013E2B
:1001E000414151737F0808087F00417F4100204052
:1001F000413F017F081422417F404040407F021C64
:10020000027F7F0408107F3E4141413E7F0909097A
:10021000063E4151215E7F09192946264949493246
:1002200003017F01033F4040403F1F2040201F3F0C
:100230004038403F63140814630304780403615991
:10024000494D43007F4141410204081020004141D3
:10025000417F04020102044040404040000307087F
:100260000020545478407F2844443838444444287B
:10027000384444287F385454541800087E09021822
:10028000A4A49C787F0804047800447D40002040AA
:10029000403D007F1028440000417F40007C0478EE
:1002A00004787C080404783844444438FC18242436
:1002B0001818242418FC7C080404084854545424B6
:1002C00004043F44243C4040207C1C2040201C3C33
:1002D0004030403C44281028444C9090907C44642A
:1002E000544C4400083641000000770000004136BD
:1002F000080002010204023C2623263C1EA1A16143
:10030000123A4040207A3854545559215555794174
:100310002254547842215554784020545579400C49
:100320001E5272123955555559395454545939552C
:100330005454580000457C410002457D420001456F
:100340007C407D1211127DF0282528F07C54554503
:10035000002054547C547C0A097F4932494949326F
:100360003A4444443A324A4848303A4141217A3A80
:1003700042402078009DA0A07D3D4242423D3D404C
:1003800040403D3C24FF2424487E4943662B2FFCFB
:100390002F2BFF0929F620C0887E090320545479A9
:1003A000410000447D413048484A32384040227A7A
:1003B000007A0A0A727D0D19317D2629292F2826F7
:1003C0002929292630484D402038080808080808FF
:1003D0000808382F10C8ACBA2F102834FA00007B58
:1003E000000008142A142222142A1408550055006B
:1003F00055AA55AA55AAFF55FF55FF000000FF005A
:10040000101010FF00141414FF001010FF00FF1054
:1004100010F010F0141414FC001414F700FF000086
:10042000FF00FF1414F404FC141417101F10101F05
:10043000101F1414141F00101010F0000000001FF3
:10044000101010101F10101010F010000000FF10FE
:100450001010101010101010FF10000000FF1400FA
:1004600000FF00FF00001F10170000FC04F414142C
:100470001710171414F404F40000FF00F7141414F8
:1004800014141414F700F7141414171410101F1078
:100490001F141414F4141010F010F000001F101F9B
:1004A0000000001F14000000FC140000F010F01009
:1004B00010FF10FF141414FF141010101F00000080
:1004C00000F010FFFFFFFFFFF0F0F0F0F0FFFFFF84
:1004D0000000000000FFFF0F0F0F0F0F38444438DB
:1004E00044FC4A4A4A347E02020606027E027E022A
:1004F00063554941633844443C04407E201E200635
:10050000027E020299A5E7A5991C2A492A1C4C7271
:1005100001724C304A4D4D303048784830BC625AF8
:10052000463D3E494949007E0101017E2A2A2A2A88
:100530002A44445F444440514A444040444A514064
:100540000000FF0103E080FF000008086B6B083625
:1005500012362436060F090F060000181800000096
:100560001010003040FF0101001F01011E00191D85
:100570001712003C3C3C3C00000000000000000062
:10058000250028002B0000000000240027002A007E
:100590000404040404040404020202020202030329
:1005A0000303030301020408102040800102040831
:1005B0001020010204081020331611241FBECFEFB3
:1005C000D8E0DEBFCDBF25E0A2E9B3E001C01D92B7
:1005D000A337B207E1F713E0A0E0B1E0E0EBFDE202
:1005E00002C005900D92A239B107D9F712E0CDED06
:1005F000D2E004C02197FE010E94CB16CC3DD1076A
:10060000C9F70E9419120C94D6160C940000FC0134
:10061000538D448D252F30E0842F90E0821B930B67
:10062000541710F0CF96089501970895FC01918D0D
:10063000828D981761F0828DDF01A80FB11D5D9644
:100640008C91928D9F5F9F73928F90E008958FEFB2
:100650009FEF0895FC01918D828D981731F0828D66
:10066000E80FF11D858D90E008958FEF9FEF0895BD
:10067000FC01918D228D892F90E0805C9F4F821B21
:1006800091098F739927089580E090E0892B29F0D4
:100690000E94220D81110C94000008953FB7F89438
:1006A0008091FA039091FB03A091FC03B091FD03AC
:1006B00026B5A89B05C02F3F19F00196A11DB11DBD
:1006C0003FBFBA2FA92F982F8827820F911DA11DF8
:1006D000B11DBC01CD0142E0660F771F881F991F35
:1006E0004A95D1F7089585ED8093BC008091BC00B8
:1006F00084FDFCCF10922F0408954091D203262F41
:1007000030E0240F311D21323105DCF420912F041B
:100710002430C9F4FC0180E090E0861758F4309151
:10072000D2032191DC01AE54BC4FA30FB11D2C9319
:100730000196F3CF8091D203680F6093D20380E0DB
:10074000089581E0089582E0089508950895089538
:10075000E091030480910204E81730F4F0E0EE56D3
:10076000FC4F808190E008958FEF9FEF0895909166
:10077000030480910204981750F4E92FF0E0EE563C
:10078000FC4F208130E09F5F9093030402C02FEF65
:100790003FEFC90108958091020490E02091030485
:1007A000821B91090895CF92DF92EF92FF920F93EF
:1007B0001F93CF93DF937C01CB018A0120913004FA
:1007C000222389F0EB016B01C40ED51ECC15DD058B
:1007D00069F06991D701ED91FC910190F081E02DD4
:1007E000C7010995F3CF642F0E947D03C801DF91F3
:1007F000CF911F910F91FF90EF90DF90CF900895D0
:10080000CF93DF931F92CDB7DEB769832091300479
:100810002223D1F020915204203240F021E030E038
:10082000FC013383228380E090E015C08091310485
:10083000E82FF0E0EE5CFB4F998190838F5F80930F
:1008400031048093520405C061E0CE0101960E94FC
:100850007D0381E090E00F90DF91CF91089508959E
:10086000FC016370658B84819581268137816130BD
:1008700039F0633029F09187808733872287089584
:10088000318720879387828708956F927F928F9216
:100890009F92AF92BF92CF92DF92EF92FF920F930F
:1008A0001F93CF93DF93EC014B015A01690138018B
:1008B000E881F9810284F385E02D0995E881F981C9
:1008C0000288F389E02D87019601A501B401CE01CC
:1008D0000995A501460D571D41505109E881F9813F
:1008E0000288F389E02D9601B401CE010995E881D3
:1008F000F9810088F189E02D9301A501B401CE01B1
:100900000995C80CD91CB60161507109E881F981BB
:100910000088F189E02D9301A501CE010995E881B8
:10092000F9810688F789E02DCE01DF91CF911F91E3
:100930000F91FF90EF90DF90CF90BF90AF909F907E
:100940008F907F906F9009948F929F92AF92BF92F9
:10095000CF92DF92EF92FF920F931F93CF93DF938B
:100960004C016B015A01E901DC01ED91FC91621728
:10097000730781F40417150724F48B2D5801042FF5
:10098000182F0A191B0998012F5F3F4F048CF58D12
:10099000E02D12C04017510709F52617370724F438
:1009A0008D2D6901C62FD82F9E012C193D092F5F6F
:1009B0003F4F068CF78DE02D8701A501B601C401DC
:1009C0000995DF91CF911F910F91FF90EF90DF90EC
:1009D000CF90BF90AF909F908F9008950284F38541
:1009E000E02D0995D401ED91FC910488F589E02D65
:1009F0009E01A501B601C4010995D401ED91FC91B8
:100A00000688F789E02DC401DF91CF911F910F91E6
:100A1000FF90EF90DF90CF90BF90AF909F908F901E
:100A20000994EF92FF920F931F93DC011A960D9198
:100A30001C911B9718962D913C911997ED91FC9163
:100A400000A0F1A1E02D7B0140E050E060E070E00B
:100A500009951F910F91FF90EF9008954F925F922B
:100A60006F927F928F929F92AF92BF92CF92DF92BE
:100A7000EF92FF920F931F93CF93DF936C012B01A3
:100A80005A0139014801DC01ED91FC910284F385A2
:100A9000E02D0995E201640C751CD601ED91FC91E5
:100AA000C615D7055CF40088F189E02D8701940113
:100AB000A501BE01C60109952196EFCF0688F789E9
:100AC000E02DC601DF91CF911F910F91FF90EF9024
:100AD000DF90CF90BF90AF909F908F907F906F905E
:100AE0005F904F9009948F929F92AF92BF92CF9256
:100AF000DF92EF92FF920F931F93CF93DF93EC015E
:100B00005B014A016901E881F9810284F385E02DE6
:100B1000099595012C0D3D1D21503109E881F98180
:100B20000488F589E02D78018401A401B501CE0186
:100B30000995E881F9810688F789E02DCE01DF91DA
:100B4000CF911F910F91FF90EF90DF90CF90BF90CA
:100B5000AF909F908F9009948F929F92AF92BF9287
:100B6000CF92DF92EF92FF920F931F93CF93DF9379
:100B7000EC015B014A0169017801E881F981028495
:100B8000F385E02D0995C80CD91C86010150110987
:100B9000E881F9810488F589E02D9501A401B5016A
:100BA000CE010995E881F9810688F789E02DCE010B
:100BB000DF91CF911F910F91FF90EF90DF90CF9039
:100BC000BF90AF909F908F900994EF92FF920F93F8
:100BD0001F93DC01ED91FC9100A0F1A1E02D09959E
:100BE0001F910F91FF90EF9008950F931F93DC01D9
:100BF000ED91FC91068CF78DE02D09951F910F91D9
:100C000008950F931F93DC01ED91FC91048CF58DF9
:100C1000E02D09951F910F910895DC01ED91FC9154
:100C20000084F185E02D09942F923F924F925F92BC
:100C30006F927F928F929F92AF92BF92CF92DF92EC
:100C4000EF92FF920F931F93CF93DF9300D000D0CA
:100C500000D0CDB7DEB72C017E836D836A015901C8
:100C6000C801FC82EB824801841A950A97FE03C0F2
:100C700091948194910835012D813E81621A730A05
:100C800077FE03C0719461947108681479045CF470
:100C90003A2D2B2D5C01832F922F3D812E81DE82F8
:100CA000CD82C32ED22EAD81BE81AA16BB065CF4C6
:100CB0003C2D2D2D6C01832F922F3D812E81BE82E4
:100CC000AD82A32EB22E85012D813E81021B130B16
:100CD0001C012C183D0837FE03C0319421943108C3
:100CE000780117FF03C03FEFE31AF30AF594E79486
:100CF000C816D9062CF08FEF9FEF9A83898304C022
:100D0000A1E0B0E0BA83A9832D813E81A216B3068B
:100D100024F1D201ED91FC910484F585E02D2B8125
:100D20003C816814790424F44D815E81B60103C0CE
:100D3000A6016D817E81C2010995E218F308F7FED4
:100D400006C029813A81C20ED31EE00EF11E8D81AC
:100D50009E8101969E838D83D7CF26960FB6F894F9
:100D6000DEBF0FBECDBFDF91CF911F910F91FF90DE
:100D7000EF90DF90CF90BF90AF909F908F907F903B
:100D80006F905F904F903F902F9008950F931F9317
:100D9000CF93DF93DC0155968C915597823071F09B
:100DA000833009F1813009F08CC01496ED91FC91EB
:100DB0001597E41BF50BE21BF30B20C01496ED9185
:100DC000FC911597CF01861B970BBC0161507109EF
:100DD0001696ED91FC911797CF01841B950BAC01F2
:100DE000421B530B6EC01696ED91FC911797CF01E5
:100DF000861B970BBC0161507109FA0177FD1BC17D
:100E000016968D919C911797681779070CF013C16E
:100E1000F7FF04C02E0F3F1FE0E0F0E014968D9125
:100E20009C911597AF01420F531F841795071CF42F
:100E30009C012E1B3F0B121613060CF0FCC0CB01BD
:100E400077FD079643E0959587954A95E1F7969546
:100E5000982F882797958795E80FF91FE050FF4F47
:100E60006770772781E090E001C0880F6A95EAF704
:100E7000482F0130110541F088F00230110509F0CA
:100E8000DAC02E0F3F1F15C02E0F3F1FE217F307CA
:100E900009F4D1C08081842B8193F8CF80952E0FE7
:100EA0003F1FE217F30709F4C6C09081982391937E
:100EB000F8CFE217F30709F4BEC08081842781933D
:100EC000F8CF77FDB8C014968D919C91159768174F
:100ED00079070CF0B0C057FF04C0240F351F40E065
:100EE00050E016968D919C911797FA01E20FF31F2F
:100EF0008E179F071CF49C01241B350B121613063A
:100F00000CF099C0A22F842F86958695869590E83F
:100F1000899F600D711D1124FB01E050FF4F477048
:100F2000A9F198E0941B492F50E0EA01C85FDC4F1B
:100F30008881291790F4421B51092FEF30E002C03D
:100F4000359527954A95E2F782230130110541F046
:100F500068F00230110589F06EC00130110519F4F6
:100F60002081822B0CC00130110520F48095208156
:100F7000822305C00230110531F42081822780834D
:100F8000A91708F458C0A91BE058FF4FA83048F132
:100F90000230110559F4EF018A2F988190959883BA
:100FA000C058DF4F88508830C0F730C081E0013032
:100FB000110509F080E08195EF019A2F8883C058D0
:100FC000DF4F98509830D0F788EF8A0F8695869536
:100FD000869590E8899FE00DF11D1124E058FF4FA0
:100FE000A770AA2341F1B0E0A050BD4F8C91013011
:100FF000110529F038F002301105E9F419C090818B
:10100000892B18C080959081892314C088EF8A0F9E
:1010100086958695869590E8899FE00DF11D1124AF
:10102000E058FF4FA77039F0B0E0A050BD4F8C9151
:10103000908189278083DF91CF911F910F9108952F
:101040000F931F93CF93DF93DC01FB0155968C9197
:101050005597823089F0833021F1813009F0E7C063
:1010600014968D919C911597BC01641B750BAB0177
:1010700041505109BF011DC014966D917C91159787
:10108000CB018E1B9F0BFC0116968D919C9117979F
:10109000BC01641B750BAB0141505109E21BF30B02
:1010A000C6C016966D917C9117976E1B7F0B621BC5
:1010B000730B57FD1BC114968D919C911597481782
:1010C00059070CF013C177FF04C0260F371F60E0EB
:1010D00070E016968D919C911797FB01E20FF31F1C
:1010E0008E179F071CF49C01261B370B1216130644
:1010F0000CF0FCC0A22F862F86958695869590E8E9
:10110000899F400D511D1124FA01E050FF4F677077
:10111000A9F198E0961B492F50E0EA01C85FDC4F27
:101120008881291790F4421B51092FEF30E002C04B
:10113000359527954A95E2F782230130110541F054
:1011400068F00230110589F0D1C00130110519F4A1
:101150002081822B0CC00130110520F48095208164
:10116000822305C00230110531F42081822780835B
:10117000A91708F4BBC0A91BE058FF4FA83048F1DD
:101180000230110559F4EF018A2F988190959883C8
:10119000C058DF4F88508830C0F733C081E001303D
:1011A000110509F080E08195EF019A2F8883C058DE
:1011B000DF4F98509830D0F788EF8A0F8695869544
:1011C000869560E8869FE00DF11D1124E058FF4FE1
:1011D000A770AA2309F48AC0B0E0A050BD4F8C913B
:1011E0000130110531F040F00230110509F07EC0E8
:1011F0001BC09081892B03C08095908189238083B7
:1012000075C088EF8A0F86958695869570E8879FCA
:10121000E00DF11D1124E058FF4FA77009F466C0DE
:10122000B0E0A050BD4F8C9190818927E8CF57FD49
:101230005DC016968D919C911797481759070CF031
:1012400055C0F7FF04C02E0F3F1FE0E0F0E01496FA
:101250008D919C911597BF01620F731F8617970799
:101260001CF49C012E1B3F0B121613060CF03EC003
:10127000CA0157FD079663E0959587956A95E1F752
:101280009695982F882797958795E80FF91FE05036
:10129000FF4F4770552781E090E001C0880F4A95C5
:1012A000EAF7482F0130110539F078F002301105C6
:1012B000E9F42E0F3F1F13C02E0F3F1FE217F30755
:1012C000A9F08081842B8193F9CF80952E0F3F1F49
:1012D000E217F30759F0908198239193F9CFE21721
:1012E000F30721F0808184278193F9CFDF91CF919B
:1012F0001F910F910895FC0177FD9AC0808591851B
:10130000681779070CF094C057FD92C082859385C9
:10131000481759070CF08CC08589823009F07CC0D1
:1013200084819581DC01A61BB70BBD016150710959
:1013300086819781FC01E41BF50BAF0141505109F7
:101340000AC0813041F484819581841B950BAB01E7
:10135000BC01615071092130310529F008F12230BA
:101360003105E1F10895FA0157FD3796A3E0F595AF
:10137000E795AA95E1F7F695FE2FEE27F795E79505
:101380006E0F7F1FFB01E050FF4F4770552781E034
:1013900090E001C0880F4A95EAF79081892B3AC006
:1013A000FA0157FD379623E0F595E7952A95E1F781
:1013B000F695FE2FEE27F795E7956E0F7F1FFB0141
:1013C000E050FF4F4770552781E090E001C0880F43
:1013D0004A95EAF78095908189231CC0FA0157FD50
:1013E000379683E0F595E7958A95E1F7F695FE2F18
:1013F000EE27F795E7956E0F7F1FFB01E050FF4F3B
:101400004770552781E090E001C0880F4A95EAF7C0
:101410009081892780830895833009F092CF868157
:101420009781861B970BBA01AC014150510993CFAC
:101430000895089580E090E008950E94D116AF923B
:10144000BF92CF92EF92FF920F931F93CF93DF93B0
:10145000EC01262F888D998D009709F040C06A30E5
:1014600059F41D861C862C898E859F8538E0239F24
:10147000800D911D112441C06D3009F4AAC08E89E0
:101480008823C1F03C898C859D8546E0349F800D82
:10149000911D112448855985481759075CF41D860C
:1014A0001C868E859F8548E0349F800D911D1124F8
:1014B0009F878E87EA88FB88088919894E855F8512
:1014C0006C857D85CC88CE010E949F0F2C898C85F0
:1014D0009D8536E0239F800D911D112442C06A3006
:1014E00079F41D861C862C89FC013696E4918E8544
:1014F0009F852E9F800D911D11249F878E8769C027
:101500006D3009F466C0FC0134963491631708F419
:1015100060C03196E491E61708F45BC0FC01329696
:1015200065917491422F50E0431B510937E0349F7D
:101530005001359FB00C1124A60EB71EF50132964E
:1015400034913196E491332311F0E1110DC0F5018E
:101550003496E4912C898C859D85E29F800D911DA8
:1015600011249D878C8735C0F501359644915E899D
:10157000552311F16C89E32FF0E0E40FF11D47FDD5
:10158000FA956E9FD0016F9FB00D11244C855D853B
:101590004A0F5B1FE885F985E417F5076CF41D8693
:1015A0001C86FC013696E4918E859F856E9F800D8A
:1015B000911D11249F878E87EA88FB8808891989E5
:1015C0004E855F856C857D85CC88CE010E949F0FFE
:1015D000BECF81E090E0DF91CF911F910F91FF90FE
:1015E000EF90CF90BF90AF900895FC01848DDF0104
:1015F000A80FB11DA35ABF4F2C91848D90E0019686
:101600008F739927848FA689B7892C93A089B18974
:101610008C91837080648C93938D848D981306C015
:101620000288F389E02D80818F7D8083089590E08A
:10163000FC01E859FF4F2491FC01EC55FA4F34911D
:10164000FC01E057FA4FE491EE2309F43CC0222359
:1016500039F1233091F038F42130A9F0223001F52E
:1016600084B58F7D12C0273091F02830A1F024304E
:10167000B9F4809180008F7D03C0809180008F77C6
:10168000809380000DC084B58F7784BD09C08091A0
:10169000B0008F7703C08091B0008F7D8093B00041
:1016A000F0E0EE0FFF1FE458FA4FA591B4919FB7F9
:1016B000F894611104C08C913095382302C0EC91EC
:1016C0003E2B3C939FBF08958F929F92AF92BF9203
:1016D000CF92DF92EF92FF926B017C010E944E034A
:1016E0004B015C01C114D104E104F104F1F00E944A
:1016F0004E03DC01CB0188199909AA09BB09883E70
:101700009340A105B10570F321E0C21AD108E108A8
:10171000F10888EE880E83E0981EA11CB11CC1144C
:10172000D104E104F10419F7DDCFFF90EF90DF90D1
:10173000CF90BF90AF909F908F9008952FB7F8945F
:101740006091F6037091F7038091F8039091F9038B
:101750002FBF08951F920F920FB60F9211242F934F
:101760003F938F939F93AF93BF938091F603909194
:10177000F703A091F803B091F9033091F50323E04A
:10178000230F2D3720F40196A11DB11D05C026E8B9
:10179000230F0296A11DB11D2093F5038093F6033C
:1017A0009093F703A093F803B093F9038091FA03A1
:1017B0009091FB03A091FC03B091FD030196A11D44
:1017C000B11D8093FA039093FB03A093FC03B093A5
:1017D000FD03BF91AF919F918F913F912F910F90FA
:1017E0000FBE0F901F9018951F920F920FB60F9279
:1017F00011242F933F934F935F936F937F938F9316
:101800009F93AF93BF93EF93FF938091B900887F2D
:10181000803609F49CC068F5883209F45BC090F406
:10182000803109F454C038F4882309F4F6C08830B4
:1018300009F44DC0F6C0883109F44CC0803209F477
:101840005DC0EFC0803409F468C048F4803309F407
:1018500055C0883309F0E5C080932D04D8C0803589
:1018600009F44FC0883509F45DC0883409F0D9C047
:10187000D6C0883909F4C7C0A8F4883709F467C00E
:1018800038F4883609F463C0803709F460C0C9C0F1
:10189000883809F4B8C0803909F45FC0803809F08D
:1018A000C0C05BC0803B09F486C038F4803A09F4BC
:1018B00066C0883A09F47FC0B4C0803C09F4A7C070
:1018C000883C09F4A4C0883B09F48AC0AAC080916E
:1018D0000A0410C090912C0480912B04981770F585
:1018E000E0912C0481E08E0F80932C04F0E0E55F02
:1018F000FB4F80818093BB0085EC86C080932D04D4
:101900008EC0E0912C0481E08E0F80932C04809196
:10191000BB00F0E0E55FFB4F808390912C04809149
:101920002B046EC0E0912C0481E08E0F80932C0478
:101930008091BB00F0E0E55FFB4F808380912E0437
:1019400081116DC081E08093090484EA61C083E065
:1019500080932F041092F403CFCF8091F403803250
:1019600008F051C0E091F40381E08E0F8093F403FE
:101970008091BB00F0E0EC52FC4F8083BDCF85EC42
:101980008093BC0010922F048091F403803230F4D5
:10199000E091F403F0E0EC52FC4F10826091F4030C
:1019A00070E0E091FE03F091FF0384ED93E0099570
:1019B0001092F40336C084E080932F041092D30376
:1019C0001092D203E0910004F091010409958091F6
:1019D000D203811105C081E08093D2031092B2033B
:1019E000E091D30381E08E0F8093D303F0E0EE54B7
:1019F000FC4F80818093BB009091D3038091D203F0
:101A0000981708F479CF85E88093BC000AC085EC6C
:101A10008093BC0010922F0404C010922D040E94E9
:101A20007303FF91EF91BF91AF919F918F917F9140
:101A30006F915F914F913F912F910F900FBE0F903B
:101A40001F90189583E594E00E94380321E0892BCC
:101A500009F420E0822F0895EF92FF920F931F93D5
:101A6000CF93DF93EC0181E0888F9B8D8C8D981351
:101A700005C0E889F989808185FD26C0F62E0B8D89
:101A800010E00F5F1F4F0F731127E02E8C8DE812AF
:101A90000CC00FB607FCFACFE889F989808185FF71
:101AA000F5CFCE010E94F50AF1CF8B8DFE01E80F34
:101AB000F11DE35AFF4FF0829FB7F8940B8FEA892C
:101AC000FB89808180620AC09FB7F894EE89FF8904
:101AD0006083E889F98980818370806480839FBFF7
:101AE00081E090E0DF91CF911F910F91FF90EF90F7
:101AF0000895CF93DF93EC01888D8823C9F0EA899C
:101B0000FB89808185FD05C0A889B9898C9186FDF6
:101B10000FC00FB607FCF5CF808185FFF2CFA889F3
:101B2000B9898C9185FFEDCFCE010E94F50AE7CFF0
:101B3000DF91CF9108951F920F920FB60F9211244B
:101B40002F933F934F935F936F937F938F939F93C5
:101B5000AF93BF93EF93FF9383E594E00E94F50A60
:101B6000FF91EF91BF91AF919F918F917F916F9175
:101B70005F914F913F912F910F900FBE0F901F904B
:101B800018951F920F920FB60F9211242F938F93D7
:101B90009F93EF93FF93E0916304F091640480813D
:101BA000E0916904F0916A0482FD12C090818091F5
:101BB0006C048F5F8F7320916D04821751F0E09158
:101BC0006C04F0E0ED5AFB4F958F80936C0401C0DC
:101BD0008081FF91EF919F918F912F910F900FBE78
:101BE0000F901F90189530915204313208F04BC07D
:101BF00080912F048111FCCF9091720522E02093F7
:101C00002F0421E020932E042FEF20932D04109217
:101C10002C0430932B04E2E3F4E0ABE0B4E020E0EA
:101C2000321721F041914D932F5FFACF10920A04A1
:101C300020910A04990F922B90930A049091090421
:101C4000913061F41092090490910A049093BB00C2
:101C50009091BC0093FDF8CF95EC01C095EE909368
:101C6000BC0090912F049230E1F390912D049F3F9E
:101C700079F080912D04803241F080912D048033E1
:101C800031F084E005C081E003C082E001C083E060
:101C900010923104109252041092300408959091E1
:101CA0006505992339F08EBD00000DB407FEFDCF08
:101CB0008EB5089528E030E040E8E0916805F091A5
:101CC0006905508190916F05909595239083E091DF
:101CD0006605F091670590916E05582F542319F011
:101CE0005081952B03C05081909595239083E0916E
:101CF0006805F0916905508190916F05952B90834F
:101D0000469521503109C9F60895CF92DF92EF929E
:101D1000FF920F931F93CF93DF936C017A018B0196
:101D2000C0E0D0E0CE15DF0581F0D8016D918D01C6
:101D3000D601ED91FC910190F081E02DC60109954D
:101D4000892B11F02196EECF7E01C701DF91CF9153
:101D50001F910F91FF90EF90DF90CF900895CF9358
:101D6000C82F809160058F3F59F1E0916A05F0918D
:101D70006B05908180917005892B8083E0916C05C3
:101D8000F0916D0590818091710580958923808304
:101D9000E0916A05F0916B059081809170058095C6
:101DA000892380838C2F0E944F0EE0916A05F09169
:101DB0006B05908180917005892B8083CF91089568
:101DC00080915E0591E090933004809372051092AB
:101DD00031041092520460E080EF94E00E9400040D
:101DE0006C2F80EF94E00E940004CF910C94F30DCF
:101DF00090E0FC01EC55FA4F2491FC01E057FA4FBA
:101E00008491882399F090E0880F991FFC01EA578C
:101E1000FA4FA591B491FC01E458FA4F8591949141
:101E20008FB7F894EC91E22BEC938FBF0895BF929B
:101E3000CF92DF92EF92FF920F931F93CF93DF9396
:101E400081E20E94AF0E80E00E94AF0E8FE70E94F9
:101E5000AF0E82E20E94AF0E80E00E94AF0E83E0E0
:101E60000E94AF0E809160058F3F81F1E0916A057D
:101E7000F0916B05908180917005892B8083E091B2
:101E80006C05F0916D05908180917105892B80839F
:101E9000E0916A05F0916B059081809170058095C5
:101EA00089238083C0E0D1E000E013E089910E94A3
:101EB0004F0E0C171D07D1F7E0916A05F0916B05E5
:101EC000908180917005892B80832FC00091B8008C
:101ED0008CE08093B800C0E0D1E080E0C82E83E0C1
:101EE000D82EBB24B39480915E05B09230048093C9
:101EF0007205109231041092520460E480EF94E075
:101F00000E9400047E0110E1F70161917F0180EFE2
:101F100094E00E9400041150B9F70E94F30D6096FE
:101F2000CC16DD0601F70093B800DF91CF911F9129
:101F30000F91FF90EF90DF90CF90BF9008952F9278
:101F40003F924F925F926F927F928F929F92AF9249
:101F5000BF92CF92DF92EF92FF920F931F93CF9396
:101F6000DF93CDB7DEB76B970FB6F894DEBF0FBE29
:101F7000CDBF9B8F8A8F5B011A01D22E1F830E83E8
:101F80003701C982DC0158962D913C915997211552
:101F9000310509F0E6C018968D919C911997681744
:101FA00079070CF0CDC11A968D919C911B9748171B
:101FB00059070CF0C5C18C2C912CFB0126E0C29E68
:101FC000E00DF11D1124FB87EA871E161F060CF099
:101FD000B7C1A40183E0440F551F8A95E1F75D87DF
:101FE0004C87CA01820D931D181619060CF0A8C162
:101FF00057968C91811104C05FEA5D1508F4D39463
:10200000AA8DBB8DED91FC9111970284F385E02D93
:10201000CD010995B5E0DB9EC0011124F50135968F
:10202000FF87EE87BB82AA8225019C012A193B0902
:10203000398B288BA101485F5F4F5B8B4A8BE88906
:10204000F989E40DF51DE458FF4F5491588761015B
:102050003D822C82888580FF13C0AA8DBB8DED91B7
:10206000FC91B981B13031F40484F585E02D2E81E5
:102070003F8116C00684F785E02DEE80FF801AC0F0
:10208000EE81FF81E615F705F1F0AA8DBB8DED918C
:10209000FC91B981B13051F40484F585E02D9301B0
:1020A000A601B2018A8D9B8D09950DC00684F78526
:1020B000E02D7301840194014C815D816A817B81F3
:1020C0008A8D9B8D0995E885E695E887FFEFCF1A05
:1020D000DF0A2C813D81280D391D3D832C834A89DF
:1020E0005B89C416D50609F0B5CF5FEF451A550ACE
:1020F0008A819B81880D991D9B838A83AE85BF85CC
:102100004A165B0609F09BCFEE81FF81E615F705C5
:1021100009F4F4C0EA8DFB8DA081B181F981F13021
:1021200079F4B5016B5F7F4F5096ED91FC9151971B
:10213000830128E030E0A1018A8D9B8D0995DEC0E6
:102140006A857B85681979091E96ED91FC911F9728
:1021500073010C851D859401A1018A8D9B8D0995C4
:10216000CDC0F9013496E491DE1AF90132968591D9
:102170009491B7E0DB9E800D911D1124F90125910A
:1021800034913B8B2A8BFC01259134912901FC0170
:102190003296C490319634913E873296149131969E
:1021A000D4904981423058F0612E012E000C7708FE
:1021B0008D2D0D2C000C990B9987888704C01986EA
:1021C0001886612C712CAA8DBB8DED91FC91119715
:1021D0000284F385E02DCD010995B9818B2E912CD8
:1021E000689CC001699C900D789C900D1124FC01A5
:1021F000EA0DFB1DFD87EC871A82712C612CE12F03
:10220000110FFF0B95012E0F3F1F3B872A87AC0C48
:10221000B11CA5014E0F5F1F5F8B4E8BC1018D0D51
:10222000911DD7FC9A95998F888F9E85691608F025
:1022300065C0862D90E048855985480F591F489DF7
:102240009001499D300D589D300D1124D101A20FF0
:10225000B31FB98BA88BEC85FD85FD83EC83AA8425
:10226000BB84DA80FA85DF1A288D398D280F391F53
:102270003D8B2C8B8D2D8A0D4E895F89A416B5065A
:10228000C1F1877041F4C2010196EA89FB89E40D2E
:10229000F51D74902C0177FE21C0AA8DBB8DED91A8
:1022A000FC91B981B13061F40484F585E02D2E8173
:1022B0003F814C895D89B5018A8D9B8D09950EC042
:1022C0000684F785E02DEE80FF8084019401488923
:1022D00059896C817D818A8D9B8D0995770CEFEFF3
:1022E000AE1ABE0A2C813D81280D391D3D832C83F9
:1022F000C1CF3A813C0D3A83639497CFAA8DBB8DB1
:10230000ED91FC9111970688F789E02DCD016B9630
:102310000FB6F894DEBF0FBECDBFDF91CF911F91F6
:102320000F91FF90EF90DF90CF90BF90AF909F9074
:102330008F907F906F905F904F903F902F90099477
:102340006B960FB6F894DEBF0FBECDBFDF91CF9175
:102350001F910F91FF90EF90DF90CF90BF90AF90C3
:102360009F908F907F906F905F904F903F902F90B5
:1023700008956115710579F0FB0101900020E9F7DE
:102380003197AF01461B570BDC01ED91FC910280A8
:10239000F381E02D099480E090E008958F929F9260
:1023A000AF92BF92EF92FF920F931F93CF93DF9361
:1023B000CDB7DEB7A1970FB6F894DEBF0FBECDBF85
:1023C0007C01FA01CB0119A2223008F42AE08E0127
:1023D0000F5D1F4F822E912CA12CB12CBF01A501A6
:1023E00094010E94A916F901CA01015011096A302D
:1023F00014F4605D01C0695CD8016C93232B242B1D
:10240000252B61F7B801C7010E94B911A1960FB63B
:10241000F894DEBF0FBECDBFDF91CF911F910F911A
:10242000FF90EF90BF90AF909F908F9008950C9485
:10243000B911789484B5826084BD84B5816084BD0F
:1024400085B5826085BD85B5816085BD80916E0052
:10245000816080936E001092810080918100826083
:1024600080938100809181008160809381008091C0
:1024700080008160809380008091B10084608093AF
:10248000B1008091B00081608093B00080917A00AB
:10249000846080937A0080917A00826080937A00D1
:1024A00080917A00816080937A0080917A008068C0
:1024B00080937A001092C10010924005109241055D
:1024C00010924205109243051092FE041092FF04F0
:1024D00010920005109201050E949E0B6B017C0179
:1024E0004B015C0128EB820E2BE0921EA11CB11C5B
:1024F0000E949E0B6C157D058E059F0528F08616A3
:102500009706A806B906A0F783E594E090933F05E7
:1025100080933E05E0916304F091640482E080833F
:10252000E0915F04F09160041082E0916104F09109
:10253000620480E1808310926B04E0916704F09163
:10254000680486E08083E0916504F09166048081F0
:1025500080618083E0916504F091660480818860E9
:102560008083E0916504F0916604808180688083B7
:10257000E0916504F091660480818F7D80830E94E4
:102580009E0B6093FE047093FF048093000590936C
:10259000010560E673E080913E0590913F050E9441
:1025A00017120E949E0B6B017C014B015C013AE00B
:1025B000830E911CA11CB11C0E949E0B6C157D0505
:1025C0008E059F0528F086169706A806B906A0F77F
:1025D00081E08093120592E090935F059CE39093D5
:1025E0005E05909160059F3F09F4B6C08091620539
:1025F0000E94F80E809164050E94F80E8091640597
:10260000082E000C990BFC01E057FA4FE491F0E022
:10261000EE0FFF1FE458FA4F2591349130936B056C
:1026200020936A05FC01EC55FA4FE491E0937005A4
:1026300080916205082E000C990BFC01E057FA4FBF
:10264000E491F0E0EE0FFF1FE458FA4F259134912A
:1026500030936D0520936C05FC01EC55FA4FE49125
:10266000E09371058091650581113CC08091600502
:102670000E94F80E809161050E94F80E809161051C
:10268000082E000C990BFC01E057FA4FE491F0E0A2
:10269000EE0FFF1FE458FA4F2591349130936905EE
:1026A00020936805FC01EC55FA4FE491E0936F0527
:1026B00080916005082E000C990BFC01E057FA4F41
:1026C000E491F0E0EE0FFF1FE458FA4F25913491AA
:1026D0003093670520936605FC01EC55FA4FE491B1
:1026E000E0936E0580916505882309F467C0CFB734
:1026F000F89480910404811124C0EAE9F5E0849102
:10270000EEEAF5E09491E82FF0E0EE0FFF1FEA57B4
:10271000FA4FA591B491EC91E92321F461E08AE0AC
:102720000E94170B8AE00E94F80E8CB580618CBD68
:102730008CB580648CBD8DE00E94F80E8BE00E9409
:10274000F80E809104048F5F80930404CFBF80E56E
:102750008CBD81E08DBD32C0109203041092020442
:10276000109231041092520410922F0480932E0480
:102770001092090461E082E10E94170B61E083E19D
:102780000E94170B8091B9008E7F8093B9008091D1
:10279000B9008D7F8093B90088E48093B80085E408
:1027A0008093BC0085EA93E0909301048093000439
:1027B00086EA93E09093FF038093FE038091630584
:1027C00087FD1DC00E94F80E61E0809163050E94A4
:1027D000170B61E070E080E090E00E94640B60E025
:1027E000809163050E94170B6AE070E080E090E042
:1027F0000E94640B61E0809163050E94170B8EEAD2
:102800000E94AF0E85ED0E94AF0E80E80E94AF0ED1
:1028100088EA0E94AF0E8FE10E94AF0E83ED0E9406
:10282000AF0E80E00E94AF0E80E40E94AF0E8DE8F4
:102830000E94AF0E84E10E94AF0E80E20E94AF0EB4
:1028400080E00E94AF0E81EA0E94AF0E88EC0E94E9
:10285000AF0E8AED0E94AF0E82E00E94AF0E81E8BB
:102860000E94AF0E8FE80E94AF0E89ED0E94AF0E5E
:1028700081EF0E94AF0E8BED0E94AF0E80E40E94AC
:10288000AF0E84EA0E94AF0E86EA0E94AF0E8EE27F
:102890000E94AF0E8FEA0E94AF0E0E949E0B672B24
:1028A000682B692B41F40E949E0B623071058105F3
:1028B000910508F413C10E949E0B0091050410912C
:1028C00006042091070430910804601771078207FD
:1028D000930740F460930504709306048093070403
:1028E00090930804009105041091060420910704B8
:1028F000309108046B017C01C01AD10AE20AF30A84
:10290000970186010A3F11052105310508F4E6C04B
:102910006093050470930604809307049093080461
:1029200084EF91E0A0E0B0E080930A0590930B055E
:10293000A0930C05B0930D0510920E0510920F0593
:1029400010921005109211058091020590910305D7
:10295000A0910405B09105058093060590930705A5
:10296000A0930805B09309050E949E0B6093020591
:102970007093030580930405909305050E949E0BB8
:102980006093FE047093FF0480930005909301050B
:102990000E949E0B6B017C0162E773E080913E0513
:1029A00090913F050E9417122AE041E050E060E05C
:1029B00070E080913E0590913F050E94CE1169E73D
:1029C00073E080913E0590913F050E9417122AE026
:1029D000B701A60180913E0590913F050E94CE115E
:1029E0006BE773E080913E0590913F050E941712BE
:1029F0008091020590910305A0910405B091050511
:102A0000B701A601481B590B6A0B7B0B2AE080918A
:102A10003E0590913F050E94CE116BE773E08091D7
:102A20003E0590913F050E9417124091020550917A
:102A3000030560910405709105058091060590914C
:102A40000705A0910805B0910905481B590B6A0BB1
:102A50007B0B2AE080913E0590913F050E94CE11AC
:102A60006DE773E080913E0590913F050E9417123B
:102A70000E949E0BAB01BC012AE080913E05909123
:102A80003F050E94CE11C0913E05D0913F056FE7F2
:102A900073E0CE010E94B9116FE673E0CE010E948F
:102AA000B9110E949E0B6B017C014B015C0122E07D
:102AB000820E911CA11CB11C0E949E0B6C157D0501
:102AC0008E059F0508F0C8C00E949E0B609302050A
:102AD00070930305809304059093050583E080932C
:102AE0005805B12CC0E0D1E0C12CB2E0DB2E6B2D3B
:102AF00070E000914E0510914F05C80117FD019639
:102B000095958795681779074CF5CB01880F991F24
:102B1000081B190B20914C0530914D05281B390BD2
:102B2000EE24E394F12CAB0184E495E00E942E05A1
:102B30000E94170F62E370E080E090E00E94640B57
:102B4000DE01F6011D923197E9F762E370E080E063
:102B500090E00E94640BF3E0BF0EC9CF80E092E0EA
:102B6000E0E0F1E0DF019C011D9221503040E1F7EF
:102B700081E090E09093550580935405109257059D
:102B8000109256058CE090E090935105809350058B
:102B900086E090E0909353058093520566E873E0D9
:102BA00084E495E00E9417128EE190E09093510525
:102BB0008093500587E290E09093530580935205EF
:102BC0006DE873E084E495E00E9417120E94170FED
:102BD00060ED77E080E090E00E94640B80914E050C
:102BE00090914F0597FD019695958795C82F60E0C8
:102BF000C62E61E0D62EA12C72E0B72E6C2F70E0AD
:102C0000CB01880F991F00914E0510914F05081BAD
:102C1000190B20914C0530914D05281B390BEE24E2
:102C2000E394F12CAB0184E495E00E942E050E9410
:102C3000170F62E370E080E090E00E94640BD60121
:102C4000F5011D923197E9F762E370E080E090E0D2
:102C50000E94640BC350D2CF86169706A806B90609
:102C600008F02ACF31CFE3E5F4E01382128288EE38
:102C700093E0A0E0B0E084839583A683B78324E14A
:102C800033E03183208325EC30E03587248724EC42
:102C900030E03787268720EC30E0318B208B21EC29
:102CA00030E0338B228B22EC30E0358B248B26EC0A
:102CB00030E0378B268B118E128E138E148EE0EF40
:102CC000F4E01382128284839583A683B78386E21D
:102CD00093E091838083ECEFF4E0168217821086F4
:102CE0001186128613861486158616861786108A14
:102CF000118A128A138A148A158AE4E4F5E0138291
:102D0000128220E830E03583248380E290E09783CC
:102D100086833187208793878287158A1586148654
:102D20001786168681E0848B2FEF3FEF338B228B43
:102D3000318B208B868B178A118E108E88E393E05F
:102D4000918380838FEF848F80A3868F858F878F79
:102D50000895A1E21A2EAA1BBB1BFD010DC0AA1FDC
:102D6000BB1FEE1FFF1FA217B307E407F50720F0F4
:102D7000A21BB30BE40BF50B661F771F881F991F6F
:102D80001A9469F760957095809590959B01AC01B8
:102D9000BD01CF010895EE0FFF1F0590F491E02DC6
:102DA000099481E090E0F8940C94D616F894FFCF43
:102DB0000000000000000000000000000000000013
:102DC0000000000000000000000000000000000003
:102DD00000000000000000000000000000000000F3
:102DE0000000000000000000000000000000008063
:102DF00080800000000000000000000000000000D3
:102E0000008080C0C0000000000000000000000042
:102E100000000000000000000000000000000000B2
:102E200000000000000000000000000000000000A2
:102E30000000000000000000000000000000000092
:102E40000000000080C0E0F0F8FCF8E000000000A6
:102E500000000000000000000000000000808080F2
:102E6000808000808000000000808080808000FFE3
:102E7000FFFF000000008080808000008080000054
:102E800080FFFF80800080800080808080008080C4
:102E90000000000000808000008C8E84000080F81C
:102EA000F8F88000000000000000000000000000B2
:102EB000F0F0F0F0F0F0F0F0F0F0F0F0E0E0C080D2
:102EC00000E0FCFEFFFFFF7FFFFFFFFFFF000000B1
:102ED0000000000000000000000000FEFFC701012C
:102EE000010183FFFF00007CFEC70101010183FF98
:102EF000FFFF0038FEC78301010183C7FFFF000009
:102F000001FFFF010100FFFF0701010100007FFF3A
:102F100080000000FFFF7F0000FFFFFF000001FFB7
:102F2000FFFF0100000000000000000000000000A2
:102F3000030F3F7F7FFFFFFFFFFFFFFFE7C7C78F45
:102F40008F9FBFFFFFC3C0F0FFFFFFFFFFFCFCFC34
:102F5000FCFCFCFCFCF8F8F0F0E0C000010303030B
:102F60000303010303000000000103030303010145
:102F70000301000000010303030301010303000038
:102F80000003030000000303000000000000000134
:102F90000303030303010000000103010000000319
:102FA000030100000000000000000000000000001D
:102FB000000103070F1F3F7F0080C0E0F0F8FCFE18
:102FC000000000002C0D850E0703790D3803160351
:102FD0002A03000000000004D3031A0AA703CB034E
:102FE000B703A803000000001F0A850E1A0A190A79
:102FF0007B09A7030D06E5050106F5051406A703E1
:1030000030042F04C60620082E051105A40445042B
:10301000564D4450565F317C315F564D4450560DED
:103020000A00564D4450455F003A323A007C005F3A
:10303000564D44504500424154544C450053484974
:0230400050003E
:107800000C94343C0C94513C0C94513C0C94513CE1
:107810000C94513C0C94513C0C94513C0C94513CB4
:107820000C94513C0C94513C0C94513C0C94513CA4
:107830000C94513C0C94513C0C94513C0C94513C94
:107840000C94513C0C94513C0C94513C0C94513C84
:107850000C94513C0C94513C0C94513C0C94513C74
:107860000C94513C0C94513C11241FBECFEFD8E036
:10787000DEBFCDBF11E0A0E0B1E0ECE9FFE702C060
:1078800005900D92A230B107D9F712E0A2E0B1E065
:1078900001C01D92AD30B107E1F70E942D3D0C945F
:1078A000CC3F0C94003C982F959595959595959582
:1078B000905D8F708A307CF0282F295A8091C0000B
:1078C00085FFFCCF9093C6008091C00085FFFCCF60
:1078D0002093C6000895282F205DF0CF982F809127
:1078E000C00085FFFCCF9093C6000895EF92FF92F1
:1078F0000F931F93EE24FF2487018091C00087FD22
:1079000017C00894E11CF11C011D111D81E4E8164B
:1079100082E4F8068FE0080780E0180770F3E09132
:107920000401F091050109958091C00087FFE9CF1E
:107930008091C6001F910F91FF90EF9008950E94D3
:10794000763C982F8091C00085FFFCCF9093C600B5
:1079500091362CF490330CF09053892F089597555D
:10796000892F08951F930E949F3C182F0E949F3CCF
:107970001295107F810F1F9108951F93182F882350
:1079800021F00E94763C1150E1F71F9108951F935A
:10799000182F0E94763C803249F0809103018F5F5E
:1079A000809303018530C1F01F9108958091C0003C
:1079B00085FFFCCF84E18093C6008091C00085FFE5
:1079C000FCCF1093C6008091C00085FFFCCF80E102
:1079D0008093C6001F910895E0910401F091050184
:1079E00009951F9108950E94763C803241F0809164
:1079F00003018F5F80930301853081F008958091AA
:107A0000C00085FFFCCF84E18093C6008091C00058
:107A100085FFFCCF80E18093C6000895E0910401CA
:107A2000F09105010995089540E951E08823A1F0FE
:107A30002D9A28EE33E0FA013197F1F721503040CA
:107A4000D1F72D9828EE33E0FA013197F1F7215064
:107A50003040D1F7815061F708953F924F925F9285
:107A60006F927F928F929F92AF92BF92CF92DF924E
:107A7000EF92FF920F931F93CF93DF93000080E16B
:107A80008093C4001092C50088E18093C10086E015
:107A90008093C2005098589A259A81E00E94143D24
:107AA00024E1F22E9EE1E92E85E9D82E0FE0C02ECA
:107AB00010E1B12EAA24A394B1E49B2EA6E58A2E50
:107AC000F2E57F2EE0E26E2E79E4572E63E5462E36
:107AD00050E5352E0E94763C8033B1F18133B9F107
:107AE000803409F46FC0813409F476C0823409F41B
:107AF00085C0853409F488C0803531F1823521F1A3
:107B0000813511F1853509F485C0863509F48DC0BC
:107B1000843609F496C0843709F403C1853709F423
:107B200072C1863709F466C0809103018F5F80932C
:107B30000301853079F6E0910401F0910501099582
:107B40000E94763C803351F60E94F33CC3CF0E94E2
:107B5000763C803249F78091C00085FFFCCFF092DF
:107B6000C6008091C00085FFFCCF9092C600809136
:107B7000C00085FFFCCF8092C6008091C00085FFC9
:107B8000FCCF7092C6008091C00085FFFCCF609250
:107B9000C6008091C00085FFFCCF5092C600809146
:107BA000C00085FFFCCF4092C6008091C00085FFD9
:107BB000FCCF3092C6008091C00085FFFCCFB09210
:107BC000C60088CF0E94763C863808F4BDCF0E945C
:107BD000763C0E94F33C7ECF0E94763C803809F4CC
:107BE0009CC0813809F40BC1823809F43CC1883942
:107BF00009F48FC080E00E94C73C6CCF84E10E94F2
:107C0000BD3C0E94F33C66CF85E00E94BD3C0E94D3
:107C1000F33C60CF0E94763C809306010E94763C44
:107C2000809307010E94F33C55CF0E94763C80333D
:107C300009F41DC183E00E94BD3C80E00E94C73C66
:107C400049CF0E94763C809309020E94763C809343
:107C5000080280910C028E7F80930C020E94763C79
:107C6000853409F415C18091080290910902892B8D
:107C700089F000E010E00E94763CF801E85FFE4FDA
:107C800080830F5F1F4F80910802909109020817AF
:107C9000190788F30E94763C803209F045CF809125
:107CA0000C0280FF01C16091060170910701660F0F
:107CB000771F7093070160930601A0910802B091AD
:107CC00009021097C9F0E8E0F1E09B01AD014E0F09
:107CD0005F1FF999FECF32BD21BD819180BDFA9A17
:107CE000F99A2F5F3F4FE417F50799F76A0F7B1F4B
:107CF00070930701609306018091C00085FFFCCF5F
:107D0000F092C6008091C00085FFFCCFB092C60003
:107D1000E1CE83E00E94C73CDDCE82E00E94C73CFA
:107D2000D9CE0E94763C809309020E94763C8093D3
:107D300008028091060190910701880F991F909386
:107D40000701809306010E94763C853409F4A6C0A1
:107D500080910C028E7F80930C020E94763C8032D0
:107D600009F0B8CE8091C00085FFFCCFF092C6002C
:107D7000609108027091090261157105B9F140E046
:107D800050E080910C02A82FA170B82FB27011C0E2
:107D9000BB2309F45CC0E0910601F0910701319624
:107DA000F0930701E09306014F5F5F4F46175707B7
:107DB000E8F4AA2369F3F999FECF209106013091E6
:107DC000070132BD21BDF89A90B58091C00085FFB2
:107DD000FCCF9093C6002F5F3F4F30930701209355
:107DE00006014F5F5F4F4617570718F38091C00099
:107DF00085FDE5CE8091C00085FFF8CFE0CE81E023
:107E00000E94C73C67CE0E94763C803209F08CCE3F
:107E10008091C00085FFFCCFF092C6008091C00029
:107E200085FFFCCFE092C6008091C00085FFFCCFAB
:107E3000D092C6008091C00085FFFCCFC092C600E2
:107E40008091C00085FFFCCFB092C60043CEE09188
:107E50000601F091070194918091C00085FFFCCF4D
:107E60009093C6009CCF80E10E94C73C33CE0E9415
:107E7000763C0E94763C182F0E94763C112309F430
:107E800083C0113009F484C08FE00E94C73C22CE29
:107E900080910C02816080930C02E5CE80910C02EF
:107EA000816080930C0259CF809107018823880F4D
:107EB000880B8A2180930B02809106019091070123
:107EC000880F991F90930701809306018091080203
:107ED00080FF09C080910802909109020196909359
:107EE000090280930802F894F999FECF1127E091D6
:107EF0000601F0910701C8E0D1E08091080290915D
:107F00000902103091F40091570001700130D9F34B
:107F100003E000935700E89500915700017001308D
:107F2000D9F301E100935700E89509901990009169
:107F3000570001700130D9F301E000935700E89534
:107F40001395103498F011270091570001700130FB
:107F5000D9F305E000935700E895009157000170B0
:107F60000130D9F301E100935700E895329602976A
:107F700009F0C7CF103011F00296E5CF112480919F
:107F8000C00085FFB9CEBCCE8EE10E94C73CA2CD19
:0C7F900085E90E94C73C9ECDF894FFCF0D
:027F9C00800063
:040000030000780081
:00000001FF