:1000000007C1000033C1000031C100002FC1000052
:100010002DC100002BC1000029C1000027C1000034
:1000200025C1000023C1000021C100001FC1000044
:100030001DC100001BC1000019C1000017C1000054
:1000400015C1000013C1000011C100000FC1000064
:100050000DC100000BC1000009C10000DFC300009A
:1000600005C1000003C1000001C10000FFC0000085
:10007000FDC00000FBC00000F9C00000F7C0000098
:10008000F5C00000F3C00000F1C00000EFC00000A8
:100090008FC3000064C30000E9C00000E7C0000097
:1000A000E5C00000E3C00000E1C00000DFC00000C8
:1000B000DDC00000DBC00000D9C00000D7C00000D8
:1000C000D5C00000D3C00000D1C00000CFC00000E8
:1000D000CDC00000CBC00000C9C00000C7C00000F8
:1000E000C5C00000BF02C202B102B502B902F902E6
:1000F000C602CA02D002D402D802DE02E202E6023E
:10010000F902EC02F002F40200000A0B02090C0DE5
:100110000E080703040100000000000000000000BA
:1001200000000000000000000000000000000000CF
:10013000000000001211100000000000000000008C
:1001400000000000000000000000000000000000AF
:100150002200250028002B002E003100340002016F
:100160000000050108010B01000021002400270008
:100170002A002D00300033000101000004010701B6
:100180000A0105050505070508080808020202021C
:100190000A0A080804040404010101010101010123
:1001A0000303030303030303040707070C0C0C0CEE
:1001B0000C0C0C0C020202020606060606060606D7
:1001C0000B0B0B0B0B0B0B0B010210202008081064
:1001D00020401020408002010201080402010102B7
:1001E0000408102040808040201008040201800490
:1001F00002018040201008040201080402010102EB
:100200000408102040800102040810204080D4051A
:1002100011241FBECFEFD1E2DEBFCDBF00E00CBF87
:1002200012E0A0E0B2E0EEE1FCE000E00BBF02C0B3
:1002300007900D92A231B107D9F723E0A2E1B2E015
:1002400001C01D92A639B207E1F711E0C8E0D1E084
:1002500000E005C021970109802FFE01D2D4C730EC
:10026000D10780E00807B1F723D3D7C4C9CE90E007
:10027000FC01E853FE4F2491FC01EE57FE4F8491A0
:10028000882399F090E0880F991FFC01E859FE4FF0
:10029000A591B491FC01E25BFE4F859194918FB7DB
:1002A000F894EC91E22BEC938FBF0895CF92DF92FC
:1002B000EF92FF920F931F93CF93DF936C017A011C
:1002C0008B01C0E0D0E0CE15DF0581F0D8016D9143
:1002D0008D01D601ED91FC910190F081E02DC601D8
:1002E0001995892B11F02196EECF7E01C701DF9180
:1002F000CF911F910F91FF90EF90DF90CF900895D5
:10030000089580E090E00895FC01538D448D252FE1
:1003100030E0842F90E0821B930B541710F0CF969F
:10032000089501970895FC01918D828D981761F0D1
:10033000828DDF01A80FB11D5D968C91928D9F5F1C
:100340009F73928F90E008958FEF9FEF0895FC01C7
:10035000918D828D981731F0828DE80FF11D858D7A
:1003600090E008958FEF9FEF0895FC01918D228D0D
:10037000892F90E0805C9F4F821B91098F73992792
:1003800008958DE292E0F1DF21E0892B09F420E06D
:10039000822F0895FC01848DDF01A80FB11DA35A9F
:1003A000BF4F2C91848D90E001968F739927848F95
:1003B000A689B7892C93A089B1898C9183708064B8
:1003C0008C93938D848D981306C00288F389E02D59
:1003D00080818F7D80830895EF92FF920F931F930A
:1003E000CF93DF93EC0181E0888F9B8D8C8D9813E8
:1003F00005C0E889F989808185FD25C0F62E0B8D21
:1004000010E00F5F1F4F0F731127E02E8C8DE81245
:100410000BC00FB607FCFACFE889F989808185FF08
:10042000F5CFCE01B7DFF2CF8B8DFE01E80FF11DC6
:10043000E35AFF4FF0829FB7F8940B8FEA89FB894C
:10044000808180620AC09FB7F894EE89FF8960833B
:10045000E889F98980818370806480839FBF81E00F
:1004600090E0DF91CF911F910F91FF90EF90089551
:10047000CF93DF93EC01888D8823C1F0EA89FB8953
:10048000808185FD05C0A889B9898C9186FD0EC043
:100490000FB607FCF5CF808185FFF2CFA889B98917
:1004A0008C9185FFEDCFCE0175DFE8CFDF91CF9145
:1004B000089580E090E0892B41F080E090E0892B66
:1004C00021F00E940000811120C080E090E0892B83
:1004D00019F057DF81111CC080E090E0892B41F0BA
:1004E00080E090E0892B21F00E940000811113C070
:1004F00080E090E0892BA1F080E090E0892B81F0F2
:100500000E94000081110AC008950E940000DDCF02
:100510000E940000E1CF0E940000EACF0C9400008E
:100520000895362F90E0FC01E85FFE4F4491FC01F6
:10053000E853FE4F2491FC01EE57FE4F949199230E
:1005400009F46BC0442309F454C050E0FA01319718
:10055000E231F10508F04DC08827EE58FF4F8F4F6C
:1005600050C3809180008F7707C0809180008F7D7D
:1005700003C080918000877F809380003AC084B55B
:100580008F7702C084B58F7D84BD33C08091B00069
:100590008F7703C08091B0008F7D8093B00029C019
:1005A000809190008F7707C0809190008F7D03C06D
:1005B00080919000877F809390001BC08091A00065
:1005C0008F7707C08091A0008F7D03C08091A0002D
:1005D000877F8093A0000DC0809120018F7707C096
:1005E000809120018F7D03C080912001877F8093BF
:1005F0002001E92FF0E0EE0FFF1FE25BFE4FA59117
:10060000B4919FB7F894311104C08C9120952823A0
:1006100002C0EC912E2B2C939FBF08953FB7F89406
:100620008091130290911402A0911502B0911602CC
:1006300026B5A89B05C02F3F19F00196A11DB11D3D
:100640003FBFBA2FA92F982F8827820F911DA11D78
:10065000B11DBC01CD0142E0660F771F881F991FB5
:100660004A95D1F708958F929F92AF92BF92CF9201
:10067000DF92FF920F931F93CF93DF93C0911702E6
:1006800061E08C2F4EDF60E08C2F4BDF8AECC82EB0
:1006900082E0D82E9AE0F92EC9E1D2E000E010E025
:1006A000F601E00FF11F808191818130910541F0C9
:1006B00038F08230910531F0049771F460E007C0A2
:1006C00061E005C060E088812CDF61E003C08881C3
:1006D00028DF60E0898125DF0E5F1F4F22960431FD
:1006E0001105F1F69BDF4B015C0198DFDC01CB01CA
:1006F00088199909AA09BB09883E9340A105B1054B
:10070000A0F312B815B818B8A298809102018778A2
:1007100080930201809105018E7F80930501809175
:100720000B01807F80930B01C091180261E08C2F38
:10073000F8DE60E08C2FF5DEFA9424E1C20ED11CC5
:10074000F110AACFDF91CF911F910F91FF90DF9011
:10075000CF90BF90AF909F908F9008955AD21F92E4
:100760000F920FB60F9211240BB60F922F933F9357
:100770004F935F936F937F938F939F93AF93BF93A9
:10078000EF93FF938DE292E005DEFF91EF91BF9131
:10079000AF919F918F917F916F915F914F913F9119
:1007A0002F910F900BBE0F900FBE0F901F901895BA
:1007B0001F920F920FB60F9211240BB60F922F9328
:1007C0008F939F93EF93FF93E0913D02F0913E0250
:1007D0008081E0914302F091440282FD12C0908139
:1007E000809146028F5F8F7320914702821751F0EC
:1007F000E0914602F0E0E35DFD4F958F8093460265
:1008000001C08081FF91EF919F918F912F910F9067
:100810000BBE0F900FBE0F901F9018951F920F9256
:100820000FB60F9211242F933F938F939F93AF9303
:10083000BF938091920390919303A0919403B09100
:1008400095033091120223E0230F2D3720F40196F7
:10085000A11DB11D05C026E8230F0296A11DB11DE3
:10086000209312028093920390939303A093940396
:10087000B09395038091130290911402A0911502F8
:10088000B09116020196A11DB11D809313029093A1
:100890001402A0931502B0931602BF91AF919F91DD
:1008A0008F913F912F910F900FBE0F901F90189531
:1008B000789484B5826084BD84B5816084BD85B53B
:1008C000826085BD85B5816085BD80916E00816047
:1008D00080936E00109281008091810082608093ED
:1008E00081008091810081608093810080918000EF
:1008F0008160809380008091B10084608093B1001A
:100900008091B00081608093B000809191008260FE
:1009100080939100809191008160809391008091FB
:1009200090008160809390008091A100826080930C
:10093000A1008091A10081608093A1008091A0001E
:1009400081608093A00080912101826080932101C9
:10095000809121018160809321018091200181603B
:100960008093200180917A00846080937A00809146
:100970007A00826080937A0080917A00816080930F
:100980007A0080917A00806880937A001092C1008A
:100990004AEC52E02AE064E070E080E090E0FA0186
:1009A000E80FF91F71836083029684319105B9F7CE
:1009B00021504C5E5F4F2111F0CF88E180931902E6
:1009C00086E180931A0283E280931B0285E2809382
:1009D0001C0283E380931D0285E380931E028BE15A
:1009E00080931F0289E1809320028FE2809321028D
:1009F00081E38093220288E08093230286E0809343
:100A0000240287E2809325028CE18093260280E213
:100A10008093270282E2809328028BE08093290250
:100A200082E380932A0289E080932B028FE08093F7
:100A30002C0282E08093180283E080931702C9E1C0
:100A4000D2E00DE212E0888112DC898110DC22966E
:100A50000C171D07C1F782E00ADC83E008DCE09197
:100A60003D02F0913E0282E08083E0913902F091F4
:100A70003A021082E0913B02F0913C0280E18083D7
:100A800010924502E0914102F091420286E080839B
:100A9000E0913F02F0914002808180618083E0918B
:100AA0003F02F0914002808188608083E0913F02A4
:100AB000F0914002808180688083E0913F02F09154
:100AC000400280818F7D8083C2E0D0E08FB7F894B0
:100AD000C0909203D0909303E0909403F09095031C
:100AE0008FBF4AEC52E02AE080E090E0FA01E80F84
:100AF000F91F11821082029684319105B9F72150B5
:100B00004C5E5F4F2111F0CF88EEC80E83E0D81EF7
:100B1000E11CF11C2FB7F8948091920390919303FC
:100B2000A0919403B09195032FBFC816D906EA0689
:100B3000FB0610F098DDEECF8FB7F894C0909203CB
:100B4000D0909303E0909403F09095038FBF4AEC0C
:100B500052E02AE080E090E0FA01E80FF91FD1832B
:100B6000C083029684319105B9F721504C5E5F4FE6
:100B70002111F0CF88EEC80E83E0D81EE11CF11CD5
:100B80002FB7F8948091920390919303A0919403CE
:100B9000B09195032FBFC816D906EA06FB0610F0E0
:100BA00062DDEECF86DC92CFEDE2F2E013821282BC
:100BB00088EE93E0A0E0B0E084839583A683B783BA
:100BC00084E092E0918380838DEC90E09587848728
:100BD0008CEC90E09787868788EC90E0918B808BF7
:100BE00089EC90E0938B828B8AEC90E0958B848BE0
:100BF0008EEC90E0978B868B118E128E138E148E56
:100C00000895EE0FFF1F881F8BBF0790F691E02D10
:0E0C1000199481E090E0F89400C0F894FFCFB2
:100C1E0000000000EC01560184013802B501930179
:020C2E00A7011C
:00000001FF
