:1000000049C4000078C4000076C4000074C4000035
:1000100072C4000070C400006EC400006CC4000014
:100020006AC4000068C4000066C4000064C4000024
:1000300062C4000060C400005EC400005CC4000034
:100040005AC4000058C4000056C4000054C4000044
:1000500052C4000050C400004EC400000C94CA19E1
:100060004AC400000C94CB180C94A21844C400009D
:1000700042C4000040C400003EC400003CC4000074
:100080003AC4000038C4000036C4000034C4000084
:100090000C9479180C9450182EC400000C94141A67
:1000A0002AC4000028C4000026C4000024C40000A4
:1000B00022C4000020C400001EC400001CC40000B4
:1000C0001AC4000018C4000016C400000C942718BD
:1000D0000C94FE1710C400000C94D5170C94AC17A8
:1000E0000AC40000F413F713E613EA13F0132E14F6
:1000F000FB13FF13051409140D14131417141B1408
:100100002E14211425142914000021002400270096
:100110002A002D0030003300010100000401070116
:100120000A01010210202008081020401020408001
:1001300002010201080402010102040810204080AB
:100140008040201008040201800402018040201039
:100150000804020108040201010204081020408082
:100160000102040810204080000022002500280021
:100170002B002E00310034000201000005010801AF
:100180000B0105050505070508080808020202021B
:100190000A0A080804040404010101010101010123
:1001A0000303030303030303040707070C0C0C0CEE
:1001B0000C0C0C0C020202020606060606060606D7
:1001C0000B0B0B0B0B0B0B0B5348495000424154CC
:1001D000544C4500504152544E4552005345454BF6
:1001E000494E47004641494C4544005345454B491B
:1001F0004E4700434F4D504C455445005345454BE9
:10020000494E4700534849505300504C4143452004
:10021000594F5552005455524E00594F55520054A3
:1002200041524745540046495245210053454E44EA
:10023000494E472E2E2E005455524E0054484549E3
:1002400052004869740048697420616E64205375D7
:100250006E6B0053686970204C6F63617465642035
:10026000417420506F736974696F6E0043686563F1
:100270006B696E6720496E636F6D696E672053749A
:1002800072696B650057494E00594F55004C4F53EA
:100290004500594F55005269676874507573686519
:1002A0006400526967687448656C640043656E74E5
:1002B00065725075736865640043656E7465724855
:1002C000656C64004C656674507573686564004CB9
:1002D00065667448656C64004849542100414E4489
:1002E0002053554E4B00484954004D495353004349
:1002F00041525249455200424154544C4553484999
:10030000500043525549534552005355424D4152B6
:10031000494E450044455354524F594552002054CC
:100320004F200020544F200020544F200020544FD5
:10033000200000000000003E5B4F5B3E3E6B4F6BB9
:100340003E1C3E7C3E1C183C7E3C181C577D571CB6
:100350001C5E7F5E1C00183C1800FFE7C3E7FF002F
:1003600018241800FFE7DBE7FF30483A060E26297D
:10037000792926407F050507407F05253F5A3CE740
:100380003C5A7F3E1C1C08081C1C3E7F14227F2206
:10039000145F5F005F5F06097F017F006689956AD1
:1003A000606060606094A2FFA29408047E0408105C
:1003B000207E201008082A1C08081C2A08081E1085
:1003C0001010100C1E0C1E0C30383E3830060E3E3D
:1003D0000E06000000000000005F0000000700079C
:1003E00000147F147F14242A7F2A122313086462C6
:1003F00036495620500008070300001C2241000027
:1004000041221C002A1C7F1C2A08083E0808008084
:10041000703000080808080800006060002010081C
:1004200004023E5149453E00427F4000724949491D
:10043000462141494D331814127F1027454545394F
:100440003C4A494931412111090736494949364653
:100450004949291E00001400000040340000000833
:1004600014224114141414140041221408020159D6
:1004700009063E415D594E7C1211127C7F49494963
:10048000363E414141227F4141413E7F49494941F8
:100490007F090909013E414151737F0808087F0027
:1004A000417F41002040413F017F081422417F40AD
:1004B0004040407F021C027F7F0408107F3E414184
:1004C000413E7F090909063E4151215E7F091929F4
:1004D00046264949493203017F01033F4040403FDE
:1004E0001F2040201F3F4038403F6314081463031F
:1004F000047804036159494D43007F41414102049E
:10050000081020004141417F0402010204404040A4
:100510004040000307080020545478407F2844449A
:10052000383844444428384444287F3854545418B4
:1005300000087E090218A4A49C787F0804047800AF
:10054000447D40002040403D007F10284400004191
:100550007F40007C047804787C08040478384444A4
:100560004438FC1824241818242418FC7C0804049B
:1005700008485454542404043F44243C4040207C04
:100580001C2040201C3C4030403C44281028444C57
:100590009090907C4464544C440008364100000024
:1005A000770000004136080002010204023C2623C5
:1005B000263C1EA1A161123A4040207A385454557D
:1005C0005921555579412254547842215554784047
:1005D00020545579400C1E527212395555555939CF
:1005E0005454545939555454580000457C41000224
:1005F000457D420001457C407D1211127DF0282589
:1006000028F07C545545002054547C547C0A097FC2
:100610004932494949323A4444443A324A484830D6
:100620003A4141217A3A42402078009DA0A07D3D88
:100630004242423D3D4040403D3C24FF2424487E10
:100640004943662B2FFC2F2BFF0929F620C0887EFB
:10065000090320545479410000447D413048484A00
:1006600032384040227A007A0A0A727D0D19317DB3
:100670002629292F28262929292630484D40203887
:100680000808080808080808382F10C8ACBA2F1046
:100690002834FA00007B000008142A142222142AAD
:1006A00014085500550055AA55AA55AAFF55FF55DF
:1006B000FF000000FF00101010FF00141414FF00D2
:1006C0001010FF00FF1010F010F0141414FC0014B0
:1006D00014F700FF0000FF00FF1414F404FC1414CE
:1006E00017101F10101F101F1414141F00101010CB
:1006F000F0000000001F101010101F10101010F05C
:1007000010000000FF101010101010101010FF103B
:10071000000000FF140000FF00FF00001F10170082
:1007200000FC04F414141710171414F404F400005B
:10073000FF00F714141414141414F700F71414140D
:10074000171410101F101F141414F4141010F010AC
:10075000F000001F101F0000001F14000000FC1418
:100760000000F010F01010FF10FF141414FF14100C
:1007700010101F00000000F010FFFFFFFFFFF0F05F
:10078000F0F0F0FFFFFF0000000000FFFF0F0F0F71
:100790000F0F3844443844FC4A4A4A347E02020669
:1007A00006027E027E0263554941633844443C049C
:1007B000407E201E2006027E020299A5E7A5991C14
:1007C0002A492A1C4C7201724C304A4D4D30304837
:1007D000784830BC625A463D3E494949007E010195
:1007E000017E2A2A2A2A2A44445F444440514A442A
:1007F0004040444A51400000FF0103E080FF0000F8
:1008000008086B6B083612362436060F090F0600EF
:100810000018180000001010003040FF0101001FF8
:1008200001011E00191D1712003C3C3C3C00000059
:100830000000000020002300260029002C002F00CB
:1008400032000001000003010601090100000A0B4B
:1008500002090C0D0E08070304010000000000004F
:100860000000000000000000000000000000000088
:100870000000000000000000121110000000000045
:100880000000000000000000000000000000000068
:100890000000AC2511241FBECFEFD1E2DEBFCDBFDB
:1008A00000E00CBF16E0A0E0B2E0E4E7FFE400E007
:1008B0000BBF02C007900D92AA39B107D9F72AE001
:1008C000AAE9B6E001C01D92A633B207E1F714E031
:1008D000CAE4D4E000E006C021970109802FFE01A0
:1008E0000E94AC27C934D10780E00807A9F70E940D
:1008F000241C0C94B82784CB0F931F93DC01ED913B
:10090000FC91068CF78DE02D19951F910F9108959C
:100910000F931F93DC01ED91FC91048CF58DE02D7C
:1009200019951F910F910895DC01ED91FC910084C0
:10093000F185E02D19942F923F924F925F926F9222
:100940007F928F929F92AF92BF92CF92DF92EF925F
:10095000FF920F931F93CF93DF9300D000D0CDB7BA
:10096000DEB72C017E836D836A015901C801FC82C8
:10097000EB824801841A950A97FE03C091948194F2
:10098000910835012D813E81621A730A77FE03C0FA
:10099000719461947108681479045CF43A2D2B2DDC
:1009A0005C01832F922F3D812E81DE82CD82C32E6A
:1009B000D22EAD81BE81AA16BB065CF43C2D2D2D36
:1009C0006C01832F922F3D812E81BE82AD82A32E9A
:1009D000B22E85012D813E81021B130B1C012C18A8
:1009E0003D0837FE03C0319421943108780117FF88
:1009F00003C03FEFE31AF30AF594E794C816D9064B
:100A00002CF08FEF9FEF9A83898304C0A1E0B0E0C0
:100A1000BA83A9832D813E81A216B30624F1D201A7
:100A2000ED91FC910484F585E02D2B813C816814C7
:100A3000790424F44D815E81B60103C0A6016D8165
:100A40007E81C2011995E218F308F7FE06C02981DC
:100A50003A81C20ED31EE00EF11E8D819E81019659
:100A60009E838D83D7CF26960FB6F894DEBF0FBE38
:100A7000CDBFDF91CF911F910F91FF90EF90DF904D
:100A8000CF90BF90AF909F908F907F906F905F902E
:100A90004F903F902F9008950F931F93CF93DF9324
:100AA000DC0155968C915597823071F0833009F1B5
:100AB000813009F08CC01496ED91FC911597E41BE0
:100AC000F50BE21BF30B20C01496ED91FC911597EA
:100AD000CF01861B970BBC01615071091696ED91F1
:100AE000FC911797CF01841B950BAC01421B530B54
:100AF0006EC01696ED91FC911797CF01861B970B50
:100B0000BC0161507109FA0177FD1BC116968D91E8
:100B10009C911797681779070CF013C1F7FF04C071
:100B20002E0F3F1FE0E0F0E014968D919C911597F9
:100B3000AF01420F531F841795071CF49C012E1B15
:100B40003F0B121613060CF0FCC0CB0177FD079685
:100B500043E0959587954A95E1F79695982F8827D4
:100B600097958795E80FF91FEE5FFD4F6770772720
:100B700081E090E001C0880F6A95EAF7482F0130C4
:100B8000110541F088F00230110509F0DAC02E0F8E
:100B90003F1F15C02E0F3F1FE217F30709F4D1C006
:100BA0008081842B8193F8CF80952E0F3F1FE21711
:100BB000F30709F4C6C0908198239193F8CFE21708
:100BC000F30709F4BEC0808184278193F8CF77FDB5
:100BD000B8C014968D919C911597681779070CF001
:100BE000B0C057FF04C0240F351F40E050E01696F8
:100BF0008D919C911797FA01E20FF31F8E179F07B3
:100C00001CF49C01241B350B121613060CF099C022
:100C1000A22F842F86958695869590E8899F600DF2
:100C2000711D1124FB01EE5FFD4F4770A9F198E0A3
:100C3000941B492F50E0EA01C45CD94F88812917E1
:100C400090F4421B51092FEF30E002C035952795F3
:100C50004A95E2F782230130110541F068F0023035
:100C6000110589F06EC00130110519F42081822B25
:100C70000CC00130110520F480952081822305C02D
:100C80000230110531F4208182278083A91708F4EE
:100C900058C0A91BE058FF4FA83048F10230110599
:100CA00059F4EF018A2F988190959883C058DF4FAF
:100CB00088508830C0F730C081E00130110509F05C
:100CC00080E08195EF019A2F8883C058DF4F9850BC
:100CD0009830D0F788EF8A0F86958695869590E8AC
:100CE000899FE00DF11D1124E058FF4FA770AA2342
:100CF00041F1B0E0AC5CB94F8C910130110529F0A5
:100D000038F002301105E9F419C09081892B18C020
:100D100080959081892314C088EF8A0F86958695E7
:100D2000869590E8899FE00DF11D1124E058FF4F52
:100D3000A77039F0B0E0AC5CB94F8C9190818927F5
:100D40008083DF91CF911F910F9108950F931F938F
:100D5000CF93DF93DC01FB0155968C915597823040
:100D600089F0833021F1813009F0E7C014968D912C
:100D70009C911597BC01641B750BAB014150510947
:100D8000BF011DC014966D917C911597CB018E1BF0
:100D90009F0BFC0116968D919C911797BC01641BCB
:100DA000750BAB0141505109E21BF30BC6C01696FF
:100DB0006D917C9117976E1B7F0B621B730B57FD18
:100DC0001BC114968D919C911597481759070CF0EB
:100DD00013C177FF04C0260F371F60E070E016963E
:100DE0008D919C911797FB01E20FF31F8E179F07C0
:100DF0001CF49C01261B370B121613060CF0FCC0CA
:100E0000A22F862F86958695869590E8899F400D1E
:100E1000511D1124FA01EE5FFD4F6770A9F198E0B2
:100E2000961B492F50E0EA01C45CD94F88812917ED
:100E300090F4421B51092FEF30E002C03595279501
:100E40004A95E2F782230130110541F068F0023043
:100E5000110589F0D1C00130110519F42081822BD0
:100E60000CC00130110520F480952081822305C03B
:100E70000230110531F4208182278083A91708F4FC
:100E8000BBC0A91BE058FF4FA83048F10230110544
:100E900059F4EF018A2F988190959883C058DF4FBD
:100EA00088508830C0F733C081E00130110509F067
:100EB00080E08195EF019A2F8883C058DF4F9850CA
:100EC0009830D0F788EF8A0F86958695869560E8EA
:100ED000869FE00DF11D1124E058FF4FA770AA2353
:100EE00009F48AC0B0E0AC5CB94F8C9101301105B7
:100EF00031F040F00230110509F07EC01BC0908136
:100F0000892B03C0809590818923808375C088EFE9
:100F10008A0F86958695869570E8879FE00DF11D6E
:100F20001124E058FF4FA77009F466C0B0E0AC5C34
:100F3000B94F8C9190818927E8CF57FD5DC01696F7
:100F40008D919C911797481759070CF055C0F7FFE2
:100F500004C02E0F3F1FE0E0F0E014968D919C91AD
:100F60001597BF01620F731F861797071CF49C012A
:100F70002E1B3F0B121613060CF03EC0CA0157FD84
:100F8000079663E0959587956A95E1F79695982F72
:100F9000882797958795E80FF91FEE5FFD4F4770FB
:100FA000552781E090E001C0880F4A95EAF7482F65
:100FB0000130110539F078F002301105E9F42E0FF7
:100FC0003F1F13C02E0F3F1FE217F307A9F08081C8
:100FD000842B8193F9CF80952E0F3F1FE217F307E3
:100FE00059F0908198239193F9CFE217F30721F0FC
:100FF000808184278193F9CFDF91CF911F910F9149
:101000000895FC0177FD9AC080859185681779075E
:101010000CF094C057FD92C08285938548175907FC
:101020000CF08CC08589823009F07CC08481958168
:10103000DC01A61BB70BBD01615071098681978148
:10104000FC01E41BF50BAF01415051090AC081308E
:1010500041F484819581841B950BAB01BC016150E7
:1010600071092130310529F008F122303105E1F113
:101070000895FA0157FD3796A3E0F595E795AA95EF
:10108000E1F7F695FE2FEE27F795E7956E0F7F1F98
:10109000FB01EE5FFD4F4770552781E090E001C0F6
:1010A000880F4A95EAF79081892B3AC0FA0157FDDB
:1010B000379623E0F595E7952A95E1F7F695FE2F0B
:1010C000EE27F795E7956E0F7F1FFB01EE5FFD4F53
:1010D0004770552781E090E001C0880F4A95EAF7F4
:1010E0008095908189231CC0FA0157FD379683E0D3
:1010F000F595E7958A95E1F7F695FE2FEE27F7959A
:10110000E7956E0F7F1FFB01EE5FFD4F4770552780
:1011100081E090E001C0880F4A95EAF79081892725
:1011200080830895833009F092CF86819781861B52
:10113000970BBA01AC014150510993CF089508951E
:1011400080E090E008951F93CF93DF93EC01162F7A
:101150008C8D8F3F01F1EEA1FFA190818CA5892B91
:101160008083E8A5F9A590818DA58095892380834A
:10117000EEA1FFA190818CA5809589238083CE016B
:101180002ED5EEA1FFA190818CA5892B8083DF91C4
:10119000CF911F9108958A8D91E09093DA06809304
:1011A000FC061092DB061092FD0660E082E799E0F3
:1011B0000E94E014612F82E799E00E94E014DF9121
:1011C000CF911F91B0C4CF93DF93C62FD52F642F3B
:1011D0008BE997E00E9443136D2F8BE997E00E9403
:1011E00043136C2F8BE997E00E944313CAE08BE90D
:1011F00097E00E94CF128D9751F061E070E080E09F
:1012000090E00E948619C15091F780E001C081E012
:10121000DF91CF910895FC0120858481958122235F
:1012200011F0960F0895860F0895CF93DF93C62F80
:10123000D52F642F88E398E00E9443136D2F88E335
:1012400098E00E9443136C2F88E398E00E944313B8
:10125000CAE088E398E00E94CF128D9751F061E0D8
:1012600070E080E090E00E948619C15091F780E024
:1012700001C081E0DF91CF910895CF93DF93DC012E
:10128000EB01E881F98190E089E0692F70E06E1749
:101290007F070CF5869F9001879F300D11242A0F40
:1012A0003B1FE901C453DF4F68814617B0F0229617
:1012B0006881641790F021976881561770F0229624
:1012C0006881651750F0F901E553FF4F8081815027
:1012D000808380E004C081E002C09F5FD6CFDF91B1
:1012E000CF910895CF92DF92EF92FF921F93CF9309
:1012F000DF93CDB7DEB729970FB6F894DEBF0FBEE8
:10130000CDBF6C017B0110E0F7018281181748F511
:10131000612FC70180DFAC0199E0F701DE01119672
:1013200001900D929A95E1F7BE016F5F7F4FC60164
:10133000A4DF612F882331F0C7016DDFAC0163E0CA
:1013400070E005C0C70167DFAC0160E070E0C60176
:101350006CDF6FE070E080E090E00E9486191F5F14
:10136000D3CF29960FB6F894DEBF0FBECDBFDF9165
:10137000CF911F91FF90EF90DF90CF9008958091D3
:10138000B1069091B206892B91F58EE290E00E9411
:101390006926FC011382128220E830E03583248321
:1013A00080E490E0978386833187208793878287C4
:1013B000158A158614861786168681E0848B2FEF92
:1013C0003FEF338B228B318B208B868B178A118ECC
:1013D000108E8CE096E0918380838FEF848F80A3C2
:1013E000868F858F878FF093B206E093B106809148
:1013F000B1069091B2060895CF93DF93FC0161305E
:10140000710529F198F06230710509F042C0C08180
:10141000D18164E0CE010E946F1B82E190E09D8744
:101420008C879F878E876AEE72E02EC0C081D18143
:1014300064E0CE010E946F1B84E190E09D878C8761
:1014400082E190E09F878E8768ED72E01DC0C081C9
:10145000D18162E0CE010E946F1B8EE290E09D87F9
:101460008C878EE090E09F878E8766EE72E0CE01DB
:101470000E94A31B80E190E09D878C8787E290E02B
:101480009F878E876DED72E0CE010E94A31BCE0177
:10149000D3D368EE73E080E090E0DF91CF910C94BD
:1014A0008619CF92DF92EF92FF92CF93DF93EC01F8
:1014B0007B0188810E94F418892BF9F489810E94AC
:1014C000F418892BD1F48A810E94F418892BA9F48D
:1014D00086E011C00E94BE19DC01CB018C199D0968
:1014E000AE09BF09843F9140A105B105D8F18FEC49
:1014F00092E006D381E090E09AC086E0E816F1041D
:1015000039F788810E94F418019751F489810E946B
:10151000F418892B29F48A810E94F418892B89F008
:1015200088810E94F418892B11F589810E94F41892
:101530000197E9F48A810E94F418892B09F450C0BC
:1015400016C00E94BE196B017C0188810E94F418AC
:10155000019709F0BFCF6AE070E080E090E00E9460
:101560008619F3CF84EC92E0CBD280E0C4CF88819F
:101570000E94F418892B09F05AC089810E94F4183E
:10158000892B09F054C08A810E94F418019709F050
:101590004EC00E94BE196B017C018A810E94F41822
:1015A000019739F46AE070E080E090E00E948619CB
:1015B000F4CF0E94BE19DC01CB018C199D09AE0944
:1015C000BF09843F9140A105B10528F082EA92E06D
:1015D00097D285E090CF86E992E092D284E08BCFDB
:1015E0000E94BE196B017C0189810E94F418019749
:1015F00039F46AE070E080E090E00E948619F4CF50
:101600000E94BE19DC01CB018C199D09AE09BF09EE
:10161000843F9140A105B10528F089EB92E070D29A
:1016200083E069CF8CEA92E06BD282E064CFDF91F5
:10163000CF91FF90EF90DF90CF9008952F923F923F
:101640004F925F926F927F928F929F92AF92BF92D2
:10165000CF92DF92EF92FF920F931F93CF93DF937E
:10166000CDB7DEB766970FB6F894DEBF0FBECDBF1D
:101670005C018B016A0189E0FB01DE01119601909A
:101680000D928A95E1F7BE016F5F7F4FC5012ADE9B
:1016900086E0E82EF12CC5018B509F4F9C8B8B8BE5
:1016A0009EE0292E312CF501E950FF4FFE8BED8B8A
:1016B000F801808191818230910509F452C0E0F4F3
:1016C0000097C1F1019709F083C0F801448055806B
:1016D00066807780EB89FC898080918062E0C4011C
:1016E0000E946F1B84E090E0F40195878487378621
:1016F000268667EF72E062C08330910509F448C026
:10170000049709F065C0F8014480558066807780B1
:10171000EB89FC898080918062E0C4010E946F1B8C
:101720008AE090E0F401958784873786268664E115
:1017300073E044C0F8014480558066807780EB896F
:10174000FC898080918062E0C4010E946F1B86E169
:1017500090E0F40195878487378626866FEE72E0E5
:101760002DC0F8014480558066807780EB89FC8924
:101770008080918062E0C4010E946F1B86E190E04E
:10178000F401958784873786268662E073E016C069
:10179000F8014480558066807780EB89FC898080E1
:1017A000918062E0C4010E946F1B8AE090E0F40126
:1017B00095878487378626866AE073E0C4010E9495
:1017C000A31B9601A301B201C4010CD5C40134D2FC
:1017D000B701ED89FE898081918163DE7C010697E6
:1017E00009F466CF89E0F801DE011A9601900D92A6
:1017F0008A95E1F7912C8C85981668F5692DCE01B4
:101800000A9609DDAC0199E0FE013A96DE011196D7
:1018100001900D929A95E1F7BE016F5F7F4FC50170
:101820002CDD692D882339F0CE010A96F4DCAC0159
:1018300064E070E006C0CE010A96EDDCAC0163E026
:1018400070E0C501F2DC6FE070E080E090E00E94A3
:1018500086199394D0CF82E0E816F10441F5F8019F
:10186000208597818681222381F04581941B292F31
:1018700030E0280F311D2A3031050CF072C0848110
:10188000980F9683478310866CC0F8014481841BAF
:10189000282F30E0290F311D2A3031050CF061C0AE
:1018A0009581890F8783468381E080875AC0E11440
:1018B000F10431F5C114D10481F4F8019481992324
:1018C00009F44FC08681282F30E02B3031050CF011
:1018D00048C091509483815025C0F1E0CF16D104C7
:1018E00009F03FC0F80195819923D9F18781282F0C
:1018F00030E02B303105ACF591509583815023C0F9
:10190000F4E0EF16F10409F5C114D10469F4F8010B
:101910008681282F30E0293031051CF594819F5FA6
:1019200094838F5F86831DC0F1E0CF16D104C9F484
:10193000F8018781282F30E02930310594F4958112
:101940009F5F95838F5F87830CC0F3E0EF16F104F0
:10195000B1F081E0E816F104A9F095E0E916F10490
:10196000A1F089E0F801DE01119601900D928A95AF
:10197000E1F7BE016F5F7F4FC501B4DC99CE83E014
:1019800090E005C081E090E002C085E090E06696BE
:101990000FB6F894DEBF0FBECDBFDF91CF911F9180
:1019A0000F91FF90EF90DF90CF90BF90AF909F90FE
:1019B0008F907F906F905F904F903F902F90089501
:1019C000CF93DF938091AF069091B006892BD9F425
:1019D00083E090E00E946926EC0187E3888388E336
:1019E000898389E38A8360E087E30E944A1960E083
:1019F00089810E944A1960E08A810E944A19D09325
:101A0000B006C093AF068091AF069091B006DF910B
:101A1000CF9108958091AD069091AE06892B41F447
:101A200081E090E00E9469269093AE068093AD0617
:101A30008091AD069091AE060895CF92DF92EF921D
:101A4000FF92CF93DF93EC016A017B01E889F9896A
:101A500082E080834115514E61057105B1F060E06F
:101A600079E08DE390E0A70196010E948A27DA01D0
:101A7000C9010197A109B109B695A79597958795D1
:101A80009C01211580E13807A8F0E889F9891082C6
:101A900060E874E88EE190E0A70196010E948A2731
:101AA000DA01C9010197A109B109B695A7959795E2
:101AB00087959C01EC85FD853083EE85FF8520832D
:101AC000188EEC89FD8986E08083EA89FB89808114
:101AD00080618083EA89FB89808188608083EA89CC
:101AE000FB89808180688083EA89FB8980818F7D82
:101AF0008083DF91CF91FF90EF90DF90CF9008959A
:101B0000CF93DF93BC0185ED98E00E94A31BEC010D
:101B100063E876E085ED98E00E94C71B8C0F9D1F5F
:101B2000DF91CF9108953091FD06313208F04BC01E
:101B30008091D9068111FCCF9091FC0622E0209380
:101B4000D90621E02093D8062FEF2093D7061092D4
:101B5000D6063093D506ECEDF6E0A5EBB6E020E036
:101B6000321721F041914D932F5FFACF1092B406B6
:101B70002091B406990F922B9093B4069091B306DE
:101B8000913061F41092B3069091B4069093BB002B
:101B90009091BC0093FDF8CF95EC01C095EE909329
:101BA000BC009091D9069230E1F39091D7069F3F07
:101BB00079F08091D706803241F08091D70680334A
:101BC00031F084E005C081E003C082E001C083E021
:101BD0001092DB061092FD061092DA060895FC01C1
:101BE00081A1882339F06EBD00000DB407FEFDCF42
:101BF0008EB5089528E030E090E8A4A1B5A14C91FD
:101C000083A5809584238C93A2A1B3A182A5462F9E
:101C1000492319F04C91842B03C04C918095842367
:101C20008C93A4A1B5A14C9183A5842B8C939695FC
:101C30002150310911F708959F92AF92BF92CF9230
:101C4000DF92EF92FF920F931F93CF93DF93EC01FC
:101C500061E279DA60E0CE0176DA6FE7CE0173DA1D
:101C600062E2CE0170DA60E0CE016DDA67E0CE01AB
:101C70006ADA8C8D8F3F41F1EEA1FFA190818CA596
:101C8000892B8083E8A5F9A590818DA5892B808378
:101C9000EEA1FFA190818CA580958923808302E02D
:101CA00012E022E0E22E26E0F22EF80161918F018F
:101CB000CE0195DFE016F106C1F7EEA1FFA19081FC
:101CC0008CA5892B80832EC0E090B8008CE0809397
:101CD000B80002E012E092E0A92E96E0B92E992415
:101CE00093948A8D9092DA068093FC061092DB061C
:101CF0001092FD0660E482E799E062D6680180E117
:101D0000F82EF60161916F0182E799E059D6FA94B5
:101D1000F110F7CF08DF005F1F4FA016B10609F7DB
:101D2000E092B800DF91CF911F910F91FF90EF905B
:101D3000DF90CF90BF90AF909F900895CF92DF92A9
:101D4000EF92FF920F931F93CF93DF936B01770F67
:101D5000EE08FF08F7FE1FC0EC01E881F981019051
:101D6000F081E02D6DE219958C0144275527BA01C9
:101D70004C195D096E097F092AE0CE010E94DC1B27
:101D8000800F911FDF91CF911F910F91FF90EF90E6
:101D9000DF90CF9008952AE0B701A601DF91CF919F
:101DA0001F910F91FF90EF90DF90CF900C94DC1B70
:101DB0002F923F924F925F926F927F928F929F925B
:101DC000AF92BF92CF92DF92EF92FF920F931F9349
:101DD000CF93DF93CDB7DEB76B970FB6F894DEBF26
:101DE0000FBECDBF9B8F8A8F5B011A01D22E1F833E
:101DF0000E833701C982DC0158962D913C91599789
:101E00002115310509F0E6C018968D919C9119971E
:101E1000681779070CF0CDC11A968D919C911B978C
:101E2000481759070CF0C5C18C2C912CFB0126E0FA
:101E3000C29EE00DF11D1124FB87EA871E161F06C6
:101E40000CF0B7C1A40183E0440F551F8A95E1F758
:101E50005D874C87CA01820D931D181619060CF078
:101E6000A8C157968C91811104C05FEA5D1508F4F2
:101E7000D394AA8DBB8DED91FC9111970284F385CB
:101E8000E02DCD011995B5E0DB9EC0011124F501CF
:101E90003596FF87EE87BB82AA8225019C012A190D
:101EA0003B09398B288BA101485F5F4F5B8B4A8BC5
:101EB000E889F989E40DF51DEE5CFC4F54915887D3
:101EC00061013D822C82888580FF13C0AA8DBB8D65
:101ED000ED91FC91B981B13031F40484F585E02DA8
:101EE0002E813F8116C00684F785E02DEE80FF80AD
:101EF0001AC0EE81FF81E615F705F1F0AA8DBB8DC2
:101F0000ED91FC91B981B13051F40484F585E02D57
:101F10009301A601B2018A8D9B8D19950DC006848F
:101F2000F785E02D7301840194014C815D816A8104
:101F30007B818A8D9B8D1995E885E695E887FFEF73
:101F4000CF1ADF0A2C813D81280D391D3D832C835A
:101F50004A895B89C416D50609F0B5CF5FEF451AEB
:101F6000550A8A819B81880D991D9B838A83AE8542
:101F7000BF854A165B0609F09BCFEE81FF81E6150F
:101F8000F70509F4F4C0EA8DFB8DA081B181F981D8
:101F9000F13079F4B5016B5F7F4F5096ED91FC9174
:101FA0005197830128E030E0A1018A8D9B8D19951E
:101FB000DEC06A857B85681979091E96ED91FC91D2
:101FC0001F9773010C851D859401A1018A8D9B8D3E
:101FD0001995CDC0F9013496E491DE1AF9013296D3
:101FE00085919491B7E0DB9E800D911D1124F9013C
:101FF000259134913B8B2A8BFC0125913491290149
:10200000FC013296C490319634913E8732961491F9
:102010003196D4904981423058F0612E012E000C47
:1020200077088D2D0D2C000C990B9987888704C09B
:1020300019861886612C712CAA8DBB8DED91FC91AF
:1020400011970284F385E02DCD011995B9818B2E6E
:10205000912C689CC001699C900D789C900D112476
:10206000FC01EA0DFB1DFD87EC871A82712C612CA7
:10207000E12F110FFF0B95012E0F3F1F3B872A8782
:10208000AC0CB11CA5014E0F5F1F5F8B4E8BC101C5
:102090008D0D911DD7FC9A95998F888F9E85691615
:1020A00008F065C0862D90E048855985480F591F76
:1020B000489D9001499D300D589D300D1124D1014E
:1020C000A20FB31FB98BA88BEC85FD85FD83EC8334
:1020D000AA84BB84DA80FA85DF1A288D398D280F0F
:1020E000391F3D8B2C8B8D2D8A0D4E895F89A4164F
:1020F000B506C1F1877041F4C2010196EA89FB89F6
:10210000E40DF51D74902C0177FE21C0AA8DBB8DC6
:10211000ED91FC91B981B13061F40484F585E02D35
:102120002E813F814C895D89B5018A8D9B8D1995E2
:102130000EC00684F785E02DEE80FF8084019401B7
:10214000488959896C817D818A8D9B8D1995770C81
:10215000EFEFAE1ABE0A2C813D81280D391D3D835B
:102160002C83C1CF3A813C0D3A83639497CFAA8DDB
:10217000BB8DED91FC9111970688F789E02DCD017B
:102180006B960FB6F894DEBF0FBECDBFDF91CF9137
:102190001F910F91FF90EF90DF90CF90BF90AF9085
:1021A0009F908F907F906F905F904F903F902F9077
:1021B00019946B960FB6F894DEBF0FBECDBFDF91BA
:1021C000CF911F910F91FF90EF90DF90CF90BF9034
:1021D000AF909F908F907F906F905F904F903F90C7
:1021E0002F9008958F929F92AF92BF92CF92DF92DD
:1021F000EF92FF920F931F93CF93DF93EC01A72EE3
:10220000B52E4901E1E4DE2ED60EF1E4CF2EC40E48
:1022100089E0781369C058136BC0232B89F4EE242E
:10222000E394F12C00E110E02CE030E046E250E0D5
:1022300069E070E0CE01F1D41B8A1A8A198A188AE3
:102240008AE090E09D878C8787E290E09F878E8769
:102250006D2DCE01ABD581E090E09B8B8A8B998B65
:10226000888B8A94892889F4EE24E394F12C00E188
:1022700010E028E130E046E250E065E170E0CE0198
:10228000CCD41B8A1A8A198A188A86E190E09D8725
:102290008C8707E210E01F870E876AE070E0CE01AE
:1022A0004DDD81E090E09B8B8A8B998B888B88E257
:1022B00090E09D878C871F870E876DE273E0CE01CB
:1022C0000E94A31B82E590E09D878C871F870E8765
:1022D0006C2DCE016BD58EE590E09D878C871F8796
:1022E0000E876AE070E03EC188E0871708F068C09A
:1022F00088E08B1508F4CBC08114910489F4EE2496
:10230000E394F12C00E110E02CE030E046E250E0F4
:102310006FE070E0CE0181D41B8A1A8A198A188A6C
:1023200080E190E09D878C8787E290E09F878E8791
:102330006D2DCE013BD581E090E09B8B8A8B998BF4
:10234000888B8A94892889F4EE24E394F12C00E1A7
:1023500010E028E130E046E250E06BE170E0CE01B1
:102360005CD41B8A1A8A198A188A8CE190E09D87AE
:102370008C8707E210E01F870E876A2D70E06F5F81
:102380007F4FCE01DBDC81E090E09B8B8A8B998BC9
:10239000888B8EE290E09D878C871F870E8768E28E
:1023A00073E0CE010E94A31B88E590E09D878C8797
:1023B0001F870E876C2DCE01F9D484E690E0CAC049
:1023C00088E0851708F063C0232B89F4EE24E3949A
:1023D000F12C00E110E02CE030E046E250E06FE04C
:1023E00070E0CE011AD41B8A1A8A198A188A80E1F1
:1023F00090E09D878C8787E290E09F878E876D2D88
:10240000CE01D4D481E090E09B8B8A8B998B888B12
:102410008A94892889F4EE24E394F12C00E110E0F9
:102420002CE030E046E250E06BE170E0CE01F5D305
:102430001B8A1A8A198A188A8CE190E09D878C87FA
:1024400007E210E01F870E876A2D70E06F5F7F4FF5
:10245000CE0174DC81E090E09B8B8A8B998B888B1A
:1024600082E290E09D878C871F870E8763E273E08E
:10247000CE010E94A31B8CE490E09D878C871F8770
:102480000E876C2DCE0192D488E590E063C0811454
:10249000910489F4EE24E394F12C00E110E02CE0A7
:1024A00030E046E250E065E170E0CE01B6D31B8A31
:1024B0001A8A198A188A86E190E09D878C8787E2BC
:1024C00090E09F878E876D2DCE0170D481E090E0E3
:1024D0009B8B8A8B998B888B8A94892889F4EE242C
:1024E000E394F12C00E110E02CE030E046E250E013
:1024F00061E270E0CE0191D31B8A1A8A198A188A88
:1025000082E290E09D878C8707E210E01F870E87AC
:102510006A2D70E06F5F7F4FCE0110DC81E090E0AC
:102520009B8B8A8B998B888B88E290E09D878C8728
:102530001F870E876EE173E0CE010E94A31B82E528
:1025400090E09D878C871F870E876C2DCE012ED43F
:102550008EE590E09D878C871F870E876B2D70E03E
:102560006F5F7F4FCE01DF91CF911F910F91FF9051
:10257000EF90DF90CF90BF90AF909F908F90DECB89
:10258000FC01538D448D252F30E0842F90E0821B79
:10259000930B541710F0CF96089501970895FC01FE
:1025A000918D828D981761F0828DDF01A80FB11D8A
:1025B0005D968C91928D9F5F9F73928F90E00895AE
:1025C0008FEF9FEF0895FC01918D828D981731F068
:1025D000828DE80FF11D858D90E008958FEF9FEFBC
:1025E0000895FC01918D228D892F90E0805C9F4F92
:1025F000821B91098F73992708958EEF96E0F1DF82
:1026000021E0892B09F420E0822F08958BE997E0DF
:10261000E8DF21E0892B09F420E0822F089588E388
:1026200098E0DFDF21E0892B09F420E0822F089574
:1026300085ED98E0D6DF21E0892B09F420E0822F98
:102640000895FC01848DDF01A80FB11DA35ABF4F6F
:102650002C91848D90E001968F739927848FA689A1
:10266000B7892C93A089B1898C91837080648C93F5
:10267000938D848D981306C00288F389E02D8081A4
:102680008F7D80830895EF92FF920F931F93CF93D6
:10269000DF93EC0181E0888F9B8D8C8D981305C0B2
:1026A000E889F989808185FD25C0F62E0B8D10E023
:1026B0000F5F1F4F0F731127E02E8C8DE8120BC098
:1026C0000FB607FCFACFE889F989808185FFF5CF3D
:1026D000CE01B7DFF2CF8B8DFE01E80FF11DE35A7B
:1026E000FF4FF0829FB7F8940B8FEA89FB898081B6
:1026F00080620AC09FB7F894EE89FF896083E889F9
:10270000F98980818370806480839FBF81E090E03D
:10271000DF91CF911F910F91FF90EF900895CF938C
:10272000DF93EC01888D8823C1F0EA89FB898081E1
:1027300085FD05C0A889B9898C9186FD0EC00FB6AC
:1027400007FCF5CF808185FFF2CFA889B9898C91EC
:1027500085FFEDCFCE0175DFE8CFDF91CF910895F2
:1027600080E090E0892B19F063DF811116C080E0D2
:1027700090E0892B19F053DF811112C080E090E0C6
:10278000892B19F043DF81110EC080E090E0892B86
:1027900079F033DF81110AC008950E940000E7CF6D
:1027A0000E940000EBCF0E940000EFCF0C940000CD
:1027B000089590E0FC013197E231F10508F04EC038
:1027C0008827EE58FF4F8F4F0C94AC2780918000E4
:1027D0008F7703C0809180008F7D80938000089563
:1027E00080918000877FF9CF84B58F7702C084B550
:1027F0008F7D84BD08958091B0008F7703C0809154
:10280000B0008F7D8093B0000895809190008F7705
:1028100007C0809190008F7D03C080919000877FDA
:102820008093900008958091A0008F7707C08091D9
:10283000A0008F7D03C08091A000877F8093A000BF
:102840000895809120018F7707C0809120018F7DAE
:1028500003C080912001877F8093200108953FB7B6
:10286000F89480912E0A90912F0AA091300AB0918D
:10287000310A26B5A89B05C02F3F19F00196A11D6E
:10288000B11D3FBFBA2FA92F982F8827820F911D06
:10289000A11DB11DBC01CD0142E0660F771F881F4D
:1028A000991F4A95D1F7089585ED8093BC008091DA
:1028B000BC0084FDFCCF1092D90608954091060A11
:1028C000262F30E0240F311D21323105DCF4209118
:1028D000D9062430C9F4FC0180E090E0861758F452
:1028E0003091060A2191DC01AA51B64FA30FB11D08
:1028F0002C930196F3CF8091060A680F6093060A25
:1029000080E0089581E0089582E008950895089593
:102910000895E0919F0680919E06E81730F4F0E05C
:10292000EA53F64F808190E008958FEF9FEF08956E
:1029300090919F0680919E06981750F4E92FF0E041
:10294000EA53F64F208130E09F5F90939F0602C0CC
:102950002FEF3FEFC901089580919E0690E02091EE
:102960009F06821B91090895CF92DF92EF92FF920A
:102970000F931F93CF93DF937C01CB018A012091AA
:10298000DA06222389F0EB016B01C40ED51ECC15AB
:10299000DD0561F06991D701ED91FC910190F08125
:1029A000E02DC7011995F3CF642F88DFC801DF91AF
:1029B000CF911F910F91FF90EF90DF90CF900895EE
:1029C000CF93DF931F92CDB7DEB769832091DA06EC
:1029D0002223D1F02091FD06203240F021E030E0AA
:1029E000FC013383228380E090E014C08091DB06F9
:1029F000E82FF0E0E452F94F998190838F5F809344
:102A0000DB068093FD0604C061E0CE01019656DF2F
:102A100081E090E00F90DF91CF9108950895FC013F
:102A20006370658B8481958126813781613039F0AF
:102A3000633029F091878087338722870895318713
:102A400020879387828708956F927F928F929F92BB
:102A5000AF92BF92CF92DF92EF92FF920F931F93AC
:102A6000CF93DF93EC014B015A0169013801E881F2
:102A7000F9810284F385E02D1995E881F9810288B6
:102A8000F389E02D87019601A501B401CE011995C6
:102A9000A501460D571D41505109E881F981028871
:102AA000F389E02D9601B401CE011995E881F981F1
:102AB0000088F189E02D9301A501B401CE0119959B
:102AC000C80CD91CB60161507109E881F9810088F0
:102AD000F189E02D9301A501CE011995E881F981D5
:102AE0000688F789E02DCE01DF91CF911F910F91DC
:102AF000FF90EF90DF90CF90BF90AF909F908F901E
:102B00007F906F9019948F929F92AF92BF92CF92C5
:102B1000DF92EF92FF920F931F93CF93DF934C01BD
:102B20006B015A01E901DC01ED91FC916217730719
:102B300081F40417150724F48B2D5801042F182F46
:102B40000A191B0998012F5F3F4F048CF58DE02D6A
:102B500012C04017510709F52617370724F48D2DA9
:102B60006901C62FD82F9E012C193D092F5F3F4FB9
:102B7000068CF78DE02D8701A501B601C4011995DA
:102B8000DF91CF911F910F91FF90EF90DF90CF9049
:102B9000BF90AF909F908F9008950284F385E02DB1
:102BA0001995D401ED91FC910488F589E02D9E01E1
:102BB000A501B601C4011995D401ED91FC910688D7
:102BC000F789E02DC401DF91CF911F910F91FF9004
:102BD000EF90DF90CF90BF90AF909F908F9019941F
:102BE000EF92FF920F931F93DC011A960D911C91A7
:102BF0001B9718962D913C911997ED91FC9100A08F
:102C0000F1A1E02D7B0140E050E060E070E019951B
:102C10001F910F91FF90EF9008954F925F926F92E6
:102C20007F928F929F92AF92BF92CF92DF92EF925C
:102C3000FF920F931F93CF93DF936C012B015A01E7
:102C400039014801DC01ED91FC910284F385E02D0E
:102C50001995E201640C751CD601ED91FC91C61525
:102C6000D7055CF40088F189E02D87019401A50166
:102C7000BE01C60119952196EFCF0688F789E02D90
:102C8000C601DF91CF911F910F91FF90EF90DF90E0
:102C9000CF90BF90AF909F908F907F906F905F90FC
:102CA0004F9019948F929F92AF92BF92CF92DF92E2
:102CB000EF92FF920F931F93CF93DF93EC015B0191
:102CC0004A016901E881F9810284F385E02D1995B3
:102CD00095012C0D3D1D21503109E881F9810488B1
:102CE000F589E02D78018401A401B501CE01199583
:102CF000E881F9810688F789E02DCE01DF91CF9137
:102D00001F910F91FF90EF90DF90CF90BF90AF9009
:102D10009F908F9019948F929F92AF92BF92CF9273
:102D2000DF92EF92FF920F931F93CF93DF93EC010B
:102D30005B014A0169017801E881F9810284F38528
:102D4000E02D1995C80CD91C860101501109E881A4
:102D5000F9810488F589E02D9501A401B501CE0122
:102D60001995E881F9810688F789E02DCE01DF9178
:102D7000CF911F910F91FF90EF90DF90CF90BF9078
:102D8000AF909F908F901994EF92FF920F931F93A3
:102D9000DC01ED91FC9100A0F1A1E02D19951F91AE
:102DA0000F91FF90EF9008950E94B427AF92BF92C9
:102DB000CF92EF92FF920F931F93CF93DF93EC018B
:102DC000262F888D998D009709F040C06A3059F4FC
:102DD0001D861C862C898E859F8538E0239F800D5B
:102DE000911D112441C06D3009F4AAC08E89882339
:102DF000C1F03C898C859D8546E0349F800D911DF6
:102E0000112448855985481759075CF41D861C868E
:102E10008E859F8548E0349F800D911D11249F87EA
:102E20008E87EA88FB88088919894E855F856C85BD
:102E30007D85CC88CE010E94D80E2C898C859D85FD
:102E400036E0239F800D911D112442C06A3079F431
:102E50001D861C862C89FC013696E4918E859F8503
:102E60002E9F800D911D11249F878E8769C06D3024
:102E700009F466C0FC0134963491631708F460C00D
:102E80003196E491E61708F45BC0FC013296659137
:102E90007491422F50E0431B510937E0349F500199
:102EA000359FB00C1124A60EB71EF5013296349151
:102EB0003196E491332311F0E1110DC0F501349600
:102EC000E4912C898C859D85E29F800D911D1124B4
:102ED0009D878C8735C0F501359644915E895523D1
:102EE00011F16C89E32FF0E0E40FF11D47FDFA9535
:102EF0006E9FD0016F9FB00D11244C855D854A0FE8
:102F00005B1FE885F985E417F5076CF41D861C86C0
:102F1000FC013696E4918E859F856E9F800D911DF4
:102F200011249F878E87EA88FB88088919894E8536
:102F30005F856C857D85CC88CE010E94D80EBECF82
:102F400081E090E0DF91CF911F910F91FF90EF9082
:102F5000CF90BF90AF9008951F920F920FB60F922F
:102F600011240BB60F922F933F934F935F936F9360
:102F70007F938F939F93AF93BF93EF93FF938EEFC6
:102F800096E05FDBFF91EF91BF91AF919F918F91A1
:102F90007F916F915F914F913F912F910F900BBE59
:102FA0000F900FBE0F901F9018951F920F920FB6A3
:102FB0000F9211240BB60F922F933F934F935F9371
:102FC0006F937F938F939F93AF93BF93EF93FF93F1
:102FD0008EEF96E09FD3FF91EF91BF91AF919F91BC
:102FE0008F917F916F915F914F913F912F910F90B2
:102FF0000BBE0F900FBE0F901F9018951F920F924F
:103000000FB60F9211240BB60F922F933F934F934D
:103010005F936F937F938F939F93AF93BF93EF9340
:10302000FF938BE997E00DDBFF91EF91BF91AF919B
:103030009F918F917F916F915F914F913F912F91D0
:103040000F900BBE0F900FBE0F901F9018951F9200
:103050000F920FB60F9211240BB60F922F933F933E
:103060004F935F936F937F938F939F93AF93BF9390
:10307000EF93FF938BE997E04DD3FF91EF91BF91D1
:10308000AF919F918F917F916F915F914F913F9100
:103090002F910F900BBE0F900FBE0F901F901895A1
:1030A0001F920F920FB60F9211240BB60F922F930F
:1030B0003F934F935F936F937F938F939F93AF93C0
:1030C000BF93EF93FF9388E398E0BBDAFF91EF9112
:1030D000BF91AF919F918F917F916F915F914F9130
:1030E0003F912F910F900BBE0F900FBE0F901F902E
:1030F00018951F920F920FB60F9211240BB60F92D4
:103100002F933F934F935F936F937F938F939F93EF
:10311000AF93BF93EF93FF9388E398E0FBD2FF91C7
:10312000EF91BF91AF919F918F917F916F915F913F
:103130004F913F912F910F900BBE0F900FBE0F90AC
:103140001F9018951F920F920FB60F9211240BB675
:103150000F922F933F934F935F936F937F938F9330
:103160009F93AF93BF93EF93FF9385ED98E069DA58
:10317000FF91EF91BF91AF919F918F917F916F914F
:103180005F914F913F912F910F900BBE0F900FBE0B
:103190000F901F9018951F920F920FB60F92112447
:1031A0000BB60F922F933F934F935F936F937F9341
:1031B0008F939F93AF93BF93EF93FF9385ED98E029
:1031C000A9D2FF91EF91BF91AF919F918F917F9184
:1031D0006F915F914F913F912F910F900BBE0F9088
:1031E0000FBE0F901F901895CF93DF93282F30E0DC
:1031F000F901E45BF74F8491F901EE5DFE4FD49144
:10320000F901EE57FE4FC491CC2389F08111D1DA38
:10321000EC2FF0E0EE0FFF1FEE5CF74FA591B4919D
:10322000EC91ED2381E090E021F480E002C080E0A9
:1032300090E0DF91CF9108951F93CF93DF93282FD4
:1032400030E0F901E45BF74F8491F901EE5DFE4F48
:10325000D491F901EE57FE4FC491CC23B9F0162F4B
:103260008111A7DAEC2FF0E0EE0FFF1FE859FE4FB7
:10327000A591B4919FB7F894111104C08C91D09589
:10328000D82302C0EC91DE2BDC939FBFDF91CF915E
:103290001F910895CF93DF9390E0FC01EE5DFE4F08
:1032A0002491FC01EE57FE4F8491882361F190E058
:1032B000880F991FFC01E85FFE4FC591D491FC0176
:1032C000E859FE4FA591B491611109C09FB7F894D8
:1032D0008881209582238883EC912E230BC0623055
:1032E00061F49FB7F8948881322F309583238883C7
:1032F000EC912E2B2C939FBF06C08FB7F894E881DA
:103300002E2B28838FBFDF91CF9108958F929F92AC
:10331000AF92BF92CF92DF92EF92FF926B017C014E
:103320009EDA4B015C01C114D104E104F104E9F01F
:1033300096DADC01CB0188199909AA09BB09883EF4
:103340009340A105B10578F321E0C21AD108E10844
:10335000F10888EE880E83E0981EA11CB11CC114F0
:10336000D104E104F10421F7DECFFF90EF90DF906C
:10337000CF90BF90AF909F908F9008952FB7F89403
:1033800060912A0A70912B0A80912C0A90912D0A43
:103390002FBF08951F920F920FB60F9211242F93F3
:1033A0003F938F939F93AF93BF9380912A0A9091FD
:1033B0002B0AA0912C0AB0912D0A3091290A23E002
:1033C000230F2D3720F40196A11DB11D05C026E85D
:1033D000230F0296A11DB11D2093290A80932A0A6A
:1033E00090932B0AA0932C0AB0932D0A80912E0A59
:1033F00090912F0AA091300AB091310A0196A11D37
:10340000B11D80932E0A90932F0AA093300AB09397
:10341000310ABF91AF919F918F913F912F910F9062
:103420000FBE0F901F9018951F920F920FB60F921C
:1034300011240BB60F922F933F934F935F936F938B
:103440007F938F939F93AF93BF93EF93FF9380915D
:10345000B900887F803609F49CC068F5883209F489
:103460005BC090F4803109F454C038F4882309F427
:10347000F6C0883009F44DC0F5C0883109F44CC05D
:10348000803209F45DC0EEC0803409F468C048F4AD
:10349000803309F455C0883309F0E4C08093D7061F
:1034A000D8C0803509F44FC0883509F45DC0883430
:1034B00009F0D8C0D6C0883909F4C7C0A8F4883745
:1034C00009F467C038F4883609F463C0803709F41A
:1034D00060C0C8C0883809F4B8C0803909F45FC03A
:1034E000803809F0BFC05BC0803B09F486C038F467
:1034F000803A09F466C0883A09F47FC0B3C0803CC2
:1035000009F4A7C0883C09F4A4C0883B09F48AC028
:10351000A9C08091B40610C09091D6068091D506BE
:10352000981770F5E091D60681E08E0F8093D6064D
:10353000F0E0EB54F94F80818093BB0085EC86C0AE
:103540008093D7068EC0E091D60681E08E0F8093DF
:10355000D6068091BB00F0E0EB54F94F8083909148
:10356000D6068091D5066EC0E091D60681E08E0F1A
:103570008093D6068091BB00F0E0EB54F94F808336
:103580008091D80681116DC081E08093B30684EAF2
:1035900061C083E08093D9061092280ACFCF809132
:1035A000280A803208F051C0E091280A81E08E0F8D
:1035B0008093280A8091BB00F0E0E85FF54F80839C
:1035C000BDCF85EC8093BC001092D9068091280A6B
:1035D000803230F4E091280AF0E0E85FF54F108285
:1035E0006091280A70E0E0919A06F0919B0688E0CD
:1035F0009AE019951092280A35C084E08093D90684
:103600001092070A1092060AE0919C06F0919D061E
:1036100019958091060A811105C081E08093060A00
:103620001092E609E091070A81E08E0F8093070A65
:10363000F0E0EA51F64F80818093BB009091070A39
:103640008091060A981708F479CF85E88093BC002A
:1036500009C085EC8093BC001092D90603C010927B
:10366000D70622D9FF91EF91BF91AF919F918F9192
:103670007F916F915F914F913F912F910F900BBE72
:103680000F900FBE0F901F901895CF92DF92EF9280
:10369000FF920F931F93CF93DF936C017A018B01FD
:1036A000C0E0D0E0CE15DF0581F0D8016D918D012D
:1036B000D601ED91FC910190F081E02DC6011995A4
:1036C000892B11F02196EECF7E01C701DF91CF91BA
:1036D0001F910F91FF90EF90DF90CF900895FC0124
:1036E000611101C061E0648B81E090E0938B828B7B
:1036F000918B808B80E094E0E2E0F2E0DF019C01BE
:103700001D9221503040E1F70895682F8EEF96E02A
:103710000C944313FC01A089B1898C91A689B789C7
:1037200082FD0FC09C91818D8F5F8F73228D8217D8
:1037300049F0218DDF01A20FB11D5D969C93818F11
:1037400008958C910895EF92FF920F931F93CF935A
:10375000DF938C017B01C0E0D0E0F701EC0FFD1F8F
:103760006491662361F0D801ED91FC910190F081A4
:10377000E02DC8011995892B11F02196EECFCE01CD
:10378000DF91CF911F910F91FF90EF9008956115F8
:10379000710579F0FB0101900020E9F73197AF0145
:1037A000461B570BDC01ED91FC910280F381E02D6B
:1037B000199480E090E008958F929F92AF92BF920B
:1037C000EF92FF920F931F93CF93DF93CDB7DEB7A6
:1037D000A1970FB6F894DEBF0FBECDBF7C01FA01F2
:1037E000CB0119A2223008F42AE08E010F5D1F4F91
:1037F000822E912CA12CB12CBF01A50194010E9415
:103800008A27F901CA01015011096A3014F4605D78
:1038100001C0695CD8016C93232B242B252B61F705
:10382000B801C701B4DFA1960FB6F894DEBF0FBE92
:10383000CDBFDF91CF911F910F91FF90EF90BF907F
:10384000AF909F908F900895CF93DF93CDB7DEB761
:1038500066970FB6F894DEBF0FBECDBF789484B5DF
:10386000826084BD84B5816084BD85B5826085BD7C
:1038700085B5816085BD80916E00816080936E000A
:1038800010928100809181008260809381008091FC
:1038900081008160809381008091800081608093AD
:1038A00080008091B10084608093B1008091B0006D
:1038B00081608093B000809191008260809391003C
:1038C000809191008160809391008091900081604F
:1038D000809390008091A10082608093A1008091EC
:1038E000A10081608093A1008091A00081608093FD
:1038F000A0008091210182608093210180912101AB
:10390000816080932101809120018160809320015A
:1039100080917A00846080937A0080917A0082603E
:1039200080937A0080917A00816080937A00809100
:103930007A00806880937A001092C1001092C209C8
:103940001092C3091092C4091092C50910928009FF
:103950001092810910928209109283090FDD4B01A8
:103960005C016B017C0128EBC20E2BE0D21EE11C36
:10397000F11C04DD681579058A059B0528F0C6163B
:10398000D706E806F906A8F785ED98E09093C109F7
:103990008093C00940E855E260E070E00E941D0D90
:1039A000EDDC609380097093810980938209909384
:1039B000830964E776E08091C0099091C109E7DE50
:1039C000DDDC4B015C016B017C013AE0C30ED11CD4
:1039D000E11CF11CD3DC681579058A059B0528F0EC
:1039E000C616D706E806F906A8F7FF24F394F09266
:1039F000940940E855E260E070E085ED98E00E94AF
:103A00001D0D40E052EC61E070E088E398E00E9418
:103A10001D0D40E052EC61E070E08BE997E00E9400
:103A20001D0D40E056E960E070E08EEF96E00E94E8
:103A30001D0D0E94BF098C019093A6068093A506D8
:103A400082E0D8015B968C935B978CE35A968C93BB
:103A50005A975C968C915C978F3F09F4BBC061E0EC
:103A60005E968C9117DC61E0F80180A113DCD8012F
:103A700090968C919097082E000C990BFC01EE57B4
:103A8000FE4FE491F0E0EE0FFF1FE859FE4F259145
:103A90003491F80137A326A3FC01EE5DFE4FE491BB
:103AA0009C96EC939C975E968C915E97082E000CEA
:103AB000990BFC01EE57FE4FE491F0E0EE0FFF1F73
:103AC000E859FE4F25913491F80131A720A7FC0158
:103AD000EE5DFE4FE4919D96EC939D9791968C91AF
:103AE000919781113EC061E05C968C91D3DB61E0DF
:103AF000F801858DCFDBD8015D968C915D97082EFE
:103B0000000C990BFC01EE57FE4FE491F0E0EE0F34
:103B1000FF1FE859FE4F25913491F80135A324A3E6
:103B2000FC01EE5DFE4FE4919B96EC939B975C96B7
:103B30008C915C97082E000C990BFC01EE57FE4F00
:103B4000E491F0E0EE0FFF1FE859FE4F259134910C
:103B5000F80133A322A3FC01EE5DFE4FE4919A9697
:103B6000EC93F80181A1882309F464C0FFB6F894AE
:103B70008091A006811123C0E7EBF1E08491E7E595
:103B8000F1E09491E82FF0E0EE0FFF1FE85FFE4FA9
:103B9000A591B491EC91E92319F461E085E34CDB44
:103BA00061E085E377DB8CB580618CBD8CB580648A
:103BB0008CBD61E084E36EDB61E083E36BDB8091CD
:103BC000A0068F5F8093A006FFBE80E58CBD81E0DC
:103BD0008DBD30C010929F0610929E061092DB069B
:103BE0001092FD061092D906F092D8061092B306F4
:103BF00061E084E121DB61E085E11EDB8091B900B9
:103C00008E7F8093B9008091B9008D7F8093B90039
:103C100088E48093B80085E48093BC0086E894E152
:103C200090939D0680939C0687E894E190939B0671
:103C300080939A06D8015F968C9187FD19C061E048
:103C400029DB61E0F801878DF7DA61E070E080E060
:103C500090E05CDB60E0D8015F968C91EDDA6AE081
:103C600070E080E090E052DB61E0F801878DE4DAFB
:103C70006EEAC8010E94A30865EDC8010E94A3086E
:103C800060E8C8010E94A30868EAC8010E94A3086E
:103C90006FE3C8010E94A30863EDC8010E94A30856
:103CA00060E0C8010E94A30860E4C8010E94A30864
:103CB0006DE8C8010E94A30864E1C8010E94A3083E
:103CC00060E2C8010E94A30860E0C8010E94A30846
:103CD00061EAC8010E94A30868ECC8010E94A30819
:103CE0006AEDC8010E94A30862E1C8010E94A3080E
:103CF00061E8C8010E94A3086FECC8010E94A308F4
:103D000069EDC8010E94A30861EFC8010E94A308E1
:103D10006BEDC8010E94A30860E4C8010E94A308DB
:103D200064EAC8010E94A30866EAC8010E94A308C9
:103D30006EE2C8010E94A3086FEAC8010E94A308AE
:103D4000C090A506D090A60663E0C601C8DC712C21
:103D5000F2E0AF2EF2E0BF2E812CA4E09A2E672D68
:103D600070E0D6011A960D911C911B97C80117FDA2
:103D70000196959587956817790734F5CB01880FDB
:103D8000991F081B190BF60120853185281B390B5B
:103D9000EE24E394F12CAB01C6010E940D16C6017E
:103DA0000E941C0E62E370E080E090E0AFDAD50183
:103DB000F4011D923197E9F762E370E080E090E052
:103DC000A5DAF3E07F0ECBCF8CE090E0D6011D9614
:103DD0009C938E931C9786E090E01F969C938E9305
:103DE0001E976DEC71E0C601AEDC8EE190E0F6014D
:103DF0009587848727E2E22EF12CF786E68668EC29
:103E000071E0C601A0DCC6010E941C0E60ED77E0E7
:103E100080E090E07BDA0E94E00C0E940A0D909313
:103E2000A4068093A3060091A5061091A60662E061
:103E3000C80155DC36E1C32ED12CD8011D96DC9289
:103E4000CE921C978EE090E01F969C938E931E97C7
:103E50006CED71E0C80177DCF801D586C486F78681
:103E6000E68664ED71E0C8016EDCC8010E941C0E9C
:103E700085DA6B017C0110E0F8EECF0EF3E0DF1E77
:103E8000E11CF11C1F3109F423C678DA6C157D059D
:103E90008E059F05B8F31F5F71DA6B017C018EEF11
:103EA00096E00E94F112892B39F38EEF96E00E9482
:103EB000CF128135910501F788E398E00E94F11255
:103EC000181619062CF488E398E00E94CF12F4CF5C
:103ED00083E490E01ADC0091A5061091A60662E04A
:103EE000C801FDDB86E190E0D8011D969C938E937E
:103EF0001C978EE090E01F969C938E931E976CEF1C
:103F000071E0C80120DC82E190E0F80195878487A8
:103F100087E290E09787868763EF71E0C80113DC42
:103F2000C8010E941C0E8091A1069091A206892BC7
:103F300009F09AC089EC91E0CCD68C01FC01E253E7
:103F4000FF4F10861182108285E082838383148262
:103F5000158284E0868317823996108621E030E04E
:103F600031832083828383831482158283E0868356
:103F700017823996108622E030E0318320838283D5
:103F800083831482158292E0968317823996108675
:103F900023E030E03183208382838383148215827F
:103FA000968317823996108624E030E0318320838F
:103FB000928393831482158281E08683178278012D
:103FC000A8012AE064E070E080E090E0FA01E80FE8
:103FD000F91F77836683029684319105B9F72150E2
:103FE0004C5E5F4F2111F0CF0E94BF09F801E550F0
:103FF000FF4F918380830E94E00CF801E350FF4F54
:10400000918380832AE044E050E080E090E0FC016E
:10401000E150FF4FEE0DFF1D518340830296843126
:104020009105A9F72150F4E1EF0EF11C2111EDCF1C
:104030000E94BF09D8018D939C930E94E00CF80167
:10404000938382830E940A0DD80115969C938E93C8
:104050001497F801E953FE4F85E080833196808301
:104060001093A2060093A106A090A106B090A2060C
:10407000B092A806A092A7066501B6E0CB0ED11CAF
:10408000F501E550FF4F0081118162E0C80127DB97
:1040900084E090E0F801958784878EE090E0978730
:1040A00086876AE072E0C8014EDB85E290E0D801C5
:1040B0001D969C938E931C9787E290E01F969C938D
:1040C0008E931E9764E072E0C8013DDBC8010E9438
:1040D0001C0E6CED75E080E090E018D900E010E077
:1040E000B9E07B2E8AE0682E93E0892E912C709E99
:1040F0007001719EF00C1124B8ECEB0EF11CEC0C6D
:10410000FD1C40E050E0B701C6010E941E0B81304B
:104110009105B9F3059719F441E050E0F4CF709E92
:10412000F001719EF00D1124EA0DFB1DE253FF4FCB
:10413000DE011A96872D01900D928A95E1F7F12CF8
:104140008C85F816C8F46F2DCE010A960E940B09D3
:10415000AC0199E0FE013A96DE01119601900D92B4
:104160009A95E1F7BE016F5F7F4FC6010E943D093E
:104170008823A1F0F394E4CF709EF001719EF00DBE
:104180001124EA0DFB1DE253FF4FDE011196872D2E
:1041900001900D928A95E1F7F12C03C001501109AD
:1041A00020C08B81F816E8F46F2DCE0101960E9495
:1041B0000B09689EF0011124E90FF11DEE0FFF1F9E
:1041C000EA0DFB1D97828682AC0163E070E0C601B8
:1041D0000E94150964E170E080E090E097D8F394C4
:1041E000E0CF0F5F1F4F053011050CF480CFC6D80C
:1041F000672B682B692B39F4C1D8623071058105B2
:10420000910508F403C1BAD80091A9061091AA0635
:104210002091AB063091AC066017710782079307B7
:1042200040F46093A9067093AA068093AB0690931E
:10423000AC060091A9061091AA062091AB06309118
:10424000AC066B017C01C01AD10AE20AF30A97019D
:1042500086010A3F11052105310508F4D7C0609396
:10426000A9067093AA068093AB069093AC0684EFE0
:1042700091E0A0E0B0E080938C0990938D09A09329
:104280008E09B0938F0910929009109291091092A3
:104290009209109293098091840990918509A091C7
:1042A0008609B09187098093880990938909A09322
:1042B0008A09B0938B0962D8609384097093850949
:1042C000809386099093870959D8609380097093E9
:1042D0008109809382099093830950D86B017C01F6
:1042E00066E876E08091C0099091C10950DA2AE031
:1042F00041E050E060E070E08091C0099091C10918
:104300005BDA6DE876E08091C0099091C1093FDAEF
:104310002AE0B701A6018091C0099091C1094CDA49
:104320006FE876E08091C0099091C10930DA809100
:10433000840990918509A0918609B0918709B701F8
:10434000A601481B590B6A0B7B0B2AE08091C00920
:104350009091C10931DA6FE876E08091C0099091BF
:10436000C10915DA40918409509185096091860947
:10437000709187098091880990918909A0918A0993
:10438000B0918B09481B590B6A0B7B0B2AE080917B
:10439000C0099091C10910DA61E976E08091C00905
:1043A0009091C109F4D90E94BE19AB01BC012AE069
:1043B0008091C0099091C109FFD90091C009109165
:1043C000C10963E976E0C801E2D963E876E0C80193
:1043D000DED90E94BE194B015C016B017C0192E0A9
:1043E000C90ED11CE11CF11C0E94BE19681579058B
:1043F0008A059B0508F0A0C30E94BE19609384093A
:1044000070938509809386099093870980910002B3
:104410006090A7067090A806D3010D911C9162E0F0
:1044200080FDF2C1C8015BD949E2E42EF12CF8010C
:10443000F586E4865EE0C52ED12CD786C6866AE175
:1044400072E0C80180D9D8011D96FC92EE921C97AB
:10445000E7E2F0E01F96FC93EE931E9765E172E0B1
:10446000C80171D9C8010E941C0E6EEE72E080E096
:1044700090E00E9486194301FFEF8F0E911C40E0EF
:1044800050E063E070E0C4010E94E3086FE070E078
:1044900080E090E00E948619412C512C66E0E62EC7
:1044A000F12C7AE0D72ED3010D911C9162E0C80166
:1044B00016D92CE130E0F801358724878EE090E0B2
:1044C000978786876FE172E0C8013DD9E4E3F0E0A9
:1044D000D8011D96FC93EE931C9727E230E01F96BF
:1044E0003C932E931E9761E4650DC8010E94D61679
:1044F000E1E0F0E0D8015396FC93EE935297519689
:10450000FC93EE93509720E430E01D963C932E935D
:104510001C9787E290E01F969C938E931E97A42D84
:10452000B0E0BC8BAB8BBD016F5F7F4FC8010E94B9
:104530009E0E21E030E0F801338B228B318B208BF3
:10454000C8010E941C0EB701D30112968D919C9157
:1045500013970E94510A7C01069709F4A4CFE52D18
:10456000F0E0FE8BED8BEB89FC89D59CE00DF11D15
:104570001124EE0FFF1FE80DF91D60817181452D9B
:10458000542DC4010E94E3086FE070E080E090E0E9
:104590000E948619F2E0EF16F10461F4D3010D9147
:1045A0001C9185E0F82E98E0C92ED12C22E1A22E94
:1045B000B12C22C0E114F10429F4B8E0B51558F08B
:1045C00053940CC0E4E0EE16F10441F4F8E0F41565
:1045D00020F0439403C0512C01C0412C452D542D93
:1045E00063E070E0C4010E94E3086FE070E080E0E7
:1045F00090E00E94861957CF64E0C80170D8D801B6
:104600001D96DC92CE921C971F96BC92AE921E977E
:1046100066E272E0C80197D8C8010E941C0E68ECDF
:1046200070E080E090E00E948619E2E0F2E020E095
:1046300034E0119221503040E1F768EC70E080E006
:1046400090E00E948619C8010E941C0EFA94F11095
:10465000D3CFD3010D911C91F5E0BF2EA4E0CA2E5B
:10466000D12CB8E1EB2EF12C62E0C80138D8F8016A
:10467000D586C486F786E6866CE272E0C80163D808
:10468000C8010E941C0EBA94B110EECF0E94BE1950
:104690006B017C0110E0F0EDCF0EF7E0DF1EE11CB6
:1046A000F11C1B3091F10E94BE196C157D058E0521
:1046B0009F05B8F31F5F0E94BE196B017C01652D39
:1046C0008EEF96E00E944313642D8EEF96E00E94D9
:1046D00043130AE08EEF96E00E94CF128D9761F4AB
:1046E0008EEF96E00E94F1121816190674F48EEF00
:1046F00096E00E94CF12F4CF68EC70E080E090E08A
:104700000E948619015031F7C6CF0E94BE196B0175
:104710007C01B12C28EEC20E23E0D21EE11CF11C5C
:104720003FE1B31609F44BC00E94BE196C157D051C
:104730008E059F05A8F3B3940E94BE196B017C01FE
:104740008EEF96E00E94F112892B21F38EEF96E016
:104750000E94CF128C018EEF96E00E94F112181683
:1047600019062CF48EEF96E00E94CF12F4CF8DE262
:1047700090E00E94851B112702301105B1F054F41E
:1047800001151105D1F00130110521F622242394E1
:10479000312C15C00330110561F00430110509F00A
:1047A000B9CF54E0252E312C0AC072E0272E312CCF
:1047B00006C063E0262E312C02C0212C312CB10121
:1047C000C3010E94FC098AE0CD88DE888C9DF0013F
:1047D0008D9DF00D1124EB88FC88EE0DFF1DEE0F72
:1047E000FF1FE80DF91D31822082452D542DB101A6
:1047F000C4010E94E30821E02216310409F0F3C04D
:10480000F301E853FE4FECC0C8010E946F1B83E226
:1048100090E0F801958784873EE0C32ED12CD7869F
:10482000C6866CE372E0C8010E94A31B89E290E097
:10483000D8011D969C938E931C97E7E2F0E01F969B
:10484000FC93EE931E9767E372E0C8010E94A31BDE
:10485000C8010E941C0E6EEE72E080E090E00E94A3
:1048600086190E94BE196B017C01F8EECF0EF3E0B1
:10487000DF1EE11CF11C0E94BE196C157D058E0522
:104880009F05C8F30E94BE196B017C018EEF96E074
:104890000E94F11202974CF38EEF96E00E94CF1225
:1048A000C82E182F8EEF96E00E94CF12D82E082F18
:1048B0008EEF96E00E94F112181619062CF48EEF76
:1048C00096E00E94CF12F4CF8DE290E00E94851B0B
:1048D000730126E0E20EF11C8CE692E00E94800D4E
:1048E000F301E253FF4FC30185509F4F8E179F077F
:1048F000F9F02481121708F426C12681211708F443
:1049000022C12581021708F41EC12781201708F44F
:104910001AC1138183E592E00E94800D113009F0E5
:1049200014C186E492E00E94800D01E010E002C014
:1049300002E010E00E94BE194B015C01512C30EDE9
:10494000830E37E0931EA11CB11C8BE0581669F151
:104950000E94BE19681579058A059B05B0F353942A
:104960000E94BE194B015C01C8010E94851B2AE010
:10497000422E8EEF96E00E94CF128D9761F48EEF5B
:1049800096E00E94F112181619067CF48EEF96E05C
:104990000E94CF12F4CF68EC70E080E090E00E94BB
:1049A00086194A944110E5CFCACFB801C3010E94CD
:1049B000FC099AE0C99EF0011124ED0DF11DEE0FE6
:1049C000FF1FE60DF71D17830683A601B801C70177
:1049D0000E9415090130110531F4F301E953FE4F2E
:1049E0008081815080838091000290910102019624
:1049F00090930102809300028091A7069091A806EF
:104A0000FC01E953FE4F2081222389F131968081F8
:104A100081115BC00091A5061091A60663E0C80154
:104A20000E946F1B86E2E82EF12CD8011D96FC92A5
:104A3000EE921C9786E090E01F969C938E931E97B3
:104A400069E872E0C8010E94A31BF801F586E486BC
:104A500087E290E09787868765E872E0C8010E9448
:104A6000A31BC8010E941C0E8AE090E02DC000919B
:104A7000A5061091A60663E0C8010E946F1B86E29E
:104A800090E0D8011D969C938E931C9786E090E051
:104A90001F969C938E931E9762E972E0C8010E9454
:104AA000A31B8CE190E0F8019587848787E290E072
:104AB000978786876DE872E0C8010E94A31BC80132
:104AC0000E941C0E84E190E053D20E94B0138FCB61
:104AD0000091A5061091A60662E0C8010E946F1B16
:104AE00086E190E0D8011D969C938E931C978EE0F2
:104AF00090E01F969C938E931E976BEE71E0C80119
:104B00000E94A31B8CE190E0F8019587848787E2DF
:104B100090E09787868764EE71E0C8010E94A31B2E
:104B2000C8010E941C0E68EE73E080E090E00E94D5
:104B3000861984E991E0C8CFC616D706E806F906BB
:104B400008F052CC59CC3996D1CE82E492E00E9442
:104B5000800D00E010E0EECEEEEFF6E01382128260
:104B600088EE93E0A0E0B0E084839583A683B783CA
:104B700028E436E03183208345E351E055874487BC
:104B800044E351E05787468740E351E0518B408B27
:104B900041E351E0538B428B42E351E0558B448B10
:104BA00046E351E0578B468B118E128E138E148E76
:104BB000EBE9F7E01382128284839583A683B7839F
:104BC0003183208345ED50E05587448744ED50E024
:104BD0005787468740ED50E0518B408B41ED50E0C8
:104BE000538B428B42ED50E0558B448B46ED50E0A9
:104BF000578B468B118E128E138E148EE8E3F8E0DD
:104C00001382128284839583A683B78331832083A2
:104C10004DEC50E0558744874CEC50E05787468771
:104C200048EC50E0518B408B49EC50E0538B428B69
:104C30004AEC50E0558B448B4EEC50E0578B468B42
:104C4000118E128E138E148EE5EDF8E0138212820F
:104C500084839583A683B7833183208325EC30E05A
:104C60003587248724EC30E03787268720EC30E036
:104C7000318B208B21EC30E0338B228B22EC30E027
:104C8000358B248B26EC30E0378B268B118E128EE1
:104C9000138E148EE2E7F9E01382128284839583E7
:104CA000A683B78386E696E091838083EEE7F9E0FA
:104CB0001682178210861186128613861486158630
:104CC00016861786108A118A128A138A148A158A00
:104CD00008950F931F93CF93DF938230910510F4C3
:104CE00082E090E0E091340AF091350A20E030E073
:104CF000A0E0B0E0309719F1408151810281138129
:104D000048175907C8F08417950769F4109731F0D0
:104D100012960C93129713961C9327C00093340A93
:104D20001093350A22C02115310519F04217530797
:104D300018F49A01BD01EF01DF01F801DBCF211565
:104D40003105F9F0281B390B2430310580F48A81B4
:104D50009B816115710521F0FB019383828304C05F
:104D60009093350A8093340AFE01329644C0FE01C6
:104D7000E20FF31F819391932250310939832883E5
:104D80003AC02091320A3091330A232B41F420910A
:104D90000406309105063093330A2093320A20919D
:104DA0000206309103062115310541F42DB73EB7B7
:104DB0004091060650910706241B350BE091320AFC
:104DC000F091330AE217F307A0F42E1B3F0B2817CC
:104DD000390778F0AC014E5F5F4F2417350748F074
:104DE0004E0F5F1F5093330A4093320A8193919381
:104DF00002C0E0E0F0E0CF01DF91CF911F910F9171
:104E00000895CF93DF93009709F481C0FC01329796
:104E100013821282A091340AB091350A109781F45E
:104E200020813181820F931F2091320A3091330A01
:104E30002817390751F5F093330AE093320A67C017
:104E4000ED0120E030E0CE17DF0740F44A815B81BE
:104E50009E0141155105F1F0EA01F5CFD383C283DC
:104E600040815181840F951FC817D90759F4888153
:104E70009981840F951F0296918380838A819B81FB
:104E8000938382832115310529F4F093350AE09349
:104E9000340A3DC0E901FB83EA8349915991C40F6B
:104EA000D51FEC17FD0761F480819181840F951F58
:104EB0000296E90199838883828193819B838A8307
:104EC000E0E0F0E012968D919C911397009719F015
:104ED000FD01DC01F7CF8D919C9111979D012E5F13
:104EE0003F4F820F931F2091320A3091330A2817C7
:104EF000390769F4309729F41092350A1092340A70
:104F000002C013821282B093330AA093320ADF9157
:104F1000CF910895A1E21A2EAA1BBB1BFD010DC063
:104F2000AA1FBB1FEE1FFF1FA217B307E407F50759
:104F300020F0A21BB30BE40BF50B661F771F881F35
:104F4000991F1A9469F760957095809590959B01CB
:104F5000AC01BD01CF010895EE0FFF1F881F8BBF6D
:104F60000790F691E02D199481E090E0F89400C04C
:044F7000F894FFCFE3
:104F7400010000000000000000000000000000002C
:104F8400000000000000000000000000000000001D
:104F9400000000000000000000000000000000000D
:104FA40000000000000000000000000000000000FD
:104FB400008080800000000000000000000000006D
:104FC4000000008080C0C00000000000000000005D
:104FD40000000000000000000000000000000000CD
:104FE40000000000000000000000000000000000BD
:104FF40000000000000000000000000000000000AD
:1050040000000000000080C0E0F0F8FCF8E00000C0
:10501400000000000000000000000000000000800C
:1050240080808080008080000000008080808080FC
:1050340000FFFFFF0000000080808080000080806F
:10504400000080FFFF8080008080008080808000DE
:1050540080800000000000808000008C8E840000AE
:1050640080F8F8F880000000000000000000000054
:105074000000F0F0F0F0F0F0F0F0F0F0F0F0E0E02C
:10508400C08000E0FCFEFFFFFF7FFFFFFFFFFF008B
:1050940000000000000000000000000000FEFFC748
:1050A4000101010183FFFF00007CFEC70101010132
:1050B40083FFFFFF0038FEC78301010183C7FFFFA1
:1050C400000001FFFF010100FFFF070101010000D3
:1050D4007FFF80000000FFFF7F0000FFFFFF000054
:1050E40001FFFFFF010000000000000000000000BD
:1050F4000000030F3F7F7FFFFFFFFFFFFFFFE7C7B6
:10510400C78F8F9FBFFFFFC3C0F0FFFFFFFFFFFCF0
:10511400FCFCFCFCFCFCFCF8F8F0F0E0C000010333
:10512400030303030103030000000001030303035B
:105134000101030100000001030303030101030350
:10514400000000030300000003030000000000004F
:105154000001030303030301000000010301000035
:105164000003030100000000000000000000000034
:10517400000000000080C0E0F0F9FFFFFFFFFF3FE8
:105184001F0F87C7F7FFFF1F1F3DFCF8F8F8F87CD7
:105194007DFFFFFFFFFFFFFFFF7F3F0F0700303062
:1051A40000000000000000000000000000000000FB
:1051B400000000000000FEFEFC00000000000000F3
:1051C400000000000000000000000000000000E0FB
:1051D400C0000000000000000000000030300000AB
:1051E40000000000000000000000000000000000BB
:1051F400000000C0FEFFFFFFFFFFFFFFFFFF7F7FF8
:105204003F1F0F071F7FFFFFF8F8FFFFFFFFFFFEA1
:10521400F8E0000000010000000000000000FEFEB5
:10522400000000FCFEFC0C06060EFCF80000F0F882
:105234001C0E0606060CFFFFFF0000FEFE00000029
:1052440000FCFEFC00183C7E66E6CE84000006FFEF
:10525400FF0606FCFEFC0C0606060000FEFE00002F
:10526400C0F8FC4E4646464E7C7840183C76E6CE66
:10527400CC800000000000000000000000000000DE
:1052840000000000000001070F1F1F3F3F3F3F1FAA
:105294000F030000000000000000000000000F0FDA
:1052A4000000000F0F0F000000000F0F00000307A5
:1052B4000E0C18180C060F0F0F0000010F0E0C181F
:1052C4000C0F070100040E0C180C0F070000000F50
:1052D4000F00000F0F0F0000000000000F0F000070
:1052E4000007070C0C181C0C060600040E0C180C06
:1052F4000F07000000000000000000000000000094
:105304000000000000000000000000000000000099
:105314000000000000000000000000000000000089
:105324000000000000000000000000000000000079
:105334000000000000000000000000000000000069
:105344000000000000000000000000000000000059
:105354000000000000000000000000000000000049
:105364000000000000000000000000000000000039
:1053740000000000360A800000000000D616451B1D
:10538400A0089F08010888149404C41688047C04A7
:105394009B0488140F150E154C05A6060D16F01562
:1053A40083152415000103070F1F3F7F0080C0E011
:1053B400F0F8FCFE000000004313451BC0128F13DD
:1053C400F112CF12E31200000000D416451BA0080E
:1053D4009F0800000000E014B414A0088814AC1462
:1053E40098148914564D4450565F317C315F564DA4
:1053F4004450560D0A00564D4450455F003A323A27
:0A540400007C005F564D4450450047
:00000001FF
